:020000040800F2
:1000000070060020890100080F100008530F000837
:100010000D1000088F020008791000080000000091
:1000200000000000000000000000000013100008A5
:1000300091020008000000001110000815100008CF
:10004000A3010008A3010008A3010008A301000800
:10005000A3010008A3010008A3010008A3010008F0
:10006000A3010008A3010008A3010008A3010008E0
:10007000A3010008A3010008A3010008A3010008D0
:10008000A3010008A3010008A3010008A3010008C0
:10009000A3010008A3010008A3010008A3010008B0
:1000A000A3010008A3010008A3010008A3010008A0
:1000B000A3010008A3010008A3010008A301000890
:1000C000A3010008A3010008A3010008A301000880
:1000D000A3010008A3010008A3010008A301000870
:1000E000A3010008A3010008A301000800F002F822
:1000F00000F03AF80AA090E8000C82448344AAF188
:100100000107DA4501D100F02FF8AFF2090EBAE885
:100110000F0013F0010F18BFFB1A43F0010318473B
:10012000DC0F0000FC0F0000103A24BF78C878C133
:10013000FAD8520724BF30C830C144BF04680C60ED
:10014000704700000023002400250026103A28BF35
:1001500078C1FBD8520728BF30C148BF0B60704739
:100160001FB51FBD10B510BD00F058F81146FFF7C0
:10017000F7FF00F093FF00F076F803B4FFF7F2FF0B
:1001800003BC00F07DF8000009488047094800479B
:10019000FEE7FEE7FEE7FEE7FEE7FEE7FEE7FEE737
:1001A000FEE7FEE704480549054A064B7047000094
:1001B00077100008ED000008700000207006002095
:1001C00070020020700200204FF0000200B51346BC
:1001D00094469646203922BFA0E80C50A0E80C5067
:1001E000B1F12001BFF4F7AF090728BFA0E80C5018
:1001F00048BF0CC05DF804EB890028BF40F8042B11
:1002000008BF704748BF20F8022B11F0804F18BF7D
:1002100000F8012B7047704770477047754600F033
:100220002BF8AE4605006946534620F00700854688
:1002300018B020B5FFF7B6FFBDE820404FF000062C
:100240004FF000074FF000084FF0000B21F00701BE
:10025000AC46ACE8C009ACE8C009ACE8C009ACE801
:10026000C0098D46704710B50446AFF300802046A4
:10027000BDE81040FFF781BF004870471000002024
:1002800001491820ABBEFEE7260002007047FEE7DA
:100290007047000070B5044600F0D6F90546601CB2
:1002A00002D004480078044400F0CEF9401BA0427C
:1002B000FAD370BD000000202DE9F84F0026DFF8CA
:1002C0009CB20D460446B14658450FD0A44884421E
:1002D0000CD0A448844209D0A348844206D0A34845
:1002E000844203D0BD21A2A000F0D7FE28680104FB
:1002F000090C01D0000C03D0BE219DA000F0CDFE62
:100300006868DFF8A8A200281ED00128FCD01128B8
:10031000FAD00228F8D01228F6D05045F4D0A449DB
:100320008842F1D0A3498842EED0A3498842EBD05D
:10033000A2498842E8D0A2498842E5D00328E3D008
:10034000BF218BA000F0A9FE00E1012000FA06F811
:1003500007EA080747456FD15C450FD080488442C3
:100360000CD08048844209D07F48844206D07F4820
:10037000844203D0CD217EA000F08FFE6868A0EB00
:100380000A02504559D00EDC032875D006DC00283F
:1003900053D0012819D0022869D131E0112821D089
:1003A000122864D13AE0B2F5881F46D006DCB2F5D7
:1003B000803F42D0B2F5801F59D13EE0B2F5001F18
:1003C0003BD0B2F5041F52D137E0E868022807D0CD
:1003D000012805D0032803D0D52165A000F05DFEDB
:1003E000E8683EE0E868022807D0012805D0032825
:1003F00003D0DC215EA000F050FEE868001D30E074
:10040000E868022807D0012805D0032803D0E3219B
:1004100057A000F042FEE868083022E0E8680228B1
:1004200007D0012805D0032803D0EA2150A000F00E
:1004300034FEE8680C3014E087E0A86880B1012839
:1004400011D0022807D0F72149A000F026FEA868A5
:1004500030B1012807D04FF00809C4F8148006E035
:100460000420814603E04FF00809C4F81080FF2FF4
:1004700005D8214605E0FFE74FF00000F1E704F161
:1004800004014FEA860001D9A0F120000B684FF06B
:100490000F0202FA00FC23EA0C0309FA00FC43EA0B
:1004A0000C030B606868C0004FD54648816941F075
:1004B00001018161806926F0030100F001000090D4
:1004C00041480B189868B1074FEA117C02FA0CF208
:1004D00090435C4501D100210FE021498C4201D1BC
:1004E00001210AE01F498C4201D1022105E01E4989
:1004F0008C4201D1032100E0042101FA0CF10143F7
:1005000099606868C0023148016801D5394300E04C
:10051000B9430160686880022D48016801D53943FC
:1005200000E0B9430160686880032A48016801D58A
:10053000394300E0B94301606868C0032648016898
:1005400001D5394300E0B9430160761C2F6837FAC2
:1005500006F07FF4FAAEBDE8F88F00000008014015
:10056000000C01400010014000140140001801403F
:100570002E2E2F447269766572732F53544D333289
:10058000463178785F48414C5F4472697665722FD6
:100590005372632F73746D3332663178785F68619C
:1005A0006C5F6770696F2E6300000000000011101F
:1005B0000000211000003110000012100000221075
:1005C0000000321000100240000001400804014009
:1005D0000C040140040401400004014070B51546BC
:1005E0000C00064604D14FF4EA7108A000F055FD56
:1005F00045B1012D04D040F2D51104A000F04DFD0D
:10060000346170BD2004306170BD00002E2E2F4477
:100610007269766572732F53544D33324631787850
:100620005F48414C5F4472697665722F5372632F45
:1006300073746D3332663178785F68616C5F6770B0
:10064000696F2E6300000000014880687047000059
:1006500000000020024881680278114481607047E0
:1006600000000020074810B5016841F0100101604A
:10067000032000F097F80F2000F006F800F024F8AF
:10068000002010BD0020024070B50D4D04464FF40F
:100690007A712878B1FBF0F00A490968B1FBF0F0F3
:1006A00000F043FC48B9102C07D200222146501E0E
:1006B00000F028F800206C6070BD012070BD0000C3
:1006C000000000200C0000200C4808B5816941F0B2
:1006D00001018161816901F001010091C16941F06D
:1006E0008051C161C06900F08050009004484168A9
:1006F00021F0E06141F08061416008BD00100240DE
:100700000000014070B515460C460646102A03D37A
:10071000A92114A000F0C1FC102C03D3AA2111A020
:1007200000F0BBFC1E480068C0F30223C3F10702BF
:100730002046042A00D90422191D072901D20023CA
:1007400000E0DB1E012404FA02F1491E0140994039
:100750009C40641E2C4021433046BDE8704000F0B0
:100760008CBC00002E2E2F447269766572732F5355
:10077000544D3332463178785F48414C5F4472695A
:100780007665722F5372632F73746D3332663178CE
:10079000785F68616C5F636F727465782E630000C8
:1007A0000CED00E010B5044607280BD0062C09D04C
:1007B000052C07D0042C05D0032C03D0912108A0D0
:1007C00000F06BFC154904F0070208684FF6FF03C0
:1007D000184040EA0220124A1043086010BD000091
:1007E0002E2E2F447269766572732F53544D333217
:1007F000463178785F48414C5F4472697665722F64
:100800005372632F73746D3332663178785F686129
:100810006C5F636F727465782E6300000CED00E00E
:100820000000FA052DE9F0470F46050078D028684A
:10083000C1070AD1810708D4410706D4000704D4B0
:1008400040F236316FA000F028FC47B1012F06D0EE
:10085000022F04D040F237316AA000F01EFC774E20
:10086000306800F00700B84209D2306820F0070075
:1008700038433060306800F00700B84277D128680C
:100880006F4C810729D5400703D5606840F4E060CC
:1008900060602878000703D5606840F460506060AD
:1008A000A868A0B1802812D0902810D0A0280ED01F
:1008B000B0280CD0C0280AD0D02808D0E02806D014
:1008C000F02804D040F25D314EA000F0E6FB6068F5
:1008D000A96820F0F000084360602878C00737D08E
:1008E000686868B101281CD002281DD04FF45971E6
:1008F00044A000F0D2FB6868012812D0022813D06F
:1009000020688007002832DA6068696820F00300F8
:1009100008436060FFF798FE804641F2883910E096
:1009200025E020688003EDE720688001EAE700BF4A
:10093000FFF78AFEA0EB0801494502D90320BDE874
:10094000F0876068696800F00C00B0EB810FEFD1B0
:10095000306800F00700B8420BD9306820F007007B
:1009600038433060306800F00700B84201D0012001
:10097000E5E728784FF4806640074FF4A0674FF40E
:10098000C0684FF4E06914D5E86860B1B0420AD09D
:10099000B84208D0404506D0484504D040F2A231C4
:1009A00018A000F07AFB6068E96820F4E060084372
:1009B00060602878000715D5286960B1B0420AD078
:1009C000B84208D0404506D0484504D040F2A9318D
:1009D0000CA000F062FB6068296920F4605040EAD6
:1009E000C100606000F034F86168164AC1F3031179
:1009F000515CC8401449086014480068FFF744FE81
:100A000000209CE72E2E2F447269766572732F5357
:100A1000544D3332463178785F48414C5F447269B7
:100A20007665722F5372632F73746D33326631782B
:100A3000785F68616C5F7263632E63000020024020
:100A400000100240EA1000080C0000200400002002
:100A50000E4A51680E4801F00C03042B11D0082BEC
:100A60000FD10C48C1F38343C903C05C0AD5516858
:100A7000084AC1F34041921E515C054A5043B0FB05
:100A8000F1F07047044948437047000000100240ED
:100A900000127A00DA10000800093D002DE9F84F35
:100AA00004007DD0FA4EFB4D20684FF0010A4FF054
:100AB00000084FF4803960B1C1070DD1810762D4BD
:100AC00001076ED440076DD440F26511F2A000F02A
:100AD000E4FA2078C00753D060684FF4A02740B1F3
:100AE000484506D0B84204D040F26B11EAA000F0AD
:100AF000D4FA6868C0F38100012807D06868C0F3A1
:100B00008100022809D16868C00306D528688003DF
:100B100036D560680028C4D032E06068484503D10B
:100B2000286840F4803009E008B1B8420DD0286848
:100B300020F480302860286820F4802028606068D5
:100B400088B1FFF781FD074609E0286840F480205E
:100B50002860E5E7FFF778FDC01B642877D8286890
:100B60008003F7D50CE0FFF76FFD074605E000BFF7
:100B7000FFF76AFDC01B6428F0D828688003F7D40B
:100B8000207880074ED5206930B1012804D040F28A
:100B90009F11C1A000F081FA60691F2808D902E006
:100BA00096E042E07BE04FF4D071BBA000F075FA14
:100BB000686810F00C0F07D06868C0F38100022845
:100BC00009D16868C00306D42868800714D5206955
:100BD00001287DD110E02069B0B1C6F800A0FFF770
:100BE00033FD074605E000BFFFF72EFDC01B0228BE
:100BF000B4D828688007F7D52868616920F0F80024
:100C000040EAC10028600DE0C6F80080FFF71CFD37
:100C1000074604E0FFF718FDC01B02289ED828688D
:100C20008007F7D42078000736D5A94FA06920B3F4
:100C3000012806D04FF4F07197A000F02EFAA069B9
:100C4000D8B1C7F800A0FFF7FFFC074605E054E164
:100C5000FFF7FAFCC01B02288ED8686A8007F7D518
:100C60009C484FF4FA510068B0FBF1F0009000BFCF
:100C70000098411E0091FAD20EE0C7F80080FFF7FD
:100C8000E3FC074605E000BFFFF7DEFCC01B0228BF
:100C9000AED8686A8007F7D4207840076ED5E06840
:100CA000002740B1012806D0052804D040F20F21CA
:100CB00079A000F0F2F9E869C00008D4E86940F0D2
:100CC0008050E861E869012700F08050009000E062
:100CD00027E181480168C90512D4016841F4807197
:100CE0000160FFF7B1FC834606E000BFFFF7ACFCF4
:100CF000A0EB0B00642891D877480068C005F5D5B3
:100D0000E06801280AD008B1052811D0286A20F02F
:100D100001002862286A20F0040002E0286A40F0FE
:100D200001002862E068A8B1FFF78EFC83460DE061
:100D3000286A40F004002862F0E700BFFFF784FC57
:100D4000A0EB0B0141F28830814285D8286A8007E8
:100D5000F4D50EE0FFF778FC834607E0FFF774FC5C
:100D6000A0EB0B0141F28830814291D8286A8007BC
:100D7000F4D41FB1E86920F08050E861E0690028F0
:100D80007ED0012809D0022807D040F2AD2142A030
:100D900000F083F9E069002872D06868C0F3810030
:100DA0000228E0696DD0022805D0C6F86080FFF700
:100DB0004BFC0446A4E0206A30B1484504D040F220
:100DC000B62135A000F069F9606A70B3B0F5802FE4
:100DD0002BD0B0F5002F28D0B0F5402F25D0B0F59E
:100DE000801F22D0B0F5A01F1FD0B0F5C01F1CD0AF
:100DF000B0F5E01F19D0B0F5001F16D0B0F5101FE8
:100E000013D0B0F5201F10D0B0F5301F0DD0B0F5C5
:100E1000401F0AD0B0F5501F07D0B0F5601F04D0B6
:100E200040F2B7211CA000F038F9C6F86080FFF747
:100E30000BFC074605E000BFFFF706FCC01B0228BD
:100E40005BD828688001F7D4206A48450FD1A06894
:100E500038B1B0F5003F04D040F2CD210EA000F033
:100E60001CF96868A16820F4003008436860D4E980
:100E700008010843696821F474110843686001E0BF
:100E800051E041E0C6F860A0FFF7DEFB04462AE02F
:100E900000004242001002402E2E2F4472697665F7
:100EA00072732F53544D3332463178785F48414C3A
:100EB0005F4472697665722F5372632F73746D335A
:100EC00032663178785F68616C5F7263632E6300AD
:100ED000800442420C00002000700040FFF7B4FB89
:100EE000001B022809D828688001F7D51BE000BF45
:100EF000FFF7AAFB001B022802D90320BDE8F88FE8
:100F000028688001F4D40EE00128F7D06868226ACE
:100F100000F48031914204D1616A00F4701088427B
:100F200001D00120EAE70020E8E710B5401EB0F14B
:100F3000807F01D3012010BD4FF0E02460610F21BC
:100F4000601700F09AF80020A061072020610020BF
:100F500010BDFEE770B586B00024284800940194C7
:100F600002940394816941F010018161816901F06B
:100F700010010491816941F020018161816901F0D2
:100F800020010491816941F004018161816901F0CE
:100F900004010491816941F0080181618069184E62
:100FA00000F008004FF40055049000222946304616
:100FB000FFF714FB01200095CDE901040220039006
:100FC00069463046FFF778F94FF440400324CDE9F5
:100FD000000469463046FFF76FF94FF6FF75CDE91B
:100FE000005469460748FFF767F9CDE900546946A0
:100FF0000548FFF761F906B070BD0000001002401F
:101000000010014000080140000C0140FEE7FEE72F
:1010100070477047FFF71EBB30B58FB02821684678
:10102000FFF7D2F814210AA8FFF7CEF8012108042F
:10103000CDE900100024029402250491CDE9075067
:101040004FF4E01009906846FFF728FD08B172B62A
:10105000FEE70F20CDE90A054FF48060CDE90C4092
:1010600002210AA80E94FFF7DDFB002801D072B61A
:10107000FEE70FB030BD7047FEE70907090E0028F4
:1010800004DB00F1E02080F80014704700F00F004E
:1010900000F1E02080F8141D70477047FFF7E2FA76
:1010A000FFF7BAFFFFF756FF0A4C4FF400564FF414
:1010B000FA75002231462046FFF790FA2846FFF7DE
:1010C000E9F8012231462046FFF788FA2846FFF763
:1010D000E1F8EEE7001001400102020304050607F3
:1010E00008090A0B0C0D0E0F101000000000000084
:1010F0000000010203040607080900001C11000893
:101100000000002010000000280100082C11000839
:1011100010000020600600004401000801000000EB
:0C11200010000000000000000024F4009B
:04000005080000ED02
:00000001FF
