:020000040800F2
:10000000F00C0024B1020008B33100087D2900087B
:10001000B1310008BF0300083148000800000000AB
:10002000000000000000000000000000794200080D
:100030004904000800000000B53100087B420008B8
:10004000CB020008CB020008CB020008CB0200085C
:10005000CB020008CB020008CB020008CB0200084C
:10006000CB020008CB020008CB020008CB0200083C
:10007000CB020008CB020008CB020008CB0200082C
:10008000CB020008CB020008CB020008CB0200081C
:10009000CB020008CB020008CB020008CB0200080C
:1000A000CB020008CB020008CB020008CB020008FC
:1000B000CB020008CB020008CB020008CB020008EC
:1000C000CB020008CB020008CB020008CB020008DC
:1000D000CB020008CB020008CB020008CB020008CC
:1000E000CB020008CB02000800000000CB02000891
:1000F000CB020008CB020008CB020008CB020008AC
:10010000CB020008CB020008CB020008CB0200089B
:10011000CB020008CB020008CB020008CB0200088B
:10012000CB020008CB020008CB020008CB0200087B
:10013000CB020008CB020008CB020008CB0200086B
:1001400000000000000000000000000000000000AF
:10015000CB020008CB020008CB020008CB0200084B
:10016000CB020008CB020008CB020008CB0200083B
:10017000CB020008CB020008CB020008CB0200082B
:10018000CB020008CB020008CB020008CB0200081B
:10019000CB020008CB020008CB020008CB0200080B
:1001A000CB020008CB020008CB020008CB020008FB
:1001B000CB020008CB020008CB020008CB020008EB
:1001C000CB020008CB020008CB020008CB020008DB
:1001D000CB020008CB020008CB020008CB020008CB
:1001E000CB020008CB020008CB020008CB020008BB
:1001F000CB020008CB020008CB020008CB020008AB
:10020000CB020008CB020008CB020008CB0200089A
:10021000CB020008CB020008CB020008CB0200088A
:10022000CB020008CB020008CB020008000000004F
:10023000CB020008CB02000800000000CB0200083F
:10024000CB020008CB020008CB020008CB0200085A
:10025000CB020008CB020008CB020008CB0200084A
:10026000CB020008CB020008CB020008CB0200083A
:10027000CB020008CB020008CB02000800000000FF
:10028000CB020008CB020008CB02000800000000EF
:1002900000000000CB020008DFF810D000F05EF88C
:1002A00000480047D94E0008AFF30080F00C00244E
:1002B0000648804706480047FEE7FEE7FEE7FEE700
:1002C000FEE7FEE7FEE7FEE7FEE7FEE77D43000808
:1002D00099020008D2B201E000F8012B491EFBD2BE
:1002E00070470022F6E710B513460A460446194641
:1002F000FFF7F0FF204610BD2DE9F05F0546002016
:1003000092469B4688460646814640241BE0284686
:1003100041464746224600F042F853465A46C01A24
:10032000914110D311461846224600F029F82D1AA3
:1003300067EB01084F4622460120002100F020F81B
:1003400017EB00094E41201EA4F10104DFDC4846F2
:1003500031462A464346BDE8F09F0000064C074D53
:1003600006E0E06840F0010394E807009847103485
:10037000AC42F6D3FFF794FFB8860008D886000891
:10038000202A04DB203A00FA02F100207047914055
:10039000C2F1200320FA03F3194390407047202A4A
:1003A00004DB203A21FA02F00021704721FA02F31F
:1003B000D040C2F120029140084319467047FEE741
:1003C0001F4B0020F0B51968890311D4BFF34F8F7C
:1003D000BFF36F8F1B490860BFF34F8FBFF36F8F61
:1003E000196841F400311960BFF34F8FBFF36F8F6D
:1003F0001968C90323D4124970310860BFF34F8FC5
:10040000081F43F6FF7400680E4D1035C0F34E31DF
:10041000C0F3C90204EA4116104600BF46EA8077DD
:100420002F60401EFAD2491EF4D2BFF34F8F1868D6
:1004300040F480301860BFF34F8FBFF36F8FF0BD73
:1004400014ED00E050EF00E070474FF4FA70014601
:1004500002F0ECBC70B5044600F03CF90546601CA7
:1004600002D004480078044400F034F9401BA04254
:10047000FAD370BD940000242DE9F84F03247D4D7C
:1004800000234FF001094FF0B04B4FF00F0AE9E0A5
:1004900009FA03F73A4076D00E7906F00306012EEA
:1004A00001D0022E18D1D0F808C04FEA430ECE6812
:1004B00004FA0EF82CEA080C06FA0EF646EA0C06C8
:1004C0008660D0F804C00E792CEA070CC6F300163B
:1004D0009E4046EA0C0646600E79F643B6070BD0FE
:1004E000C6684FEA43088F6804FA08FC26EA0C063F
:1004F00007FA08F73743C7600E7906F00306022EA5
:1005000012D1DE080F694FEA437C00EB8606B6463F
:10051000366A4FEADC6C0AFA0CF807FA0CF726EA9E
:1005200008063743CEF820700F7906684FEA430873
:1005300007F0030704FA08FC07FA08F726EA0C0696
:10054000374307604E6816F4403F1CD04A4E376868
:1005500047F00207376036689F0706F002060096EC
:1005600023F0030606F1B046B6463F0FD6F80864FE
:10057000DFF808810AFA07FC404526EA0C0603D199
:100580004FF0000C41E06CE0DFF8F4C0604502D1B0
:100590004FF0010C39E0DFF8ECC0604502D14FF0BC
:1005A000020C32E0DFF8E0C0604502D14FF0030CEE
:1005B0002BE0DFF8D8C0604502D14FF0040C24E0F6
:1005C000DFF8CCC0604502D14FF0050C1DE0DFF82C
:1005D000C4C0604502D14FF0060C16E0DFF8B8C089
:1005E000604502D14FF0070C0FE0DFF8B0C0604566
:1005F00002D14FF0080C08E0DFF8A4C0604502D13A
:100600004FF0090C01E04FF00A0C0CFA07FC4CEA21
:10061000060CCEF808C44F68DBF80060FF0226EA3B
:10062000020600D516435F46CBF80060D1F804C03F
:10063000DBF804605FEA8C2C26EA020600D516433C
:100640007E606E684F6826EA0206BF0300D5164337
:100650006E602E684F6826EA0206FF0300D5164337
:100660002E605B1C0A6832FA03F67FF411AFBDE816
:10067000F88F000080000058F4440258000002582F
:100680000004025800080258000C025800100258DA
:100690000014025800180258001C0258002002588A
:1006A000002402580069084000D0012070470AB1B8
:1006B000816170470904FBE702480068C0F30B0042
:1006C000704700000010005C01480068000C704793
:1006D0000010005C0148806870470000940000240E
:1006E00002488168027811448160704794000024B8
:1006F000032010B500F0C6F800F00CFF0F4A1049B7
:1007000014681368C4F3032203F00F038A5CC95C06
:1007100002F01F0201F01F01D0400A4A20FA01F145
:10072000116009490860002000F010F808B10120AC
:1007300010BD00F079F8002010BD000018440258E8
:10074000A7860008A4000024A000002470B50D4D69
:1007500004462878A0B14FF47A71B1FBF0F00A4951
:100760000968B1FBF0F001F0EBFE48B9102C07D29C
:1007700000222146501E00F065F800206C6070BD1C
:10078000012070BD94000024A0000024F0B5154C99
:100790004378211D0A1D23600378F3B143680B6081
:1007A000057BC67A817A437B2D07847B45EA066503
:1007B000C77B90F809C0067A90F800E045EAC1408E
:1007C00040EA834040EA444040EA074040EA0C20C7
:1007D00040EA460040EA0E0001E000200860106098
:1007E000F0BD000098ED00E0BFF35F8F04480021EA
:1007F0000368034A23F4803303607032116070474A
:1008000024ED00E0074A40F0010006497032106014
:10081000086840F480300860BFF34F8FBFF36F8FDC
:100820007047000024ED00E0054808B5016841F07C
:1008300002010160006800F00200009008BD0000A5
:10084000F44402580E4BF0B41B680D46C3F3022368
:10085000C3F10706042E00D90426191D072901D269
:10086000002300E0DB1E012404FA06F19C40491E2F
:100870002940641E994014402143F0BC03F0EEBFB0
:100880000CED00E0064900F0070210B54FF6FF043A
:100890000868044B204040EA02201843086010BD5D
:1008A0000CED00E00000FA05134970B50A68D24368
:1008B000520705D5096801F00701814213D118E0FC
:1008C0000A6822F0070202430A60FFF703FF0A4D9D
:1008D0004FF47A760446083D07E000BFFFF7FAFEC2
:1008E000001BB04201D9012070BD2868C0438004BC
:1008F000F4D4002070BD00000C4802580248016882
:1009000041F4807101607047004802582DE9FE4FA4
:100910000546DFF8E48350F8081B0024F64FC9436E
:10092000019005F12800264608F1240800900801EE
:100930001DD4A86E50B1B0F5801F0CD0B0F5001FCB
:100940000ED0B0F5401F1ED001240FE0386840F4EF
:100950000030386017E00198022102F02DFC03E01E
:100960000098022102F0B8FC04000CD0264628882A
:10097000C043C00523D4A86D05281ED2DFE800F0CF
:100980000C11161B1B00AA6ED8F8001021F44011A0
:100990001143C8F80010EAE7386840F400303860C6
:1009A00009E00198002102F007FC03E00098002113
:1009B00002F092FC044674B100E001242646288827
:1009C000C043800528D4E86D80281ED00CDC90B18F
:1009D00040280ED114E0AA6DD8F8001021F00701CC
:1009E0001143C8F80010EAE7C02813D0B0F5807FA3
:1009F00010D001240FE0386840F40030386009E07E
:100A00000198002102F0D8FB03E00098002102F0D9
:100A100063FC04469CB126462888DFF8DC92C0437C
:100A200009F12C0940052CD4D5F8A800B0F5800FA9
:100A300020D00DDCA0B1B0F5001F0FD115E0EA6D9C
:100A4000D8F8001021F4E0711143C8F80010E3E772
:100A5000B0F5C00F13D0B0F5000F10D001240FE097
:100A6000386840F40030386009E00198002102F055
:100A7000A3FB03E00098002102F02EFC04467CB1A9
:100A800026462888C04300052DD4D5F8AC00B0F127
:100A9000007F21D00EDCA8B1B0F1807F10D116E02C
:100AA000D5F8A820D9F8001021F460011143C9F845
:100AB0000010E6E7B0F1407F13D0B0F1806F10D0A6
:100AC00001240FE0386840F40030386009E00198F4
:100AD000002102F071FB03E00098002102F0FCFB12
:100AE000044674B126462868C04380011FD4E86CD0
:100AF000D8B110280FD0202812D0302815D00124CA
:100B000014E0D5F8AC20D9F8001021F0E0611143D1
:100B1000C9F80010E7E7386840F40030386004E0B6
:100B20000198022102F048FB044674B12646288849
:100B3000C043C0042BD4286EB0F5005F20D00DDC7C
:100B4000A0B1B0F5805F0FD115E06B48EA6C2030A2
:100B5000016821F0300111430160E8E7B0F5405F22
:100B600013D0B0F5804F10D001240FE0386840F466
:100B70000030386009E00198002102F01DFB03E01D
:100B80000098002102F0A8FB04468CB12646288874
:100B9000C043800429D4686EB0F5403F23D010DCF8
:100BA00008B3B0F5803F14D0B0F5003F0FD115E089
:100BB0002A6ED8F8001021F4E0411143C8F8001063
:100BC000E5E7B0F5802F0ED0B0F5A02F0BD00124B3
:100BD0000AE00198012102F0EFFA03E000980121F8
:100BE00002F07AFB044694B126462888C0434004AC
:100BF0002AD4D5F8B000B0F1405F23D010DC08B3A0
:100C0000B0F1805F14D0B0F1005F0FD115E06A6ED3
:100C1000D8F8001021F4E0211143C8F80010E4E7EF
:100C2000B0F1804F0ED0B0F1A04F0BD001240AE0FC
:100C30000198012102F0C0FA03E00098012102F0BE
:100C40004BFB044674B126462888C04300041FD4D9
:100C5000286FD8B1B0F1805F0ED0B0F1005F10D036
:100C6000012414E0D5F8B020D9F8001021F0E041BB
:100C70001143C9F80010E7E7386840F400303860E5
:100C800004E00198012102F097FA044674B1264667
:100C90002868C043C0011ED4A86CD0B101280ED072
:100CA000022811D0032814D0012413E02A6FD8F8A9
:100CB000001021F040511143C8F80010E8E73868EF
:100CC00040F40030386004E00198022102F074FA28
:100CD0000446ACB126462868DFF81CB0C043ABF12F
:100CE0001C0B400252D40548016841F48071016038
:100CF000FFF7F0FC824611E02C44025800480258ED
:100D0000FA48AA6C016821F0030111430160E2E78F
:100D1000FFF7E0FCA0EB0A00642835D8F44800682F
:100D2000C005F5D58CBBDFF8C4A3B5F8B4100AF143
:100D3000240ADAF8000001F4407100F4407088429F
:100D400011D0DAF80010DAF8002021F4407142F4F2
:100D50008032CAF80020DAF8002022F48032CAF883
:100D60000020CAF80010D5F8B400B0F5807F1AD181
:100D7000FFF7B0FC029012E0FFF7ACFC0299411AB9
:100D800041F2883081420AD9032426462878DFF8C8
:100D90005CA3C0430AF1080AC00721D03CE0DAF89E
:100DA00000008007E8D5D5F8B410C1F3012003286E
:100DB00058460DD0016821F47C510160B5F8B4208B
:100DC000DAF80010C2F30B021143CAF80010DDE795
:100DD000C84A036802EA111223F47C511143ECE77C
:100DE000E86F182816D005DCA0B1082808D0102814
:100DF00004D10AE020280DD028280BD001240AE0D5
:100E00000198012102F0D8F903E00098012102F0D5
:100E100063FA044664B126462878C04380071ED48E
:100E2000A86F062819D2DFE800F0160C1116161666
:100E3000EA6FDAF8001021F038011143CAF8001007
:100E4000EAE70198012102F0B7F903E000980121D7
:100E500002F042FA04467CB100E0012426462878DC
:100E6000C04340071FD4D5F89400062819D2DFE804
:100E700000F0160C11161616AA6FDAF8001021F001
:100E800007011143CAF80010E9E70198012102F0B7
:100E900093F903E00098012102F01EFA0446A4B180
:100EA00000E0012426462878C04380062BD4D5F8DC
:100EB0009000B0F1405F24D011DC10B3B0F1805F3E
:100EC00015D0B0F1005F10D116E0D5F89420D9F814
:100ED000001021F007011143C9F80010E3E7B0F159
:100EE000804F0ED0B0F1A04F0BD001240AE0019842
:100EF000002102F061F903E00098022102F0ECF910
:100F0000044694B126462878C04340062BD4D5F831
:100F10009C00B0F5406F24D011DC10B3B0F5806FA9
:100F200015D0B0F5006F10D116E0D5F89020DAF8A2
:100F3000001021F0E0411143CAF80010E3E7B0F5DA
:100F4000805F0ED0B0F5A05F0BD001240AE00198BD
:100F5000002102F031F903E00098022102F0BCF90F
:100F6000044694B126462878C04300062BD4D5F811
:100F7000A000B0F5C04F24D011DC10B3B0F5005F75
:100F800015D0B0F5804F10D116E0D5F89C20D9F8D7
:100F9000001021F4E0511143C9F80010E3E7B0F567
:100FA000004F0ED0B0F5204F0BD001240AE001987D
:100FB000002102F001F903E00098022102F08CF90F
:100FC000044654B126462878C04300071ED4D5F8FD
:100FD0008400B0F5805F0AD00FE0D5F8A020D9F8E2
:100FE000001021F460411143C9F80010EBE70098AC
:100FF000022102F071F900B10126D5F88420DAF857
:10100000001021F440511143CAF800102878C04361
:10101000C00613D4D5F89800B0F5807F05D10098AC
:10102000022102F059F900B10126D5F89820D9F82B
:10103000001021F440711143C9F800102868C04322
:10104000000316D4D5F8A40038B1B0F5803F09D01C
:10105000B0F5003F0BD001240AE00198002102F016
:10106000ABF803E00098022102F036F904468CB197
:1010700026462868C043400322D4D5F88800B0F53E
:10108000801F11D0B0F5001F13D0B0F5401F15D050
:10109000012414E0D5F8A420D9F8001021F440313F
:1010A0001143C9F80010E4E7386840F400303860B4
:1010B00004E00098012102F00FF904465CB12646D5
:1010C0002868C043C00323D4286DA8B1B0F5803F81
:1010D00017D001241BE0D5F88820DAF8001021F49D
:1010E00040111143CAF80010EAE700004C440258CE
:1010F00000480258CFFFFF00386840F400303860E5
:1011000004E00198022102F057F80446E4B12646B3
:101110002868C043800005D40098022102F0DCF862
:1011200000B101262868C04380031BD4D5F8800095
:10113000B0B1B0F5807F0FD0B0F5007F10D0B0F522
:10114000407F0DD001240CE05A482A6D016821F43B
:10115000803111430160DBE7386840F400303860CB
:10116000ECB326462868C043C00207D46A6FD8F89B
:10117000001021F000411143C8F800102868C04356
:10118000C00008D4D5F8B820DBF8001021F4804165
:101190001143CBF800102868C043800207D4EA6EE0
:1011A000D8F8001021F080711143C8F800102868A9
:1011B000C04340000CD4DBF8001021F40041CBF810
:1011C0000010DBF80010D5F8BC201143CBF800105C
:1011D0002868C04308D437486A6D016800E018E009
:1011E00021F04051114301602868C043000208D437
:1011F000D5F88C20DAF8001021F440011143CAF828
:10120000001028790024C04300F0010020430AD0D8
:101210000FE0D5F88020DAF8001021F44071114376
:10122000CAF800109EE70198002101F0C5FF00B147
:1012300006462879C04300F00200204305D10198FA
:10124000012101F0B9FF00B106462879C04300F042
:101250000400204305D10198022101F0ADFF00B147
:1012600006462879C04300F00800204305D10098C5
:10127000002102F031F800B106462879C04300F0A1
:101280001000204305D10098012102F025F800B19B
:1012900006462879C04300F02000044304D100989A
:1012A000022102F019F800B916B10120BDE8FE8F45
:1012B0000020FBE74C4402582DE9F05F04000F4684
:1012C0007ED0DFF83882D8F8000000F00F00B84276
:1012D0000CD2D8F8001021F00F013943C8F80010E3
:1012E000D8F8000000F00F00B84269D12078844D92
:1012F00040070AD52069296801F07001884204D9A5
:10130000296821F070010143296020787C4E361D48
:1013100000070AD56069316801F07001884204D97C
:10132000316821F07001014331602078C0060AD590
:10133000A069316801F4E061884204D9316821F480
:10134000E061014331602078DFF8B4B180060BF131
:10135000080B0CD5E1695846DBF8002002F070025A
:10136000914204D9026822F070020A430260207898
:1013700080070AD5E068296801F00F01884204D986
:10138000296821F00F01014329602078C0073ED071
:101390005B49A2682868183920F4706010432860FF
:1013A0006068022818D0032819D00968012819D0CC
:1013B000490700294ADADFF848A1AAF1080A00E043
:1013C00044E0DAF8002022F007020243CAF80020C5
:1013D000FFF780F9814612E009688903E9E70968A7
:1013E0008901E6E7C905E4E7FFF774F9A0EB090115
:1013F00041F28830814202D90320BDE8F09F616844
:10140000DAF8000000F03800B0EBC10FECD1207822
:1014100080070AD5E068296801F00F01884204D2EC
:10142000296821F00F0101432960D8F800104046D7
:1014300001F00F01B9420BD9016821F00F013943C6
:101440000160006800F00F00B84201D00120D4E72D
:10145000207840070AD52069296801F07001884288
:1014600004D2296821F07001014329602078000727
:101470000AD56069316801F07001884204D2316890
:1014800021F07001014331602078C0060AD5A069BF
:10149000316801F4E061884204D2316821F4E061EE
:1014A00001433160207880060CD5E1695846DBF8AD
:1014B000002002F07002914204D2026822F0700211
:1014C0000A43026000F026F80E492A682B68C2F32E
:1014D000032203F00F038A5CC95C02F01F0201F0D3
:1014E0001F01D040084A20FA01F111600749086045
:1014F00007480068BDE8F05FFFF728B900200052F8
:1015000018440258A7860008A4000024A000002464
:1015100098000024454970B545480968434B103B85
:1015200011F0380208D00111082A03D0102A0BD07C
:10153000182A0BD0084670BD19688906FBD51968B2
:10154000C1F3C101C84070BD3A4870BD3749374D3D
:1015500018310C1D24350A68096826682D6802F0C8
:10156000030406F00102C1F30511C5F3CC0515FB18
:1015700002F200EE102AB8EE400AE9B32F4ADFED7E
:101580002E0AB7EE001A6CB1DFED2D1A012C01D036
:10159000022C43D002EE101A1068F8EE422A81EEB7
:1015A000A22A1EE01C68A40611D51B6801EE901A41
:1015B0001168C3F3C103F8EE612AD84001EE900A26
:1015C000C1F30800F8EE611A81EEA22A0BE001EEE9
:1015D000901ADFED1C2A00BFF8EE611A106882EE47
:1015E000A12AC0F3080001EE900AF8EE611A40EE5D
:1015F000201A31EE810A00E015E022EE000A1068A0
:10160000C0F34620401C00EE900AF8EE600A80EE1F
:10161000201ABCEEC10A10EE100A70BD01EE901A3D
:10162000DFED092AD8E7002070BD00001044025801
:101630000090D00340787D0100000039304402580A
:101640000024744A0024744C20BCBE4B2DE9F05F8A
:1016500004007DD0FF4F2078FE4D1837DFF8F4935B
:10166000103DC00748D0D9F80000396800F03800B4
:10167000102815D0182803D101F0030002280FD03C
:101680006068B0F5803F12D010B1B0F5A02F18D02F
:10169000286820F480302860286820F4802009E041
:1016A0002868800328D560680028D2D024E0286804
:1016B00040F480302860606888B1FFF70BF8064678
:1016C00009E0286840F480202860F0E7FFF702F87E
:1016D000801B64286FD828688003F7D50CE0FEF7DC
:1016E000F9FF064605E000BFFEF7F4FF801B642803
:1016F000F0D828688003F7D4207841F20308D54E4B
:101700000C3E800769D5D9F80000396810F0380020
:101710000ED0182801D188070AD0E06890B3296854
:1017200021F0190101432960FEF7D4FF824631E020
:101730002868400702D5E06800288AD0E168286858
:1017400020F0190008432860FEF7C4FF824607E036
:10175000DFE000BFFEF7BEFFA0EB0A000228B9D809
:1017600028684007F6D500BFFEF7AEFF40451BD8FE
:101770002069402812D0316821F47C3141EA0030E0
:1017800030602AE018E000BFFEF7A4FFA0EB0A00DB
:1017900002289FD828684007F6D5E5E7306820F48E
:1017A0007C3040F40030EBE7207C316821F0FE41D2
:1017B00041EA0060E4E70DE1286820F001002860BC
:1017C000FEF788FF824605E0FEF784FFA0EB0A00E3
:1017D00002288DD828684007F6D42078C0065DD549
:1017E000D9F80000DFF86CB2396800F03800ABF1CE
:1017F000040B082810D0182803D101F00300012899
:101800000AD0E0690028286838D040F080002860BD
:10181000FEF760FF824623E02868C00523D5E06913
:10182000802876D11FE0206A202821D0316821F05D
:10183000F84141EA8060306030E000BF94F8201049
:10184000DBF8002022F07C5242EA0161CBF8001064
:1018500024E000BFFEF73EFFA0EB0A00022898D864
:101860002868C005F6D5FEF72FFF4045E6D8DAE731
:10187000306820F0F84040F08040DCE720F0800045
:101880002860FEF727FF064605E000BFFEF722FFAF
:10189000801B02289DD82868C005F7D4207800074F
:1018A00029D56C486169643000298046016811D0EF
:1018B00041F001010160FEF70DFF064605E000BFA3
:1018C000FEF708FF801B0228C9D8D8F8000080075F
:1018D000F6D510E021F001010160FEF7FBFE06469F
:1018E00005E000BFFEF7F6FE801B022872D8D8F88C
:1018F00000008007F6D42078800623D5A069002850
:10190000286810D040F480502860FEF7E3FE0646B9
:1019100005E036E1FEF7DEFE801B02285AD8286873
:101920008004F7D50EE020F480502860FEF7D2FE48
:10193000064604E0FEF7CEFE801B02284AD828683F
:101940008004F7D4207840074FD5DFF80C81D8F811
:10195000001041F48071C8F80010FEF7BBFE064687
:1019600005E000BFFEF7B6FE801B642832D8D8F829
:101970000000C005F6D5374EA068603601280AD0B1
:1019800008B1052813D0306820F0010030603068BD
:1019900020F0040002E0306840F001003060A068F0
:1019A00041F2883A90B1FEF795FE80460AE0306831
:1019B00040F004003060EEE7FEF78CFEA0EB08017B
:1019C000514507D830688007F6D50EE0FEF782FE55
:1019D000804607E084E000BFFEF77CFEA0EB080134
:1019E00051457DD830688007F6D4606AB0B3DFF81F
:1019F0006480D9F8001008F120084FF6F87B08F150
:101A00000409C1F3C2010329A8F1040A69D002281C
:101A1000286820F08070286003D0FEF75BFE044643
:101A200084E0FEF757FE064605E000BFFEF752FED3
:101A3000801B022877D828688001F7D4E26A40F238
:101A4000F331386854F8283F884340EA02101843BD
:101A5000386004E01044025800480258B5E0217B89
:101A6000434622894FF4FE0C208A4FF0FE4749027C
:101A7000267D521E401EA1F50071C2F308088AB2ED
:101A8000761E0CEA004042EA08020243504607EA8A
:101A900006610A431A60DAF8002022F00102CAF84F
:101AA0000020D9F80020266A22EA0B0242EAC60288
:101AB000C9F80020DAF80010A26921F00C011143E6
:101AC000CAF800100168E26921F0020111430160C7
:101AD000016841F480310160016841F4003101E0A6
:101AE00021E027E00160016841F480210160016884
:101AF00041F001010160286840F080702860FEF725
:101B0000E9FD044605E000BFFEF7E4FD001B0228E6
:101B100009D828688001F7D557E000BFFEF7DAFD45
:101B2000001B022802D90320BDE8F09F286880012D
:101B3000F4D44AE039680128D8F8000021D0A26A1C
:101B400001F0030393421CD1E26AC1F305118A42FA
:101B500017D1216BC0F30802491E8A4211D1616B73
:101B6000C0F34622491E91420BD1A16BC0F306423D
:101B7000491E914205D1E16BC0F30660491E8142C6
:101B800001D00120D0E7A16C4E46D9F80000C0F387
:101B9000CC00814219D0DAF80000554620F001004F
:101BA000CAF80000FEF796FD4FEA0007FEF792FD27
:101BB000B842FBD0A26C306820EA0B0040EAC200B9
:101BC0003060286840F0010028600020ACE7006821
:101BD000503050F8210070470068503040F8212004
:101BE0007047000010B50B4601680F48002A49688D
:101BF00001EA000101F03F044FEA1140D870C1F33F
:101C000004225A709C70C1F3423119700AD101F05C
:101C1000F3FBD870587801F0EFFB5870987801F01A
:101C2000EBFB9870002010BD3FFFFF0010B50B4686
:101C30000168134C002A896A596001680969C1F377
:101C40000E0199600068016801EA040101F07F0457
:101C5000C1F305401870C1F306225A709C704FEA18
:101C60009151D9700AD101F0C7FB1870587801F072
:101C7000C3FB5870987801F0BFFB9870002010BD2E
:101C80007F7F7F0070B504004FF0010041D094F8D1
:101C9000210028B9002084F82000204600F042F8F6
:101CA000022084F821002068C168C943C90631D5E3
:101CB000CA224262532120684162204601F0B2FBF1
:101CC00018BB2068164A816811408160D4E900037E
:101CD000A569226981682A431943114381602268FA
:101CE0002189E06840EA01401061204601F0BEFB16
:101CF00058B92168CA6C22F00302CA642268636979
:101D0000E169D56C19432943D1642268FF215162EE
:101D100008B170BD0020012184F8211070BD0000C1
:101D2000BFFF8FFF10B5B0B00446C0216846FEF774
:101D3000D8FA0B492068884210D1010200208A138A
:101D40002D92CDE900106846FEF7E0FD08B1FEF7E0
:101D50007CFB0448016841F40041016030B010BDD3
:101D6000004000587044025870B5044690F82000B6
:101D70000B4601281BD0012684F82060022084F83D
:101D800021005878AAB1DA78000299781B7841EAE4
:101D9000024540EA433005432268CA21532051627C
:101DA00021684862204601F03DFBC8B11FE00220D7
:101DB00070BDC10603D500F0EF000A305870D87826
:101DC00001F023FB0204587801F01FFB42EA0022D5
:101DD000987801F01AFB1978024342EA4135DBE7B3
:101DE0002168084805404D60204601F03FFB22680D
:101DF000FF21516208B984F82160002184F8201085
:101E000070BD00003FFFFF002DE9F041044690F84F
:101E1000200090460D46012812D0012784F820703A
:101E2000022184F82110CA202268532150622068C0
:101E30004162204601F0F6FA4FF0000618B12AE0A0
:101E40000220BDE8F0812068B8F1000F80684FEAF9
:101E5000406025D0002800DBEE7068782A78A978E9
:101E6000EB784FEA002C41EA02404CEA83510843E8
:101E700022681849084010602068816821F4802198
:101E800081602168D5E903028B681043184388609C
:101E9000204601F0EBFA2268FF215162A0B115E063
:101EA000002800DBEE70287801F0AFFA02046878B1
:101EB00001F0ABFA42EA0022A87801F0A6FAE9782C
:101EC000024342EA8150D3E784F8217084F820600D
:101ED000B7E700007F7F7F0070B5016804460B48BC
:101EE000C860FEF7F7FB4FF47A76054607E000BFBF
:101EF000FEF7F0FB401BB04201D9032070BD206803
:101F0000C0688006F4D5002070BD00005FFF0300AC
:101F10002DE9F047040029D0594A4FF00009206804
:101F2000584B594D9042C4F8289006D0984204D09E
:101F3000A84202D0E1680F2918D8E1684FF0010AE1
:101F4000E76B0831C9080AEB57167143904205D078
:101F5000984203D0A84201D0082907D8904203D064
:101F6000984201D0A84204D1102902D90120BDE82D
:101F7000F08794F8810020B9204684F8809000F022
:101F800085F8022084F881002068016821F00101B1
:101F900001602068A1698268B1F1806F02F4F811D4
:101FA00010D16268B2F5800F01D01AB10AE0A26BBD
:101FB00022B107E0A26BB2F1805F03D1026842F464
:101FC000805202606068400209D5E068072806D3A5
:101FD0002068236D026822F480721A4303E02068AF
:101FE000026822F480720260A66AE069E26B2568EA
:101FF0003043E3680A4310431843A860D4E90D0254
:10200000D4E90581636A25691843D4F820C00A43DE
:10201000266810432843A56DD4E90172D4E9123132
:1020200040EA080040EA0C003843084310431843D4
:102030002843F060606868B92068816821F4C05165
:1020400041F4006181602068816821F4C06141F43D
:10205000806181602068016D21F001010165606887
:10206000400206D52068626DC16821F0004111432D
:10207000C160C4F8849084F881A0002077E7000054
:102080000030014000380040003C004010B5B6B0C0
:102090000446142130A8FEF724F9C0216846FEF753
:1020A00020F91949206888422BD141140020199049
:1020B0000446CDE900106846FEF728FC08B1FEF79B
:1020C000C4F91248016841F400510160006800F44D
:1020D000005035900D481038016841F01001016042
:1020E000006805224FF4A041329400F010003590B2
:1020F0000220CDE93010CDE93302054830A9FEF7C2
:10210000BBF936B010BD000000340140F044025865
:10211000001002582DE9F05F8A4690F8801098462A
:102120001646012904464FF0000B0CD0012784F815
:102130008070FEF7CFFA814694F8810000250128CF
:1021400004D0022034E00220BDE8F09FBAF1000F75
:102150002DD066B3A1680420C4F864A0A4F8686018
:1021600084F88100C4F88450A4F86A60E565A4F896
:102170006050A4F86250B1F5C02F256765672068EC
:1021800019D0C16821F4C02141F48021C1602068C8
:1021900041686FF30F01314341602068016841F0ED
:1021A000010101606068B0F5800F09D00DE00120E9
:1021B00084F88050C8E7016821F400610160E6E717
:1021C0002068016841F400710160E0680F2822D99D
:1021D00048F20806B4F86A0080B3206841693142C9
:1021E0000BD0006B616E0860606E001D6066B4F815
:1021F0006A00401EA4F86A00ECE7FEF76BFAA0EB59
:102200000901414503D3B8F1FF3FE3D057E0B8F1EE
:10221000000FDFD153E007281ED840E02068416955
:10222000C9070CD0008E616E0880606E801C6066ED
:10223000B4F86A00401EA4F86A000DE033E0FEF72F
:1022400049FAA0EB0901414503D3B8F1FF3F03D0A0
:1022500035E0B8F1000F32D0B4F86A000028DDD1C3
:1022600021E020684169C9070CD090F83000616E08
:102270000870606E401C6066B4F86A00401EA4F8E6
:102280006A000CE0FEF726FAA0EB0901414503D3F2
:10229000B8F1FF3F03D012E0B8F1000F0FD0B4F84F
:1022A0006A000028DDD1204601F00AF984F8817027
:1022B000D4F8840084F8805080B1012044E720469F
:1022C00001F0FEF8D4F8840084F8805040F4807067
:1022D000C4F8840084F88170032035E7584633E75A
:1022E0002DE9F84F8A4690F8801099461746012943
:1022F00004464FF0000B0DD04FF0010884F88080A9
:10230000FEF7E8F9064694F881000025012804D07C
:10231000022034E00220BDE8F88FBAF1000F2DD082
:1023200067B3A1680320C4F85CA0A4F8607084F8C7
:102330008100C4F88450A4F862706566A4F86850FF
:10234000A4F86A50B1F5C02F65672567206819D0D9
:10235000C16821F4C02141F40031C16020684168A6
:102360006FF30F01394341602068016841F00101BA
:1023700001606068B0F5800F09D00DE0012084F89D
:102380008050C8E7016841F400610160E6E7206819
:10239000016841F400710160E0680F281CD82EE04C
:1023A0002068416989070BD5E16D09680162E06D1C
:1023B000001DE065B4F86200401EA4F862000BE066
:1023C000FEF788F9811B494503D3B9F1FF3F03D0DC
:1023D00007E0B9F1000F04D0B4F862000028DFD1A3
:1023E00083E0204601F06CF8D4F8841084F8805023
:1023F00041F48071C4F8841084F881809CE007283F
:102400002CD86EE02068416989071BD5B4F86210AA
:1024100001290BD9E16B49B1E16D09680162E06DF9
:10242000001DE065B4F86200801E08E0E16D0988D7
:102430000184E06D801CE065B4F86200401EA4F8E1
:1024400062000BE0FEF746F9811B494503D3B9F161
:10245000FF3F03D0C5E7B9F1000FC2D0B4F8620066
:102460000028CFD141E02068416989072DD5B4F813
:10247000621003290CD9E16B402909D9E16D096883
:102480000162E06D001DE065B4F86200001F19E014
:10249000B4F8621001290BD9E16B49B1E16D0988EB
:1024A0000184E06D801CE065B4F86200801E09E0E4
:1024B000E16D097880F82010E06D401CE065B4F80B
:1024C0006200401EA4F862000BE0FEF703F9811BD6
:1024D000494503D3B9F1FF3F03D020E0B9F1000F24
:1024E0001DD0B4F862000028BDD100224B4608215F
:1024F0002046009601F042F828B1D4F8840040F05C
:102500002000C4F88400204600F0DAFF84F88180BF
:10251000D4F8840084F8805080B10120FBE6204686
:1025200000F0CEFFD4F8840084F8805040F480702E
:10253000C4F8840084F881800320ECE65846EAE67B
:10254000401EB0F1807F10B501D3012010BD4FF0C7
:10255000E02460610F21601702F080F90020A06183
:102560000721216110BD00002DE9F04390F83C20C7
:10257000012A42D0012280F83C2051F80C4BDFF8B0
:1025800080804FF0000991E8680051E9022723F4A8
:102590004073B1F80CC03B43CF6923F4806313430D
:1025A000026823F40063234323F4805343EA0503C2
:1025B00023F4005343EA060323F4804343EA07036A
:1025C0000C3923F47023424543EA0C4302D00D4CEE
:1025D000A2420CD18D8C23F47006D1E9073446EA6F
:1025E000055121F08071194321F000732343536496
:1025F00080F83C900020BDE8F0830220FBE700005B
:102600000000014000040140F0B590F83C20012A90
:102610003BD01F4E012480F83C40022280F83D2030
:1026200002681C4D5368B242D2F808C001D0AA42D9
:1026300003D14F6823F470033B430F6823F070030A
:102640001F4357600268B24213D0B2F1804F10D0DE
:10265000114B9A420DD0114B9A420AD0104B9A421C
:1026600007D0AA4205D00F4B9A4202D00E4B9A4295
:1026700004D189682CF0800319439160002180F80F
:102680003D4080F83C100846F0BD0220F0BD00003F
:102690000000014000040140000400400008004028
:1026A000000C0040001800400040014010B50446F6
:1026B0004FF0020249B104290ED0082913D094F832
:1026C0004700012816D0012010BD94F844000128CD
:1026D000F9D184F844200FE094F845000128F2D1A4
:1026E00084F8452008E094F846000128EBD184F8EE
:1026F000462001E084F847200422206801F0EEFE25
:1027000020681549426C42F40042426420688842C5
:1027100014D0B0F1804F11D0104988420ED010492A
:1027200088420BD00F49884208D00F49884205D013
:102730000E49884202D00E49884207D181680D4A6D
:102740001140062906D0B1F5803F03D0016841F061
:1027500001010160002010BD0000014000040040A4
:1027600000080040000C0040000401400018004038
:10277000004001400700010010B586B00446142156
:102780006846FDF7AEFD0E492068884216D10D4817
:10279000016841F01001016000680123022200F08D
:1027A0001000059000204FF4806100916946CDE94A
:1027B0000120CDE903030448FDF75EFE06B010BD1D
:1027C00000000140E04402580010025870B5044671
:1027D00090F83C0000260D4601280BD0012084F81B
:1027E0003C000C2A4AD007DC82B1042A20D0082AF7
:1027F00006D131E0022070BD102A53D0142A63D0D4
:102800000126002084F83C00304670BD206801F0AD
:1028100073FE2068816941F0080181612068816947
:1028200021F00401816120682A698169114311E066
:10283000206801F0B5FE2068816941F40061816182
:102840002068816921F48061816120682969826939
:1028500042EA01218161D4E7206801F0EDFE2068A1
:10286000C16941F00801C1612068C16921F004011A
:10287000C16120682A69C169114311E0206801F033
:1028800027FF2068C16941F40061C1612068C16906
:1028900021F48061C16120682969C26942EA01218D
:1028A000C161AEE7206801F04FFF2068416D41F043
:1028B000080141652068416D21F0040141652068EF
:1028C0002A69416D114311E0206801F077FF20680B
:1028D000416D41F4006141652068416D21F48061E2
:1028E000416520682969426D42EA0121416588E716
:1028F00010B5040003D094F83D0010B107E00120AA
:1029000010BD002084F83C00204600F023F802208F
:1029100084F83D002068211D01F07EFD012084F82F
:10292000480084F83E0084F83F0084F8400084F8B2
:10293000410084F8420084F8430084F8440084F89D
:10294000450084F8460084F8470084F83D000020E4
:1029500010BD000008B500680649884208D1064845
:10296000016841F001010160006800F00100009081
:1029700008BD000000000140F0440258FEE70000DE
:1029800001480068806B7047A40600242DE9F041DF
:102990000D4601462DED028BFFF7F2FF88420446FB
:1029A00031D0002D2FD001EE904A01EE101A00EE2A
:1029B000905AF8EE611AB8EE411AB8EE602A9FED0F
:1029C000140A71EEC10A30EE420A80EE808AFDF7E9
:1029D00081FE104F06460120FDF73CFDFDF77AFE13
:1029E000801B3A6800EE904A00EE100AF8EE600A8A
:1029F000B8EE400A40EE080ABCEEE00A10EE101AEB
:102A00009163A842E7D3BDEC028BBDE8F0810000E2
:102A100000000000A40600242DE9FF4F85B01D46EC
:102A20000C2B90460C468946059804906348DDF8C7
:102A300048B0068819D0082715FB07F0400002F0BF
:102A4000AFFA03A982465E4800F0C6FF5C4802A9BF
:102A500000F0CAFFA8F120014FF00000C9B20791B1
:102A6000BBF1000F014602D097E00627E4E7DFF84C
:102A70004CE149E00C2D0ED0079B524A02EB0312A9
:102A8000002321F0010B525C009313060AD573BAA0
:102A9000AEF800300CE0079A02EB42034A4A02EB20
:102AA0008302EDE7BEF802C09CFA9CFCAEF800C0C1
:102AB00007FB00F3401CBEF800C080B20AEB4303E2
:102AC000A84223F80BC000D30020029B5206641CCE
:102AD000A4B2120E9C4202D3AEF8006047E0A4EB11
:102AE0000903AB4208D1059A4C46039B521C92B293
:102AF00005929A42F0D205E0009B5B1CDBB200938A
:102B0000082BC2D3491CC9B2A942B3D347E00C2D4C
:102B100033D0079B2B4A02EB03124FF0000B21F03E
:102B2000010E525C130608D5244B07FB00FC1B88E2
:102B30000AEB4C0C5BBA2CF80E30401C80B2A84259
:102B400000D30020029B5206641CA4B2120E9C42C9
:102B50000BD2A4EB0903AB4216D1059A4C46039B5A
:102B6000521C92B205929A4215D3144806805046E0
:102B700002F0C4F809B0BDE8F08F079A02EB4203F7
:102B8000114A02EB8302C8E70BF1010303F0FF0BCC
:102B9000BBF1080FC6D3491CC9B2A942B7D30C2D4B
:102BA00009D008200499CDE90005054853464A4656
:102BB00000F07AFED9E70620F4E7000000000024C8
:102BC000B0000024B8540008445000082DE9F84F24
:102BD0000D46044658194FF0000A111987B21FFA22
:102BE00081F8DDE90AB604F0FF0912E0444503D399
:102BF00005EB0B004C4685B2BD420FD25B46294621
:102C00002046CDF800A0FFF707FF04EB5B0084B27D
:102C1000761C3278A2F120005E28E7D9BDE8F88F53
:102C20002DE9F04F6D4C032087B04FF0000A0121D1
:102C30005646A06084F80CA061736949694801F0A8
:102C400075F9DFF8A4810521664822464546D8F883
:102C5000003098476249AA68091F62489047DFF828
:102C60008CB1DBF8000086630022AD6A1146604B30
:102C70005C48A847FDF72EFDDFF878914FF4005629
:102C8000054654E00A20FDF7E5FBFDF723FD401B58
:102C9000B0F57A7F0CD8FDF71DFD421BDBF8003044
:102CA00064204FF47A714243B2FBF1F098633EE046
:102CB000FDF710FD411B40F6B830814230D8FDF7DA
:102CC00009FD401B0A21A0F57A70B0FBF1F24AA180
:102CD00002A801F0AFFD02A910201023CDE90001E8
:102CE000208882B2A0F11E0188B20121FFF76EFF99
:102CF000FDF7F0FC2368401BA0F57A704FF6FF77D4
:102D00004FF4FA6258430321B0FBF2F3CDE9001708
:102D100062680021D8F83870D21E3248B84706E001
:102D2000FDF7D8FC411B40F6B83081420AD8314645
:102D30004F464846FDF7B6FC0128A3D102E00A2021
:102D4000FDF788FB31463846FDF7ACFC0128F6D08C
:102D500000204FF49671FFF719FE61680022CDE95B
:102D6000001AD8F83850114623681E48A84724A1F5
:102D700002A801F05FFD02AD102604213346CDE923
:102D80000065208882B20846FFF720FFFDF794FC1B
:102D90001FA1024602A801F04DFDCDE90065208883
:102DA0001023162182B20420FFF710FF0C481CA14B
:102DB0000838426802A801F03DFDCDE90065208891
:102DC0001023282182B20420FFF700FFC8216420CD
:102DD000FFF7DCFD07B0BDE8F08F0000E805002438
:102DE00008000024B000002428000024A4060024C9
:102DF000A85A00080008025825303364000000007B
:102E000057654163742053747564696F0000000056
:102E100053544D33324837787820307825580000A5
:102E20004C43442049443A307825580070B50A4E46
:102E300001220C46054608213046FDF738FC681E85
:102E4000FDF708FB002230460821FDF730FC601E2C
:102E5000BDE87040FDF7FEBA001002587FB50025AE
:102E60000095019502950395FDF7BEFC01248DF8B0
:102E700000401B208DF808008DF80B504FF01046D5
:102E80008DF80A4068468DF80150019603948DF83C
:102E90000950FDF77BFC16208DF808008DF80F40D7
:102EA00005218DF80B1068468DF80E408DF8004016
:102EB0008DF80D508DF80A408DF8014001968DF87F
:102EC0000C508DF80950FDF761FC0420FDF79AFCC9
:102ED0007FBD0000F0B587B014216846FDF701FA08
:102EE0002648016841F010010160016801F01001FD
:102EF0000591016841F004010160016801F00401DD
:102F00000591016841F080010160016801F08001D4
:102F10000591016841F00101016000680022184F2D
:102F2000082100F0010005903846FDF7C0FB4FF482
:102F30002056384601223146FDF7B9FB0024694688
:102F4000012508200090CDE9015438460394FDF78F
:102F500093FA0221680300900A48CDE901416946CD
:102F6000FDF78AFA03206946CDE90065CDE9024004
:102F70003846FDF781FA07B0F0BD0000E044025882
:102F8000001002580008025830B587B01421684676
:102F9000FDF7A7F93F4800243D497F220594FF2310
:102FA000E0E8021480E81C0004614461C460394810
:102FB000FEF768FE08B1FDF748FA36480121FEF732
:102FC00006FE43F2F22290422AD032480121FEF757
:102FD00003FE12208DF800008DF8014001222D48DB
:102FE00069468DF8024003940494FEF70DFF08B182
:102FF000FDF72BFA01208DF8140006218DF815102D
:103000008DF8160020228DF8172005A902462148C8
:10301000FEF7AAFE002801D0FDF717FA07B030BD71
:103020001D4C1E4D206800020CD5012228460821A7
:10303000FDF73DFB0920FDF70DFA00222846082187
:10304000FDF735FB206840021CD5012228460821E7
:10305000FDF72DFB0920FDF7FDF900222846082188
:10306000FDF725FB6320FDF7F5F90122284608212D
:10307000FDF71DFB0920FDF7EDF900222846082188
:10308000FDF715FB206840F480302060C6E70000A3
:1030900000400058F8050024D0440258001002589F
:1030A0002DE9F04115484FF480060021124D3401FE
:1030B0000722C0E90321E300C0E90514C0E9073194
:1030C00041625A0081624FF4C027C162C0E90D21FC
:1030D000C163016441648164C164016541658165C6
:1030E00080E8E000FEF714FF002803D0BDE8F041BF
:1030F000FDF7ABB9BDE8F081003401401C060024A7
:1031000010B596B000241C210BA8129413941494AB
:10311000FDF7E7F82C216846FDF7E3F823480B227A
:10312000214940F2E73380E81600C0E903344461E6
:103130008461FFF7DDFB08B1FDF787F91B4812A991
:10314000129413941494FFF75FFA08B1FDF77DF918
:1031500060200821CDE90B0414480422CDE90D417B
:103160000BA90F9410941194FFF730FB08B1FDF7F1
:103170006CF94FF400500094019401030294CDE9DE
:10318000044003940694CDE9074108486946099430
:103190000A94FFF7E9F908B1FDF757F90348FFF77B
:1031A000EBFA16B010BD000000000140A406002498
:1031B000FEE77047704700002DE9F047454D044693
:1031C00089464FF0000A2868C04380070AD0414E64
:1031D000283E306820F080603060FDF77BFA0746BB
:1031E000B04608E00120BDE8F08700BFFDF772FAA5
:1031F000C01B022867D8D8F800000001F6D4206868
:1032000029684FF4FE0721F47C313E0241EA003088
:103210002860207AA389B4F804C040022D4D2D49BE
:103220005B1E227CACF1010C1035091DA0F500706D
:1032300080B2521ECCF3080C07EA034340EA0C00AC
:10324000184306EA0262104328600868626920F0A9
:10325000C000104308600A68A06922F020020243FF
:103260000A60281D0A6822F010020A6002684FF600
:10327000F873E4699A4342EAC40202600868B9F14B
:10328000000F40F010020A6011D00868B9F1010F78
:1032900011D040F400100860D8F80000444640F017
:1032A0008060C8F80000FDF715FA05460DE00868D3
:1032B00040F40020EFE740F48010ECE7FDF70AFA55
:1032C000401B022801D903208DE720680001F5D5B5
:1032D000504688E7284402582DE9F047454D0446FA
:1032E00089464FF0000A2868C04380070AD0414E43
:1032F000283E306820F080503060FDF7EBF907463B
:10330000B04608E00120BDE8F08700BFFDF7E2F914
:10331000C01B022867D8D8F800008000F6D42088A7
:1033200029684FF4FE0721F07C713E0241EA00500B
:103330002860207AA389B4F804C040022D4D2D499D
:103340005B1E227CACF1010C1835091DA0F5007044
:1033500080B2521ECCF3080C07EA034340EA0C008B
:10336000184306EA0262104328600868626920F484
:103370004060104308600A68A06922F400720243AA
:103380000A60281D0A6822F480720A6002684FF6FB
:10339000F873E4699A4342EAC40202600868B9F12A
:1033A000000F40F480720A6011D00868B9F1010F73
:1033B00011D040F080700860D8F80000444640F01A
:1033C0008050C8F80000FDF785F905460DE0086853
:1033D00040F48000EFE740F40000ECE7FDF77AF9F5
:1033E000401B022801D903208DE720688000F5D515
:1033F000504688E728440258020900F00F0102EB0A
:10340000820001EB4000C0B270470146002002E09C
:103410000A39401CC9B20A29FAD2000741EA1060F1
:10342000704700002DE9F041044600680025C1689E
:10343000490617D4691EC160FDF74CF903270646FB
:103440004FF47A7808E000BFFDF744F9801B40454F
:1034500002D9032584F821702068C068400601D491
:10346000032DF1D12846BDE8F08100002DE9F0419F
:10347000124C032706460025E06820F04000E0607B
:10348000A068800607D43046FEF726FD90B10325DC
:1034900086F821700EE0A06820F02000A060304681
:1034A000FEF71AFD10B1032586F82170A06840F0E0
:1034B0002000A0602846BDE8F081000000400058D0
:1034C00010B5026840F26F335169946944F0080402
:1034D00094610268946944F010049461026814686D
:1034E00024F001041460026814699C4314610268AA
:1034F000936823F44043936090F88120042A0CD011
:103500008A060AD5D0F8842042F08002C0F88420D0
:103510000268936943F02003936190F88120032AA5
:103520000CD04A060AD5D0F8842042F00402C0F834
:1035300084200268936943F0400393618A050AD5A9
:10354000D0F8842042F00102C0F884200268936918
:1035500043F400739361C9050AD5D0F8841041F093
:103560000801C0F8841001688A6942F480728A6197
:103570000021A0F86210A0F86A1010BD2DE9F041FA
:103580001C4616460D460746DDF818800AE000BFC7
:10359000FDF7A0F8A0EB0800A04202D3601C01D008
:1035A0000BE054B13868406935EA000007D00020CC
:1035B000B042EDD00020BDE8F0810320FBE7012000
:1035C000F6E7002070470000F8B504466A46002080
:1035D00003468DF8000004F120001321054601F098
:1035E0002AFD0A210646204600F006FA00236A4614
:1035F0002821284601F01FFD064420460A2100F03C
:10360000FBF900236A463621284601F014FD0146E5
:103610000B488C190B49027B806801EBC0000079D4
:103620000AB940F00800694601228DF800002846DA
:1036300001F0FAFC001901D04FF0FF30F8BD000096
:10364000E805002474000024F8B504466A4600200A
:1036500003468DF8000004F120001321054601F017
:10366000EAFC0A210646204600F0C6F900236A4615
:103670002921284601F0DFFC064420460A2100F0FB
:10368000BBF900236A463621284601F0D4FC0146E6
:103690000B488C190B49027B806801EBC000007954
:1036A0000AB940F00800694601228DF8000028465A
:1036B00001F0BAFC001901D04FF0FF30F8BD000056
:1036C000E8050024740000242DE9FF4F93F80380DF
:1036D00093469C7883B0DF7A4FF0000993F80CC0D2
:1036E00004EB0824997ACA4693F80D80DE7C01EB3E
:1036F00007211F7D4FEA0C4C9A7C0CEB086893F86D
:1037000015C08844DD7D3F0402EB06221E7E987DB5
:1037100007EB0C6C5F7E6244360400EB05201D79DC
:1037200006EB07665F7930442D0405EB0767324DE1
:103730003C4403EB080613466D680090A5EB0B05AF
:10374000291AA4EB080B88460A46DDE9030100F0BC
:1037500089FC4FF0FF35E8BB274C284F207B002821
:10376000A06817F8300001D140F008008DF804007F
:103770000398012336212030009001AA01F05BFC60
:1037800040BBDDE90301424600F006FC10BB707847
:1037900002228DF8080002A930788DF809000098FF
:1037A00001F042FC08B1A94604E0B61C0AF1020A85
:1037B000DA45ECD3207B0028A06807EBC000007935
:1037C00001D140F008008DF8040001230098362153
:1037D00001AA00E00BE001F02EFC40B96068002275
:1037E000009011462368039800F03CFC00B1A94604
:1037F00007B04846BDE8F08FE805002474000024B7
:103800002DE9F0411D46144B00248046069F4819BF
:103810004FF0FF361B68984219D8404600F0BCFBB9
:10382000A8B90E490020C7F30722FBB206E000BF8B
:1038300001EB400701F81020401C7B70A842F7D331
:1038400006496A0008F1200001F0EEFB00B13446A1
:103850002046BDE8F0810000E8050024680300244C
:103860002DE9F05F8A460F491E468346DDF8289011
:1038700090190025174649684FF0FF38884208D84C
:10388000002409E03A194B465146584600F0C6FC60
:1038900008B1454602E0641CB442F3D32846BDE8B3
:1038A000F09F0000E80500242DE9FF5F1D481C463D
:1038B00091468B46DDE90E674FF0FF3A4FF0000866
:1038C00003688A199A4204D8416809EB07008842C4
:1038D00001D9D04622E000251EE000BF009809EB88
:1038E0000502594600F058FBA0B90F49002008E036
:1038F000227801F8102001EB40026378401CA41CE0
:103900005370B042F4D3009872000749203001F0A0
:103910008BFB00B1D0466D1CBD42DFD304B04046E6
:10392000BDE8F09FE8050024E80000242DE9F84FE9
:10393000002699468A468346DDE90A7814463546CC
:103940000DE04B46224651465846CDF80080FFF721
:1039500057FF10B14FF0FF3603E0641C6D1CBD42F1
:10396000EFD33046BDE8F88F4FF0FF3070470000CE
:10397000024880680860002070470000E8050024C5
:10398000FEB51C46054600F007FB064605F1200083
:103990002E21054602AA01F039FB064428460122E1
:1039A00002A901F03AFB064469460122284601F0CB
:1039B00034FB06442846012201A901F02EFB9DF8A4
:1039C000042080199DF8001001EB0221216001D034
:1039D0004FF0FF30FEBD0000024800680860002084
:1039E00070470000E8050024024840680860002095
:1039F00070470000E805002470B50546C0690E4612
:103A000080470446E8698047001BB042FAD3002093
:103A100070BD2DE9F74F5FEA000982B07DD04FF00D
:103A2000000B6A4601215C4609F120005B468DF8D7
:103A300000B0019001F0FFFA78214846FFF7DCFF63
:103A40000198002301216A468DF8004001F0F3FA45
:103A5000782105464846FFF7CFFF01980123112141
:103A60006A468DF8004001F0E6FA00236A46B1216B
:103A70000544019801F0DFFA4619019801256946CD
:103A80002A468DF8005001F0CFFA871901982C26AC
:103A9000694601228DF8006001F0C6FA00EB0708C4
:103AA0004FF02D0A01980122574669468DF800A073
:103AB00001F0BAFA01236A46B2218DF80050804421
:103AC000019801F0B8FA01226946804401988DF806
:103AD000006001F0A9FA01226946804401988DF83E
:103AE000007001F0A1FA01236A46B3218DF800505D
:103AF0008044019801F09FFA0122694680440198B0
:103B00008DF8006001F090FA012269468044019826
:103B10008DF8007001F088FA00E0CCE101226946DE
:103B2000804401988DF8005001F07EFA0122694628
:103B300000EB080501988DF8006001F075FA461950
:103B40000198012269468DF8007001F06DFA072591
:103B50006A4601238DF80050B4210644019801F013
:103B60006AFAA2216A468719019801238DF800108C
:103B7000C02101F060FA0226694601228DF800603A
:103B80000744019801F050FA84218DF800100122B9
:103B900069460744019801F047FAC5216A460123A6
:103BA0008DF80010C1210744019801F044FA0A2160
:103BB0006A4601238DF80010C2210744019801F0E4
:103BC0003AFA01226946074401988DF8004001F055
:103BD0002BFA8A246A4601238DF80040C32107444A
:103BE000019801F028FA2A218DF800100122694677
:103BF0000744019801F018FA01236A46C4218DF8A0
:103C000000400744019801F016FAEE218DF80010EB
:103C1000C41901980122694601F006FA0E216A468C
:103C200001238DF80010C5210444019801F003FA26
:103C3000049904444FF000036A46097B00297ED0B2
:103C40002021019801F0F7F901233A210444019859
:103C500003AA01F0F0F90123B046E0216A460444CA
:103C600001988DF8006001F0E6F91C218DF8001034
:103C7000012269460444019801F0D6F901226946FF
:103C8000044401988DF8005001F0CEF912218DF80E
:103C90000010012269460444019801F0C5F937215A
:103CA0008DF80010012269460444019801F0BCF926
:103CB00032218DF80010012269460444019801F078
:103CC000B3F92926694601228DF800600444019861
:103CD00001F0AAF901226946044401988DF800A078
:103CE00001F0A2F901226946044401988DF80060B0
:103CF00001F09AF925218DF800100122694604444B
:103D0000019801F091F92B218DF8001001226946EC
:103D10000444019801F088F939218DF80010071941
:103D200001980122694601F07FF901225C460744AF
:103D3000019869468DF800B001F076F900E0BFE027
:103D400001218DF80010074401980A46694601F0E8
:103D50006BF901224FF0030B0744019869468DF877
:103D600000B001F061F90744694610208DF80000A9
:103D70000198012201F058F901236A46E1218DF8EA
:103D800000B00744019801F056F9074469461D2028
:103D90008DF800000198012201F046F901226946E0
:103DA000074401988DF8005001F03EF906218DF886
:103DB0000010012269460744019801F035F92E25CB
:103DC000694601228DF800500744019801F02CF952
:103DD000074469462C208DF800000198012201F06B
:103DE00023F901226946074401988DF8006001F02B
:103DF0001BF9C6190198012269468DF800A001F04F
:103E000013F901226946064401988DF8005001F02B
:103E10000BF901226946064401988DF8005001F023
:103E200003F937218DF800108519019801226946A0
:103E300001F0FAF83F218DF800100122694605448F
:103E4000019801F0F1F801226946054401988DF8C6
:103E5000004001F0E9F801226946054401988DF817
:103E6000004001F0E1F801226946054401988DF80F
:103E7000008001F0D9F810218DF800100122694668
:103E80000544019801F0D0F801236A4613218DF80A
:103E900000400544019801F0CEF84419019801232F
:103EA0006A46292101F0C7F804440499484600F005
:103EB00065F9001901D04FF0FF3005B0BDE8F08F73
:103EC0002121BEE6F8B520300E46DA216A460746C3
:103ED00001F09CF84FF0FF3408B12046F8BD6D4664
:103EE0003846DB216A1C01F091F80028F5D1AA1CA4
:103EF0003846DC2101F08AF80028EED1BDF8011027
:103F00009DF8002049BA62F31F413160F8BD30B41A
:103F10000C4603692046114630BC184730B40C46A5
:103F200083692046114630BC184700004FF0FF322D
:103F300010B5E0B10B6803604C68002B44600C893D
:103F40000481CC68C4600C6904614C6944618C696B
:103F50008461C969C1610749416207490162074932
:103F600081620749C0E90B1001D09847024610460C
:103F700010BD00000F3F000865420008853F0008A3
:103F80001D3F000830B40C4643692046114630BC42
:103F900018474FF0FF307047F8B51446304A0D46C9
:103FA000114693680A7B497B012B0FD8012902D067
:103FB000022906D018E00AB1183515E0641C1A353C
:103FC00012E0012A10D1641CAD1C0DE0012902D0C1
:103FD000022905D008E00AB1183405E01A3402E0DD
:103FE000012A01D1A41C6D1C6A462030002306461C
:103FF0002A2101F020F807466946280A8DF80000BA
:104000000122304601F010F807446946012230468B
:104010008DF8005001F008F8C5196A4600233046B3
:104020002B2101F008F8210A8DF80010054469469B
:104030000122304600F0F8FF05446946012230466F
:104040008DF8004000F0F0FF44196A460023304626
:104050002C2100F0F0FF001901D04FF0FF30F8BD27
:10406000E80500242DE9F8431546434A0C461E4650
:104070001146DDF8209093680A7B497B012B0ED80E
:10408000012902D0022905D019E00AB1183416E03E
:104090001A3402E0012A12D1A41C6D1C0FE0012980
:1040A00002D0022907D00AE004F101040AB1183550
:1040B00005E01A3503E0012A01D1641CAD1C6A46F3
:1040C0002030002380462A2100F0B5FF07466946CC
:1040D000200A8DF800000122404600F0A5FF0744A9
:1040E0006946012240468DF8004000F09DFF3444AF
:1040F0006946641EC619200A8DF800000122404658
:1041000000F092FF06446946012240468DF80040C7
:1041100000F08AFF84196A46002340462B2100F0F4
:104120008AFF290A8DF8001004446946012240469E
:1041300000F07AFF06196946012240468DF80050CA
:1041400000F072FF05EB09046946641E8519200A18
:104150008DF800000122404600F066FF05446946E4
:10416000012240468DF8004000F05EFF401901D06A
:104170004FF0FF30BDE8F883E80500242DE9FC414D
:10418000244C50234A7B05468F68A02080263FB1EF
:10419000012F05D0012A0FD08AB1022A0FD010E0DA
:1041A000012A03D02AB1022A03D00AE0C4E9003070
:1041B00007E0C4E9006004E0C4E9000301E0C4E9E9
:1041C000000688680022A060087B2073487B1146A7
:1041D00060736068009028462368FFF743FF217BE7
:1041E00006460D480029A16800EBC100007901D105
:1041F00040F008008DF804000123362101AA05F1E2
:10420000200000F018FF801901D04FF0FF30BDE80A
:10421000FC810000E805002474000024F8B506467F
:104220000F481F0A4FF6FF7404EA03234FF0FF35CF
:104230003B43ADF80030036800248B420DD9406841
:1042400090420AD93046FFF7A7FE30B902226946EC
:1042500006F1200000F0E8FE00B12C462046F8BD33
:10426000E8050024F0B4C66814460D4621462846E9
:10427000B446F0BC1A4660477047FCF731BA0000FC
:1042800070B59CB04C216846FCF72BF8202113A890
:10429000FCF727F80220FCF707FB354900243548D6
:1042A0000A6822F001020A600A68026842F4404289
:1042B0000260026802F440421B9202689204FCD53C
:1042C0002D4A136843F002031360126802F00202E1
:1042D0001B92026842F44042026002680A6842F09F
:1042E00001020A60096801F001011B91016889045B
:1042F000FCD5FCF703FBFCF7E7F91F4941F2030289
:1043000084399042086820F0180002D840F0080074
:1043100001E040F010000860022009900521C2036E
:1043200001238DE80E000AAA6026082582E84300D2
:104330000D90CDE910540E900F9068461294FDF741
:1043400085F908B1FCF781F813AA3F20032182E820
:1043500033000121179413A8189419941A94FCF7A8
:10436000ABFF002801D0FCF770F81CB070BD000056
:104370002C04005818480258F4440258214A30B519
:10438000214914680020204B44F470041460103359
:104390000A681E4D42F001020A6018600A681A4B52
:1043A0002A400A6018331C1D251D174A1860283240
:1043B0002060131D28601C1D251D10602A1D18601B
:1043C000131D20601C1D2860251D106018602060D2
:1043D00028600A680C4B0E4C22F4802260330A607D
:1043E000186020686FF30F00B0F1005F03D2094935
:1043F0000120C1F808014FF00060024980390860CF
:1044000030BD000088ED00E0004402587FEDF6EA80
:104410000010005C008000512DE9F047274B4FF061
:10442000804A274D02689842264E274F274C09D0D4
:10443000504507D0A84205D0B04203D0B84201D0C1
:10444000A04205D1D1F804C022F070024CEA020269
:10445000DFF87CC0DFF87C809842DFF87C900FD0DA
:1044600050450DD0A8420BD0B04209D0B84207D079
:10447000A04205D0604503D0404501D0484503D156
:10448000CD6822F440722A434D6922F080022A430B
:10449000026098428A68C2620A68826207D0A042BB
:1044A00005D0604503D0404501D0484501D1096998
:1044B000016301214161BDE8F08700000000014077
:1044C0000004004000080040000C004000040140CF
:1044D00000400140004401400048014010B5046A1A
:1044E000042301F01F018B409C4304628A40016A4F
:1044F0001143016210BD00002DE9F04F026ADFF8A0
:104500008880DFF8889022F00102DFF884A0DFF8CD
:1045100084B0214F0262DFF884C0066A4268836972
:1045200026F002060D68B8428C6803EA0C0323F0FB
:10453000030344EA060445EA030507D0404505D0D5
:10454000484503D0504501D0584505D1CB6824F0EB
:104550000804234323F00404B84207D0404505D0A3
:10456000484503D0504501D0584505D122F4407646
:10457000D1E9053233431A4342608561496841639A
:104580000462BDE8F08F00000004014000400140DB
:104590000044014000480140000001408FFFFEFF41
:1045A000F0B5026A1E4E1F4C22F01002DFF878E0D0
:1045B0000262056A4368826925F02005D1F808C0C7
:1045C000A0420F6802EA060222F4407245EA0C1586
:1045D00042EA072201D0704506D1CE6825F0800559
:1045E00045EA061525F04005A0420AD0704508D0DE
:1045F0000E4CA04205D00E4CA04202D00D4CA04261
:1046000007D1D1E9054623F4406343EA840343EA32
:10461000860343608261496881630562F0BD0000E2
:10462000FF8FFFFE000001400004014000400140F8
:104630000044014000480140F0B5026A1E4F1F4E81
:1046400022F48072DFF878E00262056A4368C2698A
:1046500025F40075D1F808C0B0420C6802EA0702E0
:1046600022F0030245EA0C2544EA020401D0704519
:1046700006D1CF6825F4006242EA072222F4806561
:10468000B0420AD0704508D00E4A904205D00E4A7A
:10469000904202D00D4A904207D123F44052D1E912
:1046A000053642EA031242EA06134360C4614968D0
:1046B000C1630562F0BD00008FFFFEFF00000140F6
:1046C0000004014000400140004401400048014016
:1046D000F0B5026A174B164F22F4805298420262DC
:1046E000046A4268C36924F400548E680D6803EAC2
:1046F000070323F4407344EA063443EA05230BD04E
:104700000D4DA84208D00D4DA84205D00C4DA84231
:1047100002D00C4DA84204D14D6922F4804242EAF5
:1047200085124260C361496801640462F0BD000003
:10473000FF8FFFFE000001400004014000400140E7
:104740000044014000480140F0B5026ADFF854C05F
:1047500022F480320262056A4268446D25F4003515
:104760000E896045104F0B6804EA070445EA0645C8
:1047700043EA04030BD00D4CA04208D00C4CA042DD
:1047800005D00C4CA04202D00B4CA04204D14C6985
:1047900022F4803242EA042242604365496881651E
:1047A0000562F0BD000001408FFFFEFF00040140E4
:1047B000004001400044014000480140F0B5026A59
:1047C000DFF854C022F480120262046A4268436D2A
:1047D00024F400140E896045104F0D6803EA0703A6
:1047E00044EA065443EA05230BD00D4DA84208D0F5
:1047F0000C4DA84205D00C4DA84202D00B4DA8424A
:1048000004D14D6922F4802242EA85224260436548
:104810004968C1650462F0BD00000140FF8FFFFEE2
:1048200000040140004001400044014000480140B4
:10483000FEE700000FB4084B10B504A902AA0398C4
:1048400000F02CF8044602A9002000F052FA20469D
:1048500010BC5DF814FB0000F34C000809070028A9
:104860004FEA116104DB00F1E02080F8001470478A
:1048700000F00F0000F1E02080F8141D704702E006
:1048800008C8121F08C1002AFAD1704770470020DB
:1048900001E001C1121F002AFBD170472DE9FF4F33
:1048A0008DB00F460546002606E025280BD0DDE931
:1048B0000F1290476D1C761C28780028F5D111B096
:1048C0003046BDE8F08F0024A246A1460122E94906
:1048D00000E0044315F8013F203B02FA03F00842D0
:1048E000F7D128782A2810D06FF02F022878A0F16D
:1048F0003001092914D80AEB8A0102EB410144F086
:10490000020400EB010A6D1CF0E701CF5FEA000A28
:1049100003D544F40054CAF1000A44F002046D1CAB
:1049200028782E2817D115F8010F44F004042A28FE
:104930000ED06FF02F022878A0F1300109290AD893
:1049400009EB890102EB410100EB01096D1CF2E763
:1049500057F8049B6D1C28786C280FD006DC4C2877
:1049600017D068280DD06A2814D104E0742810D01C
:104970007A280FD10DE044F400140AE044F48014C6
:1049800001E044F440146978814202D104F58014B6
:104990006D1C6D1C28786E281ED00CDC632830D06E
:1049A00004DC00288BD0582811D19FE0642867D000
:1049B00069280CD164E073282DD004DC6F2872D0F4
:1049C000702804D194E075286ED078286DD0DDE988
:1049D0000F129047761C4BE1C4F30250022806D018
:1049E000032809D0042801CF09D0066040E101CF97
:1049F000F117C0E900613BE101CF068038E10670A4
:104A000036E117F8040B8DF8000000208DF8010046
:104A1000EB46012003E057F804BB4FF0FF3061077D
:104A20004FF0000102D40DE008F10101884649452C
:104A30000FDA8045F8DB1BF808100029F4D108E0F4
:104A400008F1010188468142FADB1BF808100029B1
:104A5000F6D1DDE90F23AAEB08008146214600F0DC
:104A600031F9304400EB080604E0DDE90F121BF8D1
:104A7000010B9047B8F10108F7D221464846F2E011
:104A80000A21C4F302524FF0000B0891022A04D00D
:104A900001CFC117032A09D00AE0FF1D27F007073D
:104AA000F7E8020108E02CE01EE01FE000B2C117A9
:104AB000042A01D140B2C117021E71F1000206DAC8
:104AC0000023D0EB030063EB01012D2202E022055D
:104AD00004D52B228DF82420012203E0E20701D027
:104AE0002022F7E7904653E00A210BE0102109E06D
:104AF00010214FF0000B44F004044FF00809089116
:104B000003E008214FF0000B0891C4F30252022A7F
:104B100004D001CF0021032A06D006E0FF1D27F0B4
:104B20000707F7E8020103E080B2042A00D1C0B20F
:104B30004FF0000822072BD52A78702A07D0DDF81D
:104B400020C08CF0100C5CEA0B0C05D00EE040226B
:104B50008DF82420012208E050EA010306D030231A
:104B60008DF824308DF8252002229046089B83F092
:104B7000080353EA0B030BD150EA010201D162078B
:104B800006D530228DF824204FF00108A9F1010943
:104B90002A78582A04D038A20B9208AA0A920BE06D
:104BA0003AA2F9E75B46089AFBF7A6FB0B9B9B5CD6
:104BB0000A9A521E0A92137050EA0102F2D10A9820
:104BC000ADEB000000F1200B600702D524F4803427
:104BD00001E04FF00109D94502DDA9EB0B0000E02F
:104BE000002000EB0B0141440890AAEB010AE0030E
:104BF00006D4DDE90F232146504600F063F8064451
:104C00004FF0000908E009A911F80900DDE90F12C9
:104C1000904709F10109761CC145F4DBE0030CD58E
:104C2000DDE90F232146504600F04CF8064404E02D
:104C3000DDE90F1230209047761C0899481E089035
:104C40000029F5DC08E00A980A990078491C0A91C5
:104C5000DDE90F129047761CBBF10001ABF1010BAF
:104C6000F1DC21465046DDE90F2300F019F8064437
:104C70006D1C21E6092801003031323334353637D6
:104C80003839616263646566000000003031323398
:104C90003435363738394142434445460000000038
:104CA0002DE9F041044600251E461746880404D429
:104CB00005E039462020B0476D1C641EF9D5284612
:104CC000BDE8F0812DE9F041044600251E469046DE
:104CD000C80301D5302700E02027880404D505E06B
:104CE00041463846B0476D1C641EF9D52846BDE8DC
:104CF000F0810A68531C0B601070704710B50028D3
:104D000021D0114B0022001F196803E0814203D813
:104D10000A4649680029F9D152B11368841A9C42A5
:104D200004D1006818441060104602E0506000E0B2
:104D3000186039B102680B1A934203D10B681A4408
:104D400002604968416010BDA8000024FBF7C2BCA6
:104D500010B5034800240421FDF7A8FC204610BD2F
:104D6000A40600242DE9F341174D4FF400640022FE
:104D7000884621462846FBF79AFCA60028460022D2
:104D80003146FBF794FC1148642301226946FDF784
:104D9000A7FA0122074631462846FBF788FC0B4854
:104DA00001224FF4FA734146FDF7B4F9C6192146C2
:104DB00001222846FBF77BFC002E03DD4FF0FF307D
:104DC000BDE8FC810020FBE7001002581C0600240F
:104DD0002DE9F0410F4E4FF4006500220C460746C6
:104DE00029463046FBF763FCA2B20B484FF4FA7336
:104DF0003946FDF78FF90122044629463046FBF774
:104E000056FC002C03DD4FF0FF30BDE8F0810020A0
:104E1000FBE70000001002581C0600242DE9F041B9
:104E20000E4E4FF4006500220C46074629463046D8
:104E3000FBF73DFCA2B20A4864233946FDF750FA5D
:104E40000122044629463046FBF731FC002C03DDE5
:104E50004FF0FF30BDE8F0810020FBE70010025862
:104E60001C0600242DE9F743194E4FF4006815463F
:104E70008946002241463046FBF719FC4FF40057A3
:104E8000304600223946FBF712FC12486423012207
:104E90006946FDF725FA0122044639463046FBF7FC
:104EA00006FC3DB1AAB20B484FF4FA734946FDF730
:104EB00017FA0444414601223046FBF7F8FB002C68
:104EC00003DD4FF0FF30BDE8FE830020FBE700006C
:104ED000001002581C0600248EB0FDF7BFFFFBF740
:104EE0006FFAFBF705FCFFF7CBF9FDF7F3FFFEF7D1
:104EF0004BF8FEF7D5F8FEF703F9FDF791FE102504
:104F000002AC4FF4FA761A4800220CAF07A9FCF75E
:104F10008DFE174800223946FCF764FE9DF81E00FE
:104F20009DF81D309DF81C20C00701D011A100E0A4
:104F300014A102A8FFF77EFC1023A0223A2104202E
:104F4000CDE90054FDF742FEFBF7C4FB11A1024678
:104F500002A8FFF76FFC1023A0224A210420CDE90C
:104F60000054FDF733FE03203146FDF75FFFCAE72B
:104F7000F805002454696D653A20253032643A25DD
:104F80003032640054696D653A2025303264202542
:104F9000303264005469636B3A202564206D7300DD
:104FA000F0B50B30154D20F007010024144A0FE036
:104FB00003688B420BD38B4205D95E1A43184768AE
:104FC000C3E9006700E04368136002C004E0021D0B
:104FD00010680028ECD12046002802D1286808B1CA
:104FE0000020F0BD064A07481060074A121A22F056
:104FF0000702C0E9002401202860D7E7AC000024A4
:10500000A8000024F4060024F008002430B444680A
:105010000369A44630BC1846604730B4D0E9034366
:10502000A44630BC1846604730B484680369A4467F
:1050300030BC1846604730B4046905682046AC4669
:1050400030BC6047000000000000000000000000CD
:10505000000000003F4000000000000000003000A1
:10506000400030004000000009000BC03D000BC0B4
:105070003D00090018C024407FE02240318000003C
:10508000180024C01B000D803240018003801C40AA
:1050900027401C8007400040100060000000000016
:1050A000000000000000000000001F8020404020A1
:1050B0000000402020401F80000000000900060082
:1050C0001F80060009000000040004003F80040067
:1050D000040000000010006000000000000000005C
:1050E000040004000400040004000000000000406C
:1050F0000000000000000000002001C00600380091
:10510000400000001F802040204020401F80000001
:10511000000010403FC000400000000018C02140C7
:1051200022402440184000001080204024402440A9
:105130001B80000002000D0011003FC00140000074
:105140003C80244024402440238000001F802440D1
:1051500024403440038000003000200027C0380085
:10516000200000001B802440244024401B800000BD
:105170001C0022C0224022401F80000000000000CE
:105180000840000000000000000000000460000073
:1051900000000000000004000A00110020804040D0
:1051A0000900090009000900090000000000404052
:1051B000208011000A000400180020002340240071
:1051C000180000001F802040274029401F40000099
:1051D000004007C039000F0001C0004020403FC020
:1051E000244024401B8000001F802040204020409D
:1051F0003080000020403FC0204020401F80000041
:1052000020403FC024402E4030C0000020403FC01E
:1052100024402E00300000000F001080204022406B
:105220003380020020403FC0040004003FC0204003
:10523000204020403FC0204020400000006020204F
:1052400020203FC02000200020403FC024400B0011
:1052500030C0204020403FC020400040004000C0FF
:105260003FC03C0003C03C003FC0000020403FC0A6
:105270000C4023003FC020001F80204020402040E1
:105280001F80000020403FC0244024001800000080
:105290001F802140214020E01FA0000020403FC08F
:1052A0002440260019C0004018C024402440224059
:1052B00031800000300020403FC02040300000001E
:1052C00020003F80004000403F80200020003E0042
:1052D00001C0070038002000380007C03C0007C0AC
:1052E00038000000204039C0060039C020400000CE
:1052F0002000384007C0384020000000304021C066
:105300002640384020C00000000000007FE0402020
:1053100040200000000070000C00038000400000EE
:105320000000402040207FE000000000000020003E
:1053300040002000000000000010001000100010CD
:1053400000100010000000004000000000000000FD
:10535000000002800540054003C0004020003FC01F
:105360000440044003800000000003800440044027
:105370000640000000000380044024403FC000407D
:105380000000038005400540034000000000044089
:105390001FC0244024402000000002E005500550BA
:1053A0000650042020403FC00440040003C00040D9
:1053B0000000044027C00040000000000010001062
:1053C000041027E00000000020403FC0014007001B
:1053D00004C00440204020403FC000400040000086
:1053E00007C0040007C0040003C00000044007C059
:1053F0000440040003C00040000003800440044057
:1054000003800000041007F00450044003800000F3
:10541000000003800440045007F00010044007C05F
:105420000240040004000000000006400540054062
:1054300004C00000000004001F8004400040000081
:10544000040007800040044007C00040040007003B
:1054500004C0018006000400060001C0070001C06E
:1054600006000000044006C0010006C00440000021
:105470000410071004E0018006000400000004404E
:1054800005C00640044000000000000004007BE06E
:1054900040200000000000000000FFF000000000BD
:1054A000000040207BE0040000000000400080007D
:1054B000400020002000400000000000000000002C
:1054C00000000000000000000000000000001FCCF1
:1054D000000C000000000000000008003000600028
:1054E0000800300060000000022003FC1E200220A3
:1054F00003FC1E200220000000000E1811043FFFD4
:1055000010840C78000000000F0010840F3800C0D9
:10551000077818840078000000780F8410C41124E4
:105520000E9800E400840008080068007000000085
:10553000000000000000000000000000000007E084
:10554000181820044002000000004002200418182F
:1055500007E00000000000000240024001800FF060
:1055600001800240024000000080008000800FF8AF
:1055700000800080008000000001000D000E00008F
:10558000000000000000000000000080008000809B
:1055900000800080008000800000000C000C0000F3
:1055A000000000000000000000000006001800607D
:1055B0000180060018002000000007F00808100411
:1055C0001004080807F000000000080408041FFC8D
:1055D000000400040000000000000E0C1014102451
:1055E000104411840E0C000000000C18100411046B
:1055F000110412880C700000000000E00320042455
:1056000008241FFC0024000000001F9810841104CF
:105610001104108810700000000007F008881104C1
:10562000110418880070000000001C00100010FC1D
:1056300013001C001000000000000E3811441084FC
:10564000108411440E38000000000700088C10443C
:105650001044088807F00000000000000000030C60
:10566000030C000000000000000000000001010623
:105670000000000000000000000000800140022047
:10568000041008081004000002200220022002205A
:10569000022002200220000000001004080804106C
:1056A000022001400080000000000E001200100CDB
:1056B000106C10800F00000003E00C1813E4142499
:1056C00017C4082807D000000004003C03C41C4095
:1056D000074000E4001C000410041FFC1104110426
:1056E00011040E880070000003E00C181004100470
:1056F000100410081C10000010041FFC10041004FB
:105700001004080807F0000010041FFC1104110425
:1057100017C410040818000010041FFC1104110025
:1057200017C010000800000003E00C18100410045B
:1057300010441C780040000010041FFC10840080FE
:10574000008010841FFC10040000100410041FFCD3
:1057500010041004000000000003000110011001FB
:105760001FFE10001000000010041FFC1104038035
:105770001464181C1004000010041FFC1004000422
:1057800000040004000C000010041FFC1F0000FCBB
:105790001F001FFC1004000010041FFC0C04030079
:1057A00000E010181FFC100007F008081004100497
:1057B0001004080807F0000010041FFC108410807B
:1057C000108010800F00000007F00818102410242B
:1057D000101C080A07F2000010041FFC110411003D
:1057E00011C011300E0C000400000E1C11041084B6
:1057F000108410441C3800001800100010041FFC16
:10580000100410001800000010001FF8100400041D
:10581000000410041FF8100010001E0011E0001C0E
:10582000007013801C0010001FC0103C00E01F001F
:1058300000E0103C1FC000001004180C163401C01A
:1058400001C01634180C100410001C00130400FCD6
:1058500013041C00100000000804101C10641084C5
:1058600013041C04101800000000000000007FFE5C
:105870004002400240020000000030000C000380A3
:105880000060001C000300000000400240024002D3
:105890007FFE00000000000000000000200040002B
:1058A0004000400020000000000100010001000154
:1058B0000001000100010001000040004000200044
:1058C00000000000000000000000009801240144D6
:1058D0000144014400FC000410001FFC0088010486
:1058E00001040088007000000000007000880104BE
:1058F0000104010400880000000000700088010419
:10590000010411081FFC0004000000F801440144D8
:105910000144014400C800000000010401040FFC20
:105920001104110411001800000000D601290129FA
:10593000012901C90106000010041FFC00840100B8
:105940000100010400FC000400000104190419FC1A
:105950000004000400000000000000030001010139
:10596000190119FE0000000010041FFC0024004073
:1059700001B4010C010400000000100410041FFC1D
:105980000004000400000000010401FC0104010007
:1059900001FC0104010000FC010401FC0084010081
:1059A0000100010400FC0004000000F801040104EF
:1059B0000104010400F80000010101FF0085010459
:1059C00001040088007000000000007000880104DD
:1059D0000104010501FF00010104010401FC008430
:1059E0000104010001800000000000CC012401241A
:1059F000012401240198000000000100010007F8C3
:105A00000104010400000000010001F8000400048A
:105A10000004010801FC0004010001800170000C79
:105A2000001001600180010001F0010C003001C094
:105A30000030010C01F0010000000104018C007431
:105A40000170018C01040000010101810171000E4F
:105A5000001801600180010000000184010C013484
:105A600001440184010C000000000000000000005F
:105A700001003EFC40024002000000000000000067
:105A8000FFFF0000000000000000400240023EFC5A
:105A900001000000000000000000600080008000A5
:105AA000400040002000200089504E470D0A1A0A8D
:105AB0000000000D4948445200000050000000A0C2
:105AC00008060000009B83EBB400000001735247FE
:105AD0004200AECE1CE90000000467414D410000C9
