:020000040800F2
:100000004063002029020008F7370008D5300008B7
:10001000F53700081F040008F95900080000000027
:10002000000000000000000000000000753900081A
:1000300069050008000000007339000881390008D4
:10004000430200084302000843020008430200087C
:1000500043020008430200086B0500084302000841
:10006000430200084302000843020008430200085C
:1000700099040008430200084302000843020008F4
:100080004302000843020008430200082D04000850
:10009000210400084302000843020008710500081B
:1000A000313A0008430200084302000843020008F6
:1000B000430200084302000843020008430200080C
:1000C00043020008430200084302000843020008FC
:1000D00043020008313F0008430200083D3F00088A
:1000E00043020008430200084302000843020008DC
:1000F00043020008430200084302000843020008CC
:1001000043020008430200084302000843020008BB
:1001100043020008430200084302000843020008AB
:10012000A5040008B1040008BD040008C9040008C3
:100130004302000843020008430200084504000887
:10014000390400084302000843020008F937000898
:1001500043020008D5040008E1040008493F0008F4
:10016000430200084302000843020008430200085B
:100170004302000843020008430200080000000098
:10018000430200084302000800F002F800F03CF8C7
:100190000AA090E8000C82448344AAF10107DA45E2
:1001A00001D100F031F8AFF2090EBAE80F0013F0F8
:1001B000010F18BFFB1A43F0010318473459000020
:1001C00054590000103A24BF78C878C1FAD85207B1
:1001D00024BF30C830C144BF04680C6070470000C1
:1001E0000023002400250026103A28BF78C1FBD840
:1001F000520728BF30C148BF0B6070471FB505F0DC
:1002000061FC1FBD10B510BD00F0CFF81146FFF71F
:10021000F5FF05F003FC00F0EDF803B4FFF7F2FF83
:1002200003BC00F0F5F80000094880470948004782
:10023000FEE7FEE7FEE7FEE7FEE7FEE7FEE7FEE796
:10024000FEE7FEE704480549054A064B70470000F3
:10025000213A000889010008402300204063002063
:10026000404300204043002053EA020C00F0698024
:100270002DE9F04B4FF00006002B1FBFB3FA83F5BA
:1002800003FA05F424FA05F65E4012BF1643B2FAEB
:1002900082F502FA05F4C5F120051EBF22FA05FC1D
:1002A00044EA0C04203556EA044C4FEA144418BFC3
:1002B000641C4FF000084FF00009904271EB030CF2
:1002C00039D3002919BFB1FA81F701FA07F6B0FA5C
:1002D00080F700FA07F6C7F120071EBF20FA07FCD7
:1002E00046EA0C062037B6FBF4FCA7EB0507103FE7
:1002F00007F01F0BCBF120060CFA0BFB2CFA06F6CD
:1003000044BFB3460026202FA4BF5E464FF0000B2B
:100310005BEA060C08BF4FF0010B19EB0B09ABFBB6
:10032000027C48EB0608C01B06FB02CC0BFB03CC8F
:1003300071EB0C01C1E70B46024641464846BDE859
:10034000F08B13B54FF000004FF00001AFF30080C9
:10035000BDE81C4070474FF0000200B513469446BC
:100360009646203922BFA0E80C50A0E80C50B1F10D
:100370002001BFF4F7AF090728BFA0E80C5048BF21
:100380000CC05DF804EB890028BF40F8042B08BFBF
:10039000704748BF20F8022B11F0804F18BF00F8BB
:1003A000012B7047704770477047754600F02CF876
:1003B000AE4605006946534620F00700854618B052
:1003C00020B5FFF73FFFBDE820404FF000064FF09B
:1003D00000074FF000084FF0000B21F00701AC467A
:1003E000ACE8C009ACE8C009ACE8C009ACE8C00999
:1003F0008D46704710B50446AFF300802046BDE837
:100400001040FFF70ABF000000487047E0220020BC
:1004100001491820ABBEFEE7260002007047FEE748
:10042000014800F0B1B8000008010020014800F0C8
:10043000ABB8000008010020014800F0A5B800009A
:1004400030010020014800F09FB80000300100207A
:10045000002070470020704710B50022044905486D
:1004600003F058FF0449034803F047FF002010BD84
:10047000DC13002000070020DC0B002010B5014633
:10048000034803F03AFF024803F010FF002010BDBC
:100490000007002000207047014800F0F7BA000074
:1004A00098050020014800F0F1BA00002002002069
:1004B000014800F0EBBA0000F8050020014800F008
:1004C000E5BA0000D8040020014800F0DFBA0000BF
:1004D00080020020014800F0D9BA00005806002030
:1004E000014800F0D3BA0000380500200168182345
:1004F000CAB2103AB2FBF3F2054B6FF30901032ABB
:100500009B5CC36500D9091D8165084670470000E2
:10051000CE5A000810B5014600208B698A6A4FF058
:10052000C07453B1B3F5005F15D072B1012A0CD07D
:10053000022A0AD0032A09D104E01AB1012A06D0FE
:10054000022A03D1C96AC90100D5012010BDC96AB8
:10055000A142FAD010BD002AF7D0012AF2D0022A17
:10056000F3D0032AF3D010BD7047012000F0DCBBAC
:1005700010B5202000F0D8FBBDE81040402000F06E
:10058000D3BB72B6FEE770472DE9F05F0546006801
:1005900000244669D0F804908768D0F80CB0D0F8F1
:1005A00010A0D0F81880F10748D0F90714D0012125
:1005B0008160B80703D5284600F006FA0CE07807FA
:1005C00002D54FF4006407E0380702D54FF4805499
:1005D00002E0284600F0F7F9F80516D529684FF42F
:1005E00080708860B80503D5284600F0EFF90CE06C
:1005F000780502D544F4005407E0380502D544F4E8
:10060000804402E0284600F0E0F9F80316D5296896
:100610004FF480308860B80303D5284600F0D8F93D
:100620000CE0780302D544F4004407E0380302D517
:1006300044F4803402E0284600F0C9F9300707D5B9
:100640005FEACB6004D52968102044F40074C860C8
:1006500070074FF0080707D55FEA0B7004D52868CC
:10066000C760284600F0AAF9B00706D52868C06818
:10067000800702D0284600F0A2F9700607D55FEA8D
:10068000CA6004D52968102044F480640861B0066B
:1006900007D55FEA0A7004D528680761284600F08C
:1006A0008FF9F00606D528680069800702D0284631
:1006B00000F087F9B00308D55FEAC96005D529685D
:1006C00010204860284600F07DF9F00307D55FEA66
:1006D000097004D528684760284600F07AF930048C
:1006E00046D55FEA497040D5F00504D55FEAC87089
:1006F00001D044F00104B00504D55FEA887001D54B
:1007000044F00204700504D55FEA487001D544F056
:100710000404300529D518F0700F26D008F07000B9
:10072000402815D006DC102809D020280AD030280F
:1007300016D10AE050280ED0602811D10EE044F006
:1007400008040DE044F010040AE044F0200407E03F
:1007500044F0400404E044F0800401E044F4807478
:100760002868816921F0700181612968042048604E
:10077000002C05D0686A204368622846FFF703FF13
:10078000BDE8F09F70B5040003D094F8200010B1CC
:1007900004E0012070BD204600F082F82068016866
:1007A00041F00101016000F0C9FB0546052604E0A7
:1007B00000F0C4FB401B0A2811D820684068C0071D
:1007C000F6D02068016821F00201016000F0B6FB5C
:1007D00005460BE000F0B2FB401B0A2806D9606A10
:1007E00040F40030606284F82060D2E720684068FE
:1007F0008007EFD4207E0128206801683DD021F0D9
:1008000080010160607E01282068016838D021F0F5
:1008100040010160A07E01282068016833D021F0EA
:1008200020010160E07E0128206801682ED041F09F
:1008300010010160207F01282068016829D021F083
:1008400008010160607F01282068016824D021F040
:1008500004010160D4E902010843D4E90412114300
:1008600008436168491E08432168C861002060622E
:10087000012084F82000002070BD41F08001C0E715
:1008800041F04001C5E741F02001CAE721F0100125
:10089000CFE741F00801D4E741F00401D9E70000B7
:1008A000F0B587B0044614216846FFF754FD3E4B6F
:1008B0003E48DFF8F0E01968D4F800C03B4A032551
:1008C0000226092710300024491CF4452AD119605A
:1008D000012907D1016841F000710160006800F052
:1008E00000700590106840F0080010601068CDE9B5
:1008F000005600F00800CDE9047069462C48CDE9A7
:10090000024500F01DFA00221146132000F0D2FC2F
:10091000132000F0C1FC00221146142000F0CAFC94
:1009200014203AE0DFF88CE0F44538D1D0F800C06C
:100930004CF0806CC0F800C0D0F800C001290CF069
:10094000806CCDF814C0196007D1016841F00071C6
:100950000160006800F000700590106840F002002F
:100960001060106802AB00F0020005906020CDE935
:10097000000683E8B00069460F4800F0E1F9002264
:1009800011463F2000F096FC3F2000F085FC00223D
:100990001146402000F08EFC402000F07DFC07B0A6
:1009A000F0BD00000064004000000020303802402C
:1009B000000C02400068004000040240704770478D
:1009C000704770477047704770477047704770476F
:1009D000704770472DE9F0410446876D00F0AEFA8C
:1009E000064694F835000025022806D08020606570
:1009F00084F834500120BDE8F0812068016821F0BE
:100A0000160101602068416921F080014161206C7C
:100A100008B9A06C20B12068016821F008010160CC
:100A20002068016821F0010101600CE000F086FA05
:100A3000801B052807D920206065032084F8350035
:100A400084F83450D7E720680068C007EED194F8E6
:100A50005C103F208840B860012084F8350084F89D
:100A600034500020C7E790F83510022903D08021C8
:100A7000416501207047052180F835100068016844
:100A800021F0010101600020704700002DE9F843CA
:100A900004464FF00009CDF8009063484FF416511A
:100AA000A56D0068B0FBF1F72E6894F85C10082083
:100AB00000FA01F131420FD021680A6852070BD5C4
:100AC0000A6822F004020A6094F85C108840A8606A
:100AD000606D40F00100606594F85C104FF0010813
:100AE00008FA01F0304208D021684969090604D5A6
:100AF000A860606D40F00200606594F85C1004200E
:100B00008840304208D021680968890704D5A86068
:100B1000606D40F00400606594F85C10102088401F
:100B2000304218D021680968090714D5A8602068E8
:100B30000168490304D50068000308D5A16C07E0EB
:100B40000168C90503D4016821F008010160216C26
:100B500009B12046884794F85C1020208840304234
:100B600031D021680968C9062DD5A86094F83500F0
:100B700005282068016806D0490347D500680003AE
:100B80001DD4616C1CE021F01601016020684169F0
:100B900021F080014161206C08B9A06C20B120686F
:100BA000016821F00801016094F85C103F20884042
:100BB000A86084F8358084F83490216D1FE0E16BE3
:100BC00009B120468847606D00282BD0606DC007B2
:100BD00014D0052084F835002068016821F0010157
:100BE00001600098401C0090B84203D8206800685B
:100BF000C007F6D184F8358084F83490E16C002980
:100C000010D001B02046BDE8F04308470168C9058F
:100C1000D5D4016821F01001016084F8358084F892
:100C20003490CCE7BDE8F883740000202DE9F04152
:100C3000044600F083F906465CB1022084F83500D2
:100C4000002584F834502068016821F0010101601A
:100C50000DE00120BDE8F08100F070F9801B05284F
:100C600005D920206065032084F83500F2E720686C
:100C70000068C007F0D12268116820480140D4E91B
:100C800001031843D4E90336334318436369184317
:100C9000A3691843E3691843236A18430843616A48
:100CA000042903D1D4E90B131943084310602068C9
:100CB0004069666A20F0070130460E430127042888
:100CC0000CD1A06A0643E06A40B12046FFF722FC3F
:100CD00020B14020606584F83570BAE7206846612D
:100CE0002046FFF703FC94F85C203F21914081608F
:100CF000656584F835700020ACE700003F8010F097
:100D000070B5044600F01AF90546601C02D004488C
:100D10000078044400F012F9401BA042FAD370BDE1
:100D20006800002070470000044910B50A680242BC
:100D300002D00860FFF7F6FF10BD0000143C014030
:100D40002DE9F84FDFF8BCA10022012503264FF062
:100D50000F090AF1040BAAF1040E00BF0B6805FA93
:100D600002F42340A34270D10F7907F00307012F4B
:100D700001D0022F16D187684FEA420806FA08FC14
:100D800027EA0C07D1F80CC00CFA08FC4CEA070C57
:100D9000C0F808C04768A7430C79C4F30014944016
:100DA0003C4344600C79E443A4070AD0C4684FEA8A
:100DB000420C06FA0CF7BC438F6807FA0CF727437E
:100DC000C7600C7904F00304022C12D1D40800EBA4
:100DD000840CDCF820405707FF0E09FA07F824EAD4
:100DE0000804D1F8108008FA07F848EA0408CCF89B
:100DF000208004684FEA420C06FA0CF7BC430F79D6
:100E000007F0030707FA0CF7274307604C6814F450
:100E1000403F70D03C4C276847F4804727602468E7
:100E200022F0030704F480440094384C07EB040CD0
:100E3000DCF8084897074FEA177809FA08F7BC4327
:100E4000334FB84202D1002724E054E0314FB8427A
:100E500001D101271EE0304FB84201D1022719E02D
:100E60002E4FB84201D1032714E02D4FB84201D1D3
:100E700004270FE02B4FB84201D105270AE02A4F83
:100E8000B84201D1062705E0284FB84201D1072713
:100E900000E0082707FA08F72743CCF80878DAF8C3
:100EA00000405746D1F804C09C435FEACC2C00D5E3
:100EB0001C433C60DBF800405F46D1F804C09C4313
:100EC0005FEA8C2C00D51C433C60DEF8004077467E
:100ED000D1F804C09C435FEA8C3C00D51C433C60C5
:100EE000084F083F3C68D1F804C09C435FEACC3C03
:100EF00000D51C433C60521C102AFFF42FAFBDE804
:100F0000F88F0000083C01404438024000300140A6
:100F1000000002400004024000080240000C0240B1
:100F2000001002400014024000180240001C024061
:100F30000AB1816170470904FBE70000014880683D
:100F4000704700006800002070B5040025D094F8B8
:100F50003D00002520B984F83C50204600F0B8F848
:100F6000242084F83D002068016821F0010101601F
:100F70002068016841F4004101602068016821F4A3
:100F80000041016000F0A2FF4D4A6168914201D822
:100F90004C4900E04C49884201D2012070BD4B49C8
:100FA0002368B0FBF1F15E6826F03F060E435E60F9
:100FB0006368934206D94FF4967359434FF47A739A
:100FC000B1FBF3F12368491C1E6A26F03F0631434A
:100FD00019626168914210D84900401EB0FBF1F2DD
:100FE000521CC2F30B02042A01D2042022E0B0FBFF
:100FF000F1F0401CC0F30B001CE0A268F2B301EB5F
:10100000C10303EB0116431EB3FBF6F35B1C43F471
:1010100080431B0549D092B301EBC10202EB0111E1
:10102000401EB0FBF1F0401CC0F30B0040F48040C8
:1010300040F400402168CA694CF6FF739A4310439C
:10104000C861D4E9071001432068026822F0C00299
:1010500011430160D4E9030101432068826848F22A
:10106000FF339A4311438160D4E9050108432168A5
:10107000CA6822F0FF021043C86001E00EE016E0EB
:101080002068016841F0010101602564202084F896
:101090003D00256384F83E50002070BD01EB410601
:1010A000431EB3FBF6F35B1CB3E70120C2E701EB81
:1010B0004101401EB0FBF1F0401CC0F30B00B7E74C
:1010C000A086010080841E0000093D0040420F0000
:1010D00010B586B0044614216846FFF73CF9144960
:1010E0002068884221D11348016841F00201016063
:1010F0000068694600F0020005904FF440700090CF
:1011000012200190012002900320039004200490FB
:101110000948FFF715FE07481030016841F4001137
:101120000160006800F40010059006B010BD0000DA
:1011300000540040303802400004024070B5040002
:1011400011D021684CF6CC400860216845F255501A
:101150000860D4E9000141602168A0688860FFF759
:10116000EDFE05460DE0012070BD00BFFFF7E6FE75
:10117000401B312805D92068C068800701D00320B2
:1011800070BD2068C0688007F0D121684AF6AA20A7
:101190000860002070BD0000024881680278114498
:1011A00081607047680000200B4810B5016841F469
:1011B00000710160016841F480610160016841F4DF
:1011C00080710160032000F095F80F2000F006F810
:1011D00000F04AF8002010BD003C024030B5054642
:1011E0001C4887B00024016841F480310160006828
:1011F00006A900F48030009001A800F041FE00F044
:1012000075FE15494000B0FBF1F11548134A491E1F
:10121000026040F2E732C0E90324C0E901148461AE
:1012200001F0DAF9040012D10D4801F023FA0400AC
:101230000DD1182000F030F8102D07D200222946D9
:10124000182000F037F80748056000E0012407B0D7
:10125000204630BD4438024040420F00004001406B
:10126000B80600206C0000200A4808B5016841F467
:1012700080410160006800F4804000900548001F34
:10128000016841F080510160006800F080500090DA
:1012900008BD000044380240002809DB00F01F02AE
:1012A000012191404009800000F1E020C0F80011C8
:1012B00070470000F0B40E4B1B680C46C3F30223CA
:1012C000C3F10705042D00D90425191D072901D2F2
:1012D000002300E0DB1E012606FA05F1491E21402D
:1012E00099409E40761E16403143F0BC04F085BB09
:1012F0000CED00E0064900F0070208684FF6FF0316
:10130000184040EA0220034A10430860704700007A
:101310000CED00E00000FA05704700684162002013
:101320007047F0B50368586A39B19C6A4FF4827609
:1013300000EB144400204D1E0AE040EA024098628F
:101340000FE006EB8007DF59401C04EB1744C0B2E6
:10135000A842F6D344EA02404FF4807202EB8101C6
:1013600058500020F0BDD0F8E00403F0A9BA01EB1A
:10137000C10200EB8202D0F8E004126A03F0FEB969
:1013800001EBC10200EB8202D0F8E004D2F8602247
:1013900003F04FBAD0F8E00403F094BA0A0601F063
:1013A0000F0101EBC10100EB810101D5143101E016
:1013B00001F51571006804F06DB970B504460B06AF
:1013C00001F00F0000EBC00104EB81014FF00102BE
:1013D0004FF0000502D54A75143103E081F85552EB
:1013E00001F51571087094F89404012808D084F868
:1013F0009424206803F06CFE84F89454002070BD9F
:10140000022070BD70B5044601F00F0022799042B1
:1014100001D9012070BD0B0601F00F0101EBC101E4
:1014200004EB81014FF001024FF0000502D54A752F
:10143000143103E081F8555201F515718D70087073
:1014400094F89404012808D084F89424206803F0C8
:10145000B1FF84F89454002070BD022070BD01F0EB
:101460000F0101EBC10100EB8100D0F86802704769
:101470002DE9F04104460F0601F00F0000EBC0011A
:1014800004EB81014FF001064FF0000502D54E75C7
:10149000143103E081F8555201F5157108708A6026
:1014A0000B714A7802B14883022B00D14D7194F838
:1014B0009404012809D084F89464206803F05AFD4C
:1014C000284684F89454BDE8F0810220FBE710B56B
:1014D00001F00F0404EBC40100EB8101C1E9982382
:1014E0000023C1F8683281F8553281F8544283797B
:1014F00001F51571012B00D1CA618279006803F0F2
:10150000B1FF002010BD70B504460D4601F00F007C
:101510002179884201D9012070BD29064FF00006CB
:101520004FF0010206D500EBC00104EB81014A75C2
:10153000143107E005EBC50104EB810181F8556228
:1015400001F515718A70087094F89404012807D089
:1015500084F89424206803F059FF280702D007E09C
:10156000022070BDA17904F29C42206803F0F6FECF
:1015700084F89464002070BD10B501F00F0404EBF2
:10158000C40100EB8101C1E9082300238B62012320
:101590004B7501F8144F8379012B00D1CA61827910
:1015A000006803F05FFF002010BD00002DE9FC5F24
:1015B00005680446284604F009F900287DD1206812
:1015C00004F030F9002878D0D5F80808C0F30D20D1
:1015D000C4F8D404206804F025F9800704D52068F5
:1015E000416901F002014161206804F01BF9C10664
:1015F00004F29C40009034D52068816921F01001EC
:1016000081612F6A07F00F0000EBC00004EB800639
:10161000C7F3434006F51576022802D0062811D0FC
:101620001AE047F6F070074216D0C7F30A121746C1
:101630002846F16804F0FAF8F0683844F060706900
:10164000384408E008222846009904F0EFF8706951
:10165000C7F30A11084470612068816941F01001E4
:101660008161206804F0DEF800034FF0080B4FF0B2
:10167000000A4FF001097CD50026206804F0B1F87B
:10168000074674E0F80770D0F1B2206804F0C2F8A1
:101690008046C00707D005EB4611C1F8089B3146CC
:1016A000204602F0AFF85FEA087024D505EB46113A
:1016B000C1F808BB2068016C00E023E200EB461093
:1016C0000191D0F8082BFB4B994205D9110403D5A1
:1016D0004FF40041C0F8081B204600F0F6FAF54927
:1016E0000198884207D9A079012804D120680121F6
:1016F000009A03F033FE5FEAC86004D505EB46119B
:101700001020C1F8080B5FEA88701DD568690006D3
:1017100005D5D5F8040840F48061C5F8041806EB37
:10172000C60004EB800090F8571200F515700129EF
:1017300005D180F803A0F1B2204600F0E9F905EBED
:1017400046110220C1F8080B5FEA886004D505EB5A
:1017500046102021C0F8081B5FEA884005D505EB3C
:1017600046104FF40051C0F8081B7F08761C002F6C
:1017700088D1206804F056F840036ED5206804F044
:1017800029F80746002666E0F80762D0F1B2206823
:1017900004F02EF88046C00723D006F00F01D5F8DC
:1017A000342809FA01F18A43C5F8342805EB4611BB
:1017B000C1F80899A07901280FD106EBC60004EB07
:1017C0008000D0E907211144016236B9606A20B96E
:1017D00020680121009A03F0C1FDF1B22046FFF715
:1017E000C6FD5FEA087003D505EB4611C1F808B9DC
:1017F0005FEAC86004D505EB46111020C1F808095E
:101800005FEA486004D505EB46104021C0F808198E
:101810005FEA887016D53146284603F0ACFF06EB28
:10182000C60004EB8000C17D1430012905D180F889
:1018300003A0F1B2204600F067F905EB4611022043
:10184000C1F808095FEA086003D53146204602F076
:101850003FF87F08761C002F96D1206803F0E2FF46
:10186000002811DAD5F8040820F00101C5F80418A1
:1018700094F8CC0401282BD0204600F00BFA206805
:10188000416901F000414161206803F0CBFF000590
:101890000BD5D5F80808C00702D0204600F03EFA64
:1018A0002068416901F400614161206803F0BAFFDA
:1018B000C00467D5D5F8040820F00100C5F8040875
:1018C0001021206803F057FF00214FF67F3220E0FF
:1018D00084F8CCA400212046FFF71EFDCFE700BF0F
:1018E00005EB4110C0F80829D0F8003923F40013A3
:1018F000C0F80039C0F8082BD0F8003B23F40013DF
:10190000C0F8003BD0F8003B43F00063C0F8003B58
:10191000491C20798842E3D8D5F81C0840F0011111
:10192000C5F81C18E07B002828460DD0D0F88408A4
:1019300040F00B01C5F88418D5F8440840F00B01BD
:101940002846C5F844180DE0D0F8140842F22B01DF
:101950000843C5F81408D5F8100840F00B012846D4
:10196000C5F81018D0F8000820F4FE61C5F800187A
:10197000A1792068009A03F0F1FC2068416901F424
:1019800080514161206803F04DFF800415D5206827
:1019900003F030FB206803F00CFFE07100F090FAD8
:1019A0000146E279206803F09FFF204600F05CF9D1
:1019B0002068416901F400514161206803F032FF61
:1019C000000707D5204600F069F92068416901F059
:1019D00008014161206803F025FF000616D5A869BB
:1019E00020F08001A96101260DE000BF06EBC600D2
:1019F00004EB800090F85702012803D1F1B2204691
:101A0000FFF7CCFC761C2079B042EFD8206803F0B9
:101A100009FFC0021FD501264F4614E005EB461012
:101A2000D0F8001906EBC60004EB8002107E0128F6
:101A300008D1002906DAF0B240F08001D7752046BF
:101A4000FFF7ACFC761C2079B042E7D820684169EA
:101A500001F480114161206803F0E4FE800234D576
:101A600001204A4629E000BF05EB4011D1F8001BD8
:101A700000EBC00304EB830393F85862012E1BD1E3
:101A8000002919DA94F8D46401F4803106F00106D3
:101A9000B14211D183F85722A96941F08003AB61AB
:101AA0006969090608D4D5F8040840F40070C5F83F
:101AB000040805E00A30544F401C21798142D3D8F4
:101AC0002068416901F400114161206803F0AAFE19
:101AD000400007D52046FFF746FC2068416901F029
:101AE00080414161206803F09DFE40070AD52068CF
:101AF0004568680702D52046FFF74CFC206841681E
:101B000029434160BDE8FC9FD0F8E00402F02DBFFE
:101B1000D0F8E00402F03DBFF8B5040005D094F819
:101B200095042668002510B106E00120F8BD84F870
:101B30009454204600F056F8032084F89504B6F13A
:101B4000A04F00D1A571206803F002FC207C8DF825
:101B5000000094E80F0003F05BFA0226B8BB0021F6
:101B6000206803F082FE90BB002001270DE000BF3B
:101B700000EBC00104EB81014F750875C8850D7637
:101B8000CD610D62401CC0B24D6221798142EFD817
:101B9000002011E000EBC00104EB810181F85552F7
:101BA00081F8540281F85852C1F85C52C1F8605271
:101BB000401CC0B2C1F8645221798142EAD8207C2D
:101BC0008DF8000094E80F0003F004FB10B184F8D6
:101BD0009564AAE7657484F89574206803F0ECFABC
:101BE0000020F8BD10B586B0044614216846FEF703
:101BF000B2FB2068B0F1A04F2FD119480021026834
:101C000042F001020260006800F0010005904FF40C
:101C1000C05000900220CDE90101032003900A206A
:101C2000049069460F48FFF78BF80D48001D0168C6
:101C300041F0800101600A481430016841F480419C
:101C400001600068002200F48040059011464320A6
:101C5000FFF730FB4320FFF71FFB06B010BD00006D
:101C6000303802400000024070B50446C0790125BA
:101C700070B1022801D0FEF784FC2946D4F8E004B4
:101C800002F0F5FED4F8E004BDE8704002F0AABE10
:101C90000025F2E7D0F8E00402F0D2BED0F8E0046C
:101CA00002F0D8BE10B5044690F8940401280AD07A
:101CB000012084F894046174206803F004FE00207D
:101CC00084F8940410BD022010BDD0F8E02400F286
:101CD0009C41104602F0D7BE10B50446006894F847
:101CE0009414012909D0012184F89414C16849068B
:101CF00009D5617B012902D005E0022010BD816B6E
:101D000041F480318163206803F013FD206803F003
:101D100045FA002084F8940410BD000010B5044674
:101D2000D0F8E00402F0F1FE2068D0F8001E41F087
:101D30000101C0F8001EE07A002804D002480168C2
:101D400041F00601016010BD10ED00E02DE9F04703
:101D50000E46050065D0DFF81481D8F80000F7B210
:101D600000F00700B04207D288F80070D8F80000F1
:101D700000F00700B04254D128683D4C810712D5CD
:101D8000400703D5206840F4E05020602878000721
:101D900003D5206840F4604020602068A96820F0E6
:101DA000F000084320602878C0072DD030496868CB
:101DB0000839012812D0022813D0032811D009684D
:101DC000890700292DDA216821F0030101432160F0
:101DD000FFF7B4F8814641F2883A0EE009688903BA
:101DE000EFE709688901ECE7FFF7A8F8A0EB090124
:101DF000514502D90320BDE8F0872068696800F0EA
:101E00000C00B0EB810FEFD1D8F80010404601F084
:101E10000701B14207D90770006800F00700B0421F
:101E200001D00120E7E72878400705D52068E96858
:101E300020F4E050084320602878000706D5206889
:101E4000296920F4604040EAC100206000F05EF89B
:101E50002168084AC1F30311515CC8400649086073
:101E600006480068FFF7BAF90020C4E7003C0240CA
:101E700008380240D65A0008740000206C00002088
:101E80000F2202600C4A136803F0030343601368D7
:101E900003F0F0038360136803F4E053C360126837
:101EA0004FF4E05303EAD20202610448006800F0F4
:101EB000070008607047000008380240003C0240FC
:101EC000014800687047000074000020044805497C
:101ED00000680968044AC1F38221515CC840704718
:101EE0007400002008380240E65A000804480549FA
:101EF00000680968044AC1F34231515CC840704728
:101F00007400002008380240E65A0008154810B551
:101F1000006810F00C02144813D01449042A0FD0A2
:101F2000082A0ED10F4C241F2268236802F03F02BA
:101F30005B0207D52068C0F38810A0FB010106E012
:101F4000084610BD2168C1F38811A1FB00010023E0
:101F5000FEF78AF92168C1F30141491C4900B0FB31
:101F6000F1F010BD083802400024F400001BB70057
:101F70002DE9F84F04006ED02078DFF84C93C007AD
:101F8000A9F104054AD009F104000168C1F38101F7
:101F9000012908D00068C0F3810002280AD1D9F8CD
:101FA0000000400206D52868800337D56068002805
:101FB000E1D033E06068B0F5803F10D0B0F5A02FDD
:101FC000286810D020F480302860286820F4802011
:101FD00028606068A8B1FEF7B1FF06460DE02868EA
:101FE00040F48030F4E740F480202860F7E700BF39
:101FF000FEF7A4FF801B642873D828688003F7D5F8
:102000000CE0FEF79BFF064605E000BFFEF796FFDB
:10201000801B6428F0D828688003F7D42078DFF884
:10202000AC8280074FF0000A3ED5A748001D01682A
:1020300011F00C0F08D00068C0F3810002280BD10A
:10204000D9F80000400207D42868800716D5E06858
:10205000012800D112E033E1E068B8B10120C8F8EE
:102060000000FEF76BFF064605E000BFFEF766FFC7
:10207000801B0228C0D828688007F7D52868216906
:1020800020F0F80040EAC10028600DE0C8F800A088
:10209000FEF754FF064604E0FEF750FF801B0228BF
:1020A0001FD828688007F7D42078000722D5864FEC
:1020B00087486169703771B101210160FEF73EFF09
:1020C000064604E0FEF73AFF801B022809D838686C
:1020D0008007F7D50EE0C0F800A0FEF72FFF0646F8
:1020E00005E082E0FEF72AFF801B02287DD83868D1
:1020F0008007F7D42078400768D5DFF8CCB10027F7
:102100000BF13C0BDBF80000C0000BD4DBF8001037
:1021100041F08051CBF80010DBF80000012700F0FF
:10212000805000906B4E3068C00510D4306840F489
:1021300080703060FEF702FF009005E0FEF7FEFEC3
:102140000099401A022850D83068C005F6D55E4E76
:10215000A0686C3601280FD00528306810D020F018
:1021600001003060306820F004003060A068B8B131
:10217000FEF7E4FE00900FE0306840F00100F4E765
:1021800040F004003060F7E7FEF7D8FE0099411AEE
:1021900041F28830814266D830688007F4D50EE07D
:1021A000FEF7CCFE009007E0FEF7C8FE0099411A4A
:1021B00041F28830814256D830688007F4D42FB17C
:1021C000DBF8001021F08051CBF80010A069C8B3F3
:1021D0003D49091D0968C1F3810102294AD002283D
:1021E000504607D0C8F8600000E03CE0FEF7A6FECD
:1021F00004463BE04746C8F86000FEF79FFE0646EF
:1022000005E000BFFEF79AFE801B02282BD8286845
:102210008001F7D4D4E907010843A16A2E4A49088E
:1022200002EB0141626A41EA8211084394F82C10E2
:1022300040EA0161C9F8001001203866FEF77EFE11
:10224000044606E03EE000BFFEF778FE001B0228D1
:1022500009D828688001F7D534E000BFFEF76EFE8C
:10226000001B022802D90320BDE8F88F28688001EE
:10227000F4D427E00128F7D0D9F80000E26900F48F
:10228000800191421CD1226A00F03F01914217D196
:1022900047F6C071626A0140B1EB821F10D1A26A99
:1022A0004FF0FF3300F4403103EB5202B1EB024F29
:1022B00006D194F82C1000F07060B0EB016F01D0E3
:1022C0000120D1E70020CFE7043802400000474258
:1022D000800E4742007000400000FFFF70B5040010
:1022E00003D06079002510B105E0012070BD257193
:1022F000204600F00DF8022060712068016841F06E
:102300000401016001206071A560002070BD000023
:1023100008B500680649884208D10648016841F0BE
:1023200040010160006800F04000009008BD00001E
:10233000000806503438024070B5040009D0606AC5
:10234000002540B125616561A56294F8510040B156
:102350000CE0012070BD6068B0F5827FF4D0E561CB
:10236000F2E784F85050204600F044F8022084F848
:1023700051002068016821F040010160A088218996
:1023800000F4827001F404410843A18901F4006162
:102390000843217C01F002010843217D01F0010185
:1023A0000843218B01F400710843217F01F03801BB
:1023B000084394F8201001F080010843218D01F4B6
:1023C0000051084321680860A069042101EA104017
:1023D00094F8241001F01001084321684860206837
:1023E000C16921F40061C1616565012084F8510073
:1023F000002070BD2DE9F04186B0064614216846E4
:10240000FDF7A9FF34493068884262D1334800247F
:10241000016841F480510160006800F4805005902B
:102420002E481438016841F002010160016801F092
:1024300002010591016841F0010101600068022577
:1024400000F0010005901820CDE9000502AA03273D
:102450004FF0050882E8900169462148FEF770FCBC
:102460008020CDE9000502AA694682E890011D4856
:10247000FEF766FC1D4D1C487F062860C5E9017407
:102480004FF48068C5E903486C61AC61EC612C6273
:1024900028466C62FEF7CAFB08B1FEF772F8F564D5
:1024A000AE63124D104860354830E5E80207402021
:1024B000A5E811010D4845F814496030AC61EC61A4
:1024C0002C626C62FEF7B2FB08B1FEF75AF8B564F5
:1024D000AE6306B0BDE8F0810030014044380240F0
:1024E000000402400000024010640240200200206C
:1024F0007047704710B590F83C20012A22D0012285
:1025000080F83C20CA688C6822F4407222434C68F0
:1025100022F4806222430C6822F4006222430C6998
:1025200022F4805222434C6922F400522243C969AA
:10253000002322F480420A4301684A6480F83C3058
:10254000002010BD022010BD70B590F83C20012A7B
:1025500032D0012480F83C40022280F83D200368FC
:102560005A689D6822F070060A6832435A60134B1D
:1025700002689A4214D0B2F1804F11D0104B9A42A7
:102580000ED0104B9A420BD00F4B9A4208D00F4BF3
:102590009A4205D00E4B9A4202D00E4B9A4204D179
:1025A000496825F080031943916080F83D4000217F
:1025B00080F83C10084670BD022070BD000001404C
:1025C0000004004000080040000C004000040140EE
:1025D000004001400018004010B5040003D094F8FA
:1025E0003D0010B107E0012010BD002084F83C0040
:1025F000204600F01FF8022084F83D00211D2068CD
:1026000001F01CFA012084F8460084F83E0084F8AA
:102610003F0084F8400084F8410084F8420084F8C8
:10262000430084F8440084F8450084F83D0000200D
:1026300010BD000008B50C4A01680C48914207D152
:10264000016841F002010160006800F0020009E049
:10265000074A914207D1016841F4003101600068E6
:1026600000F40030009008BD0004014044380240EE
:102670000044014090F83D10012901D0012070472D
:10268000022180F83D100168CA6842F00102CA6068
:1026900000681149884214D0B0F1804F11D00F4921
:1026A00088420ED00E4988420BD00E49884208D08D
:1026B0000D49884205D00D49884202D00C49884214
:1026C00004D1816801F00701062903D0016841F0B7
:1026D000010101600020704700000140000400403B
:1026E00000080040000C0040000401400040014090
:1026F0000018004070B5044690F83C000025012801
:1027000017D0012684F83C60022084F83D00206840
:10271000826822F0770222F47F42826008685028A3
:1027200038D00DDC20284FD005DC90B3102811D113
:102730004AE0022070BD302846D040280AD13BE054
:1027400060282FD070280DD0B0F5805F03D0B0F591
:10275000005F12D0012584F83D60002084F83C0021
:10276000284670BDCB68D1E90121206801F0D2F97B
:102770002068816841F0770109E0CB68D1E9012147
:10278000206801F0C7F92068816841F480418160C8
:10279000E1E719E0CA684968206801F08FFA502122
:1027A000206806E0CA684968206801F098FA60214C
:1027B000206801F0B9F9CEE7CA684968206801F0DD
:1027C0007DFA40212068F4E7226801461046F0E7D0
:1027D00070472DE9F04104460068C66805694FF06E
:1027E0000007A90713D5B10711D5F91E0161012012
:1027F0002077206880698007204602D0FFF7E8FF35
:1028000004E000F0F1F8204600F0A2F9277768070D
:1028100016D5700714D521686FF0040008610220F6
:1028200020772068806910F4407F204602D0FFF7AF
:10283000CFFF04E000F0D8F8204600F089F92777B0
:10284000280715D5300713D521686FF008000861F7
:10285000042020772068C0698007204602D0FFF757
:10286000B7FF04E000F0C0F8204600F071F92777C8
:10287000E80616D5F00614D521686FF0100008613F
:10288000082020772068C06910F4407F204602D0DD
:10289000FFF79EFF04E000F0A7F8204600F058F98B
:1028A0002777E80708D0F00706D021686FF001000D
:1028B0000861204600F04EF9280608D5300606D5F6
:1028C00021686FF0800008612046FFF711FE68065E
:1028D00008D5700606D521686FF0400008612046D3
:1028E00000F042F9A8060AD5B00608D521686FF0B5
:1028F000200008612046BDE8F041FFF7FABDBDE8C1
:10290000F081000030B587B0044614216846FDF719
:1029100022FD23682B4C00212B480222A34210D118
:10292000036843F004030360006800F004000590AE
:10293000D0010090CDE90121CDE903126946234879
:1029400012E0234CA34213D1036843F00803036051
:10295000006800F00800059020140090CDE90121E6
:10296000CDE9031269461B48FEF7EAF907B030BD0E
:10297000194D0324AB4210D1036843F48073036004
:10298000006800F480700590C0200090CDE901211E
:10299000CDE9031469461148E6E7114DAB42E5D194
:1029A000036843F020030360006800F020000590F6
:1029B00040200090CDE90121CDE903146946094882
:1029C000D2E7000000040040303802400008024016
:1029D00000080040000C02400004014000200240BA
:1029E0000044014000140240704770B5044690F85E
:1029F0003C0000260D4601280FD0012084F83C0041
:102A00006AB1042A1DD0082A2FD00C2A3FD00126F3
:102A1000002084F83C00304670BD022070BD206864
:102A200001F08AF82068816941F00801816120681D
:102A3000816921F004018161206881692A6911435B
:102A400011E0206801F0A8F82068816941F4006174
:102A500081612068816921F48061816120688169D8
:102A60002A6941EA02218161D2E7206801F0CAF8AF
:102A70002068C16941F00801C1612068C16921F085
:102A80000401C1612068C1692A69114311E020680D
:102A900001F0ECF82068C16941F40061C16120686F
:102AA000C16921F48061C1612068C1692A6941EA74
:102AB0000221C161ACE710B5040003D094F83D00D9
:102AC00010B107E0012010BD002084F83C00204632
:102AD00000F01EF8022084F83D00211D206800F05F
:102AE000ADFF012084F8460084F83E0084F83F00E2
:102AF00084F8400084F8410084F8420084F84300E0
:102B000084F8440084F8450084F83D00002010BD9E
:102B100008B50C4A01680C48914207D1016841F0A0
:102B200002010160006800F0020009E0074A9142DA
:102B300007D1016841F004010160006800F0040061
:102B4000009008BD000400404038024000080040EA
:102B50007047000000680349884201D1FEF71CBBA2
:102B60007047000000400140704770477047000008
:102B7000F8B5016804460868CA684B6910F00F0F81
:102B80004FF0000559D003F0010602F49077374367
:102B900065D0C10705D0D10503D5616C41F00101B5
:102BA0006164410705D5D90703D0616C41F002018A
:102BB0006164810705D5D90703D0616C41F0040138
:102BC0006164010707D502F02001314303D0616C35
:102BD00041F008016164616C00293AD0800604D597
:102BE000900602D5204601F0BBF820684069616C70
:102BF000C0F38010090700D460B3204601F089F8C3
:102C000020684069400621D52068143050E8001F34
:102C100021F0400140E80012002AF5D1E06BA8B194
:102C20006E490165E06BFDF71EFF002811D0E06BD7
:102C3000016D01B0BDE8F040084783060FD593064B
:102C40000DD52046BDE8F84001F08AB82046FFF7D0
:102C50008DFFF8BD2046FFF789FF6564F8BD266B40
:102C60002023012E7DD1C6067BD5D60679D50868EE
:102C70004868009048694FF00206400641D5E16B74
:102C8000086840680004000CE8D0A28D8242E5D9B3
:102C9000E085C869B0F5807F2DD020680C3050E801
:102CA000001F21F4807140E80012002AF5D120684D
:102CB000143050E8001F21F0010140E80012002A02
:102CC000F5D12068143050E8001F21F0400140E8A1
:102CD0000012002AF5D184F84230256320680C30B8
:102CE00050E8001F21F0100140E80012002AF5D141
:102CF000E06BFDF76FFE6663A08DE18D401A81B237
:102D00002AE0A08DE18D401A81B2E08D0028A5D087
:102D10000029A3D022680C3252E8000F20F49070F2
:102D200042E80007002FF5D12068143050E8002F4A
:102D300022F0010240E80027002FF5D184F842304C
:102D4000256320680C3050E8002F22F0100240E884
:102D50000023002BF5D166632046FFF706FFF8BD80
:102D6000FFE705062BD5150629D594F84100212843
:102D7000F5D1A068B0F5805F01D12069B0B1206ABB
:102D8000411C2162216800784860E08C401E0004EC
:102D9000000CE084E3D12068C16821F08001C160AB
:102DA0002068C16841F04001C160D8E7206A00880E
:102DB000C0F308004860206A801C2062E5E74006F6
:102DC000CDD55006CBD5CA68204622F04002CA6055
:102DD00084F8413000F07DF9C1E70000033D0008B0
:102DE00070B5040004D094F84100002510B106E04D
:102DF000012070BD84F84050204600F023F82420C4
:102E000084F841002068C16821F40051C160204667
:102E100001F008F82068016921F4904101612068FF
:102E2000416921F02A0141612068C16841F40051E3
:102E3000C1606564202084F8410084F84200656325
:102E4000002070BD2DE9F04F87B00546142168467B
:102E5000FDF781FA9348DFF848821438D5F800C0AE
:102E6000904B022103228715002406154FF0070915
:102E70004FF0006BC4456BD1D3F800C04CF0100C80
:102E8000C3F800C01B6803F010030593036843F008
:102E900002030360036803F002030593036843F031
:102EA0000103036000688A4600F00100059080205D
:102EB000CDE9000A0DF1080C90468CE81003694634
:102EC0007948FDF73DFF7010CDE9000A0DF1080AC1
:102ED00069468AE810037548FDF732FFDFF8D481B0
:102EE00073494046C8F80010C0E901B4C0E9034680
:102EF000C8F81440C0E90647C8F82040D946C8F8C9
:102F00002440FDF793FE08B1FDF73BFB694F68488D
:102F1000C5F83C8060377830C8F83850E7E80209D7
:102F2000402051C7634847F814496030BC61FC61D8
:102F30003C627C62FDF77AFE08B1FDF722FBAF63CD
:102F4000002211462520BD63FEF7B4F9252044E098
:102F5000DFF86481C44545D1524B1B1FD3F800C034
:102F60004CF4802CC3F800C01B6803F48023059345
:102F7000036843F004030360006800F00400059058
:102F80004FF440608DE81300CDE9032969464B48B2
:102F9000FDF7D6FEDFF81C81494908F1C00840461C
:102FA000C8F80010C0E901B4C0E90346C8F81440ED
:102FB000C0E90647C8F82040C8F82440FDF736FEAF
:102FC00008B1FDF7DEFAC5F83C8000221146272043
:102FD000C8F83850FEF76EF92720FEF75DF907B004
:102FE000BDE8F08FDFF8DC80C445F8D1D3F800C02D
:102FF0004CF0200CC3F800C01B6803F020030593BD
:10300000036843F040030360006800F0400005904F
:103010004FF484408DE813000820CDE90320694671
:103020002948FDF78DFE2249DFF8A0801839404677
:103030004FF02069C8F80010C0E90194C0E90346C8
:10304000C8F81440C0E90647C8F82040C8F8244032
:10305000FDF7ECFD08B1FDF794FA1C4F1448C5F8D4
:103060003C8060376030C8F83850E7E802094020FB
:1030700051C7164847F814496030BC61FC613C6296
:103080007C62FDF7D3FD08B1FDF77BFAAF63002248
:1030900011464720BD63FEF70DF947209DE700006C
:1030A0000010014044380240000402400000024089
:1030B00040640240D804002000480040000802405C
:1030C000286002400014014000180240F80500206A
:1030D00070477047FEE70000F0B500230A24302552
:1030E00037261F4611E000BFB4EB107F02D905EB75
:1030F000107C01E006EB107C01F813C001EB430CDF
:1031000000015B1C8CF80170DBB29342ECD3F0BD84
:10311000104810B50E4901600321416000214FF4B1
:1031200010228160C0E903124FF40012426101765F
:10313000012242768276C27601774277FDF722FB42
:10314000002803D0BDE81040FDF71BBA10BD0000F9
:103150000064004008010020104810B50E490160CD
:103160000321416000214FF410228160C0E9031265
:103170004FF4001242610176012242768276C276D5
:1031800001774277FDF7FEFA002803D0BDE8104032
:10319000FDF7F7B910BD00000068004030010020C5
:1031A000254808B5016841F480010160016801F417
:1031B00080010091016841F4001101600068002263
:1031C00000F40010009011460C20FEF773F80C205C
:1031D000FEF762F8002211463820FEF76BF838201F
:1031E000FEF75AF8002211463920FEF763F839201D
:1031F000FEF752F8002211463A20FEF75BF83A201B
:10320000FEF74AF8002211463B20FEF753F83B2018
:10321000FEF742F8002211464520FEF74BF8452004
:10322000FEF73AF8002211464620FEF743F8BDE8C3
:1032300008404620FEF730B8303802402DE9F04F04
:1032400087B014216846FDF786F8654800250168B7
:1032500041F002010160016801F00201059101687D
:1032600041F040010160016801F0400105910168F1
:1032700041F001010160016801F00101059101685F
:1032800041F008010160016801F008010591016841
:1032900041F004010160016801F004010591016839
:1032A00041F480710160016801F480710591016849
:1032B00041F080010160016801F080010591016821
:1032C00041F0200101600068DFF8188100F0200063
:1032D0000590012240214046FDF72AFEDFF80891C3
:1032E0004FF4E057002239464846FDF721FEDFF84B
:1032F000FCA0012210215046FDF71AFE01221146C2
:103300003B48FDF715FE40264FF44410012400967B
:10331000CDE90104DFF8DCB069465846FDF710FD41
:10332000CDE900640294694640460394FDF708FD28
:103330000097CDE90145694648460395FDF700FD34
:10334000082000904FF40410CDE90104694640467E
:10335000FDF7F6FC0720CDE90005694658460295C1
:10336000FDF7EEFC4FF48817CDE90047694650465B
:103370000295FDF7E5FC1020CDE900040226CDE919
:10338000024669465046FDF7DBFC3020CDE90007D8
:10339000694602955846FDF7D3FC60038DE861004D
:1033A00069461348FDF7CCFCCDE902460094694616
:1033B0000F480194FDF7C4FC002211460620FDF7DA
:1033C00079FF0620FDF768FF002211461720FDF760
:1033D00071FF1720FDF760FF07B0BDE8F08F000018
:1033E0003038024000180240001C02400000024039
:1033F00000040240000802400D4810B50B4901606E
:103400000C49416000214FF480428160C0E9031201
:1034100041618161C1610162FDF796FD002803D021
:10342000BDE81040FDF7ADB810BD000000540040ED
:1034300058010020801A0600094810B507490160AC
:10344000032141601D218160FDF778FE002803D033
:10345000BDE81040FDF795B810BD000000300040F9
:10346000AC010020074910B5054808600846FEF782
:1034700035FF002803D0BDE81040FDF782B810BD2D
:1034800000080650B8010020104810B50E49016030
:103490004FF48271416000218160C1604FF400727D
:1034A0000161C0E905123022C0E907214162816251
:1034B0000A21C162FEF740FF002803D0BDE810409A
:1034C000FDF75FB810BD000000300140C8010020CA
:1034D00010B588B01C216846FCF73DFF154814491B
:1034E00000240160A721C0E9011440F2CF71C0E9B6
:1034F00003148461FFF770F808B1FDF742F80D4836
:10350000FFF7D9FA08B1FDF73CF86020CDE90004D7
:1035100002940022694607480494FFF766FA08B14E
:10352000FDF72FF80348FFF7EDF908B010BD0000D4
:1035300000440140B803002010B58AB0002407946D
:103540001C2168460894FCF706FF164814490160E0
:103550005321C0E9011440F2CF71C0E90314846122
:10356000FFF7A9FA08B1FDF70CF8079407A90D4871
:103570000894FEF7E9FF08B1FDF703F86020CDE9F4
:10358000000402940822694606480494FFF72DFAC5
:1035900008B1FCF7F6FF0348FFF7B4F90AB010BD15
:1035A00000040040E002002010B58AB00024079417
:1035B0001C2168460894FCF7CEFE164814490160A9
:1035C0005321C0E9011444F61F61C0E9031484616A
:1035D000FFF771FA08B1FCF7D4FF079407A90D486B
:1035E0000894FEF7B1FF08B1FCF7CBFF6020CDE9EE
:1035F000000402940822694606480494FFF7F5F98E
:1036000008B1FCF7BEFF0348FFF77CF90AB010BD14
:10361000000800402803002010B596B000240F9445
:1036200010941194129413941C2168461494FCF77E
:1036300092FE202107A8FCF78EFE2C482A49016043
:10364000A721C0E9011444F61F61C0E903144461D5
:103650008461FEF7C1FF08B1FCF793FF4FF480507F
:103660000F900FA92148FFF745F808B1FCF789FF33
:103670001E48FFF720FA08B1FCF783FF139413A943
:103680001A481494FEF760FF08B1FCF77AFF602037
:10369000CDE900040294039404940594042269463D
:1036A00012480694FFF7A1F908B1FCF76AFF082257
:1036B00069460E48FFF799F908B1FCF762FF0794D5
:1036C000089409944FF400500A94CDE90B4007A9DF
:1036D00006480E94FEF70EFF08B1FCF752FF0348B0
:1036E000FFF710F916B010BD000401407003002070
:1036F0000C4810B50A4901604FF461214160002176
:1037000081600C22C160C0E904128161C161FFF7D0
:1037100067FB002803D0BDE81040FCF732BF10BDA6
:1037200000100140000400200D4810B50B49016055
:103730000C49416000214FF480628160C0E90312AE
:103740000C22C0E90521C161FFF74AFB002803D024
:10375000BDE81040FCF715BF10BD00000048004058
:1037600048040020A08601000C4810B50A490160F9
:103770004FF4E1314160002181600C22C160C0E959
:1037800004128161C161FFF72BFB002803D0BDE863
:103790001040FCF7F6BE10BD00140140900400205C
:1037A00010B500220F49104800F0C3FF08B1FCF724
:1037B000E8FE0E490C4801F0D4F908B1FCF7E1FE2F
:1037C0000B49094800F08EFD08B1FCF7DAFE064807
:1037D00001F04AFA002803D0BDE81040FCF7D1BE42
:1037E00010BD00000400002000070020D0000020D1
:1037F00054000020FEE7FEE70148FDF7D7BE0000B9
:10380000FC1D00202DE9F04103680D4604461E6CA6
:1038100003EB4511D1F8080B94F806E04FF400478C
:103820004FF0200C04F29C42BEF1010F09D0DFF8EA
:1038300098E0764539D1020432D500BFC1F8087B43
:103840003FE0224B5FEA007E04D59E4239D9000456
:10385000F4D436E05FEA806E02D5C1F808CB30E0E0
:1038600010F0280F2DD19E4201D90004E6D405EBBB
:10387000C50004EB8000D1F8101BD0F87432C1F3FE
:103880001201591AC0F8681200F51570ADB9036934
:103890001BB1C2681144C1600FE0012120680AE039
:1038A00080060AD5C1F808CB07E035B9D4F8640220
:1038B00018B90021184601F051FDE9B22046FDF784
:1038C0005FFD0020BDE8F0810A31544F0A30544FAB
:1038D0002DE9F84F0E4601EBC60100EB810481464D
:1038E0000568D4E909101434884202D90120BDE8E2
:1038F000F88F081AA168814200D20846C01C8708C8
:1039000005EB46181BE000BFA0EB010AA06850457C
:1039100000D282460AF10300870899F80600009059
:103920001FFA8AF3F2B22846E16802F051F8E16822
:1039300001EB0A00E060616901EB0A006061D8F800
:10394000180980B2B84205D3D4E90401814201D2FA
:103950000028D9D1D4E90401884208D806F00F0123
:1039600001208840D5F834188143C5F83418002068
:10397000BDE7704770470178407841EA0020704702
:103980007047000030B593B030216846FCF7E3FC87
:1039900014210CA8FCF7DFFC1F480025016841F04A
:1039A00080510160006800F0805011901B48016850
:1039B00041F4804101600068022400F480401190CD
:1039C000092000904FF4803001900120CDE90504DA
:1039D0008005079006200890A820CDE9090407205B
:1039E0000B906846FEF7C4FA08B172B6FEE70CA960
:1039F0000F2081E831004FF4A0500F904FF4805019
:103A0000109005210CA8FEF7A1F9002801D072B68C
:103A1000FEE713B030BD00004038024000700040A7
:103A20000248016841F470010160704788ED00E0D0
:103A30000148FEF7CEBE0000B8060020F0B50268CF
:103A4000294C2A4D2A4E2B4F2B4B4FF0804CA04235
:103A500009D0604507D0A84205D0B04203D0B84293
:103A600001D0984204D122F0700E4A6842EA0E0258
:103A7000A0421BD0604519D0A84217D0B04215D043
:103A8000B84213D0984211D01C4DA8420ED01C4D04
:103A9000A8420BD01B4DA84208D01B4DA84205D010
:103AA0001A4DA84202D01A4DA84203D122F4407503
:103AB000CA682A434D6922F080022A4302608A685C
:103AC000C2620A688262A04201D0984201D10969AB
:103AD0000163012141610169C90703D0016921F036
:103AE00001010161F0BD0000000001400004004040
:103AF00000080040000C004000040140004001406C
:103B0000004401400048014000180040001C0040F3
:103B10000020004010B5846842EA032224F47F4468
:103B20000A432243826010BD826822F070020A4379
:103B300042F0070181607047F0B5036A026A22F023
:103B40000102026242688469124E24F073050C6817
:103B50002C4323F002058B682B430D4DA84201D066
:103B6000B04205D123F00807CB683B4323F00403A0
:103B7000A84201D0B04205D14D6922F440721543EC
:103B80008A692A4342608461496841630362F0BDE7
:103B90000000014000040140F0B5026A036A23F00E
:103BA00010030362436884690D6824F4E64444EA20
:103BB00005248D6822F0200242EA05120F4D104EB6
:103BC000A84201D0B04206D1CF6822F0800242EA7A
:103BD000071222F04002A84201D0B04207D14D693D
:103BE00023F4406343EA85038D6943EA8503436018
:103BF0008461496881630262F0BD000000000140F9
:103C000000040140F0B5026A036A23F48073036282
:103C10004368C46922F4007224F073050C68124EE4
:103C20002C438D6842EA05220E4DA84201D0B042D5
:103C300006D1CF6822F4006242EA072222F48062B1
:103C4000A84201D0B04207D14D6923F4405343EA62
:103C500005138D6943EA05134360C4614968C16374
:103C60000262F0BD000001400004014030B5046A6A
:103C7000026A22F4805202624268C3690D6823F42A
:103C8000E64343EA05238D6824F4005444EA0534EE
:103C9000084DA84202D0084DA84204D14D6922F433
:103CA000804242EA85124260C3614968016404624D
:103CB00030BD0000000001400004014010B5036A5F
:103CC000046A24F001040462846924F0F00444EAE4
:103CD000021423F00A020A438461026210BD10B587
:103CE000036A046A24F010040462846923F0A003C8
:103CF00024F4704444EA023243EA01118261016211
:103D000010BD10B5806B0021C185C184FEF72EFF68
:103D100010BD01680C3151E8002F22F4907241E887
:103D20000023002BF5D10168143151E8002F22F057
:103D3000010241E80023002BF5D1016B012909D1D3
:103D400001680C3151E8002F22F0100241E80023F5
:103D5000002BF5D1202180F842100021016370472B
:103D600008B590F84210222901D0022008BD8268CF
:103D70004FF480539A4201D1016921B1816A9A427C
:103D80001BD04AB10AE00268816A5268C2F3080295
:103D90000A80816A891C08E0026972B1026852686F
:103DA00002F07F020A70816A491C8162C18D491E3E
:103DB0000904090CC18503D01BE002685268F1E7D1
:103DC0000168CA6822F02002CA600168CA6822F449
:103DD0008072CA6001684A6922F001024A612021AA
:103DE00080F8421000214163026B012A03D0FFF7E3
:103DF0006FF9002008BD016301680C3151E8002F04
:103E000022F0100241E80023002BF5D101680A6876
:103E1000D20602D50A6849680091818DFEF7A5FE99
:103E2000E7E7000070B5044600680169E26821F424
:103E30004051114301612169A068E2690843616949
:103E4000114308432168CA6849F20C639A4302434C
:103E5000CA6020684169A26921F44071114341613F
:103E600031492068884202D03049884202D1FEF7A9
:103E70003DF801E0FEF72AF8E269002319216425E4
:103E80003226B2F5004F626828D0A0FB0101930FE3
:103E90009200FCF7E9F90146B0FBF5F06FF018026B
:103EA000504301EB800006EB0010B0FBF5F000F092
:103EB000F002B1FBF5F002EB0012B1FBF5F06FF090
:103EC0001803584301EB800006EB0010B0FBF5F03F
:103ED00000F00F0021681044886070BDA0FB010154
:103EE00092185B41FCF7C0F90146B0FBF5F0020106
:103EF000B1FBF5F06FF01803584301EB800006EBBF
:103F0000C000B0FBF5F000F0F80002EB4002B1FB9E
:103F1000F5F0584301EB800006EBC000B0FBF5F074
:103F200000F00700D6E70000001001400014014037
:103F30000148FEF71DBE0000000400200148FEF706
:103F400017BE0000480400200148FEF711BE000023
:103F5000900400202DE9F0410C46D0F8D412D0F89E
:103F6000C82200EB8101D1F8C01229B304F00F067A
:103F700006EB860300EB83050027AB694BB106EB2C
:103F8000C60602EB8602D269B3FBF2F602FB1632DA
:103F9000A2B1C1F81472D0F8D42200EB8200D0F89C
:103FA000C40203692BB1D1F80802224601F504715D
:103FB00098470020BDE8F0810320FBE700231A4664
:103FC0002146AF6100F0AEFDF3E770B50546D0F8CD
:103FD000D40205EB8000D0F8C04294B1284600F02E
:103FE00080FCC4F80C02D5F8D412D4F8040205EB16
:103FF0008101D1F8C412CA6804F50371904700200A
:1040000070BD032070BD000070B5224D04462978B4
:1040100000F0ABFB2878002600F00F0000EB8000DA
:1040200004EB800086846978204600F09EFB687867
:1040300000F00F0000EB800004EB8000A0F864614A
:10404000A978204600F091FBA87800F00F0000EB63
:10405000800004EB80008684C684D4F8D40204EB8C
:104060008000D0F8C01299B1D0F8C40240688047EF
:10407000D4F8D40204EB8000D0F8C00200F075FF41
:10408000D4F8D40204EB8000C0F8C062C4F8BC626B
:10409000002070BD7C00002010B5D0F8D41200EBD9
:1040A0008100D0F8C04284B1D0F8C41259B194F85C
:1040B0000002FF2807D08B6894F801222146984718
:1040C000FF2084F80002002010BD032010BD000076
:1040D0000A210180004870478000002070B5064624
:1040E00082210C4800F0D1FA05460121094800F070
:1040F000CCFA04468121074800F0C7FA0DB110211F
:10410000A971402104B1A18000B181804320308099
:10411000004870BD8C00002070B5064682210D4815
:1041200000F0B3FA054601210A4800F0AEFA044651
:104130008121084800F0A9FA0DB11021A9714FF4AE
:10414000007104B1A18000B181804320308001481A
:1041500070BD00008C00002070B5064682210C481E
:1041600000F093FA05460121094800F08EFA044652
:104170008121074800F089FA0DB11021A971402171
:1041800004B1A18000B1818043203080004870BD1F
:104190008C0000202DE9F04704464FF407752846AF
:1041A00000F0E4FE06004FF0000863D02946FCF75B
:1041B000D2F8D4F8D4023C4D04EB80004FF0100943
:1041C000C0F8C062C4F8BC62207C4FF4007A0127BA
:1041D000F0B3402302222978204600F0EEFB287835
:1041E000402300F00F0000EB800004EB8000878488
:1041F00002226978204600F0E0FB6878082300F08E
:104200000F0000EB800004EB80000322A0F8647133
:10421000A978204601F00F0101EB810104EB810137
:10422000A1F82690A97800F0C8FBA87800F00F004C
:1042300000EB800004EB80008784C6F80482D4F889
:10424000D402474604EB8000D0F8C402006800E0C6
:1042500018E006F5017680473761776132687AB1F8
:10426000207CF8B140236978204600F0B2FB0020A2
:10427000BDE8F087D4F8D41204EB8101C1F8C08204
:104280000220F5E7534602222978204600F095FBEC
:104290002878534600F00F0000EB800004EB80000C
:1042A0008784A5E75346DEE77C00002010B5D0F8F0
:1042B000D41200EB8101D1F8C01259B1027C084C34
:1042C000002AD1F8042207D04023617800F081FB56
:1042D000002010BD032010BD4FF40073F5E700006F
:1042E0007C00002039B1D0F8D42200EB8200C0F865
:1042F000C4120020704703207047D0F8D42200EB8E
:104300008200D0F8C00218B1C0F804120020704733
:1043100003207047D0F8D43200EB8300D0F8C002FD
:1043200028B1C0F81022C0F80812002070470320FE
:1043300070472DE9FC410646D0F8D4020C4606EB46
:1043400080000021D0F8C0728DF80010ADF8041084
:104350000D4637B1217811F060022FD0202A4BD1C1
:1043600002E00320BDE8FC81E288F2B109060DD528
:10437000D0F8C40263783946D0F808C01846E04740
:10438000E288072A00D9072239462DE0607887F8AD
:104390000002E088402800D34020C2B287F8012202
:1043A0003946304600F058F82BE0D0F8C402637864
:1043B0000022866821461846B04722E0607830B176
:1043C00001281ED00A2809D00B2815D110E096F834
:1043D0009C02032810D1022201A905E096F89C0254
:1043E000032809D101226946304600F04FF808E061
:1043F00096F89C02032804D02146304600F021F8AC
:1044000003252846AEE710B5D0F8B822002452683C
:10441000904700B10324204610BD002070470020C3
:104420007047134610B50A46002100F0D2FA00206A
:1044300010BD134610B50A46002100F073FB0020A2
:1044400010BD10B50446802100F04DFB2046BDE8AC
:104450001040002100F047BB10B50323C0F8943290
:10446000C0F858211346C0F85C210A46002100F02C
:10447000B0FA002010BD10B50521C0F89412002339
:104480001A46194600F0A5FA002010BD10B5022307
:10449000C0F8943282611346C2610A46002100F0DE
:1044A00041FB002010BD10B50421C0F89412002378
:1044B0001A46194600F036FB002010BD10B50A461A
:1044C000024903A000F005F9004810BDDC090020F6
:1044D00043444320436F6E666967000012200880E2
:1044E000004870472400002010B50A46024903A086
:1044F00000F0EFF8004810BDDC09002043444320E1
:10450000496E74657266616365000000042008806E
:10451000004870472000002010B50A46024903A059
:1045200000F0D7F8004810BDDC09002053544D6955
:1045300063726F656C656374726F6E69637300009C
:1045400010B50A46024903A000F0C3F8004810BDA8
:10455000DC09002053544D33322056697274756162
:104560006C20436F6D506F727400000010B51A20FC
:1045700008800A480168001D0468001D00680818CA
:1045800009D008220649FEF7A7FD0549042210318B
:104590002046FEF7A1FD0248801E10BD107AFF1FC5
:1045A0003A000020F8B504460020ADF80000488825
:1045B0000D46010A08295FD2DFE801F05E04091701
:1045C0005E5E3C45D4F8B412207C0A6819E0207C79
:1045D00002260028D4F8B80205D0C16A6846884788
:1045E0000146467039E0816AF8E7C0B2062843D236
:1045F000DFE800F0030A1014181CD4F8B402426873
:1046000005E0694690471CE0D4F8B402826892B392
:10461000207CF6E7D4F8B402C268F8E7D4F8B40214
:104620000269F4E7D4F8B4024269F0E7D4F8B402BE
:104630008269ECE7207CF0B9D4F8B802416B684697
:104640008847014609E0207CA8B9D4F8B802016B7C
:1046500068468847014607204870EA888AB1BDF855
:10466000000040B1824200D90246ADF80020204649
:10467000FFF70CFFF8BDFFE729462046FFF7E1FEF4
:10468000F8E72046FFF70FFFF4E778B50E464288BB
:104690000178002504468A4212D9ADF800100AE0DC
:1046A000694600F00FF84178052904D18178054664
:1046B000B14205D000256188BDF800209142EFD8B5
:1046C000284678BD0A8803781A440A80017808448D
:1046D000704770B5002300281ED00025044602E074
:1046E0006D1CEDB2641C2678002EF9D1022404EB77
:1046F000450414801278CA545B1C0322CA54002457
:104700005B1C06E0CA545B1CDAB28C54521CD3B258
:10471000401C0278002AF5D170BD01004FF0000066
:1047200004D0012901D0022901D0032070470120C3
:10473000704778B10023C0F8B832C0F8C432C0F86E
:10474000D03209B1C0F8B412012180F89C12027075
:1047500000F0CCB80320704710B5D0F8C802FCF7C1
:1047600051FEBDE81040FFF7D8BF10B5D0F8C80221
:10477000FCF723FEBDE81040FFF7CFBF2DE9F04165
:1047800017460446002521B194F89C02032842D024
:104790004CE0D4F8941204F11400022935D1D0E988
:1047A00002639E4206D9F21A826039462046FFF71C
:1047B00040FE0FE0B34214D14068984211D3D4F8C0
:1047C000981288420DD2002211462046FFF731FE92
:1047D000C4F8985200231A461946204600F0F9F80A
:1047E00013E094F89C02032808D1D4F8B802C168F9
:1047F00021B1C4F8D452C1682046884780212046A0
:1048000000F071F92046FFF736FE94F8A00268B177
:1048100084F8A0520AE0D4F8B802426932B1C4F870
:10482000D452426920469047002800D10020BDE8BC
:10483000F08170B513460446002221B194F89C0221
:10484000032830D03AE0D4F8941204F5AA70032972
:1048500034D1D0E902518D420AD96A1A82600846E1
:10486000824200D3024619462046FFF7DAFD25E0D2
:1048700094F8AA0210F01F0003D0012802D00228E9
:1048800000D0002294F89C02032808D1D4F8B80282
:10489000016921B1C4F8D422016920468847204625
:1048A000FFF701FE0AE0D4F8B802836933B1C4F817
:1048B000D422826920469047002800D1002070BD94
:1048C0000020704710B50024012180F89C12D0F818
:1048D000B82222B152680179904700B103242046E2
:1048E00010BDD0F8C802FCF7BABD000010B50178C1
:1048F00039BB15490222C1F8E004C0F8C8124FF0D4
:10490000A040086004200871CA71002088714A72B2
:104910008872C87208738873C8730846FDF7FCF87C
:1049200008B1FBF72EFE80210748FCF7F6FC402279
:1049300000210548FCF7F5FC802201210248FCF724
:10494000F0FC002010BD0000FC1D00200A0601F054
:104950007F01D0F8C80201EBC10100EB810001D555
:10496000807D704790F85602704710B5D0F8D42279
:1049700000EB8202D2F8B82222B190F89C32032BCD
:1049800002D004E0032010BD126A02B1904700205B
:1049900010BD10B5D0F8D42200EB8202D2F8B822B4
:1049A00022B190F89C32032B02D004E0032010BD0A
:1049B000526A02B19047002010BD10B51C46134644
:1049C000D0F8C8022246FCF753FDBDE81040FFF7BF
:1049D000A4BE10B5D0F8C802FCF779FDBDE81040C0
:1049E000FFF79BBE2DE9F04100260125044680F823
:1049F0009C52C4F894626660C4F8A46280F8A06215
:104A0000D0F8B80230B1426822B100212046904768
:104A100000B103260022402311462046FFF7CDFFB8
:104A20004027A4F864513B46002280212046C4F868
:104A30006071FFF7C2FFA58430462762BDE8F081B0
:104A400090F89C12042903D190F89D1280F89C12D2
:104A50000020704710B590F89C12032905D1D0F8BA
:104A6000B81211B1C96901B18847002010BD0174A5
:104A70000020704710B5D0F8C802FDF713F9BDE863
:104A80001040FFF74ABE70B5044600F2AA20054662
:104A900000F051F80120C4F89402B4F8B002C4F850
:104AA000980294F8AA0210F01F010AD001290ED032
:104AB000022912D000F080012046BDE8704000F0CD
:104AC00012B829462046BDE8704000F0CFB829460C
:104AD0002046BDE8704000F00FBA29462046BDE8E8
:104AE000704000F059B910B5D0F8C802FCF70BFDC2
:104AF000BDE81040FFF711BE10B5D0F8C802FDF7B1
:104B0000EBF8BDE81040FFF708BE90F89C120429AE
:104B100003D090F89C1280F89D12042180F89C121A
:104B20000020704710B5D0F8C802FCF725FDBDE89D
:104B30001040FFF7F2BD70B5054611F8010B287063
:104B4000087868704C1C2046FEF715FF6880A41C8E
:104B50002046FEF710FFA880A01CFEF70CFFE8809F
:104B600070BD38B504460020ADF80000A1B1C4F80E
:104B7000B812D4F8D40204EB8000D0F8B802C16AAD
:104B800019B168468847C4F8D002D4F8D802401C4E
:104B9000C4F8D802002038BD032038BD02460020EA
:104BA000D2F8B832002B02D01B6810461847704765
:104BB0002DE9F04188462B4E897800250446317056
:104BC000012906D941462046FFF73BFC0320BDE8FA
:104BD000F08194F89C02022702280CD003281DD0F3
:104BE00041462046FFF72DFC31782046FFF70BFCAD
:104BF00003252846EBE789B320466160FFF7CEFF27
:104C0000050004D041462046FFF71BFC1DE020466E
:104C1000FFF749FC032084F89C02EAE7C1B1606811
:104C200088421BD0C1B22046FFF7EDFB3178204609
:104C30006160FFF7B3FF050010D041462046FFF743
:104C400000FC21792046FFF7DEFB84F89C72D0E758
:104C500084F89C7220466160FFF7D5FB2046FFF781
:104C600022FCC6E778000020FFF746BF2DE9F0419F
:104C70000A78002512F060020CD0202A01D0402AC8
:104C80007DD1D0F8D42200EB8202D2F8B82292680B
:104C9000904731E04B78002201260A2B6FD2DFE8E3
:104CA00003F041666E586E08056E2D29FFF77AFCF9
:104CB00067E004468888D8B9C888C8B94888802879
:104CC00016D200F07F0794F89C02032810D084F8D5
:104CD0009E7239462046FFF7CDFE2046FFF7E3FBE4
:104CE0001FB1022084F89C024BE084F89C6248E0EB
:104CF000204644E0FFF75CFF054642E0CB88012BED
:104D00003DD190F89C32012B04D0022B02D0032B12
:104D100035D104E08260012200F1080116E0012291
:104D2000011D13E090F89C22012A03D0022A01D031
:104D3000032A24D1CA88022A21D1C660D0F8A4123D
:104D400009B10321C160022200F10C01FFF79EFBB3
:104D500017E04A88012A02D0022A03D00FE0C0F8E7
:104D6000A46216E08988090A80F8A01211E090F880
:104D70009C32012B08D0022B06D0032B04D0FFF766
:104D800060FB2846BDE8F08149880129F9D1C0F8C7
:104D9000A422FFF788FBF4E72DE9F04105460878E7
:104DA0000C790E464FF0000810F060000BD0202860
:104DB00001D040286AD121462846FFF72EFBFF2864
:104DC00000D0D8B395E07078C8B3012824D0032868
:104DD0005CD195F89C02022802D0032856D10CE041
:104DE000002C53D0802C51D021462846FFF77BFE63
:104DF00080212846FFF777FE7BE0708840B93CB100
:104E0000802C05D0C88818B921462846FFF76BFECC
:104E10002846FFF748FB6CE095F89C020228DFD09B
:104E2000032863D1708880BB600603D021462846E2
:104E3000FFF792FC2846FFF736FBBCE700E00AE0EC
:104E4000C5F8D402D5F8B8028268F2B131462846D6
:104E5000904780464DE095F89C020027022802D03A
:104E6000032843D113E00CB1802C3FD1200604F07D
:104E70007F0000EB800005EB800101D5143101E0DB
:104E800001F5AA7102220F602CE032E02EE020062C
:104E900004F00F0000EB800005EB800009D5808C4A
:104EA00020B304F07F0000EB800005EB8006143691
:104EB0000AE0B0F86401C8B104F07F0000EB8000A4
:104EC00005EB800606F5AA764CB1802C07D021466A
:104ED0002846FFF73BFD10B10120306000E037604D
:104EE000022231462846FFF7D1FA02E02846FFF7B2
:104EF000A8FA4046BDE8F08170B505460878002460
:104F00000E4610F0600003D0202801D0402827D1A1
:104F100095F89C02012803D0022801D003281FD154
:104F2000B088C1B201291AD8C1B22846FFF777FA72
:104F3000FF280CD058B9D5F8B8128A683AB1C5F82C
:104F4000D4028A68314628469047044600E003248C
:104F5000F088204307D12846FFF7A5FA03E0314641
:104F60002846FFF76EFA204670BD7047004870472C
:104F7000DC1B002070B50A78012302F00F054E7883
:104F8000AB401B4CD0F81C58012E17D045EA034308
:104F9000C0F81C3800EB4210D0F8002B12040BD4E0
:104FA000D0F8002B0B890979C3F30A031A4344EAAA
:104FB00081410A43C0F8002B002070BD9BB21D4305
:104FC000C0F81C5800EB4210D0F800391B04F3D491
:104FD000D0F800390D890979C5F30A0589042B43F6
:104FE00041EA82510B432343C0F80039E4E7000053
:104FF00000800010D0F800196FF30A01C0F8001902
:10500000D0F8041841F48071C0F8041800207047EB
:1050100070B50D460446C2F3072104981E460129C7
:105020001BD0E06840F04000E060204600F032F81D
:10503000C6F307210029A16B26D021F48031A1639A
:10504000C5F30741012907D1A16841F00601A1601C
:10505000A16841F02001A16070BDA16B21F48031F5
:10506000A163E1680A4A1140E160E16821F440115E
:10507000E160C0B2012803D1E06840F48010E06034
:10508000204600F007F8DBE741F48031D7E7000065
:10509000BFFFBDFF08B500214FF070620091009B7B
:1050A0005B1C009393420CD80369002BF7DA009144
:1050B000016941F0010101610099491C009191428F
:1050C00001D9032008BD0169C907F5D1002008BD39
:1050D00030B54C780A78012300EB4212012C2CD019
:1050E000D2F8004B002C0BDAD2F8004B44F00064ED
:1050F000C2F8004BD2F8004B44F08044C2F8004B99
:10510000D0F83C580C7804F00F0403FA04F425EAB4
:105110000444C0F83C48D0F81C48097801F00F015D
:105120008B4024EA0341C0F81C18D2F8000B19493F
:105130000840C2F8000B002030BDD2F80049002C16
:105140000BDAD2F8004944F00064C2F80049D2F802
:10515000004944F08044C2F80049D0F83C480D783A
:1051600005F00F0503FA05F5ADB2AC43C0F83C48B5
:10517000D0F81C48097801F00F018B4099B28C439C
:10518000C0F81C48D2F8000903490840C2F80009D9
:10519000D1E700000078F3EF007833ECD0F8001E80
:1051A00021F00301C0F8001ED0F8041821F002011C
:1051B000C0F8041800207047D0F8001E21F0030149
:1051C000C0F8001ED0F8041841F00201C0F804181D
:1051D000002070472DE9F04F00250E460446174683
:1051E0002846294604EB8002C2F80411401C0F280F
:1051F000F8D3C3F307405FEA0009204616D0806B5E
:1052000020F40012A263A06B40F40022A2630846BF
:1052100088462146C4F8000EC7F30720012817D09E
:105220000846D1F8001841F0030118E0D0F804084E
:1052300040F00202C4F80428A06B40F40012A263FC
:10524000A06B20F40022A263A06B20F48022DDE793
:10525000300E0846D1F8001801D041F00101C0F825
:105260000018102100F087FA00B10125204600F057
:1052700066FA00B101254046C4F81088C4F81488C5
:10528000C4F81C8800214FF0006B4FF0904E4FF691
:105290007F3AF2B215E000BF04EB4113D3F800C926
:1052A000BCF1000F06DA11B1C3F800E904E0C4F85C
:1052B00000B901E0C3F80009C3F81009C3F808A950
:1052C000491C8A42E8D8002115E000BF04EB4113D5
:1052D000D3F800CBBCF1000F06DA11B1C3F800EB34
:1052E00004E0C4F800BB01E0C3F8000BC3F8100BE6
:1052F000C3F808AB491C8A42E8D8D4F8101821F446
:105300008072C4F81028A0616FF080406061C6F31D
:10531000074018B9A06940F01000A061A0690A49CF
:105320000843A061C7F3074018B1A06940F0080026
:10533000A061B9F1010F03D1A06904490843A0613C
:105340002846BDE8F08F000000383C800400004093
:10535000816821F0010181600020704710B5036C65
:10536000134CA34203D9D0F8003B002B1EDB0023D3
:10537000C0F8103BD0F8103B43F40023C0F8103BBA
:10538000D0F8103B43F01803C0F8103BD0F8103BA6
:1053900043F0C043C0F8103B012907D1C0F8142BDB
:1053A000D0F8001B41F08021C0F8001B002010BD88
:1053B0000A30544F4A780B78012A00EB43100BD087
:1053C000D0F8002B22F40012C0F8002B0979032931
:1053D00014D0022912D017E0D0F8002922F40012CC
:1053E000C0F800290979032901D002290CD1D0F88D
:1053F000001941F08051C0F8001905E0D0F8001BF9
:1054000041F08051C0F8001B002070470A784B78AB
:10541000D1B200EB4110012B12D0D0F8001B0029B3
:1054200006DB2AB1D0F8001B21F08041C0F8001B38
:10543000D0F8001B41F40011C0F8001B0020704799
:10544000D0F80019002906DB2AB1D0F8001921F0A4
:105450008041C0F80019D0F8001941F40011C0F8DB
:105460000019EBE7F8B50C784F78894DE3B26FF08F
:10547000604600EB4313012F29D0D3F8107B6FF364
:105480001207C3F8107BD3F8107B2F40C3F8107BB2
:10549000002C0C697DD0002C7CD08D682C44641EBF
:1054A000B4FBF5F4A4B265430D62D3F8105B06EAD1
:1054B000C4442543C3F8105BD3F8104B0D6AC5F301
:1054C00012052C43C3F8104B012A7DD0C7E00F69A9
:1054D00027B3D3F810796FF31207C3F81079D3F814
:1054E00010792F40C3F8107944B30F698D682F44A9
:1054F0007F1EB7FBF5F506EAC545D3F810693543BD
:10550000C3F81059D3F810590E69C6F31206354383
:10551000C3F810590D79012D1CD027E0D3F810697C
:105520002E40C3F81069D3F8105945F40025C3F88C
:105530001059D3F810596FF3120515E00E698D68F4
:10554000AE4200D90D61D0F8105945F40026C0F8DC
:105550001069D7E7D3F8105925F0C045C3F81059A2
:10556000D3F8105945F00055C3F81059012A1AD044
:1055700000EB4413D3F8004944F00444C3F8004955
:105580000C79012C32D00A697AB3D0F83428097822
:1055900001E040E052E001F00F03012199400A438D
:1055A000C0F8342871E0CA691AB100EB4413C3F89B
:1055B00014290979012910D1D0F80818C90500EB80
:1055C0004411D1F8002900E045E002D442F0005235
:1055D00001E042F08052C1F8002900EB4410D0F8FD
:1055E000001941F00441C0F800194EE0D0F8084815
:1055F000E405D3F8004902D444F0005401E044F03B
:105600008054C3F8004900920A8A93B20A78C968A4
:1056100000F0DEF939E00CB18C680C618C680C622A
:10562000D0F8105BC4F312042543C0F8105BD0F827
:10563000104B44F40024C0F8104B45E7D3F8104B4E
:105640008D68C5F312052C43C3F8104BD3F8104BEB
:1056500044F4002436E7CA680AB1C3F8142B097968
:1056600001290CD1D0F80808C005D3F8000B02D4EA
:1056700040F0005001E040F08050C3F8000BD3F838
:10568000000B40F00440C3F8000B0020F8BD000000
:10569000FFFF07E038B50022009213464D780A78E4
:1056A00042F2107400EB4212012D19D0D2F8005BC7
:1056B000002D3CDAD2F8005B45F00065C2F8005BD3
:1056C0000A7800EB4212D2F8005B45F08045C2F840
:1056D000005B009A521C0092A24221D9012326E0CD
:1056E000D2F80059002D22DAD2F8005945F00065B1
:1056F000C2F800590A7800EB4212D2F8005945F07E
:105700008045C2F80059009A521C0092A242E5D886
:105710000A7800EB4212D2F80029002AF3DB06E0F7
:105720000A7800EB4212D2F8002B002AD1DB18468F
:1057300038BD816841F0010181600020704708B5E3
:1057400000214FF070620091009B5B1C009393421C
:105750000AD80369002BF7DA009110210161009942
:10576000491C0091914201D9032008BD0169C90675
:10577000F5D4002008BD18B500224FF070630092E8
:10578000009C641C00949C420CD80469002CF7DA3D
:105790000092202242EA811101610099491C009186
:1057A000994201D9032018BD01698906F5D400206A
:1057B00018BDD0F8080810F0060004D0022803D065
:1057C000062801D00F20704702207047406900F082
:1057D00001007047D0F81818D0F81C08084080B2B3
:1057E0007047D0F81818D0F81C080840000C704713
:1057F00010B5D0F81038D0F8342801F00F0400EBC1
:105800004110E24002F00102D0F8080943EAC21256
:10581000104010BD00EB4111D1F8081BD0F814085E
:1058200008407047416980690840704730B50346B9
:105830000846940802F00301002203F5805303E0B8
:105840001D6840F8045B521CA242F9D300290BD01A
:105850001C680022D50024FA05F3491E521C0904D5
:1058600000F8013B090CF5D130BD70B50446C068A5
:10587000002520F0C040E060012901D079B120E08E
:10588000E06840F00050E0600A20FBF739FA6069F8
:105890000A3510F0010F10D1C82DF5D30DE0E068E6
:1058A00040F08040E0600A20FBF72AFA60690A3580
:1058B00010F0010F01D0C82DF5D3C82D01D0002064
:1058C00070BD012070BDD0F8002822F4FE62C0F83F
:1058D0000028D0F800284FF4FE6303EA01110A43C0
:1058E000C0F8002800207047022A3ED1264A274BE4
:1058F0000A449A4201D20F2138E0254A254B0A4436
:105900009A4201D20E2131E0234A244B0A449A42A2
:1059100001D20D212AE0224A224B0A449A4201D2A6
:105920000C2123E0204A214B0A449A4201D20B2148
:105930001CE01F4A1F4B0A449A4201D20A2115E07B
:105940001D4A1E4B0A449A420FD31D4A1D4B0A445E
:105950009A4201D2082109E01B4A11441B4A914294
:1059600001D2072102E0062100E00921C26822F4E9
:105970007052C260C2684FF4705303EA81210A4337
:10598000C260002070470000405327FF00350C0024
:10599000401E1BFF40420F0000DC0BFF804F120037
:1059A000808CF9FE20D6130060B6E5FE60E3160099
:1059B00000D3CEFE40771B00C05BB3FEC091210038
:1059C00000CA91FE20753800E05459FEE09C410069
:1059D00010B5029C74B9DB1C9C0800EB023000235C
:1059E00000F5805004E000BF51F8042B02605B1CFE
:1059F000A342F9D3002010BDFEE70907090E0028D5
:105A000004DB00F1E02080F80014704700F00F0084
:105A100000F1E02080F8141D70470000FBF7C4FB84
:105A2000FDF7B0FFFDF70AFCFDF7BAFBFDF770FBD1
:105A3000FDF792FBFDF7E0FCFDF726FDFDF7B4FD59
:105A4000FDF7EAFDFDF70EFDFDF7AAFEFDF774FD7B
:105A5000FDF73EFDFDF74CFEFDF786FEFDF764FE0B
:105A6000FDF7EAFCDFF85480154E4FF400674FF461
:105A70007A744FF480790022394645464046FBF758
:105A800057FA2046FBF73CF9012239462846FBF736
:105A90004FFA2046FBF734F900224D46494630467E
:105AA000FBF746FA2046FBF72BF901222946304640
:105AB000FBF73EFA2046FBF723F9DCE7001C024027
:105AC000000802404FF04070E1EE100A70470006F7
:105AD0001016000610160000000000000000010271
