:020000040800F2
:1000000028090020290200082B220008311F0008BF
:10001000292200081F0400080F2A00080000000021
:100020000000000000000000000000003927000868
:10003000B5040008000000002D2200083B2700083E
:10004000430200084302000843020008430200087C
:10005000430200084302000843020008430200086C
:10006000430200084302000843020008430200085C
:10007000430200084302000843020008430200084C
:10008000430200084302000843020008430200083C
:10009000430200084302000843020008430200082C
:1000A000430200084302000843020008430200081C
:1000B000430200084302000843020008430200080C
:1000C00043020008430200084302000843020008FC
:1000D00043020008430200084302000843020008EC
:1000E00043020008430200084302000843020008DC
:1000F00043020008430200084302000843020008CC
:1001000043020008430200084302000843020008BB
:1001100043020008430200084302000843020008AB
:1001200043020008430200082104000843020008BB
:10013000430200084302000843020008430200088B
:10014000430200084302000843020008430200087B
:1001500043020008430200082D040008430200087F
:10016000430200084302000843020008430200085B
:100170004302000843020008430200080000000098
:10018000430200084302000800F002F800F03CF8C7
:100190000AA090E8000C82448344AAF10107DA45E2
:1001A00001D100F031F8AFF2090EBAE80F0013F0F8
:1001B000010F18BFFB1A43F001031847482C000039
:1001C000682C0000103A24BF78C878C1FAD85207CA
:1001D00024BF30C830C144BF04680C6070470000C1
:1001E0000023002400250026103A28BF78C1FBD840
:1001F000520728BF30C148BF0B6070471FB502F0DF
:1002000055FC1FBD10B510BD00F0CFF81146FFF72B
:10021000F5FF02F00FFC00F0EDF803B4FFF7F2FF7A
:1002200003BC00F0F5F80000094880470948004782
:10023000FEE7FEE7FEE7FEE7FEE7FEE7FEE7FEE796
:10024000FEE7FEE704480549054A064B70470000F3
:10025000D52700088901000828030020280900206C
:10026000280500202805002053EA020C00F06980D0
:100270002DE9F04B4FF00006002B1FBFB3FA83F5BA
:1002800003FA05F424FA05F65E4012BF1643B2FAEB
:1002900082F502FA05F4C5F120051EBF22FA05FC1D
:1002A00044EA0C04203556EA044C4FEA144418BFC3
:1002B000641C4FF000084FF00009904271EB030CF2
:1002C00039D3002919BFB1FA81F701FA07F6B0FA5C
:1002D00080F700FA07F6C7F120071EBF20FA07FCD7
:1002E00046EA0C062037B6FBF4FCA7EB0507103FE7
:1002F00007F01F0BCBF120060CFA0BFB2CFA06F6CD
:1003000044BFB3460026202FA4BF5E464FF0000B2B
:100310005BEA060C08BF4FF0010B19EB0B09ABFBB6
:10032000027C48EB0608C01B06FB02CC0BFB03CC8F
:1003300071EB0C01C1E70B46024641464846BDE859
:10034000F08B13B54FF000004FF00001AFF30080C9
:10035000BDE81C4070474FF0000200B513469446BC
:100360009646203922BFA0E80C50A0E80C50B1F10D
:100370002001BFF4F7AF090728BFA0E80C5048BF21
:100380000CC05DF804EB890028BF40F8042B08BFBF
:10039000704748BF20F8022B11F0804F18BF00F8BB
:1003A000012B7047704770477047754600F02CF876
:1003B000AE4605006946534620F00700854618B052
:1003C00020B5FFF73FFFBDE820404FF000064FF09B
:1003D00000074FF000084FF0000B21F00701AC467A
:1003E000ACE8C009ACE8C009ACE8C009ACE8C00999
:1003F0008D46704710B50446AFF300802046BDE837
:100400001040FFF70ABF000000487047C8020020F4
:1004100001491820ABBEFEE7260002007047FEE748
:10042000014800F0D1B9000008020020014800F0A6
:10043000CBB900006802002001681823CAB2103A44
:10044000B2FBF3F2054B6FF30901032A9B5CC36512
:1004500000D9091D8165084670470000B62A0008CA
:1004600010B5014600208B698A6A4FF0C07453B101
:10047000B3F5005F15D072B1012A0CD0022A0AD060
:10048000032A09D104E01AB1012A06D0022A03D1B5
:10049000C96AC90100D5012010BDC96AA142FAD0BC
:1004A00010BD002AF7D0012AF2D0022AF3D0032A85
:1004B000F3D010BD704772B6FEE7000070B50400BF
:1004C0007ED0A4492068884207D0A349884204D03E
:1004D0004FF48F71A14802F0ABFA207E30B10128B1
:1004E00004D040F21F119D4802F0A2FA607E30B1A4
:1004F000012804D04FF49071984802F099FAA07E38
:1005000030B1012804D040F22111944802F090FA51
:10051000E07E30B1012804D04FF491718F4802F091
:1005200087FA207F30B1012804D040F223118B4894
:1005300002F07EFA607F30B1012804D04FF492714E
:10054000864802F075FAA06868B1B0F1804F0AD011
:10055000B0F1004F07D0B0F1404F04D040F2251168
:100560007E4802F065FAE06868B1B0F1807F0AD099
:10057000B0F1007F07D0B0F1407F04D04FF4937109
:10058000764802F055FA206998B3B0F5803F30D034
:10059000B0F5003F2DD0B0F5403F2AD0B0F5802F08
:1005A00027D0B0F5A02F24D0B0F5C02F21D0B0F5C2
:1005B000E02F1ED0B0F5002F1BD0B0F5102F00E0BB
:1005C00041E016D0B0F5202F13D0B0F5302F10D069
:1005D000B0F5402F0DD0B0F5502F0AD0B0F5602FF8
:1005E00007D0B0F5702F04D040F227115B4802F01D
:1005F0001FFA6069C8B1B0F5801F16D0B0F5001FB2
:1006000013D0B0F5401F10D0B0F5800F0DD0B0F56D
:10061000A00F0AD0B0F5C00F07D0B0F5E00F04D09E
:100620004FF494714D4802F003FA6068401EB0F533
:10063000806F04D340F22911484802F0F9F994F888
:10064000200010B104E0012070BD204600F088F8C1
:100650002068016841F00101016000F067FC054677
:10066000052604E000F062FC401B0A2811D820682F
:100670004068C007F6D02068016821F002010160DF
:1006800000F054FC05460BE000F050FC401B0A282B
:1006900006D9606A40F40030606284F82060D2E7D6
:1006A000206840688007EFD4207E01282068016818
:1006B0003DD021F080010160607E01282068016842
:1006C00038D021F040010160A07E01282068016837
:1006D00033D021F020010160E07E0128206801680C
:1006E0002ED041F010010160207F012820680168B0
:1006F00029D021F008010160607F0128206801688D
:1007000024D021F004010160D4E902010843D4E9B6
:100710000412114308436168491E08432168C861F7
:1007200000206062012084F82000002070BD41F0AC
:100730008001C0E741F04001C5E741F02001CAE770
:1007400021F01001CFE741F00801D4E741F00401A6
:10075000D9E700000064004000680040D82A000883
:1007600010B586B0044614216846FFF7F4FD13491E
:10077000206888421FD112480021026842F00072AE
:100780000260006800F0007005900D4810380268A3
:1007900042F0080202600068022200F008000590A2
:1007A0000320CDE90210CDE900020920049069463A
:1007B000044800F03FFA06B010BD0000006400409D
:1007C00040380240000C02402DE9F84304464FF047
:1007D0000009CDF8009063484FF41651A56D0068EC
:1007E000B0FBF1F72E6894F85C10082000FA01F1D4
:1007F00031420FD021680A6852070BD50A6822F0EF
:1008000004020A6094F85C108840A860606D40F0B3
:100810000100606594F85C104FF0010808FA01F0DF
:10082000304208D021684969090604D5A860606D86
:1008300040F00200606594F85C100420884030426B
:1008400008D021680968890704D5A860606D40F068
:100850000400606594F85C1010208840304218D085
:1008600021680968090714D5A86020680168490350
:1008700004D50068000308D5A16C07E00168C9052C
:1008800003D4016821F008010160216C09B1204600
:10089000884794F85C1020208840304231D021688D
:1008A0000968C9062DD5A86094F835000528206888
:1008B000016806D0490347D5006800031DD4616C68
:1008C0001CE021F0160101602068416921F08001DF
:1008D0004161206C08B9A06C20B12068016821F04A
:1008E0000801016094F85C103F208840A86084F8FB
:1008F000358084F83490216D1FE0E16B09B120460A
:100900008847606D00282BD0606DC00714D005208B
:1009100084F835002068016821F001010160009829
:10092000401C0090B84203D820680068C007F6D188
:1009300084F8358084F83490E16C002910D001B03F
:100940002046BDE8F04308470168C905D5D40168D1
:1009500021F01001016084F8358084F83490CCE7F0
:10096000BDE8F8830C0000202DE9F041044600F0BA
:10097000DDFA0546002C7CD0A149206888423ED093
:100980009F49183188423AD09D493031884236D04B
:100990009B494831884232D09949603188422ED0F3
:1009A0009749783188422AD095499031884226D09B
:1009B0009349A831884222D0924988421FD0914958
:1009C000183188421BD08F493031884217D08D4969
:1009D0004831884213D08B49603188420FD0894911
:1009E000783188420BD087499031884207D08549B9
:1009F000A831884203D0B721834802F019F8606813
:100A0000C0B1B0F1007F15D0B0F1806F12D0B0F15D
:100A1000C06F0FD0B0F1006F0CD0B0F1206F09D0D3
:100A2000B0F1406F06D0B0F1606F03D0B8217648C6
:100A300001F0FEFFA06838B1402805D0802803D01F
:100A4000B921714801F0F4FFE068B0F5007F04D0EF
:100A500018B1BA216C4801F0EBFF2069B0F5806F46
:100A600004D018B1BB21684801F0E2FF606958B1B9
:100A700000E06FE0B0F5006F06D0B0F5805F03D006
:100A8000BC21614801F0D4FFA06948B1B0F5005F16
:100A900006D0B0F5804F03D0BD215B4801F0C8FF00
:100AA000E06940B1B0F5807F05D0202803D0BE2199
:100AB000554801F0BDFF206A60B1B0F5803F09D014
:100AC000B0F5003F06D0B0F5403F03D0BF214E48FF
:100AD00001F0AEFF606A88B3042805D0C0214A48FF
:100AE00001F0A6FF606A48B3A06A48B1012807D0A8
:100AF000022805D0032803D0C521434801F098FF00
:100B0000E06A60B1B0F5000F09D0B0F1807F06D087
:100B1000B0F1C07F03D0C6213B4801F089FF206BB4
:100B200060B1B0F5001F09D0B0F5800F06D0B0F568
:100B3000C00F03D0C721344801F07AFF022084F8A7
:100B40003500002684F834602068016821F0010136
:100B500001600EE00120BDE8F08100BF00F0E6F981
:100B6000401B052805D920206065032084F8350046
:100B7000F1E720680068C007F0D1226811682348B7
:100B80000140D4E901031843D4E903352B4318434A
:100B900063691843A3691843E3691843236A184338
:100BA0000843616A042903D1D4E90B1319430843AC
:100BB000106020684069656A20F0070029460543F7
:100BC000012704290CD1A06A0543E06A40B1204600
:100BD000FFF746FC20B14020606584F83570B9E726
:100BE000206845612046FFF727FC94F85C203F21F0
:100BF00091408160666584F835700020ABE70000A5
:100C00001060024010640240342C00083F8010F055
:100C100070B5044600F08AF90546601C02D004480D
:100C20000078044400F082F9401BA042FAD370BD62
:100C3000000000202DE9F84FDFF888B20D46044689
:100C400058451BD0A048844218D0A048844215D0F3
:100C50009F48844212D09F4884420FD09E488442CD
:100C60000CD09E48844209D09D48844206D09D48BD
:100C7000844203D0AC219C4801F0DAFE28680104CC
:100C8000090C01D0000C03D0AD21974801F0D0FE33
:100C90006868F8B101281DD011281BD0022819D08E
:100CA000122817D0B0F5881F14D0B0F5041F11D04A
:100CB000B0F5441F0ED0B0F5901F0BD0B0F5081F53
:100CC00008D0B0F5481F05D0032803D0AE218648D0
:100CD00001F0AEFE00264FF0010A4FF0030900BFFD
:100CE0000AFA06F02F688046074047457ED12879EA
:100CF00000F00300012801D002281DD1E86848B1A6
:100D0000012807D0022805D0032803D0C021764847
:100D100001F08EFEA168720009FA02F08143E868D2
:100D200090400843A0606068297920EA0800C1F378
:100D30000011B140014361602879C043800712D09F
:100D4000A86838B1012805D0022803D0D12166480F
:100D500001F06EFEE168720009FA02F08143A868B2
:100D600090400843E060287900F0030002282ED16B
:100D70002869F8B109281DD001281BD0022819D0F4
:100D8000032817D0042815D0052813D0062811D021
:100D900007280FD008280DD00A280BD00B2809D01F
:100DA0000C2807D00D2805D00F2803D0DE214E488F
:100DB00001F03EFEF00804EB8002106A7107CB0ED2
:100DC0000F219940884329699940014311622068A5
:100DD000720009FA02F18843297901F00301914078
:100DE00001432160686810F4403F00E063E062D096
:100DF0003E48016841F480410160006826F003012B
:100E000000F4804000903A480A18D2F80808B10768
:100E10000B0F0F21994088435C4501D1002123E04D
:100E200029498C4201D101211EE028498C4201D17F
:100E3000022119E026498C4201D1032114E0254901
:100E40008C4201D104210FE023498C4201D10521BC
:100E50000AE022498C4201D1062105E020498C425A
:100E600001D1072100E0082199400143C2F8081888
:100E7000204908686A68B843D20200D53843086040
:100E80001C49091D08686A68B843920200D53843B6
:100E900008601849091F08686A68B843920300D5BA
:100EA000384308601349083908686A68B843D203B0
:100EB00000D538430860761C102EFFF411AFBDE852
:100EC000F88F0000000002400004024000080240C9
:100ED000000C0240001002400014024000180240C2
:100EE000001C024000200240C02B00084438024091
:100EF00000300140083C014070B515460C00064624
:100F000004D140F29D11084801F092FD45B1012D38
:100F100004D04FF4CF71044801F08AFDB46170BD74
:100F20002004B06170BD0000C02B0008014880683B
:100F300070470000000000200248816802781144D8
:100F400081607047000000200B4810B5016841F433
:100F500000710160016841F480610160016841F441
:100F600080710160032000F08BF80F2000F006F87C
:100F700000F024F8002010BD003C024070B50D4D7B
:100F800004464FF47A712878B1FBF0F00A490968F9
:100F9000B1FBF0F000F032FE48B9102C07D200226D
:100FA0002146501E00F038F800206C6070BD012012
:100FB00070BD0000000000200C0000200A4808B5A9
:100FC000016841F480410160006800F480400090B5
:100FD0000548001F016841F080510160006800F081
:100FE0008050009008BD00004438024010B5040055
:100FF00003D5BC21074801F01BFD002C09DB04F0E0
:101000001F01012088406109890001F1E021C1F838
:10101000000110BDA82C000870B515460C46064608
:10102000102A03D3A821144801F002FD102C03D389
:10103000A921114801F0FCFC10480068C0F302230C
:10104000C3F107022046042A00D90422191D0729EA
:1010500001D2002300E0DB1E012404FA02F1491E44
:10106000014099409C40641E2C4021433046BDE81D
:10107000704001F0CDBC0000A82C00080CED00E091
:1010800010B5044607280BD0062C09D0052C07D034
:10109000042C05D0032C03D09021084801F0C8FC93
:1010A000074904F0070208684FF6FF03184040EABA
:1010B0000220044A1043086010BD0000A82C00085C
:1010C0000CED00E00000FA052DE9F0470E460400A3
:1010D0007DD02068401E0E2804D940F25A217A485B
:1010E00001F0A6FC96B1012E10D0022E0ED0032ED8
:1010F0000CD0042E0AD0052E08D0062E06D0072EBE
:1011000004D040F25B21704801F092FCDFF8BC8112
:10111000D8F80000F7B200F00700B04207D288F814
:101120000070D8F8000000F00700B0424FD12068EE
:10113000674D810729D5400703D5286840F4E05062
:1011400028602078000703D5286840F460402860B4
:10115000A068A0B1802812D0902810D0A0280ED06E
:10116000B0280CD0C0280AD0D02808D0E02806D05B
:10117000F02804D040F27E21534801F059FC286841
:10118000A16820F0F000084328602078C00743D011
:10119000DFF83C916068A9F1080988B1012822D0E4
:1011A000022824D0032822D040F28521464801F0AD
:1011B0003FFC6068012816D0022818D0032816D0FA
:1011C000D9F800008007002833DA286800E030E012
:1011D000616820F0030008432860FFF7A7FE8146FE
:1011E00041F2883A11E0D9F800008003EBE7D9F822
:1011F00000008001E7E700BFFFF798FEA0EB0901C0
:10120000514502D90320BDE8F0872868616800F0E5
:101210000C00B0EB810FEFD1D8F80010404601F080
:101220000701B14207D90770006800F00700B0421B
:1012300001D00120E7E720784FF4805640074FF4B3
:10124000A0574FF4C0584FF4E05914D5E06860B18E
:10125000B0420AD0B84208D0404506D0484504D034
:1012600040F2C321184801F0E3FB2868E16820F44C
:10127000E050084328602078000715D5206960B148
:10128000B0420AD0B84208D0404506D0484504D004
:1012900040F2CA210C4801F0CBFB2868216920F4F8
:1012A000604040EAC100286000F03AF82968094A25
:1012B000C1F30311515CC840074908600748006842
:1012C000FFF75CFE00209EE74C2B0008003C02402C
:1012D00008380240BE2A00080C000020040000204C
:1012E0000448054900680968044AC1F38221515C39
:1012F000C84070470C00002008380240CE2A000881
:101300000448054900680968044AC1F34231515C48
:10131000C84070470C00002008380240CE2A000860
:10132000154810B5006810F00C02144813D0411095
:10133000042A0FD0082A0ED10F4C241F22682368DC
:1013400002F03F025B0207D52068C0F38810A0FBC3
:10135000010106E0084610BD2168C1F38811A1FB18
:1013600000010023FEF780FF2168C1F30141491C01
:101370004900B0FBF1F010BD083802400024F40031
:101380002DE9F84F04007DD020680F2803D9E6210D
:10139000F74801F04DFB2078DFF8D893C007A9F19A
:1013A000040555D060684FF480364FF4A02738B15B
:1013B000B04205D0B84203D0EB21ED4801F038FB34
:1013C000EC48001D0168C1F38101012908D00068C3
:1013D000C0F3810002280AD1D9F80000400206D5E6
:1013E0002868800334D560680028CCD030E060687D
:1013F000B04203D1286840F480300CE0B84228683D
:1014000003D140F480202860F4E720F48030286085
:10141000286820F480202860606860B1FFF786FDAE
:10142000064604E0FFF782FD801B64287ED828680A
:101430008003F7D50CE0FFF779FD064605E000BF15
:10144000FFF774FD801B6428F0D828688003F7D468
:101450002078DFF8248380074FF0000A56D5E06833
:1014600030B1012804D040F21D11C14801F0E0FA6A
:1014700020691F2804D94FF48F71BD4801F0D8FAB4
:10148000BC4800E092E0001D016811F00C0F08D08C
:101490000068C0F38100022810D1D9F80000400292
:1014A0000CD42868800702D5E06801287ED128681E
:1014B000216920F0F80040EAC10017E0E068B8B107
:1014C0000120C8F80000FFF731FD064605E000BF27
:1014D000FFF72CFD801B0228A8D828688007F7D5C5
:1014E000286820F0F801206941EAC00028600DE07A
:1014F000C8F800A0FFF71AFD064604E0FFF716FD46
:10150000801B022892D828688007F7D4207800072B
:101510002ED5984E994F60697036D0B1012808D009
:101520004FF4AF71924801F083FA00E0D6E06069B1
:1015300078B101203860FFF7F9FC074605E000BFED
:10154000FFF7F4FCC01B0228C6D830688007F7D527
:101550000EE0C7F800A0FFF7E9FC074605E000BF72
:10156000FFF7E4FCC01B0228B6D830688007F7D428
:101570002078400776D5A068002740B1012806D022
:10158000052804D04FF4C571794801F051FADFF80D
:10159000E4B10BF13C0BDBF80000C0000DD4DBF82C
:1015A000001041F08051CBF8001000E01EE1DBF8A4
:1015B0000000012700F080500090714E3068C00597
:1015C00011D4306840F480703060FFF7AFFC0090B9
:1015D00006E000BFFFF7AAFC0099401A02287DD858
:1015E0003068C005F6D5634EA0686C3601280FD070
:1015F0000528306810D020F001003060306820F0FD
:1016000004003060A068B8B1FFF790FC00900FE0D4
:10161000306840F00100F4E740F004003060F7E784
:10162000FFF784FC0099411A41F28830814255D875
:1016300030688007F4D50EE0FFF778FC009007E0F3
:10164000FFF774FC0099411A41F28830814245D875
:1016500030688007F4D42FB1DBF8001021F08051FE
:10166000CBF80010A069D0B3012808D0022806D01A
:1016700040F2CD113E4801F0DBF9A06978B33D4856
:10168000001D0068C0F381000228A0696FD0022805
:1016900005D0C8F860A0FFF749FC04467CE0E0698B
:1016A00038B1B0F5800F04D04FF4EB71304801F041
:1016B000BFF9206A801E3D2804D940F2D7112C487A
:1016C00001F0B6F9606A3238B0F5BF7F04D94FF443
:1016D000EC71274801F0ACF9A06A01E059E087E01D
:1016E00002280AD0042808D0062806D0082804D0EA
:1016F00040F2D9111E4801F09BF9E06A801E0D28C6
:1017000004D94FF4ED711A4801F092F94746C8F830
:1017100060A0FFF70BFC064605E000BFFFF706FCE4
:10172000801B022835D828688001F7D4D4E9070146
:101730000843A16A134A490802EB0141626A41EA7F
:101740008211084394F82C1040EA0161C9F8001096
:1017500001203866FFF7EAFB044604E0FFF7E6FBEA
:10176000001B022815D828688001F7D540E017E053
:101770004C2B00080438024000004742800E4742CC
:10178000007000400000FFFFFFF7D0FB001B0228A5
:1017900002D90320BDE8F88F28688001F4D427E03F
:1017A0000128F7D0D9F80000E26900F480019142E5
:1017B0001CD1226A00F03F01914217D147F6C07157
:1017C000626A0140B1EB821F10D1A26A4FF0FF3371
:1017D00000F4403103EB5202B1EB024F06D194F812
:1017E0002C1000F07060B0EB016F01D00120D1E748
:1017F0000020CFE770B504007ED080492068884281
:101800000AD07F49884207D07E49884204D04FF4ED
:10181000A0717D4801F00CF960684FF4827630B118
:10182000B04204D040F24111774801F001F9A068BC
:1018300050B1B0F5806F07D0B0F5004F04D04FF431
:10184000A171714801F0F4F8E068B0F5006F05D0BF
:1018500020B140F243116C4801F0EAF8A069B0F5FC
:10186000007F08D038B1B0F5802F04D04FF4A271BA
:10187000654801F0DDF8E06990B1082810D0102823
:101880000ED018280CD020280AD0282808D03028BC
:1018900006D0382804D040F245115B4801F0C8F862
:1018A000206A30B1802804D04FF4A371564801F06B
:1018B000BFF8606A002540B3102806D040F24711F7
:1018C000514801F0B5F8606AF8B1E06990B10828B4
:1018D00010D010280ED018280CD020280AD0282884
:1018E00008D0302806D0382804D040F25911464894
:1018F00001F09EF8256100E005E06561A56294F8BD
:10190000510070B335E0012070BD206930B102286C
:1019100004D04FF4A5713C4801F08AF8606930B1F9
:10192000012804D040F24B11374801F081F860687B
:10193000B04217D1E0690028E0D00828DED0102896
:10194000DCD01828DAD02028D8D02828D6D03028C3
:10195000D4D03828D2D040F24F112B4801F068F88B
:10196000CCE701E0E561C9E784F85050204600F07B
:101970004DF8022084F851002068016821F04001F0
:101980000160A088218900F4827001F404410843B9
:10199000A18901F400610843217C01F002010843A0
:1019A000217D01F001010843218B01F400710843FE
:1019B000217F01F03801084394F8201001F08001E4
:1019C0000843218D01F40051084321680860A06993
:1019D000042101EA104094F8241001F0100108439A
:1019E000216848602068C16921F40061C1616565B2
:1019F000012084F85100002070BD0000003001403B
:101A000000380040003C00401C2D000810B586B096
:101A1000044614216846FEF79EFC1349206888425C
:101A200020D112480021026842F48052026000680E
:101A300000F4805005900D481438026842F001020D
:101A40000260006800F001000590A02000900220D4
:101A5000CDE9010103200390052004906946044864
:101A6000FFF7E8F806B010BD0030014044380240EE
:101A7000000002402DE9F84F04468068984615465C
:101A80008A46002638B1B0F5004F04D04FF44271B9
:101A9000594800F0CDFF94F8500001280DD00127DF
:101AA00084F85070FFF742FA814694F851004FF0E5
:101AB000000B012804D002269AE00220BDE8F88F2E
:101AC000BAF1000F6FD0002D6DD0032084F85100C3
:101AD000C4F854B0C4F830A0A586E586C4F838B080
:101AE000A4F83CB0A4F83EB0C4F844B0C4F840B088
:101AF000A068B0F5004F09D12068016821F04001CD
:101B000001602068016841F480410160206801683B
:101B1000490603D4016841F040010160E068B0F576
:101B2000006F606803D058B3012D29D049E008B197
:101B3000012D1FD1206B21680088C86006E0206855
:101B40008168890709D5216B0988C160206B801CD9
:101B50002063E08E401EE0860CE0FFF7E7F9A0EB83
:101B60000901414503D3B8F1FF3F03D006E0B8F1C6
:101B7000000F03D0E08E0028E1D125E0032635E0F8
:101B8000206B21680078087306E020688168890767
:101B90000AD5216B09780173206B401C2063E08E0D
:101BA000401EE0860DE01FE0FFF7C0F9A0EB090141
:101BB000414503D3B8F1FF3F03D0DFE7B8F1000F91
:101BC000DCD0E08E0028E0D14A464146204600F0B5
:101BD0002FFB08B120206065A06818B92068C16893
:101BE00080680090606D08B1012601E084F85170B2
:101BF00084F850B0304661E71C2D000810B5401E37
:101C0000B0F1807F01D3012010BD4FF0E02460616E
:101C10000F21601700F0FCFE0020A061072020616A
:101C2000002010BD70B5040023D0A0693B490028F6
:101C30003B4A3C4B3C4D20681DD088420CD0904222
:101C40000AD0984208D0A84206D040F27311374813
:101C500000F0EEFEA06908B3A069B0F5807F1DD04A
:101C6000B0F5007F1AD0B0F5407F17D04FF4BA71AD
:101C700011E0012070BD884210D090420ED09842F1
:101C80000CD02B49884209D02A49884206D0A84264
:101C900004D04FF4BC71254800F0CAFEA06838B1EA
:101CA000B0F5805F04D04FF4BD71204800F0C0FE55
:101CB000E06938B1B0F5004F04D040F27B111B4809
:101CC00000F0B6FE94F84100002520B984F8405099
:101CD000204600F031F8242084F841002068C168D3
:101CE00021F40051C160204600F0A4FD2068016984
:101CF00021F4904101612068416921F02A0141618C
:101D00002068C16841F40051C1606564202084F8F6
:101D1000410084F842006563002070BD001001405E
:101D2000004400400048004000140140902D00088D
:101D3000004C0040005000402DE9F04186B00646BE
:101D400014216846FEF707FB4949D6F800C0494808
:101D5000022203230727484D00248C454FD14549D3
:101D60001431D1F800C04CF0100CC1F800C0096863
:101D700001F010010591016841F001010160006866
:101D8000694600F00100059058028DE81500CDE984
:101D900003372846FEF74EFF394D38484FF00067AD
:101DA0002860C5E901744FF48068C5E903486C6197
:101DB000AC61EC612C6228466C62FEF7D5FD08B17F
:101DC000FEF779FBF563AE632D4D2C486035783016
:101DD000E5E802074020A5E81101294845F8144923
:101DE0006030AC61EC612C626C62FEF7BDFD08B145
:101DF000FEF761FBB563AE6306B0BDE8F0811D4937
:101E0000204E1031B44515D10E6846F400360E60F0
:101E1000096801F400310591016841F00101016098
:101E20000068694600F0010005900C208DE815005F
:101E3000284618E0144DAC45DED10D6845F48025E8
:101E40000D60096801F480210591016841F00801E5
:101E500001600068694600F0080005904FF440708A
:101E60008DE815000948CDE90337FEF7E3FEC3E727
:101E7000001001403038024000000240406402403F
:101E8000080200200044004000480040000C0240CE
:101E90002DE9F843044690F84100984616460D4651
:101EA000202802D00220BDE8F88385B17EB1002051
:101EB0006064212084F84100FFF738F8A684814649
:101EC000E684A0682027B0F5805F02D003E00120FF
:101ED000E9E7206910B12E4600250EE000260CE04F
:101EE0008021204600F05AFDA8B9C6B116F8010BB2
:101EF00021684860E08C401EE084E08C4B464FF047
:101F00000002CDF800800028EAD14FF040012046C1
:101F100000F044FD40B184F841700320C3E735F878
:101F2000020BC0F30800E3E784F841700020BAE731
:101F3000FEE700000D4810B50B490160102141601B
:101F400000218160C1600161416101764176817645
:101F5000C17601774177FEF7B1FA002803D0BDE8DA
:101F60001040FEF7A8BA10BD00640040B000002089
:101F70000D4808B5016841F4800101600068002245
:101F800000F48000009011463A20FFF745F83A200F
:101F9000FFF72CF8002211464620FFF73DF8BDE878
:101FA00008404620FFF722B8303802402DE9F04FB4
:101FB00087B014216846FEF7CEF95948002401681D
:101FC00041F010010160016801F010010591016804
:101FD00041F004010160016801F00401059101680C
:101FE00041F080010160016801F080010591016804
:101FF00041F001010160016801F0010105910168F2
:1020000041F002010160016801F0020105910168DF
:1020100041F0080101600068DFF8089100F0080055
:102020000590002213214846FEF766FFDFF8F8A06E
:10203000002202215046FEF75FFFDFF8F0B00022D9
:1020400004215846FEF758FF4FF42857012239461D
:102050003748FEF751FF4FF480680022414635486B
:10206000FEF74AFF4DF2FF500325CDE90005694612
:1020700002942F48FEF7DEFD4FF6EC70CDE9000527
:10208000694602944846FEF7D5FD132000900126CC
:10209000CDE90164694648460394FEF7CBFD49F655
:1020A0005110CDE90005694602945046FEF7C2FD85
:1020B00002200090CDE90164694650460394FEF782
:1020C000B9FD4FF6FB70CDE900056946029458460C
:1020D000FEF7B0FD04200090CDE901646946584642
:1020E0000394FEF7A7FD0097CDE901646946104807
:1020F0000394FEF79FFDCDF80080CDE901646946A9
:102100000C480394FEF796FD4FF6FC00CDE9000560
:10211000694602940748FEF78DFD07B0BDE8F08FD1
:102120003038024000080240000002400004024033
:1021300000100240000C0240104810B50E4901602A
:102140004FF48271416000218160C1604FF40072E0
:102150000161C0E905121822C0E9072141628162CC
:102160000A21C162FFF746FB002803D0BDE81040FA
:10217000FEF7A1B910BD000000300140D8000020DA
:102180000C4810B50A4901604FF4E131416000216B
:1021900081600C22C160C0E904128161C161FFF756
:1021A00041FD002803D0BDE81040FEF784B910BD02
:1021B00000100140300100200C4810B50A490160B0
:1021C0004FF4E1314160002181600C22C160C0E91F
:1021D00004128161C161FFF725FD002803D0BDE82D
:1021E0001040FEF768B910BD00440040780100209F
:1021F0000C4810B50A4901604FF4E13141600021FB
:1022000081600C22C160C0E904128161C161FFF7E5
:1022100009FD002803D0BDE81040FEF74CB910BD01
:1022200000480040C0010020FEE7FEE770470000C4
:10223000F8B515460E460B460092044601220221CF
:1022400000F02CF8A0B9134813490068B0FBF1F076
:102250004FF47A71484300906068B0F5827F0DD1E9
:102260003346002280212046009500F017F870B117
:10227000606D40F0200060650320F8BD009830B12B
:10228000401E009020688068C0430006F6D50020FC
:10229000F8BD00000C00002000366E012DE9F84367
:1022A0001E46914688460446089DFEF73FFE401BA9
:1022B000351AFEF73BFE074625480068C0F3CB30D1
:1022C000684338E0701C37D0FEF730FEC01BA842D0
:1022D00003D215B1009860B32CE02068416821F06A
:1022E000E00141606068B0F5827F0BD1A068B0F575
:1022F000004F02D0B0F5806F04D12068016821F052
:1023000040010160A06AB0F5005F09D12068016852
:1023100021F4005101602068016841F4005101601E
:10232000012084F85100002084F850000320BDE80B
:10233000F8830025401E00902068816838EA01007B
:1023400004D000214945BDD10020F0E70121F9E783
:102350000C0000202DE9F0411E46069B0024154686
:102360001F0A134ADBB207E002F8147002EB440CB8
:10237000641C8CF80130A4B2AC42F5D38A19521E09
:10238000D3B24219521ED2B2C9B2C0B200F042F961
:102390002C2000F093F900246D0005E02946044844
:1023A00000F0AAF9641CA4B2B442F7D3BDE8F081EE
:1023B0001000002008B500210090A02350220846FC
:1023C000FFF7C8FF08BD10B500F00EF9112000F0AE
:1023D00075F97820FEF71CFCB12000F06FF90120A0
:1023E00000F04EF92C2000F04BF92D2000F048F9B8
:1023F000B22000F063F9012000F042F92C2000F037
:102400003FF92D2000F03CF9B32000F057F90120EE
:1024100000F036F92C2000F033F92D2000F030F9CF
:10242000012000F02DF92C2000F02AF92D2000F0D9
:1024300027F9B42000F042F9072000F021F9C0206C
:1024400000F03CF9A22000F01BF9022000F018F97E
:10245000842000F015F9C12000F030F9C52000F00B
:102460000FF9C22000F02AF90A2000F009F9002033
:1024700000F006F9C32000F021F98A2000F000F9ED
:102480002A2000F0FDF8C42000F018F98A2000F09E
:10249000F7F8EE2000F0F4F8C52000F00FF90E2058
:1024A00000F0EEF8202000F009F93A2000F006F9DB
:1024B000052000F0E5F82A2000F000F9002000F0E7
:1024C000DFF8002000F0DCF8002000F0D9F87F20D1
:1024D00000F0D6F82B2000F0F1F8002000F0D0F842
:1024E000002000F0CDF8002000F0CAF89F2000F096
:1024F000C7F8E02000F0E2F8022000F0C1F81C204C
:1025000000F0BEF8072000F0BBF8122000F0B8F889
:10251000372000F0B5F8322000F0B2F8292000F0A2
:10252000AFF82D2000F0ACF8292000F0A9F8252004
:1025300000F0A6F82B2000F0A3F8392000F0A0F856
:10254000002000F09DF8012000F09AF8032000F030
:1025500097F8102000F094F8E12000F0AFF8032085
:1025600000F08EF81D2000F08BF8072000F088F8AE
:10257000062000F085F82E2000F082F82C2000F0D4
:102580007FF8292000F07CF82D2000F079F82E202B
:1025900000F076F82E2000F073F8372000F070F885
:1025A0003F2000F06DF8002000F06AF8002000F0F5
:1025B00067F8022000F064F8102000F061F81320A2
:1025C00000F07CF80A20FEF723FB292000F076F8C3
:1025D0000A20FEF71DFB002000F03AF8BDE810408D
:1025E0000020FFF7E7BE000010B5094C00220221D1
:1025F0002046FEF781FC6420FEF70AFB012202213F
:102600002046FEF779FCBDE810406420FEF700BBD1
:1026100000000240F8B507461C4615460E462A2023
:1026200000F04CF8002000908DF801708DF80350F8
:102630000421684600F060F82B2000F03FF88DF888
:1026400001608DF803400421684600F055F8F8BD9C
:1026500010B5002430B1012806D0022807D0032885
:1026600005D103E0C02402E0A02400E0602436206D
:1026700000F024F82046BDE8104000F001B800004A
:1026800031B50C4C012210212046FEF735FC00220A
:1026900002212046FEF730FC4FF0FF33012269464D
:1026A0000548FFF7E7F9012202212046FEF724FC46
:1026B00038BD000000080240D800002031B50C4CA5
:1026C000002210212046FEF717FC0022022120469E
:1026D000FEF712FC4FF0FF33012269460548FFF771
:1026E000C9F9012202212046FEF706FC38BD000090
:1026F00000080240D800002070B50D4E0D4604467B
:10270000012210213046FEF7F7FB0022022130465D
:10271000FEF7F2FBAAB24FF0FF3321460548FFF760
:10272000A9F93046BDE8704001220221FEF7E4BB62
:1027300000080240D80000207047FEF7FDBB0000F3
:1027400030B593B030216846FDF705FE14210CA882
:10275000FDF701FE1D480025016841F08051016030
:10276000006800F0805011901948016841F48041E0
:1027700001600068022400F4804011900120009064
:10278000000401908001CDE9064008AA0420A82198
:1027900082E813000B906846FEF7F2FD08B172B6AE
:1027A000FEE70CA90F2081E831004FF4A0500F90F4
:1027B0004FF48050109005210CA8FEF785FC0028EE
:1027C00001D072B6FEE713B030BD000040380240C1
:1027D000007000400248016841F4700101607047D8
:1027E00088ED00E001680C3151E8002F22F490726E
:1027F00041E80023002BF5D10168143151E8002F86
:1028000022F0010241E80023002BF5D1016B0129E0
:1028100009D101680C3151E8002F22F0100241E883
:102820000023002BF5D1202180F842100021016304
:102830007047000070B5044640685449884204D986
:1028400040F67561524800F0F3F8E06838B1B0F531
:10285000005F04D040F676614D4800F0E9F8206949
:1028600050B1B0F5806F07D0B0F5C06F04D040F61E
:102870007761474800F0DCF860694FF6F371084271
:1028800000D120B940F67861414800F0D1F82068C5
:102890000169E26821F44051114301612169A06896
:1028A000E26908436169114322680843D16849F22B
:1028B0000C6399430143D16020684169A26921F406
:1028C00040711143416133492068884202D0324946
:1028D000884202D1FEF714FD01E0FEF701FDE26936
:1028E0000023192164253226B2F5004F626828D0F2
:1028F000A0FB0101930F9200FDF7B6FC0146B0FB6F
:10290000F5F06FF01802504301EB800006EB001069
:10291000B0FBF5F000F0F002B1FBF5F002EB0012B5
:10292000B1FBF5F06FF01803584301EB800006EBA4
:102930000010B0FBF5F000F00F0021681044886033
:1029400070BDA0FB010192185B41FDF78DFC0146B3
:10295000B0FBF5F00201B1FBF5F06FF0180358433E
:1029600001EB800006EBC000B0FBF5F000F0F800D2
:1029700002EB4002B1FBF5F0584301EB800006EB9F
:10298000C000B0FBF5F000F00700D6E7A037A000CC
:10299000902D000800100140001401402DE9F8437B
:1029A000984617460D460446089E24E0701C22D027
:1029B000FEF7BCFAA0EB0800B0421AD8CEB12068EE
:1029C000C168490717D5802D15D0402D13D0016857
:1029D000C94309070FD401680025406800902046CC
:1029E000FFF700FF0820606484F840500120BDE834
:1029F000F8830320FBE72068006835EA000004D074
:102A00000020B842D2D00020F1E70120F9E7FEE72C
:102A10000907090E002804DB00F1E02080F800140B
:102A2000704700F00F0000F1E02080F8141D70479F
:102A300070470000FEF788FAFFF782FEFFF7B6FA4C
:102A4000FFF796FAFFF778FBFFF79AFBFFF7B4FB67
:102A5000FFF7CEFBFFF76EFAFFF7B5FC0D4D4FF415
:102A600000644FF41676002221462846FEF744FA09
:102A70003046FEF7CDF8012221462846FEF73CFA03
:102A800064230C2204A10848FFF702FA6420FEF731
:102A9000BFF8E8E700100240526F626F4D61737437
:102AA00065720D0A00000000300100204FF04070F8
:102AB000E1EE100A7047000610160006101600001E
:102AC00000000000000001020304060708090000DE
:102AD0000000010203040000433A2F55736572732E
:102AE0002F736D6974682F53544D3332437562658B
:102AF0002F5265706F7369746F72792F53544D3311
:102B000032437562655F46575F46345F56312E32F9
:102B1000382E302F447269766572732F53544D33BB
:102B200032463478785F48414C5F4472697665720A
:102B30002F5372632F73746D3332663478785F6805
:102B4000616C5F63616E2E6300000000433A2F5595
:102B5000736572732F736D6974682F53544D3332DC
:102B6000437562652F5265706F7369746F72792F48
:102B700053544D3332437562655F46575F46345F49
:102B800056312E32382E302F447269766572732F8B
:102B900053544D3332463478785F48414C5F447229
:102BA000697665722F5372632F73746D3332663496
:102BB00078785F68616C5F7263632E630000000069
:102BC000433A2F55736572732F736D6974682F5371
:102BD000544D3332437562652F5265706F7369745B
:102BE0006F72792F53544D3332437562655F465788
:102BF0005F46345F56312E32382E302F447269765C
:102C00006572732F53544D3332463478785F4841A0
:102C10004C5F4472697665722F5372632F73746DC3
:102C20003332663478785F68616C5F6770696F2EE5
:102C300063000000433A2F55736572732F736D69FB
:102C400074682F53544D3332437562652F5265704B
:102C50006F7369746F72792F53544D3332437562B9
:102C6000655F46575F46345F56312E32382E302F1F
:102C7000447269766572732F53544D3332463478FB
:102C8000785F48414C5F4472697665722F53726376
:102C90002F73746D3332663478785F68616C5F646B
:102CA0006D612E6300000000433A2F557365727307
:102CB0002F736D6974682F53544D333243756265B9
:102CC0002F5265706F7369746F72792F53544D333F
:102CD00032437562655F46575F46345F56312E3228
:102CE000382E302F447269766572732F53544D33EA
:102CF00032463478785F48414C5F44726976657239
:102D00002F5372632F73746D3332663478785F6833
:102D1000616C5F636F727465782E6300433A2F5560
:102D2000736572732F736D6974682F53544D33320A
:102D3000437562652F5265706F7369746F72792F76
:102D400053544D3332437562655F46575F46345F77
:102D500056312E32382E302F447269766572732FB9
:102D600053544D3332463478785F48414C5F447257
:102D7000697665722F5372632F73746D33326634C4
:102D800078785F68616C5F7370692E630000000083
:102D9000433A2F55736572732F736D6974682F539F
:102DA000544D3332437562652F5265706F73697489
:102DB0006F72792F53544D3332437562655F4657B6
:102DC0005F46345F56312E32382E302F447269768A
:102DD0006572732F53544D3332463478785F4841CF
:102DE0004C5F4472697665722F5372632F73746DF2
:102DF0003332663478785F68616C5F756172742E07
:102E000063000000242E00080000002010000000D5
:102E1000C4010008342E000810000020180900002A
:102E2000E0010008010000001000000000000000A8
:042E30000024F40086
:040000050800018965
:00000001FF
