:020000040800F2
:1000000060080024390300084B3100081F2F000846
:10001000493100083F040008453C0008000000008A
:10002000000000000000000000000000653A000829
:1000300041040008000000004D310008673A000844
:100040005303000853030008530300085303000838
:100050005303000853030008530300085303000828
:100060005303000853030008530300085303000818
:100070005303000853030008530300085303000808
:1000800053030008530300085303000853030008F8
:1000900053030008530300085303000853030008E8
:1000A00053030008530300085303000853030008D8
:1000B00053030008530300085303000853030008C8
:1000C00053030008530300085303000853030008B8
:1000D00053030008530300085303000853030008A8
:1000E00053030008530300080000000053030008F6
:1000F0005303000853030008530300085303000888
:100100005303000853030008530300085303000877
:100110005303000853030008530300085303000867
:100120005303000853030008530300085303000857
:100130005303000853030008530300085303000847
:1001400000000000000000000000000000000000AF
:100150005303000853030008530300085303000827
:100160005303000853030008530300085303000817
:100170005303000853030008530300085303000807
:1001800053030008530300085303000853030008F7
:1001900053030008530300085303000853030008E7
:1001A00053030008530300085303000853030008D7
:1001B00053030008530300085303000853030008C7
:1001C00053030008530300085303000853030008B7
:1001D00053030008530300085303000853030008A7
:1001E0005303000853030008530300085303000897
:1001F0005303000853030008530300085303000887
:100200005303000853030008530300085303000876
:100210005303000853030008530300085303000866
:1002200053030008530300085303000800000000B4
:1002300053030008530300080000000053030008A4
:100240005303000853030008530300085303000836
:100250005303000853030008530300085303000826
:100260005303000853030008530300085303000816
:100270005303000853030008530300080000000064
:100280005303000853030008530300080000000054
:10029000000000005303000800F002F800F03CF8F2
:1002A0000AA090E8000C82448344AAF10107DA45D1
:1002B00001D100F031F8AFF2090EBAE80F0013F0E7
:1002C000010F18BFFB1A43F001031847403D00001F
:1002D000603D0000103A24BF78C878C1FAD85207B0
:1002E00024BF30C830C144BF04680C6070470000B0
:1002F0000023002400250026103A28BF78C1FBD82F
:10030000520728BF30C148BF0B6070471FB503F0CC
:10031000D9FC1FBD10B510BD00F058F81146FFF70D
:10032000F5FF03F0A3FC00F076F803B4FFF7F2FF4B
:1003300003BC00F07DF800000948804709480047E9
:10034000FEE7FEE7FEE7FEE7FEE7FEE7FEE7FEE785
:10035000FEE7FEE704480549054A064B70470000E2
:10036000693B00089902000860020024600800242C
:1003700060040024600400244FF0000200B513461E
:1003800094469646203922BFA0E80C50A0E80C50B5
:10039000B1F12001BFF4F7AF090728BFA0E80C5066
:1003A00048BF0CC05DF804EB890028BF40F8042B5F
:1003B00008BF704748BF20F8022B11F0804F18BFCC
:1003C00000F8012B7047704770477047754600F082
:1003D0002BF8AE4605006946534620F007008546D7
:1003E00018B020B5FFF7B6FFBDE820404FF000067B
:1003F0004FF000074FF000084FF0000B21F007010D
:10040000AC46ACE8C009ACE8C009ACE8C009ACE84F
:10041000C0098D46704710B50446AFF300802046F2
:10042000BDE81040FFF781BF00487047000200247C
:1004300001491820ABBEFEE7260002007047FEE728
:10044000704772B6FEE7000070B5044600F0B4F9DC
:100450000546601C02D004480078044400F0ACF962
:10046000401BA042FAD370BD080000242DE9F84FCC
:10047000DFF8CC920026DFF8CC820D46DFF8C8A268
:100480004845044620D054451ED0B04884421BD075
:10049000AF48844218D0AF48844215D0AE48844259
:1004A00012D0AE4884420FD0AD4884420CD0AD4843
:1004B000844209D0AC48844206D0AC48844203D080
:1004C000AB48B32103F0D0FB28680104090C01D02C
:1004D000000C03D0A648B42103F0C6FB68684FF0B7
:1004E000030B00281FD00128FCD01128FAD00228C5
:1004F000F8D01228F6D0B0F5881FF3D0B0F5041F5D
:10050000F0D0B0F5441FEDD0B0F5901FEAD0B0F5B3
:10051000081FE7D0B0F5481FE4D00328E2D0944884
:10052000B52103F0A1FB03E10120B04011EA00076F
:1005300000907DD0287900F00300012801D0022826
:100540001DD1E86848B1012807D0022805D003284A
:1005500003D08748C42103F087FBA1687200E868D4
:100560000BFA02F3994390400843A0606068297930
:10057000009AC1F300119043B140014361602879B2
:10058000C043800712D0A86838B1012805D00228DE
:1005900003D07748D62103F067FBE0687200A968B2
:1005A0000BFA02F3984391400143E160287900F08F
:1005B000030002283AD14C4520D054451ED0634850
:1005C00084421BD06248844218D06248844215D0CD
:1005D0006148844212D0614884420FD0604884420E
:1005E0000CD06048844209D05F48844206D05F48FE
:1005F000844203D05E48E32103F036FB28690F28CC
:1006000003D95B48E42103F02FFBF00829690F238D
:1006100004EB80024FEA467C106A4FEADC6C03FA76
:100620000CF3984301FA0CF101431162297900E0BF
:100630007DE02068720001F003010BFA02F39140A3
:10064000984301432160686810F4403F6FD04948E7
:10065000016841F002010160006826F0030202F126
:10066000B04200F002000090B007D2F808140F2347
:10067000000F83404C4521EA030101D100232CE007
:10068000544501D1012328E0304B9C4201D1022383
:1006900023E02F4B9C4201D103231EE02D4B9C42B3
:1006A00001D1042319E02C4B9C4201D1052314E015
:1006B0002A4B9C4201D106230FE0294B9C4201D1D9
:1006C00007230AE0274B9C4201D1082305E0264B73
:1006D0009C4201D1092300E00A2383400B43C2F866
:1006E00008344FF0B0406A680168D20221EA07017D
:1006F00000D5394301606A684168920221EA070126
:1007000000D539434160D8F80400696820EA070041
:10071000890300D53843C8F80400D8F80000696898
:1007200020EA0700C90300D53843C8F80000761C4A
:100730002F683946F7407FF4F7AEBDE8F88F000028
:1007400000000258800000580004025800080258B7
:10075000000C0258001002580014025800180258E9
:10076000001C025800200258002402580028025899
:100770003C3E0008F444025870B50C00154606468D
:1007800004D109484FF4D57103F06EFA45B1012D3B
:1007900004D0054840F2AB1103F066FAB46170BDB5
:1007A0002004B06170BD00003C3E000801480068B4
:1007B000000C70470010005C014880687047000022
:1007C0000800002402488168027811448160704763
:1007D00008000024032010B500F08AF801F0A0F909
:1007E0000F4A104914681368C4F3032203F00F037F
:1007F0008A5CC95C02F01F0201F01F01D0400A4A66
:1008000020FA01F1116009490860002000F010F899
:1008100008B1012010BD00F02BF8002010BD000031
:1008200018440258CE3C00080400002400000024B4
:1008300070B50D4D04462878A0B14FF47A71B1FB24
:10084000F0F00A490968B1FBF0F002F055FB48B935
:10085000102C07D200222146501E00F017F800206D
:100860006C6070BD012070BD0800002400000024F1
:10087000054808B5016841F002010160006800F018
:100880000200009008BD0000F444025870B5102A20
:1008900014460D46064603D31348A92103F0E4F994
:1008A000102D03D31048AA2103F0DEF90F48006889
:1008B000C0F30223C3F10702042A00D90422181D41
:1008C000072801D2002300E0DB1E012101FA02F01B
:1008D0009940401E2840491E98402140014330461F
:1008E000BDE8704003F0AFB9E03C00080CED00E05B
:1008F00070B5072804460BD0062C09D0052C07D06C
:10090000042C05D0032C03D00848912103F0ACF946
:10091000074904F007024FF6FF050868054B284019
:1009200040EA02201843086070BD0000E03C000867
:100930000CED00E00000FA0570B50228044606D070
:10094000012C04D015484FF49F7103F08DF9144821
:100950000168C943490705D5006800F00700A042B7
:1009600013D118E0016821F0070121430160FFF76E
:1009700023FF0B4D4FF47A760446083D07E000BF95
:10098000FFF71AFF001BB04201D9012070BD286893
:10099000C0438004F4D4002070BD0000B03E0008C5
:1009A0000C4802580248016841F4807101607047A8
:1009B000004802582DE9FE4F0446DFF8008450F845
:1009C000081B0025FD4FC943019004F128002E4665
:1009D00008F12408009008011DD4A06E50B1B0F5B4
:1009E000801F0CD0B0F5001F0ED0B0F5401F1ED0F8
:1009F00001250FE0386840F40030386017E00198B6
:100A0000022102F0A5FB03E00098022102F07CFC29
:100A100005000CD02E462088C043C00523D4A06D0D
:100A200005281ED2DFE800F00C11161B1B00A26E79
:100A3000D8F8001021F440111143C8F80010EAE77B
:100A4000386840F40030386009E00198002102F075
:100A50007FFB03E00098002102F056FC054675B1CB
:100A600000E001252E462088C043800528D4E06D93
:100A700080281ED00CDC90B140280ED114E0A26D6D
:100A8000D8F8001021F007011143C8F80010EAE778
:100A9000C02813D0B0F5807F10D001250FE0386852
:100AA00040F40030386009E00198002102F050FB6A
:100AB00003E00098002102F027FC05469DB12E4678
:100AC0002088DFF8F892C04309F12C0940052CD4A6
:100AD000D4F8A800B0F5800F20D00DDCA0B1B0F59F
:100AE000001F0FD115E0E26DD8F8001021F4E0717D
:100AF0001143C8F80010E3E7B0F5C00F13D0B0F50C
:100B0000000F10D001250FE0386840F40030386045
:100B100009E00198002102F01BFB03E0009800218E
:100B200002F0F2FB05467DB12E462088C043000549
:100B30002DD4D4F8AC00B0F1007F21D00EDCA8B1E8
:100B4000B0F1807F10D116E0D4F8A820D9F80010B9
:100B500021F460011143C9F80010E6E7B0F1407FCD
:100B600013D0B0F1806F10D001250FE0386840F449
:100B70000030386009E00198002102F0E9FA03E052
:100B80000098002102F0C0FB054675B12E46206892
:100B9000C04380011FD4E06CD8B110280FD02028AA
:100BA00012D0302815D0012514E0D4F8AC20D9F8A3
:100BB000001021F0E0611143C9F80010E7E7386840
:100BC00040F40030386004E00198022102F0C0FADD
:100BD000054675B12E462088C043C0042BD4206E34
:100BE000B0F5005F20D00DDCA0B1B0F5805F0FD173
:100BF00015E07248E26C2030016821F030011143A9
:100C00000160E8E7B0F5405F13D0B0F5804F10D039
:100C100001250FE0386840F40030386009E00198A1
:100C2000002102F095FA03E00098002102F06CFB2D
:100C300005468DB12E462088C043800429D4606EBD
:100C4000B0F5403F23D010DC08B3B0F5803F14D09E
:100C5000B0F5003F0FD115E0226ED8F8001021F456
:100C6000E0411143C8F80010E5E7B0F5802F0ED041
:100C7000B0F5A02F0BD001250AE00198012102F068
:100C800067FA03E00098012102F03EFB054695B1AA
:100C90002E462088C04340042AD4D4F8B000B0F1D6
:100CA000405F23D010DC08B3B0F1805F14D0B0F106
:100CB000005F0FD115E0626ED8F8001021F4E0213A
:100CC0001143C8F80010E4E7B0F1804F0ED0B0F146
:100CD000A04F0BD001250AE00198012102F038FA5B
:100CE00003E00098012102F00FFB054675B12E4686
:100CF0002088C04300041FD4206FD8B1B0F1805FBA
:100D00000ED0B0F1005F10D0012514E0D4F8B0206F
:100D1000D9F8001021F0E0411143C9F80010E7E7CD
:100D2000386840F40030386004E00198012102F096
:100D30000FFA054675B12E462068C043C0011ED487
:100D4000A06CD0B101280ED0022811D0032814D0F5
:100D5000012513E0226FD8F8001021F04051114313
:100D6000C8F80010E8E7386840F40030386004E064
:100D70000198022102F0ECF90546EDB32E462068F9
:100D8000DFF838B0C043ABF11C0B40027ED4D4F87E
:100D9000B400B0F5807F7AD0B0F5007F77D0B0F5A1
:100DA0000C5F74D0B0F54C5F71D0B0F5864F6ED04B
:100DB000B0F5A64F6BD0B0F5C64F01E02C440258F9
:100DC00065D0B0F5E64F62D0B0F5034F5FD0B0F517
:100DD000134F5CD0B0F5234F59D0B0F5334F56D0F8
:100DE000B0F5434F53D0B0F5534F50D0B0F5634FEB
:100DF0004DD0B0F5734F00E0A1E048D0F9498842EA
:100E000045D0F949884242D0F84988423FD0F84954
:100E100088423CD0F749884239D0F749884236D0D9
:100E2000F649884233D0F64988427FD0F549884256
:100E30007CD0F549884279D0F449884276D0F4498B
:100E4000884273D0F349884270D0F34988426DD00C
:100E5000F24988426AD0F249884267D0F149884213
:100E600064D0F149884261D0F04988425ED0F049AF
:100E700088425BD0EF49884258D0EF49884255D02C
:100E8000EE49884252D0EE49884201E09EE04DE0B2
:100E90004CD0EC49884249D0EB49884246D0EB49D6
:100EA000884243D0EA49884240D0EA4988423DD04E
:100EB000E94988423AD0E949884237D0E84988422E
:100EC00034D0E849884231D0E74988422ED0E749FA
:100ED00088422BD0E649884228D0E649884225D06E
:100EE000E549884222D0E54988421FD0E44988423A
:100EF0001CD0E449884219D0E349884216D0E3491E
:100F0000884213D0E249884210D0E24988420DD08D
:100F1000E14988420AD0E149884207D0E049884245
:100F200004D0E04840F27D3102F09EFEDE480168C8
:100F300041F480710160FFF73FFC82460EE0DB4820
:100F4000A26C016821F003011143016017E700BFA3
:100F5000FFF732FCA0EB0A00642835D8D2480068BD
:100F6000C005F5D58DBBDFF844A3B4F8B4100AF181
:100F7000240ADAF8000001F4407100F4407088425D
:100F800011D0DAF80010DAF8002021F4407142F4B0
:100F90008032CAF80020DAF8002022F48032CAF841
:100FA0000020CAF80010D4F8B400B0F5807F1AD140
:100FB000FFF702FC029012E0FFF7FEFB0299411AD4
:100FC00041F2883081420AD903252E462078DFF885
:100FD000DCA2C0430AF1080AC00721D03CE0DAF8DD
:100FE00000008007E8D5D4F8B410C1F3012003282D
:100FF00058460DD0016821F47C510160B4F8B4204A
:10100000DAF80010C2F30B021143CAF80010DDE752
:10101000A74A036802EA111223F47C511143ECE75A
:10102000E06F182816D005DCA0B1082808D01028D9
:1010300004D10AE020280DD028280BD001250AE091
:101040000198012102F084F803E00098012102F0E8
:101050005BF9054665B12E462078C04380071ED453
:10106000A06F062819D2DFE800F0160C111616162C
:10107000E26FDAF8001021F038011143CAF80010CD
:10108000EAE70198012102F063F803E000980121EA
:1010900002F03AF905467DB100E001252E462078A0
:1010A000C04340071FD4D4F89400062819D2DFE8C3
:1010B00000F0160C11161616A26FDAF8001021F0C7
:1010C00007011143CAF80010E9E70198012102F075
:1010D0003FF803E00098012102F016F90546A5B19A
:1010E00000E001252E462078C04380062BD4D4F89A
:1010F0009000B0F1405F24D011DC10B3B0F1805FFC
:1011000015D0B0F1005F10D116E0D4F89420D9F8D2
:10111000001021F007011143C9F80010E3E7B0F116
:10112000804F0ED0B0F1A04F0BD001250AE00198FE
:10113000002102F00DF803E00098022102F0E4F82B
:10114000054695B12E462078C04340062BD4D4F8EE
:101150009C00B0F5406F24D011DC10B3B0F5806F67
:1011600015D0B0F5006F10D116E0D4F89020DAF861
:10117000001021F0E0411143CAF80010E3E7B0F598
:10118000805F0ED0B0F5A05F0BD001250AE001987A
:10119000002101F0DDFF03E00098022102F0B4F825
:1011A000054695B12E462078C043000618D4D4F8E1
:1011B000A000B0F5C04F12D07EDC80B1B0F5005F6A
:1011C00078D0B0F5804F7DD183E0D4F89C20D9F859
:1011D000001021F4E0511143C9F80010E3E77DE06D
:1011E0007EE069E00003010000130100002301001C
:1011F00000330100004301000053010000630100BF
:1012000000730100008301000093010000A30100AE
:1012100000B3010000C3010000D3010000E301009E
:1012200000F301000003020000130200002302008B
:10123000003302000043020000530200006302007A
:1012400000730200008302000093020000A302006A
:1012500000B3020000C3020000D3020000E302005A
:1012600000F3020000030300001303000023030047
:101270000033030000430300005303000063030036
:1012800000730300008303000093030000A3030026
:1012900000B3030000C3030000D3030000E3030016
:1012A00000F30300C83D0008004802584C440258AF
:1012B000CFFFFF0008E005E0B0F5004F0ED0B0F51D
:1012C000204F0BD001250AE00198002101F040FFDA
:1012D00003E00098022102F017F80546DDB12E4622
:1012E0002078C04300072FD4D4F88400B0F5805F85
:1012F0001BD0B0F5005F1ED0E8B1B0F5405F1AD04A
:10130000E84840F20D5102F0AFFCD4F88400B0F58B
:10131000805F0AD00FE0D4F8A020D9F8001021F4A3
:1013200060411143C9F80010DAE70098022101F08A
:10133000EBFF00B10126D4F88420DAF8001021F484
:1013400040511143CAF800102078C043C00624D48D
:10135000D4F89800B0F5807F10D0B0F5007F13D09E
:1013600090B1B0F5407F0FD0CE484FF4A46102F0A9
:101370007BFCD4F89800B0F5807F05D1009802215D
:1013800001F0C2FF00B10126D4F89820D9F800106E
:1013900021F440711143C9F800102068C0430003D4
:1013A00016D4D4F8A40038B1B0F5803F09D0B0F518
:1013B000003F0BD001250AE00198002101F0C8FE92
:1013C00003E00098022101F09FFF05468DB12E46F3
:1013D0002068C043400322D4D4F88800B0F5801FB1
:1013E00011D0B0F5001F13D0B0F5401F15D0012566
:1013F00014E0D4F8A420D9F8001021F440311143AE
:10140000C9F80010E4E7386840F40030386004E0C0
:101410000098012101F078FF0546ADB12E46206805
:10142000C043C00326D4206D38B1B0F5803F04D04E
:101430009C4840F2865102F017FC206D70B1B0F567
:10144000803F10D0012514E0D4F88820DAF800108D
:1014500021F440111143CAF80010E0E7386840F465
:101460000030386004E00198022101F071FE054669
:10147000E5B12E462068C043800005D400980221C3
:1014800001F042FF00B101262068C04380031BD455
:10149000D4F88000B0B1B0F5807F0FD0B0F5007FF8
:1014A00010D0B0F5407F0DD001250CE07E48226DB4
:1014B000016821F4803111430160DBE7386840F4B2
:1014C00000303860F5B32E462068C043C00211D406
:1014D000606F38B1B0F1004F04D0724840F2E5516E
:1014E00002F0C2FB626FD8F8001021F000411143F6
:1014F000C8F800102068C043C00013D4D4F8B80066
:1015000038B1B0F5804F04D0664840F2EF5102F098
:10151000ABFBD4F8B820DBF8001021F48041114374
:10152000CBF800102068C043800213D4E06E38B1BD
:10153000B0F1807F04D05B4840F2F95102F094FB97
:10154000E26E00E05CE0D8F8001021F080711143F9
:10155000C8F800102068C043400017D4D4F8BC007D
:1015600038B1B0F5004F04D04E4840F20F6102F0A0
:101570007BFBDBF8001021F40041CBF80010DBF816
:101580000010D4F8BC201143CBF800102068C043F1
:1015900013D4606D50B1B0F1805F07D0B0F1005F3F
:1015A00004D0404840F2196102F05EFB3E48626D93
:1015B000016821F04051114301602068C0430002DE
:1015C00016D4D4F88C0050B1B0F5800F07D0B0F528
:1015D000000F04D0334840F2236102F045FBD4F8F9
:1015E0008C20DAF8001021F440011143CAF80010F1
:1015F00020790025C04300F0010028430AD00FE005
:10160000D4F88020DAF8001021F440711143CAF8B0
:10161000001059E70198002101F09AFD00B106463B
:101620002079C04300F00200284305D10198012130
:1016300001F08EFD00B106462079C04300F00400A1
:10164000284305D10198022101F082FD00B1064630
:101650002079C04300F00800284305D100980021FC
:1016600001F052FE00B106462079C04300F01000A0
:10167000284305D10098012101F046FE00B106463D
:101680002079C04300F02000054304D100980221D6
:1016900001F03AFE00B916B10120BDE8FE8F00202E
:1016A000FBE70000C83D00084C4402582DE9F05FFC
:1016B00004000D467ED02068401E3E2804D9FF4815
:1016C00040F2A73102F0D0FA15B3012D20D0022D3F
:1016D0001ED0032D1CD0042D1AD0052D18D0062D98
:1016E00016D0072D14D0082D12D0092D10D00A2D98
:1016F0000ED00B2D0CD00C2D0AD00D2D08D00E2D98
:1017000006D00F2D04D0ED484FF46A7102F0ACFA08
:10171000DFF8AC83D8F8000000F00F00A8420CD22C
:10172000D8F8001021F00F012943C8F80010D8F8AC
:10173000000000F00F00A8423CD12078E14E4007A5
:1017400019D52069316801F07001884213D960B160
:1017500040280AD0502808D0602806D0702804D02D
:10176000D6484FF4717102F07FFA2169306820F099
:101770007000084330602078D24F3F1D00071BD512
:101780006069396801F07001884215D960B140285C
:101790000AD0502808D0602806D0702804D0C74846
:1017A00040F2D63102F060FA6169386820F07000CA
:1017B000084300E00DE138602078C0061DD5A0691F
:1017C000396801F4E061884217D980B1B0F5806FC3
:1017D0000DD0B0F5A06F0AD0B0F5C06F07D0B0F54E
:1017E000E06F04D0B54840F2E73102F03DFAA1695C
:1017F000386820F4E060084338602078DFF8C4A23D
:1018000080060AF1080A1CD5E069DAF8001001F038
:101810007001884215D960B140280AD0502808D0FC
:10182000602806D0702804D0A44840F2F93102F0B4
:101830001BFAE269DAF8001021F070011143CAF8CE
:1018400000102078800721D5E068316801F00F0191
:1018500088421BD9A0B1082812D0092810D00A2824
:101860000ED00B280CD00C280AD00D2808D00E283A
:1018700006D00F2804D0914840F20C4102F0F4F950
:10188000E168306820F00F00084330602078C0071E
:1018900069D0A068E0B1B0F5006F19D0B0F5106F55
:1018A00016D0B0F5206F13D0B0F5306F10D0B0F572
:1018B000406F0DD0B0F5506F0AD0B0F5606F07D013
:1018C000B0F5706F04D07D4840F21C4102F0CCF9B5
:1018D0006068012809D040B1022806D0032804D04E
:1018E000764840F21D4102F0BFF97649A26830689F
:1018F000183920F47060104330606068022816D0F8
:10190000032817D00968012817D04907002960DA91
:10191000DFF8B0B1ABF1080BDBF8002022F00702D2
:101920000243CBF80020FEF747FF814613E0096829
:101930008903EBE709688901E8E7C905E6E700BF25
:10194000FEF73AFFA0EB090141F28830814202D94B
:101950000320BDE8F09F6168DBF8000000F038006C
:10196000B0EBC10FECD12078800721D5E068316859
:1019700001F00F0188421BD2A0B1082812D009281B
:1019800010D00A280ED00B280CD00C280AD00D2815
:1019900008D00E2806D00F2804D0484840F25E41F7
:1019A00002F062F9E168306820F00F00084330600F
:1019B000D8F80010404601F00F01A9420BD9016888
:1019C00021F00F0129430160006800F00F00A842D8
:1019D00001D00120BDE72078400719D52069316882
:1019E00001F07001884213D260B140280AD050281B
:1019F00008D0602806D0702804D0304840F27F41DB
:101A000002F032F92169306820F07000084330603C
:101A10002078000719D56069396801F070018842A3
:101A200013D260B140280AD0502808D0602806D0D0
:101A3000702804D0214840F2914102F015F9616903
:101A4000386820F07000084338602078C0061DD543
:101A5000A069396801F4E061884217D280B1B0F51D
:101A6000806F0DD0B0F5A06F0AD0B0F5C06F07D071
:101A7000B0F5E06F04D0114840F2A34102F0F4F851
:101A8000A169386820F4E060084338602078800657
:101A900022D5E0695546DAF8001001F0700188425D
:101AA0001AD298B1402811D050280FD060280DD0FC
:101AB00070280BD0014840F2B54105E0543D0008C4
:101AC000002000521844025802F0CEF8E16928685C
:101AD00020F070000843286000F022F80C493368B9
:101AE0003268C3F3032302F00F02CB5C895C03F07E
:101AF0001F0201F01F01D040064A20FA01F11160D7
:101B00000549086005480068BDE8F05FFEF790BE33
:101B1000CE3C000804000024000000240C00002437
:101B2000454970B545480968434B103B11F03802F0
:101B300008D00111082A03D0102A0BD0182A0BD084
:101B4000084670BD19688906FBD51968C1F3C10143
:101B5000C84070BD3A4870BD3749374D18310C1D2B
:101B600024350A68096826682D6802F0030406F027
:101B70000102C1F30511C5F3CC0515FB02F200EE1D
:101B8000102AB8EE400AE9B32F4ADFED2E0AB7EE6D
:101B9000001A6CB1DFED2D1A012C01D0022C43D0BC
:101BA00002EE101A1068F8EE422A81EEA22A1EE018
:101BB0001C68A40611D51B6801EE901A1168C3F3C6
:101BC000C103F8EE612AD84001EE900AC1F3080083
:101BD000F8EE611A81EEA22A0BE001EE901ADFED19
:101BE0001C2A00BFF8EE611A106882EEA12AC0F329
:101BF000080001EE900AF8EE611A40EE201A31EE6C
:101C0000810A00E015E022EE000A1068C0F34620C9
:101C1000401C00EE900AF8EE600A80EE201ABCEE3E
:101C2000C10A10EE100A70BD01EE901ADFED092A0C
:101C3000D8E7002070BD0000104402580090D00387
:101C400040787D0100000039304402580024744A75
:101C50000024744C20BCBE4B2DE9F05F04006FD013
:101C6000FB4E41F20308DFF8E893F94FA6F10405B3
:101C7000206809F10C09243780B1C10711D181070F
:101C80006CD4C1067DD401077CD441077BD4800687
:101C90007AD4F04840F2A11101F0E6FF2078C007A5
:101CA00059D060684FF4803A4FF4A02B40B15045B2
:101CB00006D0584504D0E7484FF4D37101F0D4FF63
:101CC000D9F80000396800F0380010280CD0182826
:101CD00003D101F00300022806D0606850450AD104
:101CE000286840F4803010E02868800333D56068AD
:101CF0000028B4D02FE008B158450DD0286820F452
:101D000080302860286820F480202860606898B1BE
:101D1000FEF752FD82460BE0286840F480202860E0
:101D2000DEE700BFFEF748FDA0EB0A00642870D88C
:101D300028688003F6D50EE0FEF73EFD824607E0F8
:101D400046E100BFFEF738FDA0EB0A006428EED89C
:101D500028688003F6D42078800758D5E06860B101
:101D600001280AD0092808D0112806D0192804D043
:101D7000B8484FF4ED7101F077FF20697F2809D949
:101D800003E073E0E3E002E118E1B24840F2DB1166
:101D900001F06AFFD9F80000396810F038000ED061
:101DA000182801D188070AD0E06888B3296821F093
:101DB000190101432960FEF7FFFC824630E02868E4
:101DC000400702D5E068002893D0E168286820F039
:101DD000190008432860FEF7EFFC824606E000BFCA
:101DE000FEF7EAFCA0EB0A000228A0D8286840070A
:101DF000F6D500BFFEF7DAFC40451BD82069402825
:101E000012D0316821F47C3141EA003030602AE0A0
:101E100017E0A7E1FEF7D0FCA0EB0A00022886D865
:101E200028684007F6D5E5E7306820F47C3040F4B8
:101E30000030EBE7207C316821F0FE4141EA006090
:101E4000E4E7286820F001002860FEF7B5FC824630
:101E500006E000BFFEF7B0FCA0EB0A000228C4D8E1
:101E600028684007F6D42078C0066DD5E06930B107
:101E7000802804D0774840F22B2101F0F5FE206A3B
:101E80003F2804D973484FF40B7101F0EDFED9F8E7
:101E90000000DFF8BCB1396800F038000BF1080B26
:101EA000082810D0182803D101F0030001280AD017
:101EB000E0690028286837D040F080002860FEF7ED
:101EC0007BFC824622E02868C00522D5E069802894
:101ED0007ED11EE0206A202820D0316821F0F84110
:101EE00041EA806030602FE094F82010DBF8002099
:101EF00022F07C5242EA0161CBF8001024E000BFDE
:101F0000FEF75AFCA0EB0A00022888D82868C00512
:101F1000F6D5FEF74BFC4045E6D8DBE7306820F00D
:101F2000F84040F08040DDE720F080002860FEF7B8
:101F300043FC064605E000BFFEF73EFC801B02287E
:101F40008DD82868C005F7D42078000733D5404ED7
:101F500060697036E0B1012806D03E4840F26D213C
:101F600001F082FE606998B13168B04641F001012C
:101F70003160FEF721FC064605E000BFFEF71CFCC1
:101F8000801B0228C1D8D8F800008007F6D512E0DF
:101F90003168B04621F001013160FEF70DFC0646C4
:101FA00005E000BFFEF708FC801B0228ADD8D8F87A
:101FB00000008007F6D4207880062FD5A069E0B114
:101FC000012808D023484FF4267101F04DFE00E0AF
:101FD000B8E1A06988B1286840F480502860FEF715
:101FE000EBFB064605E000BFFEF7E6FB801B022880
:101FF0008BD828688004F7D510E0286820F480503A
:102000002860FEF7D9FB064605E000BFFEF7D4FBCB
:10201000801B022894D828688004F7D420784007D1
:102020005DD5A06840B1012806D0052804D0094834
:1020300040F2C22101F018FEDFF81C80D8F8001031
:1020400041F48071C8F80010FEF7B6FB06460AE0BE
:1020500004440258543D000800480258FEF7ACFB07
:10206000801B64287ED8D8F80000C005F6D5A0688B
:10207000CB4E01280AD008B1052813D0306820F0D3
:1020800001003060306820F0040002E0306840F069
:1020900001003060A06841F2883A98B1FEF78CFBED
:1020A00080460BE0306840F004003060EEE700BF8F
:1020B000FEF782FBA0EB0801514553D8306880073A
:1020C000F6D50CE0FEF778FB804605E0FEF774FBE2
:1020D000A0EB0801514545D830688007F6D4606A06
:1020E00000287DD0012809D0022807D0AD484FF440
:1020F0003D7101F0B9FD606A002871D0D9F8000087
:102100004FF6F87BDFF898A2AAF1400AC0F3C200AC
:1021100003280AF10408AAF1040970D0606A0228B1
:1021200007D0286820F080702860FEF745FB044641
:10213000DCE0A06A012809D040B1032806D00228BB
:1021400004D0984840F2FD2101F08EFD206C60B172
:1021500004280AD0082808D00C2806D0914840F25C
:10216000FE2100E0BFE001F07FFD606C30B102288D
:1021700004D08C4840F2FF2101F076FDE06A401E59
:102180003E2804D987484FF4407101F06DFD206B63
:10219000001FB0F5FE7F04D9824840F2013101F002
:1021A00063FD606B401E7F2804D97E4840F20231F7
:1021B00001F05AFDA06B401E7F2804D9794840F2F7
:1021C000033101F051FDE06B401E7F2804D97548B2
:1021D0004FF4417101F048FDA06CB0F5005F00E0E4
:1021E000DBE004D36F4840F2053101F03DFD286883
:1021F00020F080702860FEF7DFFA064605E079E0FF
:10220000FEF7DAFA801B02286DD828688001F7D41F
:10221000E26A40F2F331386854F8283F884340EAD4
:10222000021018433860217B4FF4FE0C22894FF0D6
:10223000FE47208A4902267D521E401EA1F50071EC
:1022400089B2C2F308021143761E0CEA0040014332
:10225000484607EA06621143CAF80010D9F8001090
:1022600021F00101C9F80010D8F80030266A23EAED
:102270000B0343EAC601C8F80010D9F80010A269A0
:1022800021F00C011143C9F800100168E26921F046
:10229000020111430160016841F48031016001686D
:1022A00041F400310160016841F48021016001685E
:1022B00041F001010160286840F080702860FEF75D
:1022C0007BFA044605E000BFFEF776FA001B022801
:1022D00009D828688001F7D55FE000BFFEF76CFAE7
:1022E000001B022802D90320BDE8F09F2868800166
:1022F000F4D452E0626A3968DAF80000012A21D089
:10230000A26A01F0030393421CD1E26AC1F30511F2
:102310008A4217D1216BC0F30802491E8A4211D1AB
:10232000616BC0F34622491E91420BD1A16BC0F3F1
:102330000642491E914205D1E16BC0F30660491E79
:10234000814201D00120CFE7A06C4646D8F80010AA
:10235000C1F3CC01884220D0B0F5005F04D311480E
:102360004FF45B7101F080FCD9F800004D4620F07D
:102370000100C9F80000FEF71FFA0746FEF71CFA35
:10238000B842FBD0A26C316821EA0B0141EAC200DD
:102390003060286840F0010028600020A4E70000B9
:1023A00070440258543D000870B504004FF001001D
:1023B0007ED048492068884203D04748EA2101F08E
:1023C00053FC6068402804D018B14348EB2101F069
:1023D0004BFCA0687F2803D93F48EC2101F044FC66
:1023E000E068B0F5004F03D33B48ED2101F03CFC21
:1023F000206960B1B0F5001F09D0B0F5800F06D09C
:10240000B0F5C00F03D03448EE2101F02DFC606917
:1024100028B1022803D03048EF2101F025FCA06943
:1024200030B1B0F5801F03D02B48F02101F01CFC27
:10243000E06928B1012803D02748F12101F014FCFC
:1024400094F8210028B9002084F82000204600F0EC
:1024500047F8022084F821002068C168C943C906F2
:1024600033D5CA224262532120684162204601F0DE
:1024700041F828BB2068194A816811408160D4E97D
:102480000013A569226988682A43184310438860AD
:1024900022682189E06840EA01401061204601F08D
:1024A0004DF868B92168CA6C22F00302CA6400E0E2
:1024B0000AE022686369E169D56C19432943D16454
:1024C0002268FF21516208B170BD0020012184F80B
:1024D000211070BD00400058243F0008BFFF8FFF4F
:1024E00010B5B0B00446C0216846FDF745FF0B4962
:1024F0002068884210D1010200208A132D92CDE974
:1025000000106846FEF756FA08B1FDF79AFF044836
:10251000016841F40041016030B010BD0040005836
:10252000704402582DE9F04116000C46054606D0CD
:10253000012E04D0534840F2CD3101F095FB95F8BF
:102540002000012807D0012785F82070022085F897
:1025500021001EB109E00220BDE8F0816078C106CB
:1025600003D500F0EF000A3060702078012810D009
:1025700002280ED003280CD004280AD0052808D041
:10258000062806D0072804D03E4840F2D93101F091
:102590006BFBE078CEB300F097FF632804D939488D
:1025A0004FF47A7101F060FB607800F08DFF20B18C
:1025B000607800F089FF0C2804D9324840F2E931F4
:1025C00001F052FBA07800F07FFF20B1A07800F06E
:1025D0007BFF1F2804D92B4840F2EA3101F044FB6D
:1025E0006178E278A0782378090240EA024441EA5F
:1025F000433004432A68CA21532051622968486243
:10260000284600F077FF58B331E0FFE7632804D98C
:102610001C4840F2DD3101F027FB6078401E0B289A
:1026200004D9184840F2DE3101F01EFBA078401EAC
:102630001E2804D9134840F2DF3101F015FBE07881
:1026400000F04BFF0204607800F047FF42EA0022EE
:10265000A07800F042FF2178024342EA4134C9E702
:102660002968094804404C60284600F067FF2A6842
:10267000FF21516208B985F82170002185F82010EA
:102680006AE70000243F00083FFFFF002DE9F0410A
:1026900016000C46054606D0012E04D06A484FF4B9
:1026A0004D7101F0E1FAE068B0F5003F08D0B0F5F7
:1026B000803F05D020B1644840F2353101F0D4FAB2
:1026C000206938B1B0F5802F04D05F4840F2363130
:1026D00001F0CAFA95F82000012813D002224FF029
:1026E000010885F82080CA2185F8212053202A6816
:1026F000516229684862284600F0FCFE4FF000074E
:1027000018B197E00220BDE8F081286880684FEAA0
:102710004060B6B1002851DA207800F0D5FE20B133
:10272000207800F0D1FE0C2804D9474840F25B31F4
:1027300001F09AFAE078E8B301284AD04FF45771D3
:1027400044E0002820780EDA401E0B2804D93E48C9
:1027500040F2473101F088FAE07860B101280AD0F0
:102760004FF4527104E01728E77004D940F24D315C
:10277000354801F079FA60783B2804D9324840F2B4
:102780004F3101F071FAA0783B2804D92E484FF45C
:10279000547101F069FA207800F09FFE020460781D
:1027A00000F09BFE42EA0022A07800F096FEE1785D
:1027B000024300E00DE042EA815028E0E770207813
:1027C00000F082FE172804D940F261311E4801F062
:1027D0004BFA607800F078FE3B2804D91A4840F2A2
:1027E000633101F041FAA07800F06EFE3B2804D975
:1027F00015484FF4597101F037FA61782278E3787F
:10280000A078090240EA024041EA835108432A685D
:102810000E49084010602868816821F48021816099
:102820002968D4E903028B6810431843886028465E
:1028300000F084FE2A68FF21516208B985F82180E2
:1028400085F820705FE70000243F00087F7F7F004D
:1028500070B5016804460B48C860FDF7ADFF4FF442
:102860007A76054607E000BFFDF7A6FF401BB042A1
:1028700001D9032070BD2068C0688006F4D500200F
:1028800070BD00005FFF03002DE9F05F04007DD004
:10289000D54D2068D54ED64FA84210D0B0420ED0AC
:1028A000B8420CD0D349884209D0D349884206D0D7
:1028B000D249884203D0D248FD2101F0D5F96068A1
:1028C00030B1B0F5800F03D0CD48FE2101F0CCF936
:1028D000A06860B1B0F5802F09D0B0F5C02F06D048
:1028E000B0F5003F03D0C648FF2101F0BDF9E06814
:1028F0004FF480781F283BD01E2839D01D2837D0B0
:102900001C2835D01B2833D01A2831D019282FD0B5
:1029100018282DD017282BD0162829D0152827D0D5
:10292000142825D0132823D0122821D011281FD0F5
:1029300010281DD00F281BD00E2819D00D2817D015
:102940000C2815D00B2813D00A2811D009280FD035
:1029500008280DD007280BD0062809D0052807D055
:10296000042805D0032803D0A548414601F07CF98E
:10297000E06B58B3202829D0402827D0602825D0E4
:10298000802823D0A02821D0C02800E0A3E01DD0BB
:10299000E0281BD0404519D0B0F5907F16D0B0F597
:1029A000A07F13D0B0F5B07F10D0B0F5C07F0DD0B0
:1029B000B0F5D07F0AD0B0F5E07F07D0B0F5F07F5A
:1029C00004D08F4840F2011101F04EF9A0694FF098
:1029D000806B4FF00058584507D030B1404504D0C7
:1029E00087484FF4817101F03FF9606B4FF08049E7
:1029F000484505D020B1824840F2031101F034F976
:102A0000E069B8B1B0F1805F14D0404512D0B0F1A8
:102A1000405F0FD048450DD0B0F1A04F0AD0B0F1C3
:102A2000C04F07D0B0F1E04F04D075484FF4827129
:102A300001F01AF9206A38B1B0F5000F04D07048DF
:102A400040F2051101F010F9606A48B1B0F5002FAD
:102A50001AD06B484FF4837101F006F9606A98B997
:102A6000206938B1B0F1007F04D0654840F2091107
:102A700001F0FAF8606938B1B0F1807F04D06048A5
:102A80004FF4857101F0F0F820684FF00009C4F8A8
:102A90002890A84206D0B04204D0B84202D0E168E3
:102AA0000F2918D8E1684FF0010AE36B0831C90813
:102AB0000AEB53125143A84205D0B04203D0B842AA
:102AC00001D0082907D8A84203D0B04201D0B842AB
:102AD00004D1102902D90120BDE8F09F94F88100AB
:102AE00020B9204684F8809000F08CF8022084F809
:102AF00081002068016821F0010101602068A2695D
:102B000081685A4501F4F81110D16268B2F5800F5E
:102B100001D01AB10AE0A26B22B107E0A26BB2F1B8
:102B2000805F03D1026842F4805202606068400214
:102B300009D5E068072806D32068236D026822F4CF
:102B400080721A4303E02068026822F480720260F7
:102B5000A66AE069E26B25683043E3680A431043E4
:102B60001843A860D4E90D03626AD4E905C1104393
:102B70002669D4F820800B43276818433043A66D9C
:102B8000D4E90113D4E9125240EA0C0040EA0800EB
:102B900008431043184328433043F860606868B91D
:102BA0002068816821F4C05141F40061816020688F
:102BB000816821F4C06141F4806181602068016D09
:102BC00021F0010101656068400206D52068626D50
:102BD000C16821F000411143C160C4F8849084F8B9
:102BE00081A0002078E7000000300140003800405C
:102BF000003C0040003401400050014000140058E7
:102C0000983F000810B5B6B00446142130A8FDF76F
:102C1000B3FBC0216846FDF7AFFB19492068884225
:102C20002BD14114002019900446CDE900106846CC
:102C3000FDF7C0FE08B1FDF704FC1248016841F43D
:102C400000510160006800F4005035900D481038C4
:102C5000016841F010010160006805224FF4A041B5
:102C6000329400F0100035900220CDE93010CDE90B
:102C70003302054830A9FDF7F9FB36B010BD00005E
:102C800000340140F0440258001002582DE9FC5F66
:102C90008A460168044680682031009100219946E7
:102CA0004FF4C02B1746019148B1584507D0B0F5F5
:102CB000003F04D08F4840F23D3100F0D5FF94F83A
:102CC000800001280DD04FF0010884F88080FDF7C6
:102CD00073FD064694F881000025012804D00220E7
:102CE00022E00220BDE8FC9FBAF1000F1BD0D7B153
:102CF000A1680320C4F85CA0A4F8607084F8810087
:102D0000C4F88450A4F862706566A4F86850A4F80A
:102D10006A50594565672567206808D1016841F404
:102D20000061016009E0012084F88050DAE7C168A1
:102D300021F4C02141F40031C160206841686FF383
:102D40000F01394341602068016841F001010160D1
:102D50006068B0F5800F04D12068016841F400710B
:102D60000160E0680F281CD820E0206841698907CD
:102D70000BD5E16D09680162E06D001DE065B4F8F6
:102D80006200401EA4F862000BE0FDF715FD811BF8
:102D9000494503D3B9F1FF3F03D099E0B9F1000FE2
:102DA00030D0B4F862000028DFD177E007282DD8B2
:102DB00070E02068416989071CD5B4F862100129C8
:102DC0000BD9E16B49B1E16D09680162E06D001D4D
:102DD000E065B4F86200801E09E0E06D01880098AB
:102DE0000180E06D801CE065B4F86200401EA4F82C
:102DF00062000BE0FDF7E0FC811B494503D3B9F10C
:102E0000FF3F03D064E0B9F1000F61D0B4F8620075
:102E10000028CED142E02068416989072ED5B4F858
:102E2000621003290CD9E16B402909D9E16D0968C9
:102E30000162E06D001DE065B4F86200001F1AE059
:102E4000B4F8621001290CD9E16B51B1E06D018831
:102E500000980180E06D801CE065B4F86200801E7F
:102E600009E0E16D097880F82010E06D401CE06514
:102E7000B4F86200401EA4F862000BE0FDF79CFC71
:102E8000811B494503D3B9F1FF3F03D020E0B9F1DD
:102E9000000F1DD0B4F862000028BCD100224B46C0
:102EA00008212046009600F0D1FB28B1D4F8840018
:102EB00040F02000C4F88400204600F069FB84F84C
:102EC0008180D4F8840084F8805080B1012009E723
:102ED000204600F05DFBD4F8841084F8805041F463
:102EE0008071C4F8841084F881800320FAE6019888
:102EF000F8E60000983F0008401EB0F1807F10B552
:102F000001D3012010BD4FF0E02460610F21601754
:102F100000F099FE0020A0610721216110BDFEE7AD
:102F20002DE9F04387B014216846FDF725FA46489D
:102F3000016841F010010160016801F01001059184
:102F4000016841F004010160016801F0040105918C
:102F5000016841F080010160016801F08001059184
:102F6000016841F001010160016801F00101059172
:102F7000016841F002010160016801F00201059160
:102F8000016841F00801016000684FF48167DFF8D3
:102F9000BC90002200F00800394605904846FDF735
:102FA000EBFB4FF42058484601224146FDF7E4FB75
:102FB000032548F2F730002469460294CDE9000564
:102FC0004846FDF753FA01260097CDE901646946AA
:102FD00048460394FDF74AFA02211D4F7003009002
:102FE0003846CDE901416946FDF740FA41F6FF70E8
:102FF0006946CDE9000538460294FDF737FA49F6EF
:10300000FF706946CDE9000512480294FDF72EFADB
:103010004FF6FF77009710486946CDE90154FDF758
:1030200025FACDE90245CDE9008669464846FDF717
:103030001DFA009769460948CDE90154FDF716FAD3
:1030400007B0BDE8F0830000E044025800100258C9
:10305000000802580000025800040258000C0258F0
:1030600010B586B014216846FDF786F91D48002486
:103070001B497F220594FF23E0E8021480E81C002E
:1030800004614461C4601748FFF78EF908B1FDF789
:10309000D8F912208DF800008DF801400122114866
:1030A00069468DF8024003940494FFF7EFFA08B1E3
:1030B000FDF7C7F901208DF8140006218DF81510D1
:1030C0008DF8160020228DF8172005A90246054824
:1030D000FFF728FA002801D0FDF7B3F906B010BDBC
:1030E00000400058540100242DE9F04115484FF4E8
:1030F00080060021124D34010722C0E90321E300BC
:10310000C0E90514C0E9073141625A0081627711B4
:10311000C162C0E90D21C163016441648164C1647D
:1031200001654165816580E8E000FFF7ADFB00289F
:1031300003D0BDE8F041FDF784B9BDE8F08100009F
:103140000034014078010024FEE7FEE770470000EC
:103150002DE9F0478946016804464FF0000A491EF0
:103160003E2904D9664840F6726100F07DFD606832
:10317000001FB0F5FE7F04D9614840F6736100F08E
:1031800073FDA068401E7F2804D95D4840F6746135
:1031900000F06AFD2069401E7F2804D9584840F697
:1031A000756100F061FDE068401E7F2804D9544835
:1031B00040F6766100F058FD606950B1402808D0B3
:1031C000802806D0C02804D04D4840F6776100F032
:1031D0004BFDA06930B1202804D0494840F6786101
:1031E00000F042FDE069B0F5005F04D3444840F6CA
:1031F000796100F039FD434F3868C04380070AD039
:10320000404D283D286820F080602860FDF7D4FA02
:103210000646A84607E00120BDE8F087FDF7CCFA96
:10322000801B022865D8D8F800000001F6D4206879
:1032300039684FF4FE0C4FF0FE4621F47C3141EA30
:1032400000303860217AA788A38949022D4D7F1E5E
:103250002C485B1E227C1035001DA1F5007189B23F
:10326000521EC7F3080739430CEA0343194306EA21
:103270000262114329600168626921F0C0011143B3
:1032800001600268A16922F020020A430260291D40
:10329000026822F0100202600A684FF6F873E469CF
:1032A0009A4342EAC4020A600168B9F1000F41F092
:1032B0001002026011D00168B9F1010F11D041F480
:1032C00000110160D8F80000444640F08060C8F862
:1032D0000000FDF771FA05460DE0016841F4002198
:1032E000EFE741F48011ECE7FDF766FA401B022896
:1032F00001D9032090E720680001F5D550468BE7FF
:10330000C83D0008284402582DE9F0478946016865
:1033100004464FF0000A491E3E2904D9684840F689
:10332000DA6100F0A1FC6068001FB0F5FE7F04D9EF
:10333000634840F6DB6100F097FCA068401E7F28E0
:1033400004D95F4840F6DC6100F08EFC2069401E25
:103350007F2804D95A4840F6DD6100F085FCE0681A
:10336000401E7F2804D9564840F6DE6100F07CFC00
:10337000606968B1B0F5806F0AD0B0F5006F07D012
:10338000B0F5406F04D04E4840F6DF6100F06CFCB1
:10339000A06938B1B0F5007F04D049484FF46E61A0
:1033A00000F062FCE069B0F5005F04D3444840F6E9
:1033B000E16100F059FC434F3868C04380070AD0F0
:1033C000404D283D286820F080502860FDF7F4F932
:1033D0000646A84607E00120BDE8F087FDF7ECF9B6
:1033E000801B022865D8D8F800008000F6D4208819
:1033F00039684FF4FE0C4FF0FE4621F07C7141EA33
:1034000000503860217AA788A38949022D4D7F1E7C
:103410002C485B1E227C1835001DA1F5007189B275
:10342000521EC7F3080739430CEA0343194306EA5F
:103430000262114329600168626921F4406111430D
:1034400001600268A16922F400720A430260291D2A
:10345000026822F4807202600A684FF6F873E46929
:103460009A4342EAC4020A600168B9F1000F41F4CC
:103470008072026011D00168B9F1010F11D041F0E2
:1034800080710160D8F80000444640F08050C8F8D0
:103490000000FDF791F905460DE0016841F4800157
:1034A000EFE741F40001ECE7FDF786F9401B022845
:1034B00001D9032090E720688000F5D550468BE7BE
:1034C000C83D000828440258020900F00F0102EB31
:1034D000820001EB4000C0B270470146002002E0CC
:1034E0000A39401CC9B20A29FAD2000741EA106021
:1034F000704700002DE9F041044600680025C168CE
:10350000490617D4691EC160FDF756F90327064620
:103510004FF47A7808E000BFFDF74EF9801B404574
:1035200002D9032584F821702068C068400601D4C0
:10353000032DF1D12846BDE8F08100002DE9F041CE
:10354000124C032706460025E06820F04000E060AA
:10355000A068800607D43046FFF77AF990B10325BA
:1035600086F821700EE0A06820F02000A0603046B0
:10357000FFF76EF910B1032586F82170A06840F0BE
:103580002000A0602846BDE8F081000000400058FF
:1035900010B5026840F26F335169946944F0080431
:1035A00094610268946944F010049461026814689C
:1035B00024F001041460026814699C4314610268D9
:1035C000936823F44043936090F88120042A0CD040
:1035D0008A060AD5D0F8842042F08002C0F8842000
:1035E0000268936943F02003936190F88120032AD5
:1035F0000CD04A060AD5D0F8842042F00402C0F864
:1036000084200268936943F0400393618A050AD5D8
:10361000D0F8842042F00102C0F884200268936947
:1036200043F400739361C9050AD5D0F8841041F0C2
:103630000801C0F8841001688A6942F480728A61C6
:103640000021A0F86210A0F86A1010BD2DE9F04129
:103650001C4616460D460746DDF818800AE000BFF6
:10366000FDF7AAF8A0EB0800A04202D3601C01D02D
:103670000BE054B13868406935EA000007D00020FB
:10368000B042EDD00020BDE8F0810320FBE701202F
:10369000F6E700002DE9F0411E4615460024154AC4
:1036A000069B1F0ADBB209E002EB440E04F1010C99
:1036B00002F814701FFA8CF48EF80130AC42F3D388
:1036C0008A194419521E641ED3B2C9B2E2B2C0B202
:1036D00000F029F92C2000F081F96D00002405E0AC
:1036E0000448294600F09AF9641CA4B2B442F7D306
:1036F000BDE8F0811400002408B500215023A02269
:1037000000900846FFF7C6FF08BD112010B500F075
:1037100065F97820FCF798FEB12000F05FF90120F0
:1037200000F03CF92C2000F039F92D2000F036F99A
:10373000B22000F053F9012000F030F92C2000F005
:103740002DF92D2000F02AF9B32000F047F90120CF
:1037500000F024F92C2000F021F92D2000F01EF9B2
:10376000012000F01BF92C2000F018F92D2000F0AA
:1037700015F9B42000F032F9072000F00FF9C0204D
:1037800000F02CF9A22000F009F9022000F006F95F
:10379000842000F003F9C12000F020F9C52000F0DA
:1037A000FDF8C22000F01AF90A2000F0F7F8002016
:1037B00000F0F4F8C32000F011F98A2000F0EEF8D0
:1037C0002A2000F0EBF8C42000F008F98A2000F06D
:1037D000E5F8EE2000F0E2F8C52000F0FFF80E203A
:1037E00000F0DCF8202000F0F9F83A2000F0F6F8BC
:1037F000052000F0D3F82A2000F0F0F8002000F0B7
:10380000CDF8002000F0CAF8002000F0C7F87F20B3
:1038100000F0C4F82B2000F0E1F8002000F0BEF822
:10382000002000F0BBF8002000F0B8F89F2000F066
:10383000B5F8E02000F0D2F8022000F0AFF81C202C
:1038400000F0ACF8072000F0A9F8122000F0A6F86C
:10385000372000F0A3F8322000F0A0F8292000F073
:103860009DF82D2000F09AF8292000F097F82520E7
:1038700000F094F82B2000F091F8392000F08EF839
:10388000002000F08BF8012000F088F8032000F001
:1038900085F8102000F082F8E12000F09FF8032066
:1038A00000F07CF81D2000F079F8072000F076F891
:1038B000062000F073F82E2000F070F82C2000F0A5
:1038C0006DF8292000F06AF82D2000F067F82E200E
:1038D00000F064F82E2000F061F8372000F05EF868
:1038E0003F2000F05BF8002000F058F8002000F0C6
:1038F00055F8022000F052F8102000F04FF8132085
:1039000000F06CF80A20FCF79FFD292000F066F813
:103910000A20FCF799FD032000F027F8BDE81040CD
:103920000020FFF7E9BEF8B500F10A052A2001F1F1
:103930000A0402F10A0703F10A0600F04FF800201A
:1039400000908DF80150042168468DF8037000F056
:1039500065F82B2000F042F88DF8014004216846FC
:103960008DF8036000F05AF8F8BD10B54FF0000470
:1039700030B1012806D0022807D0032805D103E082
:10398000C02402E0A02400E06024362000F026F8E5
:103990002046BDE8104000F001B8000031B50D4CE4
:1039A000012251032046FCF7E7FE4FF40065204654
:1039B00000222946FCF7E0FE074801224FF0FF33C2
:1039C0006946FFF763F9012229462046FCF7D4FE39
:1039D00038BD0000001002587801002431B50D4CAC
:1039E00000224FF400512046FCF7C6FE4FF400655C
:1039F000204600222946FCF7BFFE074801224FF06F
:103A0000FF336946FFF742F9012229462046FCF7B9
:103A1000B3FE38BD00100258780100242DE9F041B2
:103A20000E4E01220C46054651033046FCF7A4FE1B
:103A30004FF40067304600223946FCF79DFEA2B2E3
:103A400007484FF0FF332946FFF720F93946304643
:103A5000BDE8F0410122FCF78FBE000000100258C3
:103A6000780100247047FCF7ADBE000070B59CB033
:103A70004C216846FCF780FC202113A8FCF77CFC55
:103A80000220FCF759FF3549002435480A6822F026
:103A900001020A600A68026842F440420260026859
:103AA00002F440421B9202689204FCD52D4A13682E
:103AB00043F002031360126802F002021B920268D4
:103AC00042F44042026002680A6842F001020A6061
:103AD000096801F001011B9101688904FCD5FCF71C
:103AE00061FFFCF763FE1F4941F2030284399042F3
:103AF000086820F0180002D840F0080001E040F00B
:103B000010000860022009900521C20301238DE8FE
:103B10000E000AAA6026082582E843000D90CDE930
:103B200010540E900F9068461294FEF795F808B165
:103B300072B6FEE713AA3F20032182E83300012179
:103B4000179413A8189419941A94FDF7AFFD002840
:103B500001D072B6FEE71CB070BD00002C04005806
:103B600018480258F44402582C48F0B52C4A016811
:103B700041F470010160106800F00F00072804D2C2
:103B8000106820F00F00C01D106026490020254C51
:103B900010340B68244D43F001030B6020600B6868
:103BA0002B400B60136803F00F03072B04D9136835
:103BB00023F00F03DB1D13601A4C1C4A18341C4BF6
:103BC000261D371D2060174C1A4D28343060261DE5
:103BD0003860371D23603B1D35601C1D3A60251D74
:103BE0002E1D1860331D22602860326018600A683C
:103BF0000C4B114C22F4802260330A60186020685C
:103C00006FF30F00B0F1005F03D20C490120C1F83F
:103C1000080143F2D2000A490860F0BD88ED00E0D7
:103C200000200052004402587FEDF6EA80020101B4
:103C3000000202020000FF010010005C0080005141
:103C400000400052FEE7090700284FEA116104DB3B
:103C500000F1E02080F80014704700F00F0000F140
:103C6000E02080F8141D704770470000FCF7B2FD9B
:103C7000FFF74BFDFFF7FAFEFFF752F9FFF7F0F9F8
:103C8000FFF732FA0E4D4FF47A74002208212846CD
:103C9000FCF772FD002228460821FCF76DFD204646
:103CA000FCF7D2FB012228460821FCF765FD012222
:103CB00028460821FCF760FD2046FCF7C5FBE4E739
:103CC000001002584FF04070E1EE100A70470000FB
:103CD00000000102030401020304060708090000B2
:103CE000433A2F55736572732F736D6974682F5340
:103CF000544D3332437562652F5265706F7369742A
:103D00006F72792F53544D3332437562655F465756
:103D10005F48375F56312E31312E302F447269762D
:103D20006572732F53544D3332483778785F48416A
:103D30004C5F4472697665722F5372632F73746D92
:103D40003332683778785F68616C5F636F7274656F
:103D5000782E6300433A2F55736572732F736D6924
:103D600074682F53544D3332437562652F5265701A
:103D70006F7369746F72792F53544D333243756288
:103D8000655F46575F48375F56312E31312E302FF1
:103D9000447269766572732F53544D3332483778C5
:103DA000785F48414C5F4472697665722F53726345
:103DB0002F73746D3332683778785F68616C5F7227
:103DC00063632E6300000000433A2F5573657273DE
:103DD0002F736D6974682F53544D33324375626588
:103DE0002F5265706F7369746F72792F53544D330E
:103DF00032437562655F46575F48375F56312E31F3
:103E0000312E302F447269766572732F53544D33BF
:103E100032483778785F48414C5F44726976657202
:103E20002F5372632F73746D3332683778785F68FD
:103E3000616C5F7263635F65782E6300433A2F5550
:103E4000736572732F736D6974682F53544D3332D9
:103E5000437562652F5265706F7369746F72792F45
:103E600053544D3332437562655F46575F48375F41
:103E700056312E31312E302F447269766572732F90
:103E800053544D3332483778785F48414C5F447221
:103E9000697665722F5372632F73746D333268378E
:103EA00078785F68616C5F6770696F2E63000000EF
:103EB000433A2F55736572732F736D6974682F536E
:103EC000544D3332437562652F5265706F73697458
:103ED0006F72792F53544D3332437562655F465785
:103EE0005F48375F56312E31312E302F447269765C
:103EF0006572732F53544D3332483778785F484199
:103F00004C5F4472697665722F5372632F73746DC0
:103F10003332683778785F68616C5F7077725F659D
:103F2000782E6300433A2F55736572732F736D6952
:103F300074682F53544D3332437562652F52657048
:103F40006F7369746F72792F53544D3332437562B6
:103F5000655F46575F48375F56312E31312E302F1F
:103F6000447269766572732F53544D3332483778F3
:103F7000785F48414C5F4472697665722F53726373
:103F80002F73746D3332683778785F68616C5F7255
:103F900074632E6300000000433A2F5573657273FB
:103FA0002F736D6974682F53544D333243756265B6
:103FB0002F5265706F7369746F72792F53544D333C
:103FC00032437562655F46575F48375F56312E3121
:103FD000312E302F447269766572732F53544D33EE
:103FE00032483778785F48414C5F44726976657231
:103FF0002F5372632F73746D3332683778785F682C
:10400000616C5F7370692E63000000002C40000833
:104010000000002414000000D40200084040000802
:10402000140000244C080000F00200080090D003A7
:104030000090D0030100000010000000000000000C
:040000050800029954
:00000001FF
