:020000040800F2
:10000000C807002029020008EF150008D9130008CE
:10001000ED1500081F040008C91B000800000000BF
:100020000000000000000000000000001D1B000890
:100030002104000800000000F11500081F1B000843
:10004000430200084302000843020008430200087C
:10005000430200084302000843020008430200086C
:10006000430200084302000843020008430200085C
:10007000430200084302000843020008430200084C
:10008000430200084302000843020008430200083C
:10009000430200084302000843020008430200082C
:1000A000430200084302000843020008430200081C
:1000B000430200084302000843020008430200080C
:1000C00043020008430200084302000843020008FC
:1000D00043020008430200084302000843020008EC
:1000E00043020008430200084302000843020008DC
:1000F00043020008430200084302000843020008CC
:1001000043020008430200084302000843020008BB
:1001100043020008430200084302000843020008AB
:10012000430200084302000843020008430200089B
:10013000430200084302000843020008430200088B
:10014000430200084302000843020008430200087B
:10015000430200084302000843020008430200086B
:10016000430200084302000843020008430200085B
:100170004302000843020008430200080000000098
:10018000430200084302000800F002F800F03CF8C7
:100190000AA090E8000C82448344AAF10107DA45E2
:1001A00001D100F031F8AFF2090EBAE80F0013F0F8
:1001B000010F18BFFB1A43F001031847601C000031
:1001C000801C0000103A24BF78C878C1FAD85207C2
:1001D00024BF30C830C144BF04680C6070470000C1
:1001E0000023002400250026103A28BF78C1FBD840
:1001F000520728BF30C148BF0B6070471FB501F0E0
:1002000018FD1FBD10B510BD00F0CFF81146FFF767
:10021000F5FF01F0EBFC00F0EDF803B4FFF7F2FF9F
:1002200003BC00F0F5F80000094880470948004782
:10023000FEE7FEE7FEE7FEE7FEE7FEE7FEE7FEE796
:10024000FEE7FEE704480549054A064B70470000F3
:10025000B91B000889010008C8010020C807002058
:10026000C8030020C803002053EA020C00F0698094
:100270002DE9F04B4FF00006002B1FBFB3FA83F5BA
:1002800003FA05F424FA05F65E4012BF1643B2FAEB
:1002900082F502FA05F4C5F120051EBF22FA05FC1D
:1002A00044EA0C04203556EA044C4FEA144418BFC3
:1002B000641C4FF000084FF00009904271EB030CF2
:1002C00039D3002919BFB1FA81F701FA07F6B0FA5C
:1002D00080F700FA07F6C7F120071EBF20FA07FCD7
:1002E00046EA0C062037B6FBF4FCA7EB0507103FE7
:1002F00007F01F0BCBF120060CFA0BFB2CFA06F6CD
:1003000044BFB3460026202FA4BF5E464FF0000B2B
:100310005BEA060C08BF4FF0010B19EB0B09ABFBB6
:10032000027C48EB0608C01B06FB02CC0BFB03CC8F
:1003300071EB0C01C1E70B46024641464846BDE859
:10034000F08B13B54FF000004FF00001AFF30080C9
:10035000BDE81C4070474FF0000200B513469446BC
:100360009646203922BFA0E80C50A0E80C50B1F10D
:100370002001BFF4F7AF090728BFA0E80C5048BF21
:100380000CC05DF804EB890028BF40F8042B08BFBF
:10039000704748BF20F8022B11F0804F18BF00F8BB
:1003A000012B7047704770477047754600F02CF876
:1003B000AE4605006946534620F00700854618B052
:1003C00020B5FFF73FFFBDE820404FF000064FF09B
:1003D00000074FF000084FF0000B21F00701AC467A
:1003E000ACE8C009ACE8C009ACE8C009ACE8C00999
:1003F0008D46704710B50446AFF300802046BDE837
:100400001040FFF70ABF0000004870476801002055
:1004100001491820ABBEFEE7260002007047FEE748
:10042000704772B6FEE7000070B5044600F08AF926
:100430000546601C02D004480078044400F082F9AC
:10044000401BA042FAD370BD000000202DE9F84FF8
:10045000DFF888B20D46044658451BD0A0488442B8
:1004600018D0A048844215D09F48844212D09F489B
:1004700084420FD09E4884420CD09E48844209D0CA
:100480009D48844206D09D48844203D0AC219C48BC
:1004900001F0ABFB28680104090C01D0000C03D06B
:1004A000AD21974801F0A1FB6868F8B101281DD083
:1004B00011281BD0022819D0122817D0B0F5881F98
:1004C00014D0B0F5041F11D0B0F5441F0ED0B0F514
:1004D000901F0BD0B0F5081F08D0B0F5481F05D00D
:1004E000032803D0AE21864801F07FFB00264FF0A1
:1004F000010A4FF0030900BF0AFA06F02F68804690
:10050000074047457ED1287900F00300012801D03B
:1005100002281DD1E86848B1012807D0022805D07B
:10052000032803D0C021764801F05FFBA168720068
:1005300009FA02F08143E86890400843A0606068CF
:10054000297920EA0800C1F30011B140014361603C
:100550002879C043800712D0A86838B1012805D097
:10056000022803D0D121664801F03FFBE168720008
:1005700009FA02F08143A86890400843E0602879B6
:1005800000F0030002282ED12869F8B109281DD0F7
:1005900001281BD0022819D0032817D0042815D011
:1005A000052813D0062811D007280FD008280DD011
:1005B0000A280BD00B2809D00C2807D00D2805D00D
:1005C0000F2803D0DE214E4801F00FFBF00804EBAA
:1005D0008002106A7107CB0E0F2199408843296968
:1005E0009940014311622068720009FA02F18843C0
:1005F000297901F00301914001432160686810F4FA
:10060000403F00E063E062D03E48016841F4804131
:100610000160006826F0030100F4804000903A4831
:100620000A18D2F80808B1070B0F0F219940884328
:100630005C4501D1002123E029498C4201D10121EF
:100640001EE028498C4201D1022119E026498C4242
:1006500001D1032114E025498C4201D104210FE08E
:1006600023498C4201D105210AE022498C4201D163
:10067000062105E020498C4201D1072100E0082134
:1006800099400143C2F80818204908686A68B843CD
:10069000D20200D5384308601C49091D08686A6801
:1006A000B843920200D5384308601849091F08680A
:1006B0006A68B843920300D5384308601349083983
:1006C00008686A68B843D20300D538430860761CCE
:1006D000102EFFF411AFBDE8F88F000000000240BB
:1006E0000004024000080240000C024000100240DA
:1006F0000014024000180240001C0240002002408A
:10070000341D00084438024000300140083C0140DC
:1007100070B515460C00064604D140F29D110848FC
:1007200001F063FA45B1012D04D04FF4CF710448B4
:1007300001F05BFAB46170BD2004B06170BD0000CF
:10074000341D000801488068704700000000002048
:1007500002488168027811448160704700000020DF
:100760000B4810B5016841F400710160016841F463
:1007700080610160016841F480710160032000F034
:1007800075F80F2000F006F800F024F8002010BDE6
:10079000003C024070B50D4D04464FF47A71287844
:1007A000B1FBF0F00A490968B1FBF0F000F000FE7F
:1007B00048B9102C07D200222146501E00F022F822
:1007C00000206C6070BD012070BD000000000020A2
:1007D0000C0000200A4808B5016841F4804101601E
:1007E000006800F4804000900548001F016841F057
:1007F00080510160006800F08050009008BD00004A
:100800004438024070B515460C460646102A03D3FC
:10081000A821144801F0E9F9102C03D3A9211148AB
:1008200001F0E3F910480068C0F30223C3F10702A6
:100830002046042A00D90422191D072901D20023C9
:1008400000E0DB1E012404FA02F1491E0140994038
:100850009C40641E2C4021433046BDE8704001F0AE
:10086000B4B90000A81D00080CED00E010B5044666
:1008700007280BD0062C09D0052C07D0042C05D056
:10088000032C03D09021084801F0AFF9074904F088
:10089000070208684FF6FF03184040EA0220044AA6
:1008A0001043086010BD0000A81D00080CED00E01A
:1008B0000000FA052DE9F0470E4604007DD02068BF
:1008C000401E0E2804D940F25A217A4801F08DF9D1
:1008D00096B1012E10D0022E0ED0032E0CD0042E75
:1008E0000AD0052E08D0062E06D0072E04D040F2DE
:1008F0005B21704801F079F9DFF8BC81D8F800007D
:10090000F7B200F00700B04207D288F80070D8F8BC
:10091000000000F00700B0424FD12068674D81070A
:1009200029D5400703D5286840F4E0502860207896
:10093000000703D5286840F460402860A068A0B193
:10094000802812D0902810D0A0280ED0B0280CD02B
:10095000C0280AD0D02808D0E02806D0F02804D03B
:1009600040F27E21534801F040F92868A16820F048
:10097000F000084328602078C00743D0DFF83C919E
:100980006068A9F1080988B1012822D0022824D082
:10099000032822D040F28521464801F026F96068FC
:1009A000012816D0022818D0032816D0D9F8000044
:1009B0008007002833DA286800E030E0616820F022
:1009C000030008432860FFF7BDFE814641F2883AE4
:1009D00011E0D9F800008003EBE7D9F800008001AE
:1009E000E7E700BFFFF7AEFEA0EB0901514502D9D2
:1009F0000320BDE8F0872868616800F00C00B0EBC8
:100A0000810FEFD1D8F80010404601F00701B14244
:100A100007D90770006800F00700B04201D001203C
:100A2000E7E720784FF4805640074FF4A0574FF483
:100A3000C0584FF4E05914D5E06860B1B0420AD014
:100A4000B84208D0404506D0484504D040F2C32102
:100A5000184801F0CAF82868E16820F4E05008431B
:100A600028602078000715D5206960B1B0420AD00F
:100A7000B84208D0404506D0484504D040F2CA21CB
:100A80000C4801F0B2F82868216920F4604040EA7F
:100A9000C100286000F01AF82968094AC1F303115F
:100AA000515CC8400749086007480068FFF772FEBC
:100AB00000209EE7C01C0008003C024008380240AD
:100AC0003C1C00080C00002004000020154810B554
:100AD000006810F00C02144813D01449042A0FD0F7
:100AE000082A0ED10F4C241F2268236802F03F020F
:100AF0005B0207D52068C0F38810A0FB010106E067
:100B0000084610BD2168C1F38811A1FB0001002334
:100B1000FFF7AAFB2168C1F30141491C4900B0FB62
:100B2000F1F010BD083802400024F400001BB700AB
:100B30002DE9F84F04007DD020680F2803D9E62165
:100B4000F74801F052F82078DFF8D893C007A9F1F0
:100B5000040555D060684FF480364FF4A02738B1B3
:100B6000B04205D0B84203D0EB21ED4801F03DF88A
:100B7000EC48001D0168C1F38101012908D000681B
:100B8000C0F3810002280AD1D9F80000400206D53E
:100B90002868800334D560680028CCD030E06068D5
:100BA000B04203D1286840F480300CE0B842286895
:100BB00003D140F480202860F4E720F480302860DE
:100BC000286820F480202860606860B1FFF7BAFDD3
:100BD000064604E0FFF7B6FD801B64287ED828682F
:100BE0008003F7D50CE0FFF7ADFD064605E000BF3A
:100BF000FFF7A8FD801B6428F0D828688003F7D48D
:100C00002078DFF8248380074FF0000A56D5E0688B
:100C100030B1012804D040F21D11C14800F0E5FFB9
:100C200020691F2804D94FF48F71BD4800F0DDFF03
:100C3000BC4800E092E0001D016811F00C0F08D0E4
:100C40000068C0F38100022810D1D9F800004002EA
:100C50000CD42868800702D5E06801287ED1286876
:100C6000216920F0F80040EAC10017E0E068B8B15F
:100C70000120C8F80000FFF765FD064605E000BF4B
:100C8000FFF760FD801B0228A8D828688007F7D5E9
:100C9000286820F0F801206941EAC00028600DE0D2
:100CA000C8F800A0FFF74EFD064604E0FFF74AFD36
:100CB000801B022892D828688007F7D42078000784
:100CC0002ED5984E994F60697036D0B1012808D062
:100CD0004FF4AF71924800F088FF00E0D6E0606901
:100CE00078B101203860FFF72DFD074605E000BF11
:100CF000FFF728FDC01B0228C6D830688007F7D54B
:100D00000EE0C7F800A0FFF71DFD074605E000BF95
:100D1000FFF718FDC01B0228B6D830688007F7D44B
:100D20002078400776D5A068002740B1012806D07A
:100D3000052804D04FF4C571794800F056FFDFF85C
:100D4000E4B10BF13C0BDBF80000C0000DD4DBF884
:100D5000001041F08051CBF8001000E01EE1DBF8FC
:100D60000000012700F080500090714E3068C005EF
:100D700011D4306840F480703060FFF7E3FC0090DD
:100D800006E000BFFFF7DEFC0099401A02287DD87C
:100D90003068C005F6D5634EA0686C3601280FD0C8
:100DA0000528306810D020F001003060306820F055
:100DB00004003060A068B8B1FFF7C4FC00900FE0F9
:100DC000306840F00100F4E740F004003060F7E7DD
:100DD000FFF7B8FC0099411A41F28830814255D89A
:100DE00030688007F4D50EE0FFF7ACFC009007E018
:100DF000FFF7A8FC0099411A41F28830814245D89A
:100E000030688007F4D42FB1DBF8001021F0805156
:100E1000CBF80010A069D0B3012808D0022806D072
:100E200040F2CD113E4800F0E0FEA06978B33D48A5
:100E3000001D0068C0F381000228A0696FD002285D
:100E400005D0C8F860A0FFF77DFC04467CE0E069AF
:100E500038B1B0F5800F04D04FF4EB71304800F09A
:100E6000C4FE206A801E3D2804D940F2D7112C48C8
:100E700000F0BBFE606A3238B0F5BF7F04D94FF492
:100E8000EC71274800F0B1FEA06A01E059E087E06C
:100E900002280AD0042808D0062806D0082804D042
:100EA00040F2D9111E4800F0A0FEE06A801E0D2815
:100EB00004D94FF4ED711A4800F097FE4746C8F880
:100EC00060A0FFF73FFC064605E000BFFFF73AFCD5
:100ED000801B022835D828688001F7D4D4E907019F
:100EE0000843A16A134A490802EB0141626A41EAD8
:100EF0008211084394F82C1040EA0161C9F80010EF
:100F000001203866FFF71EFC044604E0FFF71AFCD8
:100F1000001B022815D828688001F7D540E017E0AB
:100F2000C01C00080438024000004742800E4742BF
:100F3000007000400000FFFFFFF704FC001B0228C8
:100F400002D90320BDE8F88F28688001F4D427E097
:100F50000128F7D0D9F80000E26900F4800191423D
:100F60001CD1226A00F03F01914217D147F6C071AF
:100F7000626A0140B1EB821F10D1A26A4FF0FF33C9
:100F800000F4403103EB5202B1EB024F06D194F86A
:100F90002C1000F07060B0EB016F01D00120D1E7A0
:100FA0000020CFE770B504007ED0804920688842D9
:100FB0000AD07F49884207D07E49884204D04FF446
:100FC000A0717D4800F011FE60684FF4827630B168
:100FD000B04204D040F24111774800F006FEA0680C
:100FE00050B1B0F5806F07D0B0F5004F04D04FF48A
:100FF000A171714800F0F9FDE068B0F5006F05D00F
:1010000020B140F243116C4800F0EFFDA069B0F54B
:10101000007F08D038B1B0F5802F04D04FF4A27112
:10102000654800F0E2FDE06990B1082810D0102872
:101030000ED018280CD020280AD0282808D0302814
:1010400006D0382804D040F245115B4800F0CDFDB1
:10105000206A30B1802804D04FF4A371564800F0C4
:10106000C4FD606A002540B3102806D040F2471145
:10107000514800F0BAFD606AF8B1E06990B1082803
:1010800010D010280ED018280CD020280AD02828DC
:1010900008D0302806D0382804D040F259114648EC
:1010A00000F0A3FD256100E005E06561A56294F80C
:1010B000510070B335E0012070BD206930B10228C5
:1010C00004D04FF4A5713C4800F08FFD606930B149
:1010D000012804D040F24B11374800F086FD6068CB
:1010E000B04217D1E0690028E0D00828DED01028EF
:1010F000DCD01828DAD02028D8D02828D6D030281C
:10110000D4D03828D2D040F24F112B4800F06DFDDA
:10111000CCE701E0E561C9E784F85050204600F0D3
:101120004DF8022084F851002068016821F0400148
:101130000160A088218900F4827001F40441084311
:10114000A18901F400610843217C01F002010843F8
:10115000217D01F001010843218B01F40071084356
:10116000217F01F03801084394F8201001F080013C
:101170000843218D01F40051084321680860A069EB
:10118000042101EA104094F8241001F010010843F2
:10119000216848602068C16921F40061C16165650A
:1011A000012084F85100002070BD00000030014093
:1011B00000380040003C00404C1C000810B586B0D0
:1011C000044614216846FFF7C6F81449206888428F
:1011D00021D113480021026842F480420260006875
:1011E00000F4804005900E481038026842F0020278
:1011F0000260006800F0020005904FF4204000906B
:101200000220CDE9010103200390052004906946E6
:101210000448FFF71BF906B010BD0000003800407D
:1012200040380240000402402DE9F84F044680682F
:10123000984615468A46002638B1B0F5004F04D0CE
:101240004FF44271594800F0D0FC94F85000012846
:101250000DD0012784F85070FFF774FA814694F896
:1012600051004FF0000B012804D002269AE0022022
:10127000BDE8F88FBAF1000F6FD0002D6DD00320BC
:1012800084F85100C4F854B0C4F830A0A586E586AF
:10129000C4F838B0A4F83CB0A4F83EB0C4F844B0E8
:1012A000C4F840B0A068B0F5004F09D120680168CB
:1012B00021F0400101602068016841F48041016033
:1012C00020680168490603D4016841F040010160CB
:1012D000E068B0F5006F606803D058B3012D29D0E5
:1012E00049E008B1012D1FD1206B21680088C8603A
:1012F00006E020688168890709D5216B0988C160EB
:10130000206B801C2063E08E401EE0860CE0FFF71F
:1013100019FAA0EB0901414503D3B8F1FF3F03D00F
:1013200006E0B8F1000F03D0E08E0028E1D125E0FF
:10133000032635E0206B21680078087306E02068FA
:10134000816889070AD5216B09780173206B401CDD
:101350002063E08E401EE0860DE01FE0FFF7F2F90B
:10136000A0EB0901414503D3B8F1FF3F03D0DFE70C
:10137000B8F1000FDCD0E08E0028E0D14A464146AB
:10138000204600F037F908B120206065A06818B940
:101390002068C16880680090606D08B1012601E096
:1013A00084F8517084F850B0304661E74C1C000856
:1013B00010B5401EB0F1807F01D3012010BD4FF069
:1013C000E02460610F21601700F0FFFB0020A061A6
:1013D00007202061002010BDFEE700002DE9F04F3E
:1013E00087B014216846FEF7B6FF64480024016800
:1013F00041F010010160016801F0100105910168E0
:1014000041F002010160016801F0020105910168EB
:1014100041F040010160016801F04001059101685F
:1014200041F008010160016801F0080105910168BF
:1014300041F004010160016801F0040105910168B7
:1014400041F001010160016801F0010105910168AD
:1014500041F480710160016801F4807105910168B7
:1014600041F080010160016801F08001059101688F
:1014700041F0200101600068DFF804A100F02000C5
:101480000590002203215046FFF742F9DFF8F4B03F
:101490004FF4E058002241465846FFF739F94FF41F
:1014A000A049002249463848FFF732F94FF6FF7647
:1014B00003250096CDE9015469463448FEF7C6FF7E
:1014C00037110097CDE9015469462F48FEF7BEFF5A
:1014D0000096CDE9015469462D48FEF7B7FF009606
:1014E000CDE9015469462B48FEF7B0FF0096CDE9DF
:1014F000015469462848FEF7A9FF49F6FF70CDE977
:101500000005694602942548FEF7A0FF0097CDE943
:10151000015469462248FEF799FF4EF2FC30CDE9AE
:101520000005694602945846FEF790FF0126009593
:10153000CDE90164694650460394FEF787FF4FF6F4
:10154000FC70CDE90005694602945046FEF77EFF27
:10155000CDF80080CDE90164694658460394FEF752
:1015600075FFCDF80090CDE9016469460648039403
:10157000FEF76CFF07B0BDE8F08F00003038024086
:1015800000140240001C024000040240001002400F
:1015900000180240000C0240000802400000024017
:1015A00000200240104810B50E4901604FF48271CE
:1015B000416000218160C1604FF400720161C0E9A7
:1015C00005120822C0E90721416281620A21C16235
:1015D000FFF7E8FC002803D0BDE81040FEF721BF6C
:1015E00010BD00000038004010010020FEE7FEE7BB
:1015F00070470000F8B515460E460B4600920446AB
:101600000122022100F02CF8A0B913481349006808
:10161000B0FBF1F04FF47A71484300906068B0F588
:10162000827F0DD13346002280212046009500F0B4
:1016300017F870B1606D40F0200060650320F8BDC0
:10164000009830B1401E009020688068C0430006BA
:10165000F6D50020F8BD00000C00002000366E0119
:101660002DE9F8431E46914688460446089DFFF73B
:1016700069F8401B351AFFF765F8074625480068EA
:10168000C0F3CB30684338E0701C37D0FFF75AF80E
:10169000C01BA84203D215B1009860B32CE02068AB
:1016A000416821F0E00141606068B0F5827F0BD1B4
:1016B000A068B0F5004F02D0B0F5806F04D120686B
:1016C000016821F040010160A06AB0F5005F09D116
:1016D0002068016821F4005101602068016841F42C
:1016E00000510160012084F85100002084F850006E
:1016F0000320BDE8F8830025401E00902068816823
:1017000038EA010004D000214945BDD10020F0E7AE
:101710000121F9E70C0000202DE9F0411E46069B4F
:10172000002415461F0A134ADBB207E002F81470C2
:1017300002EB440C641C8CF80130A4B2AC42F5D32B
:101740008A19521ED3B24219521ED2B2C9B2C0B2C5
:1017500000F044F92C2000F099F900246D0005E018
:101760002946044800F0B4F9641CA4B2B442F7D38B
:10177000BDE8F0811000002008B500210090A023F2
:1017800080220846FFF7C8FF08BD10B500F00EF92B
:10179000112000F07BF97820FEF746FEB12000F022
:1017A00075F9012000F050F92C2000F04DF92D20A2
:1017B00000F04AF9B22000F069F9012000F044F984
:1017C0002C2000F041F92D2000F03EF9B32000F06C
:1017D0005DF9012000F038F92C2000F035F92D20BA
:1017E00000F032F9012000F02FF92C2000F02CF944
:1017F0002D2000F029F9B42000F048F9072000F06E
:1018000023F9C02000F042F9A22000F01DF90220C7
:1018100000F01AF9842000F017F9C12000F036F921
:10182000C52000F011F9C22000F030F90A2000F0C4
:101830000BF9002000F008F9C32000F027F98A20F6
:1018400000F002F92A2000F0FFF8C42000F01EF991
:101850008A2000F0F9F8EE2000F0F6F8C52000F03C
:1018600015F90E2000F0F0F8202000F00FF93A20D2
:1018700000F00CF9052000F0E7F82A2000F006F946
:10188000002000F0E1F8002000F0DEF8002000F079
:10189000DBF87F2000F0D8F82B2000F0F7F80020CC
:1018A00000F0D2F8002000F0CFF8002000F0CCF8D3
:1018B0009F2000F0C9F8E02000F0E8F8022000F0D6
:1018C000C3F81C2000F0C0F8072000F0BDF812207B
:1018D00000F0BAF8372000F0B7F8322000F0B4F882
:1018E000292000F0B1F82D2000F0AEF8292000F0FA
:1018F000ABF8252000F0A8F82B2000F0A5F839203F
:1019000000F0A2F8002000F09FF8012000F09CF801
:10191000032000F099F8102000F096F8E12000F084
:10192000B5F8032000F090F81D2000F08DF8072096
:1019300000F08AF8062000F087F82E2000F084F8E6
:101940002C2000F081F8292000F07EF82D2000F0F6
:101950007BF82E2000F078F82E2000F075F8372064
:1019600000F072F83F2000F06FF8002000F06CF8F3
:10197000002000F069F8022000F066F8102000F066
:1019800063F8132000F082F80A20FEF74DFD2920AD
:1019900000F07CF80A20FEF747FD002000F03CF83C
:1019A000BDE810400020FFF7E7BE000070B50A4D0B
:1019B0004FF48054002221462846FEF7A9FE6420F9
:1019C000FEF732FD012221462846FEF7A1FEBDE8C2
:1019D00070406420FEF728BD00040240F8B50746B9
:1019E0001C4615460E462A2000F050F800200090B4
:1019F0008DF801708DF803500421684600F068F8F6
:101A00002B2000F043F88DF801608DF8034004218D
:101A1000684600F05DF8F8BD10B5002430B101282B
:101A200006D0022807D0032805D103E0C02402E035
:101A3000A02400E06024362000F028F82046BDE80D
:101A4000104000F001B8000031B5012202210C481D
:101A5000FEF75EFE0B4D4FF48044002221462846DF
:101A6000FEF756FE4FF0FF33012269460648FFF7A6
:101A7000DBFB012221462846FEF74AFE38BD000066
:101A800000140240000402401001002031B5002281
:101A900002210C48FEF73CFE0B4D4FF4804400221F
:101AA00021462846FEF734FE4FF0FF3301226946F7
:101AB0000648FFF7B9FB012221462846FEF728FE1B
:101AC00038BD000000140240000402401001002054
:101AD0002DE9F0410C460546012202210C48FEF793
:101AE00017FE0C4F4FF48046002231463846FEF771
:101AF0000FFEA2B24FF0FF3329460748FFF794FBD1
:101B000031463846BDE8F0410122FEF701BE000033
:101B10000014024000040240100100207047FEF74C
:101B200017BE000030B593B030216846FEF713FCB5
:101B300014210CA8FEF70FFC1D480025016841F098
:101B400080510160006800F08050119019480168D0
:101B500041F4804101600068022400F4804011904B
:101B600001200090000401908001CDE9064006208C
:101B70000890A820CDE9090404200B906846FEF7E0
:101B8000D7FF08B172B6FEE70CA90F2081E831003B
:101B90004FF4A0500F904FF48050109005210CA8E6
:101BA000FEF788FE002801D072B6FEE713B030BD04
:101BB00040380240007000400248016841F4700162
:101BC0000160704788ED00E0FEE70907090E002874
:101BD00004DB00F1E02080F80014704700F00F00F3
:101BE00000F1E02080F8141D70477047FEF7B8FD43
:101BF000FFF7CBFDFFF796FFFFF7F0FBFFF7D2FCF7
:101C00004FF478454FF4FA744FF4FC662846FFF71A
:101C1000B3FD2046FEF708FC3046FFF7ADFD204639
:101C2000FEF702FC1F20FFF7A7FD2046FEF7FCFB96
:101C3000ECE74FF04070E1EE100A70470000000042
:101C4000000000000102030406070809433A2F556B
:101C5000736572732F736D6974682F53544D3332EB
:101C6000437562652F5265706F7369746F72792F57
:101C700053544D3332437562655F46575F46345F58
:101C800056312E32382E302F447269766572732F9A
:101C900053544D3332463478785F48414C5F447238
:101CA000697665722F5372632F73746D33326634A5
:101CB00078785F68616C5F7370692E630000000064
:101CC000433A2F55736572732F736D6974682F5380
:101CD000544D3332437562652F5265706F7369746A
:101CE0006F72792F53544D3332437562655F465797
:101CF0005F46345F56312E32382E302F447269766B
:101D00006572732F53544D3332463478785F4841AF
:101D10004C5F4472697665722F5372632F73746DD2
:101D20003332663478785F68616C5F7263632E6308
:101D300000000000433A2F55736572732F736D696D
:101D400074682F53544D3332437562652F5265705A
:101D50006F7369746F72792F53544D3332437562C8
:101D6000655F46575F46345F56312E32382E302F2E
:101D7000447269766572732F53544D33324634780A
:101D8000785F48414C5F4472697665722F53726385
:101D90002F73746D3332663478785F68616C5F6777
:101DA00070696F2E63000000433A2F55736572739C
:101DB0002F736D6974682F53544D333243756265C8
:101DC0002F5265706F7369746F72792F53544D334E
:101DD00032437562655F46575F46345F56312E3237
:101DE000382E302F447269766572732F53544D33F9
:101DF00032463478785F48414C5F44726976657248
:101E00002F5372632F73746D3332663478785F6842
:101E1000616C5F636F727465782E63003C1E00080E
:101E20000000002010000000C40100084C1E000843
:101E300010000020B8070000E001000801000000C9
:0C1E400010000000000000000024F4006E
:040000050800018965
:00000001FF
