:020000040800F2
:10000000C8060020290200081B1400082D12000851
:10001000191400081F040008C9140008000000009B
:100020000000000000000000000000001F14000895
:1000300021040008000000001D140008211400081D
:10004000430200084302000843020008430200087C
:10005000430200084302000843020008430200086C
:10006000430200084302000843020008430200085C
:10007000430200084302000843020008430200084C
:10008000430200084302000843020008430200083C
:10009000430200084302000843020008430200082C
:1000A000430200084302000843020008430200081C
:1000B000430200084302000843020008430200080C
:1000C00043020008430200084302000843020008FC
:1000D00043020008430200084302000843020008EC
:1000E00043020008430200084302000843020008DC
:1000F00043020008430200084302000843020008CC
:1001000043020008430200084302000843020008BB
:1001100043020008430200084302000843020008AB
:10012000430200084302000843020008430200089B
:10013000430200084302000843020008430200088B
:10014000430200084302000843020008430200087B
:10015000430200084302000843020008430200086B
:10016000430200084302000843020008430200085B
:100170004302000843020008430200080000000098
:10018000430200084302000800F002F800F03CF8C7
:100190000AA090E8000C82448344AAF10107DA45E2
:1001A00001D100F031F8AFF2090EBAE80F0013F0F8
:1001B000010F18BFFB1A43F0010318472C1500006C
:1001C0004C150000103A24BF78C878C1FAD85207FD
:1001D00024BF30C830C144BF04680C6070470000C1
:1001E0000023002400250026103A28BF78C1FBD840
:1001F000520728BF30C148BF0B6070471FB501F0E0
:100200007EF91FBD10B510BD00F0CFF81146FFF705
:10021000F5FF01F06BF900F0EDF803B4FFF7F2FF22
:1002200003BC00F0F5F80000094880470948004782
:10023000FEE7FEE7FEE7FEE7FEE7FEE7FEE7FEE796
:10024000FEE7FEE704480549054A064B70470000F3
:10025000B914000889010008C8000020C806002061
:10026000C8020020C802002053EA020C00F0698096
:100270002DE9F04B4FF00006002B1FBFB3FA83F5BA
:1002800003FA05F424FA05F65E4012BF1643B2FAEB
:1002900082F502FA05F4C5F120051EBF22FA05FC1D
:1002A00044EA0C04203556EA044C4FEA144418BFC3
:1002B000641C4FF000084FF00009904271EB030CF2
:1002C00039D3002919BFB1FA81F701FA07F6B0FA5C
:1002D00080F700FA07F6C7F120071EBF20FA07FCD7
:1002E00046EA0C062037B6FBF4FCA7EB0507103FE7
:1002F00007F01F0BCBF120060CFA0BFB2CFA06F6CD
:1003000044BFB3460026202FA4BF5E464FF0000B2B
:100310005BEA060C08BF4FF0010B19EB0B09ABFBB6
:10032000027C48EB0608C01B06FB02CC0BFB03CC8F
:1003300071EB0C01C1E70B46024641464846BDE859
:10034000F08B13B54FF000004FF00001AFF30080C9
:10035000BDE81C4070474FF0000200B513469446BC
:100360009646203922BFA0E80C50A0E80C50B1F10D
:100370002001BFF4F7AF090728BFA0E80C5048BF21
:100380000CC05DF804EB890028BF40F8042B08BFBF
:10039000704748BF20F8022B11F0804F18BF00F8BB
:1003A000012B7047704770477047754600F02CF876
:1003B000AE4605006946534620F00700854618B052
:1003C00020B5FFF73FFFBDE820404FF000064FF09B
:1003D00000074FF000084FF0000B21F00701AC467A
:1003E000ACE8C009ACE8C009ACE8C009ACE8C00999
:1003F0008D46704710B50446AFF300802046BDE837
:100400001040FFF70ABF0000004870476800002056
:1004100001491820ABBEFEE7260002007047FEE748
:10042000704772B6FEE700002DE9F84FDFF888B29A
:100430000D46044658451BD0A048844218D0A04819
:10044000844215D09F48844212D09F4884420FD0E6
:100450009E4884420CD09E48844209D09D488442E4
:1004600006D09D48844203D0AC219C4801F03DF861
:1004700028680104090C01D0000C03D0AD21974875
:1004800001F033F86868F8B101281DD011281BD09D
:10049000022819D0122817D0B0F5881F14D0B0F553
:1004A000041F11D0B0F5441F0ED0B0F5901F0BD033
:1004B000B0F5081F08D0B0F5481F05D0032803D0B9
:1004C000AE21864801F011F800264FF0010A4FF0E6
:1004D000030900BF0AFA06F02F6880460740474527
:1004E0007ED1287900F00300012801D002281DD117
:1004F000E86848B1012807D0022805D0032803D0B6
:10050000C021764800F0F1FFA168720009FA02F0FC
:100510008143E86890400843A0606068297920EA38
:100520000800C1F30011B140014361602879C04364
:10053000800712D0A86838B1012805D0022803D05E
:10054000D121664800F0D1FFE168720009FA02F09B
:100550008143A86890400843E060287900F00300D8
:1005600002282ED12869F8B109281DD001281BD0F6
:10057000022819D0032817D0042815D0052813D035
:10058000062811D007280FD008280DD00A280BD034
:100590000B2809D00C2807D00D2805D00F2803D030
:1005A000DE214E4800F0A1FFF00804EB8002106A43
:1005B0007107CB0E0F219940884329699940014367
:1005C00011622068720009FA02F18843297901F06A
:1005D0000301914001432160686810F4403F00E04E
:1005E00063E062D03E48016841F4804101600068E8
:1005F00026F0030100F4804000903A480A18D2F82F
:100600000808B1070B0F0F21994088435C4501D1C1
:10061000002123E029498C4201D101211EE0284913
:100620008C4201D1022119E026498C4201D10321DB
:1006300014E025498C4201D104210FE023498C426A
:1006400001D105210AE022498C4201D1062105E0B1
:1006500020498C4201D1072100E008219940014343
:10066000C2F80818204908686A68B843D20200D561
:10067000384308601C49091D08686A68B84392023B
:1006800000D5384308601849091F08686A68B843EC
:10069000920300D5384308601349083908686A682E
:1006A000B843D20300D538430860761C102EFFF4FF
:1006B00011AFBDE8F88F00000000024000040240C6
:1006C00000080240000C02400010024000140240EA
:1006D00000180240001C02400020024000160008E2
:1006E0004438024000300140083C014070B51546D6
:1006F0000C00064604D140F29D11084800F0F5FEBA
:1007000045B1012D04D04FF4CF71044800F0EDFE47
:10071000B46170BD2004B06170BD00000016000817
:10072000014880687047000000000020024881688E
:100730000278114481607047000000200B4810B51A
:10074000016841F400710160016841F48061016059
:10075000016841F480710160032000F075F80F20FA
:1007600000F006F800F024F8002010BD003C024024
:1007700070B50D4D04464FF47A712878B1FBF0F056
:100780000A490968B1FBF0F000F03CFD48B9102CB3
:1007900007D200222146501E00F022F800206C6093
:1007A00070BD012070BD0000000000200C00002082
:1007B0000A4808B5016841F480410160006800F40E
:1007C000804000900548001F016841F080510160A1
:1007D000006800F08050009008BD000044380240DE
:1007E00070B515460C460646102A03D3A8211448B6
:1007F00000F07BFE102C03D3A921114800F075FEF8
:1008000010480068C0F30223C3F107022046042AFF
:1008100000D90422191D072901D2002300E0DB1EA4
:10082000012404FA02F1491E014099409C40641ED3
:100830002C4021433046BDE8704000F046BE000029
:10084000741600080CED00E010B5044607280BD024
:10085000062C09D0052C07D0042C05D0032C03D07E
:100860009021084800F041FE074904F0070208689B
:100870004FF6FF03184040EA0220044A1043086084
:1008800010BD0000741600080CED00E00000FA0531
:100890002DE9F0470E4604007DD02068401E0E284A
:1008A00004D940F25A217A4800F01FFE96B1012E79
:1008B00010D0022E0ED0032E0CD0042E0AD0052EFE
:1008C00008D0062E06D0072E04D040F25B217048D7
:1008D00000F00BFEDFF8BC81D8F80000F7B200F0A2
:1008E0000700B04207D288F80070D8F8000000F086
:1008F0000700B0424FD12068674D810729D54007D6
:1009000003D5286840F4E05028602078000703D51C
:10091000286840F460402860A068A0B1802812D008
:10092000902810D0A0280ED0B0280CD0C0280AD013
:10093000D02808D0E02806D0F02804D040F27E214C
:10094000534800F0D2FD2868A16820F0F000084369
:1009500028602078C00743D0DFF83C916068A9F197
:10096000080988B1012822D0022824D0032822D0E7
:1009700040F28521464800F0B8FD6068012816D095
:10098000022818D0032816D0D9F8000080070028C4
:1009900033DA286800E030E0616820F003000843A3
:1009A0002860FFF7BDFE814641F2883A11E0D9F890
:1009B00000008003EBE7D9F800008001E7E700BF03
:1009C000FFF7AEFEA0EB0901514502D90320BDE8B7
:1009D000F0872868616800F00C00B0EB810FEFD160
:1009E000D8F80010404601F00701B14207D907705E
:1009F000006800F00700B04201D00120E7E720784E
:100A00004FF4805640074FF4A0574FF4C0584FF4AE
:100A1000E05914D5E06860B1B0420AD0B84208D0BD
:100A2000404506D0484504D040F2C321184800F0A4
:100A30005CFD2868E16820F4E050084328602078D5
:100A4000000715D5206960B1B0420AD0B84208D07D
:100A5000404506D0484504D040F2CA210C4800F079
:100A600044FD2868216920F4604040EAC100286004
:100A700000F01AF82968094AC1F30311515CC84013
:100A80000749086007480068FFF772FE00209EE7EC
:100A90008C150008003C0240083802400815000888
:100AA0000C00002004000020154810B5006810F06C
:100AB0000C02144813D01449042A0FD0082A0ED16E
:100AC0000F4C241F2268236802F03F025B0207D507
:100AD0002068C0F38810A0FB010106E0084610BDA5
:100AE0002168C1F38811A1FB00010023FFF7BCFBC3
:100AF0002168C1F30141491C4900B0FBF1F010BD70
:100B0000083802400024F400001BB7002DE9F84F1C
:100B100004007DD020680F2803D9E621F74800F0B3
:100B2000E4FC2078DFF8D893C007A9F1040555D07C
:100B300060684FF480364FF4A02738B1B04205D03A
:100B4000B84203D0EB21ED4800F0CFFCEC48001D8B
:100B50000168C1F38101012908D00068C0F3810058
:100B600002280AD1D9F80000400206D5286880037F
:100B700034D560680028CCD030E06068B04203D142
:100B8000286840F480300CE0B842286803D140F473
:100B900080202860F4E720F480302860286820F462
:100BA00080202860606860B1FFF7BAFD064604E067
:100BB000FFF7B6FD801B64287ED828688003F7D530
:100BC0000CE0FFF7ADFD064605E000BFFFF7A8FD0E
:100BD000801B6428F0D828688003F7D42078DFF8D9
:100BE000248380074FF0000A56D5E06830B1012811
:100BF00004D040F21D11C14800F077FC20691F2885
:100C000004D94FF48F71BD4800F06FFCBC4800E080
:100C100092E0001D016811F00C0F08D00068C0F3CD
:100C20008100022810D1D9F8000040020CD42868B5
:100C3000800702D5E06801287ED12868216920F06C
:100C4000F80040EAC10017E0E068B8B10120C8F838
:100C50000000FFF765FD064605E000BFFFF760FDF9
:100C6000801B0228A8D828688007F7D5286820F0BC
:100C7000F801206941EAC00028600DE0C8F800A032
:100C8000FFF74EFD064604E0FFF74AFD801B0228F1
:100C900092D828688007F7D4207800072ED5984E80
:100CA000994F60697036D0B1012808D04FF4AF7108
:100CB000924800F01AFC00E0D6E0606978B10120AB
:100CC0003860FFF72DFD074605E000BFFFF728FD60
:100CD000C01B0228C6D830688007F7D50EE0C7F8D9
:100CE00000A0FFF71DFD074605E000BFFFF718FD58
:100CF000C01B0228B6D830688007F7D42078400798
:100D000076D5A068002740B1012806D0052804D078
:100D10004FF4C571794800F0E8FBDFF8E4B10BF15E
:100D20003C0BDBF80000C0000DD4DBF8001041F0F4
:100D30008051CBF8001000E01EE1DBF80000012735
:100D400000F080500090714E3068C00511D43068BA
:100D500040F480703060FFF7E3FC009006E000BFD5
:100D6000FFF7DEFC0099401A02287DD83068C005E4
:100D7000F6D5634EA0686C3601280FD00528306880
:100D800010D020F001003060306820F004003060A6
:100D9000A068B8B1FFF7C4FC00900FE0306840F0E5
:100DA0000100F4E740F004003060F7E7FFF7B8FC1B
:100DB0000099411A41F28830814255D83068800745
:100DC000F4D50EE0FFF7ACFC009007E0FFF7A8FCBD
:100DD0000099411A41F28830814245D83068800735
:100DE000F4D42FB1DBF8001021F08051CBF80010C3
:100DF000A069D0B3012808D0022806D040F2CD1156
:100E00003E4800F072FBA06978B33D48001D0068C1
:100E1000C0F381000228A0696FD0022805D0C8F86D
:100E200060A0FFF77DFC04467CE0E06938B1B0F5D6
:100E3000800F04D04FF4EB71304800F056FB206A6D
:100E4000801E3D2804D940F2D7112C4800F04DFBFC
:100E5000606A3238B0F5BF7F04D94FF4EC7127488F
:100E600000F043FBA06A01E059E087E002280AD0C5
:100E7000042808D0062806D0082804D040F2D9114A
:100E80001E4800F032FBE06A801E0D2804D94FF4A2
:100E9000ED711A4800F029FB4746C8F860A0FFF73B
:100EA0003FFC064605E000BFFFF73AFC801B022826
:100EB00035D828688001F7D4D4E907010843A16A2E
:100EC000134A490802EB0141626A41EA8211084370
:100ED00094F82C1040EA0161C9F80010012038662E
:100EE000FFF71EFC044604E0FFF71AFC001B022873
:100EF00015D828688001F7D540E017E08C15000868
:100F00000438024000004742800E47420070004013
:100F10000000FFFFFFF704FC001B022802D903209A
:100F2000BDE8F88F28688001F4D427E00128F7D0C5
:100F3000D9F80000E26900F4800191421CD1226AD4
:100F400000F03F01914217D147F6C071626A01403B
:100F5000B1EB821F10D1A26A4FF0FF3300F4403191
:100F600003EB5202B1EB024F06D194F82C1000F0C3
:100F70007060B0EB016F01D00120D1E70020CFE716
:100F800070B504007ED08049206888420AD07F492D
:100F9000884207D07E49884204D04FF4A0717D4832
:100FA00000F0A3FA60684FF4827630B1B04204D00A
:100FB00040F24111774800F098FAA06850B1B0F5BE
:100FC000806F07D0B0F5004F04D04FF4A171714885
:100FD00000F08BFAE068B0F5006F05D020B140F268
:100FE00043116C4800F081FAA069B0F5007F08D089
:100FF00038B1B0F5802F04D04FF4A271654800F0ED
:1010000074FAE06990B1082810D010280ED0182882
:101010000CD020280AD0282808D0302806D038281C
:1010200004D040F245115B4800F05FFA206A30B10D
:10103000802804D04FF4A371564800F056FA606A35
:10104000002540B3102806D040F24711514800F067
:101050004CFA606AF8B1E06990B1082810D0102805
:101060000ED018280CD020280AD0282808D03028E4
:1010700006D0382804D040F25911464800F035FA1D
:10108000256100E005E06561A56294F8510070B348
:1010900035E0012070BD206930B1022804D04FF442
:1010A000A5713C4800F021FA606930B1012804D0F4
:1010B00040F24B11374800F018FA6068B04217D17F
:1010C000E0690028E0D00828DED01028DCD01828FD
:1010D000DAD02028D8D02828D6D03028D4D0382824
:1010E000D2D040F24F112B4800F0FFF9CCE701E0DD
:1010F000E561C9E784F85050204600F04DF8022021
:1011000084F851002068016821F040010160A08846
:10111000218900F4827001F404410843A18901F49B
:1011200000610843217C01F002010843217D01F0A8
:1011300001010843218B01F400710843217F01F074
:101140003801084394F8201001F080010843218DF4
:1011500001F40051084321680860A069042101EAF4
:10116000104094F8241001F01001084321684860F1
:101170002068C16921F40061C1616565012084F8BE
:101180005100002070BD00000030014000380040D8
:10119000003C00401815000810B586B00446142124
:1011A0006846FFF7D8F814492068884221D11348CF
:1011B0000021026842F480420260006800F480402E
:1011C00005900E481038026842F002020260006882
:1011D00000F0020005904FF4204000900220CDE97D
:1011E0000101032003900520049069460448FFF79D
:1011F0001BF906B010BD0000003800404038024026
:101200000004024010B5401EB0F1807F01D30120E0
:1012100010BD4FF0E02460610F21601700F055F918
:101220000020A06107202061002010BDFEE7000023
:101230002DE9F04786B014216846FFF78CF85A482C
:101240000024016841F010010160016801F0100103
:101250000591016841F002010160016801F002019D
:101260000591016841F040010160016801F0400111
:101270000591016841F008010160016801F0080171
:101280000591016841F004010160016801F0040169
:101290000591016841F001010160016801F001015F
:1012A0000591016841F480710160016801F4807169
:1012B0000591016841F080010160016801F0800141
:1012C0000591016841F0200101600068DFF8DC90C1
:1012D00000F020000590002203214846FFF706FA9F
:1012E000DFF8CCA04FF4A048002241465046FFF75B
:1012F000FDF94FF6FF7603250096CDE901546946C6
:101300002C48FFF791F837110097CDE90154694651
:101310005046FFF789F80096CDE901546946264802
:10132000FFF782F80096CDE9015469462348FFF79C
:101330007BF80096CDE9015469462148FFF774F81F
:1013400049F6FF70CDE90005694602941D48FFF794
:101350006BF80097CDE9015469461B48FFF764F824
:10136000F61E0096CDE9015469461848FFF75CF86F
:1013700001270095CDE90174694648460394FFF7BB
:1013800053F80096CDE9015469464846FFF74CF8FA
:10139000CDF80080CDE90174694650460394FFF70B
:1013A00043F806B0BDE8F087303802400014024030
:1013B000000402400010024000180240000C0240ED
:1013C000000802400000024000200240001C0240D1
:1013D000104810B50E4901604FF482714160002140
:1013E0008160C1604FF400720161C0E905121022F2
:1013F000C0E90721416281620A21C162FFF7C0FD95
:10140000002803D0BDE81040FFF70BB810BD000066
:101410000038004010000020FEE7FEE770477047EC
:10142000FFF784B930B593B030216846FEF793FFDB
:1014300014210CA8FEF78FFF1D480025016841F01C
:1014400080510160006800F08050119019480168D7
:1014500041F4804101600068022400F48040119052
:1014600001200090000401908001CDE90640062093
:101470000890A820CDE9090404200B906846FFF7E6
:1014800045FB08B172B6FEE70CA90F2081E83100D8
:101490004FF4A0500F904FF48050109005210CA8ED
:1014A000FFF7F6F9002801D072B6FEE713B030BDA1
:1014B00040380240007000400248016841F4700169
:1014C0000160704788ED00E0FEE70907090E00287B
:1014D00004DB00F1E02080F80014704700F00F00FA
:1014E00000F1E02080F8141D70477047FFF726F9DF
:1014F000FFF798FFFFF79CFEFFF76AFFFEE74FF04C
:101500004070E1EE100A704700000000000000008B
:101510000102030406070809433A2F5573657273E5
:101520002F736D6974682F53544D33324375626560
:101530002F5265706F7369746F72792F53544D33E6
:1015400032437562655F46575F46345F56312E32CF
:10155000382E302F447269766572732F53544D3391
:1015600032463478785F48414C5F447269766572E0
:101570002F5372632F73746D3332663478785F68DB
:10158000616C5F7370692E6300000000433A2F5551
:10159000736572732F736D6974682F53544D3332B2
:1015A000437562652F5265706F7369746F72792F1E
:1015B00053544D3332437562655F46575F46345F1F
:1015C00056312E32382E302F447269766572732F61
:1015D00053544D3332463478785F48414C5F4472FF
:1015E000697665722F5372632F73746D333266346C
:1015F00078785F68616C5F7263632E63000000003F
:10160000433A2F55736572732F736D6974682F5346
:10161000544D3332437562652F5265706F73697430
:101620006F72792F53544D3332437562655F46575D
:101630005F46345F56312E32382E302F4472697631
:101640006572732F53544D3332463478785F484176
:101650004C5F4472697665722F5372632F73746D99
:101660003332663478785F68616C5F6770696F2EBB
:1016700063000000433A2F55736572732F736D69D1
:1016800074682F53544D3332437562652F52657021
:101690006F7369746F72792F53544D33324375628F
:1016A000655F46575F46345F56312E32382E302FF5
:1016B000447269766572732F53544D3332463478D1
:1016C000785F48414C5F4472697665722F5372634C
:1016D0002F73746D3332663478785F68616C5F6342
:1016E0006F727465782E63000817000800000020F0
:1016F00010000000C40100081817000810000020A6
:10170000B8060000E0010008010000001000000021
:08171000000000000024F400B9
:040000050800018965
:00000001FF
