:020000040800F2
:100000004026002029020008B7390008D133000833
:10001000B53900081F040008595D00080000000001
:10002000000000000000000000000000353B000858
:100030006904000800000000333B0008413B000851
:10004000430200084302000843020008430200087C
:10005000430200084302000843020008430200086C
:10006000430200084302000843020008430200085C
:10007000430200084302000843020008430200084C
:10008000430200084302000843020008430200083C
:10009000430200084302000843020008430200082C
:1000A000430200084302000843020008430200081C
:1000B000430200084302000843020008430200080C
:1000C00043020008430200084302000843020008FC
:1000D00043020008430200084302000843020008EC
:1000E00043020008430200084302000843020008DC
:1000F00043020008430200084302000843020008CC
:1001000043020008430200084302000843020008BB
:1001100043020008430200084302000843020008AB
:10012000430200084302000843020008430200089B
:10013000430200084302000843020008430200088B
:10014000430200084302000843020008B9390008CE
:10015000430200084302000843020008430200086B
:10016000430200084302000843020008430200085B
:100170004302000843020008430200080000000098
:10018000430200084302000800F002F800F03CF8C7
:100190000AA090E8000C82448344AAF10107DA45E2
:1001A00001D100F031F8AFF2090EBAE80F0013F0F8
:1001B000010F18BFFB1A43F001031847685C0000E9
:1001C000885C0000103A24BF78C878C1FAD852077A
:1001D00024BF30C830C144BF04680C6070470000C1
:1001E0000023002400250026103A28BF78C1FBD840
:1001F000520728BF30C148BF0B6070471FB505F0DC
:10020000FFFD1FBD10B510BD00F0CFF81146FFF780
:10021000F5FF05F0B3FD00F0EDF803B4FFF7F2FFD2
:1002200003BC00F0F5F80000094880470948004782
:10023000FEE7FEE7FEE7FEE7FEE7FEE7FEE7FEE796
:10024000FEE7FEE704480549054A064B70470000F3
:10025000D93B0008890100084020002040260020EA
:10026000402200204022002053EA020C00F0698066
:100270002DE9F04B4FF00006002B1FBFB3FA83F5BA
:1002800003FA05F424FA05F65E4012BF1643B2FAEB
:1002900082F502FA05F4C5F120051EBF22FA05FC1D
:1002A00044EA0C04203556EA044C4FEA144418BFC3
:1002B000641C4FF000084FF00009904271EB030CF2
:1002C00039D3002919BFB1FA81F701FA07F6B0FA5C
:1002D00080F700FA07F6C7F120071EBF20FA07FCD7
:1002E00046EA0C062037B6FBF4FCA7EB0507103FE7
:1002F00007F01F0BCBF120060CFA0BFB2CFA06F6CD
:1003000044BFB3460026202FA4BF5E464FF0000B2B
:100310005BEA060C08BF4FF0010B19EB0B09ABFBB6
:10032000027C48EB0608C01B06FB02CC0BFB03CC8F
:1003300071EB0C01C1E70B46024641464846BDE859
:10034000F08B13B54FF000004FF00001AFF30080C9
:10035000BDE81C4070474FF0000200B513469446BC
:100360009646203922BFA0E80C50A0E80C50B1F10D
:100370002001BFF4F7AF090728BFA0E80C5048BF21
:100380000CC05DF804EB890028BF40F8042B08BFBF
:10039000704748BF20F8022B11F0804F18BF00F8BB
:1003A000012B7047704770477047754600F02CF876
:1003B000AE4605006946534620F00700854618B052
:1003C00020B5FFF73FFFBDE820404FF000064FF09B
:1003D00000074FF000084FF0000B21F00701AC467A
:1003E000ACE8C009ACE8C009ACE8C009ACE8C00999
:1003F0008D46704710B50446AFF300802046BDE837
:100400001040FFF70ABF000000487047DC1F0020C3
:1004100001491820ABBEFEE7260002007047FEE748
:10042000002070470020704710B50022044905489D
:1004300004F020F90449034804F00FF9002010BD2E
:10044000D8100020FC030020D808002010B5014679
:10045000034804F002F9024804F0D8F8002010BD67
:10046000FC03002000207047704772B6FEE70000D2
:1004700070B504007ED0A4492068884207D0A34903
:10048000884204D04FF48F71A1A005F076FC207E45
:1004900030B1012804D040F21F119DA005F06DFC81
:1004A000607E30B1012804D04FF4907198A005F01F
:1004B00064FCA07E30B1012804D040F2211194A048
:1004C00005F05BFCE07E30B1012804D04FF491715F
:1004D0008FA005F052FC207F30B1012804D040F2FB
:1004E00023118BA005F049FC607F30B1012804D0B6
:1004F0004FF4927186A005F040FCA06868B1B0F19D
:10050000804F0AD0B0F1004F07D0B0F1404F04D077
:1005100040F225117EA005F030FCE06868B1B0F132
:10052000807F0AD0B0F1007F07D0B0F1407F04D0C7
:100530004FF4937176A005F020FC206998B3B0F5D4
:10054000803F30D0B0F5003F2DD0B0F5403F2AD0ED
:10055000B0F5802F27D0B0F5A02F24D0B0F5C02F54
:1005600021D0B0F5E02F1ED0B0F5002F1BD0B0F594
:10057000102F00E041E016D0B0F5202F13D0B0F5D9
:10058000302F10D0B0F5402F0DD0B0F5502F0AD03D
:10059000B0F5602F07D0B0F5702F04D040F22711CE
:1005A0005BA005F0EAFB6069C8B1B0F5801F16D00A
:1005B000B0F5001F13D0B0F5401F10D0B0F5800F7C
:1005C0000DD0B0F5A00F0AD0B0F5C00F07D0B0F530
:1005D000E00F04D04FF494714DA005F0CEFB60689D
:1005E000401EB0F5806F04D340F2291148A005F0F9
:1005F000C4FB94F8200010B104E0012070BD204637
:1006000000F0A2F82068016841F00101016000F0EB
:10061000CFFA0546052604E000F0CAFA401B0A2876
:1006200011D820684068C007F6D02068016821F022
:100630000201016000F0BCFA05460BE000F0B8FAD8
:10064000401B0A2806D9606A40F40030606284F8D2
:100650002060D2E7206840688007EFD4207E012820
:10066000206801683DD021F080010160607E012892
:100670002068016838D021F040010160A07E012887
:100680002068016833D021F020010160E07E01285C
:10069000206801682ED041F010010160207F012800
:1006A0002068016829D021F008010160607F0128DD
:1006B0002068016824D021F004010160D4E902011E
:1006C0000843D4E90412114308436168491E0843F2
:1006D0002168C86100206062012084F820000020A9
:1006E00070BD41F08001C0E741F04001C5E741F035
:1006F0002001CAE721F01001CFE741F00801D4E75B
:1007000041F00401D9E700000064004000680040A7
:100710002E2E2F447269766572732F53544D3332E7
:10072000463478785F48414C5F4472697665722F31
:100730005372632F73746D3332663478785F6861F7
:100740006C5F63616E2E6300F0B587B004461421C0
:100750006846FFF700FE2E4B2E48DFF8B0E0196820
:10076000D4F800C02B4A03250226092710300024A4
:10077000491CF4451AD11960012907D1016841F0DB
:1007800000710160006800F000700590106840F092
:10079000080010601068CDE9005600F00800CDE9AF
:1007A000047069461C48CDE902452AE0DFF86CE098
:1007B000F44528D1D0F800C04CF0806CC0F800C0DF
:1007C000D0F800C001290CF0806CCDF814C019607D
:1007D00007D1016841F000710160006800F000700D
:1007E0000590106840F002001060106802AB00F045
:1007F000020005906020CDE9000683E8B00069465C
:10080000074800F021F807B0F0BD00000064004088
:100810000000002030380240000C02400068004018
:100820000004024070B5044600F0C2F90546601CA1
:1008300002D004480078044400F0BAF9401BA042FA
:10084000FAD370BD680000202DE9F84FDFF888B2B8
:100850000D46044658451BD0A048844218D0A048F5
:10086000844215D09F48844212D09F4884420FD0C2
:100870009E4884420CD09E48844209D09D488442C0
:1008800006D09D48844203D0AC219CA005F075FAA7
:1008900028680104090C01D0000C03D0AD2197A0F9
:1008A00005F06BFA6868F8B101281DD011281BD03B
:1008B000022819D0122817D0B0F5881F14D0B0F52F
:1008C000041F11D0B0F5441F0ED0B0F5901F0BD00F
:1008D000B0F5081F08D0B0F5481F05D0032803D095
:1008E000AE2186A005F049FA00264FF0010A4FF02C
:1008F000030900BF0AFA06F02F6880460740474503
:100900007ED1287900F00300012801D002281DD1F2
:10091000E86848B1012807D0022805D0032803D091
:10092000C02176A005F029FAA168720009FA02F048
:100930008143E86890400843A0606068297920EA14
:100940000800C1F30011B140014361602879C04340
:10095000800712D0A86838B1012805D0022803D03A
:10096000D12166A005F009FAE168720009FA02F0E7
:100970008143A86890400843E060287900F00300B4
:1009800002282ED12869F8B109281DD001281BD0D2
:10099000022819D0032817D0042815D0052813D011
:1009A000062811D007280FD008280DD00A280BD010
:1009B0000B2809D00C2807D00D2805D00F2803D00C
:1009C000DE214EA005F0D9F9F00804EB8002106A90
:1009D0007107CB0E0F219940884329699940014343
:1009E00011622068720009FA02F18843297901F046
:1009F0000301914001432160686810F4403F00E02A
:100A000063E062D04C48016841F4804101600068B5
:100A100026F0030100F48040009048480A18D2F8FC
:100A20000808B1070B0F0F21994088435C4501D19D
:100A3000002123E029498C4201D101211EE02849EF
:100A40008C4201D1022119E026498C4201D10321B7
:100A500014E025498C4201D104210FE023498C4246
:100A600001D105210AE022498C4201D1062105E08D
:100A700020498C4201D1072100E00821994001431F
:100A8000C2F808182E4908686A68B843D20200D52F
:100A9000384308602A49091D08686A68B843920209
:100AA00000D5384308602649091F08686A68B843BA
:100AB000920300D5384308602149083908686A68FC
:100AC000B843D20300D538430860761C102EFFF4DB
:100AD00011AFBDE8F88F00000000024000040240A2
:100AE00000080240000C02400010024000140240C6
:100AF00000180240001C0240002002402E2E2F440D
:100B00007269766572732F53544D33324634787858
:100B10005F48414C5F4472697665722F5372632F50
:100B200073746D3332663478785F68616C5F6770B8
:100B3000696F2E630000000044380240003001401D
:100B4000083C014070B515460C00064604D140F241
:100B50009D1108A005F011F945B1012D04D04FF405
:100B6000CF7104A005F009F9B46170BD2004B06133
:100B700070BD00002E2E2F447269766572732F535C
:100B8000544D3332463478785F48414C5F44726943
:100B90007665722F5372632F73746D3332663478B7
:100BA000785F68616C5F6770696F2E63000000009A
:100BB00001488068704700006800002070B504009C
:100BC0007DD08A49206888420AD08949884207D066
:100BD0008849884204D040F2C91187A005F0CDF8B9
:100BE00060689349401E884204D94FF4E57182A0A1
:100BF00005F0C3F8A0684FF4804530B1A84204D096
:100C000040F2CB117CA005F0B8F8E068800A04D06F
:100C10004FF4E67178A005F0B0F82069A84207D03B
:100C2000B0F5404F04D040F2CD1173A005F0A5F807
:100C3000606930B1012804D04FF4E7716EA005F06F
:100C40009CF8A06930F0FE0004D040F2CF116AA0F9
:100C500005F093F8E06930B1402804D04FF4E87112
:100C600065A005F08AF8206A30B1802804D040F2EF
:100C7000D11161A005F081F894F83D00002520B95C
:100C800084F83C50204600F0DDF8242084F83D0034
:100C90002068016821F0010101602068016841F4C9
:100CA000004101602068016821F40041016001F009
:100CB00089F8604A6168914202D85F4901E002E028
:100CC0005E49884201D2012070BD5D492368B0FBB6
:100CD000F1F15E6826F03F060E435E606368934262
:100CE00006D94FF4967359434FF47A73B1FBF3F17D
:100CF0002368491C1E6A26F03F0631431962616869
:100D0000914210D84900401EB0FBF1F2521CC2F3D0
:100D10000B02042A01D2042022E0B0FBF1F0401CB7
:100D2000C0F30B001CE0A368F3B301EBC10202EBBC
:100D30000116421EB2FBF6F2521C42F4804212052A
:100D400049D093B301EBC10202EB0111401EB0FB8D
:100D5000F1F0401CC0F30B0040F4804040F4004030
:100D60002168CA694CF6FF739A431043C861D4E9FD
:100D7000071001432068026822F0C002114301609D
:100D8000D4E9030101432068826848F2FF339A43A3
:100D900011438160D4E9050108432168CA6822F043
:100DA000FF021043C86001E00EE016E02068016811
:100DB00041F0010101602564202084F83D00256395
:100DC00084F83E50002070BD01EB4106421EB2FB8C
:100DD000F6F2521CB3E70120C2E701EB4101401ECD
:100DE000B0FBF1F0401CC0F30B00B7E7005400402B
:100DF00000580040005C00402E2E2F44726976653A
:100E000072732F53544D3332463478785F48414CD7
:100E10005F4472697665722F5372632F73746D33FA
:100E200032663478785F68616C5F6932632E630084
:100E30007F1A0600A086010080841E0000093D0084
:100E400040420F0010B586B0044614216846FFF7F3
:100E500082FA14492068884221D11348002102688F
:100E600042F002020260006800F0020005904FF4B8
:100E7000407000901220CDE901010320039004206E
:100E8000049069460948FFF7DFFC07481030016805
:100E900041F400110160006800F40010059006B0F4
:100EA00010BD0000005400403038024000040240F1
:100EB0000248816802781144816070476800002010
:100EC0000B4810B5016841F400710160016841F4FC
:100ED00080610160016841F480710160032000F0CD
:100EE000C3F80F2000F006F800F024F8002010BD31
:100EF000003C024070B50D4D04464FF47A712878DD
:100F0000B1FBF0F00A490968B1FBF0F001F06EFBAB
:100F100048B9102C07D200222146501E00F054F888
:100F200000206C6070BD012070BD000068000020D2
:100F3000740000200A4808B5016841F4804101604E
:100F4000006800F4804000900548001F016841F0EF
:100F500080510160006800F08050009008BD0000E2
:100F60004438024010B5040003D5BC2107A004F0AA
:100F700004FF002C09DB04F01F01012088406109F7
:100F8000890001F1E021C1F8000110BD2E2E2F448F
:100F90007269766572732F53544D333246347878C4
:100FA0005F48414C5F4472697665722F5372632FBC
:100FB00073746D3332663478785F68616C5F636F29
:100FC000727465782E63000070B515460C460646AF
:100FD000102A03D3A82114A004F0CFFE102C03D3B1
:100FE000A92111A004F0C9FE1E480068C0F3022325
:100FF000C3F107022046042A00D90422191D07293B
:1010000001D2002300E0DB1E012404FA02F1491E94
:10101000014099409C40641E2C4021433046BDE86D
:10102000704004F09ABE00002E2E2F44726976653F
:1010300072732F53544D3332463478785F48414CA5
:101040005F4472697665722F5372632F73746D33C8
:1010500032663478785F68616C5F636F727465784C
:101060002E6300000CED00E010B5044607280BD0FD
:10107000062C09D0052C07D0042C05D0032C03D056
:10108000902108A004F079FE154904F007020868D1
:101090004FF6FF03184040EA0220124A104308604E
:1010A00010BD00002E2E2F447269766572732F5387
:1010B000544D3332463478785F48414C5F4472690E
:1010C0007665722F5372632F73746D333266347882
:1010D000785F68616C5F636F727465782E6300007F
:1010E0000CED00E00000FA05704700684162002046
:1010F0007047F0B50368586A39B19C6A4FF482763C
:1011000000EB144400204D1E0AE040EA02409862C1
:101110000FE006EB8007DF59401C04EB1744C0B218
:10112000A842F6D344EA02404FF4807202EB8101F8
:1011300058500020F0BDD0F8E00403F071BD01EB81
:10114000C10200EB8202D0F8E004126A03F0C6BCD0
:1011500001EBC10200EB8202D0F8E004D2F8602279
:1011600003F017BDD0F8E00403F05CBD0A0601F0FF
:101170000F0101EBC10100EB810101D5143101E048
:1011800001F51571006804F035BC70B504460B0616
:1011900001F00F0000EBC00104EB81014FF00102F0
:1011A0004FF0000502D54A75143103E081F855521D
:1011B00001F51571087094F89404012808D084F89A
:1011C0009424206804F034F984F89454002070BD0D
:1011D000022070BD70B5044601F00F0022799042E4
:1011E00001D9012070BD0B0601F00F0101EBC10117
:1011F00004EB81014FF001024FF0000502D54A7562
:10120000143103E081F8555201F515718D700870A5
:1012100094F89404012808D084F89424206804F0F9
:1012200079FA84F89454002070BD022070BD01F05A
:101230000F0101EBC10100EB8100D0F8680270479B
:101240002DE9F04104460F0601F00F0000EBC0014C
:1012500004EB81014FF001064FF0000502D54E75F9
:10126000143103E081F8555201F5157108708A6058
:101270000B714A7802B14883022B00D14D7194F86A
:101280009404012809D084F89464206804F022F8BA
:10129000284684F89454BDE8F0810220FBE710B59D
:1012A00001F00F0404EBC40100EB8101C1E99823B4
:1012B0000023C1F8683281F8553281F854428379AD
:1012C00001F51571012B00D1CA618279006804F023
:1012D00079FA002010BD70B504460D4601F00F00EC
:1012E0002179884201D9012070BD29064FF00006FE
:1012F0004FF0010206D500EBC00104EB81014A75F5
:10130000143107E005EBC50104EB810181F855625A
:1013100001F515718A70087094F89404012807D0BB
:1013200084F89424206804F021FA280702D007E00A
:10133000022070BDA17904F29C42206804F0BEF93D
:1013400084F89464002070BD10B501F00F0404EB24
:10135000C40100EB8101C1E9082300238B62012352
:101360004B7501F8144F8379012B00D1CA61827942
:10137000006804F027FA002010BD00002DE9FC5F92
:1013800005680446284604F0D1FB00287DD120687A
:1013900004F0F8FB002878D0D5F80808C0F30D2039
:1013A000C4F8D404206804F0EDFB800704D520685D
:1013B000416901F002014161206804F0E3FBC106CC
:1013C00004F29C40009034D52068816921F010011E
:1013D00081612F6A07F00F0000EBC00004EB80066C
:1013E000C7F3434006F51576022802D0062811D02F
:1013F0001AE047F6F070074216D0C7F30A121746F4
:101400002846F16804F0C2FBF0683844F060706967
:10141000384408E008222846009904F0B7FB7069B8
:10142000C7F30A11084470612068816941F0100116
:101430008161206804F0A6FB00034FF0080B4FF019
:10144000000A4FF001097CD50026206804F079FBE2
:10145000074674E0F80770D0F1B2206804F08AFB08
:101460008046C00707D005EB4611C1F8089B3146FE
:10147000204602F0A7FA5FEA087024D505EB461172
:10148000C1F808BB2068016C00E023E200EB4610C5
:101490000191D0F8082BFB4B994205D9110403D5D3
:1014A0004FF40041C0F8081B204600F01EFBF54930
:1014B0000198884207D9A079012804D12068012128
:1014C000009A04F0FBF85FEAC86004D505EB46110A
:1014D0001020C1F8080B5FEA88701DD56869000606
:1014E00005D5D5F8040840F48061C5F8041806EB6A
:1014F000C60004EB800090F8571200F51570012922
:1015000005D180F803A0F1B2204600F0E9F905EB1F
:1015100046110220C1F8080B5FEA886004D505EB8C
:1015200046102021C0F8081B5FEA884005D505EB6E
:1015300046104FF40051C0F8081B7F08761C002F9E
:1015400088D1206804F01EFB40036ED5206804F0AB
:10155000F1FA0746002666E0F80762D0F1B220688B
:1015600004F0F6FA8046C00723D006F00F01D5F844
:10157000342809FA01F18A43C5F8342805EB4611ED
:10158000C1F80899A07901280FD106EBC60004EB39
:101590008000D0E907211144016236B9606A20B9A0
:1015A00020680121009A04F089F8F1B22046FFF783
:1015B000C6FD5FEA087003D505EB4611C1F808B90E
:1015C0005FEAC86004D505EB46111020C1F8080990
:1015D0005FEA486004D505EB46104021C0F80819C1
:1015E0005FEA887016D53146284604F074FA06EB97
:1015F000C60004EB8000C17D1430012905D180F8BC
:1016000003A0F1B2204600F067F905EB4611022075
:10161000C1F808095FEA086003D53146204602F0A8
:1016200037FA7F08761C002F96D1206804F0AAFABA
:10163000002811DAD5F8040820F00101C5F80418D3
:1016400094F8CC0401282BD0204600F033FA20680F
:10165000416901F000414161206804F093FA0005FE
:101660000BD5D5F80808C00702D0204600F066FA6E
:101670002068416901F400614161206804F082FA48
:10168000C00467D5D5F8040820F00100C5F80408A7
:101690001021206804F01FFA00214FF67F3220E06D
:1016A00084F8CCA400212046FFF71EFDCFE700BF41
:1016B00005EB4110C0F80829D0F8003923F40013D5
:1016C000C0F80039C0F8082BD0F8003B23F4001311
:1016D000C0F8003BD0F8003B43F00063C0F8003B8B
:1016E000491C20798842E3D8D5F81C0840F0011144
:1016F000C5F81C18E07B002828460DD0D0F88408D7
:1017000040F00B01C5F88418D5F8440840F00B01EF
:101710002846C5F844180DE0D0F8140842F22B0111
:101720000843C5F81408D5F8100840F00B01284606
:10173000C5F81018D0F8000820F4FE61C5F80018AC
:10174000A1792068009A03F0B9FF2068416901F48B
:1017500080514161206804F015FA800415D5206895
:1017600003F0F8FD206804F0D4F9E07100F024FBE8
:101770000146E279206804F067FA204600F084F917
:101780002068416901F400514161206804F0FAF9D0
:10179000000707D5204600F091F92068416901F063
:1017A00008014161206804F0EDF9000616D5A8692A
:1017B00020F08001A96101260DE000BF06EBC60004
:1017C00004EB800090F85702012803D1F1B22046C3
:1017D000FFF7CCFC761C2079B042EFD8206804F0EB
:1017E000D1F9C0021FD501264F4614E005EB461083
:1017F000D0F8001906EBC60004EB8002107E012829
:1018000008D1002906DAF0B240F08001D7752046F1
:10181000FFF7ACFC761C2079B042E7D8206841691C
:1018200001F480114161206804F0ACF9800234D5E4
:1018300001204A4629E000BF05EB4011D1F8001B0A
:1018400000EBC00304EB830393F85862012E1BD115
:10185000002919DA94F8D46401F4803106F0010605
:10186000B14211D183F85722A96941F08003AB61DD
:101870006969090608D4D5F8040840F40070C5F871
:10188000040805E00A30544F401C21798142D3D826
:101890002068416901F400114161206804F072F987
:1018A000400007D52046FFF746FC2068416901F05B
:1018B00080414161206804F065F940070AD520683D
:1018C0004568680702D52046FFF74CFC2068416850
:1018D00029434160BDE8FC9FD0F8E00403F0F5B96E
:1018E000D0F8E00403F005BAF8B5040011D0206880
:1018F0004FF0A047B84206D03349884203D089212F
:1019000032A004F03AFA94F895042668002510B144
:1019100006E00120F8BD84F89454204600F072F8E7
:10192000032084F89504BE4200D1A571206803F01D
:10193000BFFE207C8DF8000094E80F0003F018FD36
:101940000226B0BB0021206804F03FF988BB0020CC
:1019500001270CE000EBC00104EB81014F75087515
:10196000C8850D76CD610D62401CC0B24D622179F3
:101970008142EFD8002011E000EBC00104EB8101AF
:1019800081F8555281F8540281F85852C1F85C52DE
:10199000C1F86052401CC0B2C1F864522179814242
:1019A000EAD8207C8DF8000094E80F0003F0C2FD17
:1019B00010B184F89564ACE7657484F89574206878
:1019C00003F0AAFD0020F8BD000004402E2E2F4495
:1019D0007269766572732F53544D3332463478787A
:1019E0005F48414C5F4472697665722F5372632F72
:1019F00073746D3332663478785F68616C5F7063DE
:101A0000642E630010B586B0044614216846FEF7C4
:101A1000A2FC2068B0F1A04F2FD119480021026824
:101A200042F001020260006800F0010005904FF4EE
:101A3000C05000900220CDE90101032003900A204C
:101A4000049069460F48FEF7FFFE0D48001D01682F
:101A500041F0800101600A481430016841F480417E
:101A600001600068002200F4804005901146432088
:101A7000FFF7AAFA4320FFF775FA06B010BD000081
:101A8000303802400000024070B50446C07901259C
:101A900070B1022801D0FEF7E8FC2946D4F8E00432
:101AA00003F095F9D4F8E004BDE8704003F04AB9BA
:101AB0000025F2E7D0F8E00403F072B9D0F8E004B2
:101AC00003F078B910B5044690F8940401280AD0C0
:101AD000012084F894046174206804F0A4F80020C4
:101AE00084F8940410BD022010BDD0F8E02400F268
:101AF0009C41104603F077B910B50446006894F88D
:101B00009414012909D0012184F89414C16849066C
:101B100009D5617B012902D005E0022010BD816B4F
:101B200041F480318163206803F0B3FF206803F043
:101B3000E5FC002084F8940410BD000010B50446B4
:101B4000D0F8E00403F091F92068D0F8001E41F0CD
:101B50000101C0F8001EE07A002804D002480168A4
:101B600041F00601016010BD10ED00E02DE9F047E5
:101B70000E4604007DD02068401E0E2804D940F295
:101B80005A217AA004F0F9F896B1012E10D0022E55
:101B90000ED0032E0CD0042E0AD0052E08D0062E0F
:101BA00006D0072E04D040F25B2170A004F0E5F8C7
:101BB000DFF8F081D8F80000F7B200F00700B0427B
:101BC00007D288F80070D8F8000000F00700B04293
:101BD0004FD12068744D810729D5400703D5286867
:101BE00040F4E05028602078000703D5286840F4CE
:101BF00060402860A068A0B1802812D0902810D042
:101C0000A0280ED0B0280CD0C0280AD0D02808D0E8
:101C1000E02806D0F02804D040F27E2153A004F042
:101C2000ACF82868A16820F0F0000843286020780C
:101C3000C00743D0DFF870916068A9F1080988B146
:101C4000012822D0022824D0032822D040F2852166
:101C500046A004F092F86068012816D0022818D037
:101C6000032816D0D9F800008007002833DA286846
:101C700000E030E0616820F0030008432860FEF7D0
:101C800097FF814641F2883A11E0D9F800008003BD
:101C9000EBE7D9F800008001E7E700BFFEF788FF17
:101CA000A0EB0901514502D90320BDE8F08728685F
:101CB000616800F00C00B0EB810FEFD1D8F8001094
:101CC000404601F00701B14207D90770006800F0F3
:101CD0000700B04201D00120E7E720784FF480569A
:101CE00040074FF4A0574FF4C0584FF4E05914D5B3
:101CF000E06860B1B0420AD0B84208D0404506D092
:101D0000484504D040F2C32118A004F036F82868F2
:101D1000E16820F4E050084328602078000715D5DA
:101D2000206960B1B0420AD0B84208D0404506D020
:101D3000484504D040F2CA210CA004F01EF82868DF
:101D4000216920F4604040EAC100286000F05AF8A0
:101D50002968164AC1F30311515CC8401449086050
:101D600014480068FFF7C6F800209EE72E2E2F4487
:101D70007269766572732F53544D333246347878D6
:101D80005F48414C5F4472697665722F5372632FCE
:101D900073746D3332663478785F68616C5F726338
:101DA000632E6300003C0240083802400A5E0008CF
:101DB000740000206C00002001480068704700009B
:101DC000740000200448054900680968044AC1F30A
:101DD0008221515CC84070477400002008380240DE
:101DE0001A5E00080448054900680968044AC1F3FE
:101DF0004231515CC84070477400002008380240EE
:101E00001A5E0008154810B5006810F00C0214485E
:101E100013D01449042A0FD0082A0ED10F4C241FC6
:101E20002268236802F03F025B0207D52068C0F3F6
:101E30008810A0FB010106E0084610BD2168C1F32F
:101E40008811A1FB00010023FEF70EFA2168C1F3FF
:101E50000141491C4900B0FBF1F010BD08380240B7
:101E60000024F400001BB7002DE9F84F04007DD0DA
:101E700020680F2803D9E621F7A003F07EFF207821
:101E8000DFF80C94C007A9F1040555D060684FF441
:101E900080364FF4A02738B1B04205D0B84203D005
:101EA000EB21EDA003F069FFF948001D0168C1F3C3
:101EB0008101012908D00068C0F3810002280AD1FD
:101EC000D9F80000400206D52868800334D5606840
:101ED0000028CCD030E06068B04203D1286840F4DC
:101EE00080300CE0B842286803D140F4802028609C
:101EF000F4E720F480302860286820F480202860EF
:101F0000606860B1FEF754FE064604E0FEF750FE3E
:101F1000801B64287ED828688003F7D50CE0FEF784
:101F200047FE064605E000BFFEF742FE801B642820
:101F3000F0D828688003F7D42078DFF8588380072A
:101F40004FF0000A56D5E06830B1012804D040F2C5
:101F50001D11C1A003F011FF20691F2804D94FF4FF
:101F60008F71BDA003F009FFC94800E092E0001D99
:101F7000016811F00C0F08D00068C0F3810002283E
:101F800010D1D9F8000040020CD42868800702D58F
:101F9000E06801287ED12868216920F0F80040EA35
:101FA000C10017E0E068B8B10120C8F80000FEF7F2
:101FB000FFFD064605E000BFFEF7FAFD801B022884
:101FC000A8D828688007F7D5286820F0F80120698C
:101FD00041EAC00028600DE0C8F800A0FEF7E8FD67
:101FE000064604E0FEF7E4FD801B022892D828682C
:101FF0008007F7D4207800072ED5A54EA64F60693C
:102000007036D0B1012808D04FF4AF7192A003F020
:10201000B4FE00E04BE1606978B101203860FEF762
:10202000C7FD074605E000BFFEF7C2FDC01B022842
:10203000C6D830688007F7D50EE0C7F800A0FEF7D5
:10204000B7FD074605E000BFFEF7B2FDC01B022842
:10205000B6D830688007F7D42078400776D5A068D6
:10206000002740B1012806D0052804D04FF4C571DF
:1020700079A003F082FEDFF818B20BF13C0BDBF81D
:102080000000C0000DD4DBF8001041F08051CBF807
:10209000001000E038E1DBF80000012700F080507C
:1020A00000907E4E3068C00511D4306840F48070D6
:1020B0003060FEF77DFD009006E000BFFEF778FD82
:1020C0000099401A022891D83068C005F6D5704EA4
:1020D000A0686C3601280FD00528306810D020F099
:1020E00001003060306820F004003060A068B8B1B2
:1020F000FEF75EFD00900FE0306840F00100F4E76D
:1021000040F004003060F7E7FEF752FD0099411AF5
:1021100041F2883081428BD830688007F4D50EE0D8
:10212000FEF746FD009007E0FEF742FD0099411AD8
:1021300041F2883081428BD830688007F4D42FB1C7
:10214000DBF8001021F08051CBF80010A0690028C6
:1021500076D0012809D0022807D040F2CD113EA048
:1021600003F00BFEA0690028F2D04948001D00686A
:10217000C0F381000228A0696DD0022805D0C8F8FC
:1021800060A0FEF715FD044694E0E06938B1B0F5B3
:10219000800F04D04FF4EB712FA003F0EEFD206A06
:1021A000801E3D2804D940F2D7112BA003F0E5FD95
:1021B000606A3238B0F5BF7F04D94FF4EC7126A0C5
:1021C00003F0DBFDA06A02280AD0042808D0062804
:1021D00006D0082804D040F2D9111FA003F0CDFD8D
:1021E000E06A801E0D2804D94FF4ED711AA003F0A7
:1021F000C4FD4746C8F860A0FEF7DAFC064604E0D6
:10220000FEF7D6FC801B022851D828688001F7D43D
:10221000D4E907010843A16A214A490802EB0141B8
:10222000626A41EA8211084394F82C1040EA016185
:10223000C9F8001001203866FEF7BAFC044606E033
:1022400064E000BFFEF7B4FC001B02282FD828680A
:102250008001F7D55AE031E02E2E2F447269766561
:1022600072732F53544D3332463478785F48414C63
:102270005F4472697665722F5372632F73746D3386
:1022800032663478785F68616C5F7263632E6300D6
:102290000438024000004742800E47420070004070
:1022A0000000FFFFFEF784FC001B022802D9032078
:1022B000BDE8F88F28688001F4D427E00128F7D022
:1022C000D9F80000E26900F4800191421CD1226A31
:1022D00000F03F01914217D147F6C071626A014098
:1022E000B1EB821F10D1A26A4FF0FF3300F44031EE
:1022F00003EB5202B1EB024F06D194F82C1000F020
:102300007060B0EB016F01D00120D1E70020CFE772
:1023100070B504007ED08049206888420AD07F4989
:10232000884207D07E49884204D04FF4A0717DA036
:1023300003F023FD60684FF4827630B1B04204D0E0
:1023400040F2411177A003F018FDA06850B1B0F53C
:10235000806F07D0B0F5004F04D04FF4A17171A089
:1023600003F00BFDE068B0F5006F05D020B140F23E
:1023700043116CA003F001FDA069B0F5007F08D007
:1023800038B1B0F5802F04D04FF4A27165A003F0EE
:10239000F4FCE06990B1082810D010280ED018285D
:1023A0000CD020280AD0282808D0302806D0382879
:1023B00004D040F245115BA003F0DFFC206A30B18D
:1023C000802804D04FF4A37156A003F0D6FC606AB5
:1023D000002548B3102806D040F2471151A003F061
:1023E000CCFC606A00B3E06990B1082810D01028D6
:1023F0000ED018280CD020280AD0282808D0302841
:1024000006D0382804D040F2591146A003F0B5FC9C
:10241000256100E006E06561A56294F8510000289E
:1024200030D034E0012070BD206930B1022804D0E2
:102430004FF4A5713BA003F0A0FC606930B1012806
:1024400004D040F24B1137A003F097FC6068B04213
:1024500016D1E0690028DFD00828DDD01028DBD0B5
:102460001828D9D02028D7D02828D5D03028D3D0A4
:102470003828D1D040F24F112AA003F07EFCCBE7E0
:10248000E561C9E784F85050204600F067F8022063
:1024900084F851002068016821F040010160A088A3
:1024A000218900F4827001F404410843A18901F4F8
:1024B00000610843217C01F002010843217D01F005
:1024C00001010843218B01F400710843217F01F0D1
:1024D0003801084394F8201001F080010843218D51
:1024E00001F40051084321680860A069042101EA51
:1024F000104094F8241001F010010843216848604E
:102500002068C16921F40061C1616565012084F81A
:102510005100002070BD0000003001400038004034
:10252000003C00402E2E2F447269766572732F5343
:10253000544D3332463478785F48414C5F44726979
:102540007665722F5372632F73746D3332663478ED
:10255000785F68616C5F7370692E6300F0B587B057
:10256000044614216846FDF7F6FE1C49206888429F
:1025700032D11B480024016841F480510160006899
:1025800000F48050059016481438016841F00201AB
:102590000160016801F002010591016841F001014B
:1025A00001600068022500F0010005901820CDE9C7
:1025B000000502AA0326052782E8D00069460948DB
:1025C000FEF742F98020CDE9000502AA694682E8BB
:1025D000D0000548FEF738F907B0F0BD00300140E3
:1025E00044380240000402400000024010B5401E82
:1025F000B0F1807F01D3012010BD4FF0E024606175
:102600000F21601703F0A9FB0020A06107202061C3
:10261000002010BD70B50C46054600683E49884252
:1026200007D03E49884204D040F2E6713CA003F056
:10263000A4FB2068B0F5006F05D020B140F2E7712F
:1026400037A003F09AFB6068B0F5806F05D020B129
:102650004FF4FD6132A003F090FBA06868B1B0F5C3
:10266000807F0AD0B0F5007F07D0B0F5407F04D05E
:1026700040F2E9712AA003F080FBE068FF2804D94A
:1026800040F2EA7126A003F078FB2069B0F5805F84
:1026900005D020B140F2EB7121A003F06EFB606920
:1026A00038B1B0F5005F04D040F2EC711CA003F02B
:1026B00064FBE069B0F5804F05D020B140F2ED71C8
:1026C00017A003F05AFB95F83C00012822D0012006
:1026D00085F83C00E068A26820F44070104362680E
:1026E00020F480601043226820F4006010432269C7
:1026F00020F480501043626920F400501043E269D6
:10270000002120F4804010432A68506485F83C1072
:10271000002070BD022070BD000001400004014097
:102720002E2E2F447269766572732F53544D3332B7
:10273000463478785F48414C5F4472697665722F01
:102740005372632F73746D3332663478785F6861C7
:102750006C5F74696D5F65782E6300002DE9F05F32
:10276000044600683A4E3B4FDFF8EC80DFF8EC900F
:10277000DFF8ECA00D464FF0804BB04215D0584525
:1027800013D0B84211D040450FD048450DD04FEA84
:10279000B641884209D03349884206D0504504D01A
:1027A00040F2A97130A003F0E8FA286890B110282F
:1027B00010D020280ED030280CD040280AD0502825
:1027C00008D0602806D0702804D040F2AA7126A054
:1027D00003F0D3FA6868802805D020B140F2AB71CD
:1027E00021A003F0CAFA94F83C0001282DD0012260
:1027F00084F83C20022084F83D00216848688B68FA
:1028000020F0700C286840EA0C0048602068B04254
:102810000FD058450DD0B8420BD0404509D048459F
:1028200007D0504505D01F49884202D01E49884232
:1028300004D1696823F080031943816084F83D2046
:10284000002084F83C00BDE8F09F0220FBE7000078
:10285000000001400004004000080040000C00405F
:1028600000040140001400402E2E2F44726976654A
:1028700072732F53544D3332463478785F48414C4D
:102880005F4472697665722F5372632F73746D3370
:1028900032663478785F68616C5F74696D5F657803
:1028A0002E630000004001400018004070B5040095
:1028B00057D0484920688E03474D884229D0B042FE
:1028C00027D04649884224D04549884221D0A84291
:1028D0001FD0444988421CD04349884219D04349FB
:1028E000884216D04249884213D04249884210D0CB
:1028F000414988420DD0414988420AD04049884226
:1029000007D04049884204D040F213113EA003F0A2
:1029100034FAA06860B110280AD0202808D04028D6
:1029200006D0602804D04FF48A7137A003F025FA4E
:10293000206950B1B0F5807F07D0B0F5007F04D09A
:1029400040F2151130A003F018FA2068B0420AD006
:10295000A84208D0E0684FF6FE71401E884209D9AF
:1029600003E0012070BDE06820B94FF48B7126A010
:1029700003F003FAA06930B1802804D040F21711A7
:1029800021A003F0FAF994F83D0028B9002084F85A
:102990003C00204600F054F8022084F83D00211D40
:1029A000206801F021F9012084F8460084F83E00F7
:1029B00084F83F0084F8400084F8410084F8420025
:1029C00084F8430084F8440084F8450084F83D000E
:1029D000002070BD00000140000C004000040040D9
:1029E00000080040001000400014004000040140B6
:1029F00000400140004401400048014000180040F0
:102A0000001C0040002000402E2E2F447269766585
:102A100072732F53544D3332463478785F48414CAB
:102A20005F4472697665722F5372632F73746D33CE
:102A300032663478785F68616C5F74696D2E63000C
:102A400008B500680649884208D10648016841F483
:102A500000310160006800F40030009008BD000003
:102A6000004401404438024070B586B00446142149
:102A70006846FDF770FC23682A4C00212A48022290
:102A8000A34210D1036843F004030360006800F020
:102A900004000590D0010090CDE90121CDE9031299
:102AA0006946224812E0224CA34213D1036843F046
:102AB00008030360006800F00800059020140090EF
:102AC000CDE90121CDE9031269461A48FDF7BCFEA4
:102AD00006B070BD184E40240325B3420FD10368E1
:102AE00043F4807303600068009400F480700590E4
:102AF000CDE90121CDE9031569461048E6E7104EFE
:102B0000B342E5D1036843F02003036000680094FA
:102B100000F020000590CDE90121CDE903156946BB
:102B20000848D3E700040040303802400008024063
:102B300000080040000C0240000401400020024058
:102B400000440140001402402DE9F05F16000D46DC
:102B500004464FF000090CD0042E0AD0082E08D0ED
:102B60000C2E06D03C2E04D041F2820177A003F057
:102B700004F92868602806D0702804D041F2830147
:102B800072A003F0FAF8A86830B1022804D041F22C
:102B900084016EA003F0F1F8286930B1042804D054
:102BA00041F2850169A003F0E8F894F83C0001289F
:102BB0001CD001207349744A744B754FDFF8D4C19F
:102BC000DFF8D4A1DFF8D4B184F83C004FF080489E
:102BD00076B1042E41D0082E6AD00C2E7DD08146CD
:102BE000002084F83C004846BDE8F09F0220FBE747
:102BF000206888421ED040451CD090421AD098428E
:102C000018D0B84216D0604514D0504512D064494F
:102C100088420FD0634988420CD058450AD0624997
:102C2000884207D06149884204D041F28F0147A011
:102C300003F0A3F82946206801F0BCF820688169F8
:102C400041F0080181612068816921F004018161FE
:102C5000206881692A69114328E02068884212D0DF
:102C6000404510D090420ED098420CD0B8420AD0C5
:102C7000604508D0504506D0584504D04FF48551E2
:102C800032A003F07AF82946206801F005F920689F
:102C9000816941F4006181612068816921F480616A
:102CA0008161206881692A6941EA0221816197E78F
:102CB000206888420ED040450CD090420AD09842FD
:102CC00008D0B84206D0604504D041F2B1011FA03F
:102CD00003F053F82946206800E010E001F052F9B3
:102CE0002068C16941F00801C1612068C16921F013
:102CF0000401C1612068C1692A69114324E0206888
:102D000088420ED040450CD090420AD0984208D05C
:102D1000B84206D0604504D041F2C2010BA003F0D6
:102D20002CF82946206801F0A3F92068C16941F414
:102D30000061C1612068C16921F48061C1612068BE
:102D4000C1692A6941EA0221C16149E72E2E2F4457
:102D50007269766572732F53544D333246347878E6
:102D60005F48414C5F4472697665722F5372632FDE
:102D700073746D3332663478785F68616C5F746940
:102D80006D2E630000000140000400400008004078
:102D9000000C0040000401400040014000180040C9
:102DA0000044014000480140001C00400020004059
:102DB00070B5040057D0484920688E03474D8842BB
:102DC00029D0B04227D04649884224D0454988427C
:102DD00021D0A8421FD0444988421CD04349884290
:102DE00019D04349884216D04249884213D04249FB
:102DF000884210D0414988420DD0414988420AD0CA
:102E00004049884207D04049884204D040F22C51C2
:102E10003EA002F0B2FFA06860B110280AD02028BE
:102E200008D0402806D0602804D040F22D5137A0A9
:102E300002F0A3FF206950B1B0F5807F07D0B0F554
:102E4000007F04D040F22E5130A002F096FF20689F
:102E5000B0420AD0A84208D0E0684FF6FE71401E8A
:102E6000884209D903E0012070BDE06820B940F232
:102E70002F5126A002F081FFA06930B1802804D034
:102E80004FF4A66121A002F078FF94F83D0028B924
:102E9000002084F83C00204600F054F8022084F81A
:102EA0003D00211D206800F09FFE012084F84600AF
:102EB00084F83E0084F83F0084F8400084F8410024
:102EC00084F8420084F8430084F8440084F8450004
:102ED00084F83D00002070BD00000140000C00405F
:102EE00000040040000800400010004000140040B2
:102EF00000040140004001400044014000480140FE
:102F000000180040001C0040002000402E2E2F44DE
:102F10007269766572732F53544D33324634787824
:102F20005F48414C5F4472697665722F5372632F1C
:102F300073746D3332663478785F68616C5F74697E
:102F40006D2E630008B50F4A01680F48914207D102
:102F5000016841F002010160006800F0020009E030
:102F60000A4A914208D1016841F0040101600068F9
:102F700000F00400009008BD05488142FBD10248E2
:102F8000001DE5E700040040403802400008004012
:102F9000000401402DE9F05F05460068DFF86C8110
:102FA0000227DFF86C91DFF86CA1DFF86CB15B4EA3
:102FB0000C46404507D1002C63D0042C68D0082C67
:102FC0006DD00C2C56D0B0F1804F4CD0484507D175
:102FD000002C56D0042C5BD0082C60D00C2C49D08F
:102FE000504506D1F4B3042C52D0082C57D00C2CE9
:102FF00040D0584506D1ACB3042C49D0082C4ED053
:103000000C2C37D0B04206D164B3042C40D0082C2D
:1030100045D00C2C2ED04249884202D114B3042C46
:1030200036D04049884200D1E4B13F49884200D1BE
:10303000C4B13E49884202D1A4B1042C28D03C49F5
:10304000884200D174B13B49884200D154B140F26A
:10305000B35139A002F091FE24B1042C18D0082CF1
:103060001DD007E00DE064B1042C11D0082C16D05F
:103070000C2CECD195F84100012817D00120BDE8B7
:10308000F09F95F83E000128F8D185F83E700FE0DA
:1030900095F83F000128F1D185F83F7008E095F8D8
:1030A00040000128EAD185F8407001E085F84170C0
:1030B00001222146286800F003FE2868404501D01F
:1030C000B04203D1426C42F4004242642868404559
:1030D00010D0B0F1804F0DD048450BD0504509D0ED
:1030E000584507D0B04205D00D49884202D00F495B
:1030F000884204D1816801F00701062903D00168E4
:1031000041F0010101600020B9E70000000001402A
:103110000004004000080040000C00400004014092
:1031200000400140004401400048014000180040B8
:10313000001C0040002000402E2E2F44726976654E
:1031400072732F53544D3332463478785F48414C74
:103150005F4472697665722F5372632F73746D3397
:1031600032663478785F68616C5F74696D2E6300D5
:1031700070B5040023D0A0693B4900283B4A3C4B72
:103180003C4D20681DD088420CD090420AD0984215
:1031900008D0A84206D040F2731137A002F0EDFD2E
:1031A000A06908B3A069B0F5807F1DD0B0F5007F9D
:1031B0001AD0B0F5407F17D04FF4BA7111E001205A
:1031C00070BD884210D090420ED098420CD0394940
:1031D000884209D03849884206D0A84204D04FF42A
:1031E000BC7125A002F0C9FDA06838B1B0F5805FC0
:1031F00004D04FF4BD7120A002F0BFFDE06938B1EA
:10320000B0F5004F04D040F27B111BA002F0B5FDD9
:1032100094F84100002520B984F84050204600F081
:103220004DF8242084F841002068C16821F4005141
:10323000C160204600F06EFF2068016921F49041D2
:1032400001612068416921F02A0141612068C1685B
:1032500041F40051C1606564202084F8410084F885
:1032600042006563002070BD001001400044004032
:1032700000480040001401402E2E2F4472697665EC
:1032800072732F53544D3332463478785F48414C33
:103290005F4472697665722F5372632F73746D3356
:1032A00032663478785F68616C5F756172742E6322
:1032B00000000000004C004000500040F0B587B016
:1032C000044614216846FDF746F83A48384B226810
:1032D0000024384914380225032607279A4227D1AB
:1032E0000A6842F010020A60096801F010010591B5
:1032F000016841F002010160016801F002010591DD
:10330000016841F001010160006802AA00F00100BB
:1033100005908020CDE9000582E8D0006946264866
:10332000FDF792FA2802CDE90005694623481AE024
:10333000234B9A421ED11F49091F0A6842F480227A
:103340000A60096801F480210591016841F00401D7
:1033500001600068694600F0040005904FF4406089
:10336000CDE90005174802AA82E8D000FDF76CFA03
:1033700007B0F0BD144B9A42FAD10A6842F020021D
:103380000A60096801F020010591016841F04001DF
:1033900001600068029400F0400005904FF4844002
:1033A000CDE900050820CDE9036069460748DDE75F
:1033B0000010014044380240000402400000024076
:1033C000004800400008024000140140001802407C
:1033D000FEE70000F0B500230A24302537261F46FB
:1033E00011E000BFB4EB107F02D905EB107C01E0C7
:1033F00006EB107C01F813C001EB430C00015B1CD1
:103400008CF80170DBB29342ECD3F0BD0D4810B5DF
:103410000B4901601021416000218160C1600161A0
:103420004161017641768176C17601774177FDF77A
:103430001FF8002803D0BDE81040FDF716B810BDF6
:1034400000640040080100200D4810B50B490160E0
:103450001021416000218160C160016141610176FC
:1034600041768176C17601774177FDF701F8002832
:1034700003D0BDE81040FCF7F8BF10BD0068004065
:10348000300100202DE9F04387B014216846FCF795
:1034900062FF65480024016841F010010160016885
:1034A00001F010010591016841F00201016001681D
:1034B00001F002010591016841F0400101600168DD
:1034C00001F040010591016841F0080101600168C7
:1034D00001F008010591016841F0040101600168F3
:1034E00001F004010591016841F0010101600168EA
:1034F00001F001010591016841F4807101600168EA
:1035000001F480710591016841F08001016001685A
:1035100001F080010591016841F02001016000681F
:10352000DFF8088100F020004FF4E05605900022FB
:1035300031464046FDF706FBDFF8F49000220121FA
:103540004846FDF7FFFA4FF6FF700325CDE9000569
:10355000694602943748FDF777F94BF6FF50CDE9FD
:103560000005694602943448FDF76EF94BF6FC708D
:10357000CDE90005694602943048FDF765F94FF240
:10358000FF20CDE90005694602942D48FDF75CF95E
:1035900048F27F50CDE90005694602942948FDF7BD
:1035A00053F9802000904FF48810CDE90104264F94
:1035B00069463846FDF748F940F63F70CDE9000509
:1035C000694602943846FDF73FF94EF2FC30CDE9EA
:1035D0000005694602944046FDF736F94FF6BF7084
:1035E000CDE90005694602941848FDF72DF90096CB
:1035F0000126CDE90164694640460394FDF724F9AC
:103600004FF60640CDE90005694602944846FDF7AD
:103610001BF90096CDE90164694648460394FDF71D
:1036200013F907B0BDE8F08330380240001C0240B7
:10363000000402400010024000180240000C02404A
:103640000008024000000240002002400014024036
:103650000D4810B50B4901600C49416000214FF441
:1036600080428160C0E9031241618161C1610162F0
:10367000FDF7A4FA002803D0BDE81040FCF7F5BE22
:1036800010BD00000054004058010020A086010039
:103690000F4810B50D4901604FF48271416000215F
:1036A0008160C1604FF400720161C0E90512C1611F
:1036B0000162416281620A21C162FEF729FE00288F
:1036C00003D0BDE81040FCF7D0BE10BD0030014073
:1036D000AC01002010B588B01C216846FCF73BFE09
:1036E000144813490024C0E900144FF6FF71C0E9E3
:1036F000024104618461FFF7D9F808B1FCF7B5FE17
:103700000C48FFF755FB08B1FCF7AFFE6020CDE990
:10371000000402940022694606480494FFF714FA54
:1037200008B1FCF7A2FE0348FFF79EF908B010BDF0
:1037300000440140DC02002010B58AB00024079448
:103740001C2168460894FCF706FE164814490160DF
:103750005321C0E901146421C0E903148461FFF717
:1037600027FB08B1FCF781FE079407A90D480894D0
:10377000FEF7F4FF08B1FCF778FE602000903220DD
:10378000CDE901040822694606480494FFF7DCF9F4
:1037900008B1FCF76AFE0348FFF766F90AB010BDEE
:1037A000000400400402002010B58AB000240794F1
:1037B0001C2168460894FCF7CEFD16481449C0E960
:1037C00000144FF6FF71C0E9024104618461FFF704
:1037D000EFFA08B1FCF749FE079407A90D480894D1
:1037E000FEF7BCFF08B1FCF740FE6020CDE9000405
:1037F00002940822694607480494FFF7A5F908B126
:10380000FCF733FE0348FFF72FF90AB010BD0000A4
:10381000000800404C02002010B592B000240F9424
:103820001C2108A81094FCF796FD20216846FCF79F
:1038300092FD20481E49C0E900144FF6FF71C0E90F
:103840000241046144618461FFF7B2FA08B1FCF7F8
:103850000CFE0F940FA917481094FEF77FFF08B1D4
:10386000FCF703FE6020CDE908040A940B940C9445
:103870000D94042208A90F480E94FFF765F908B1CA
:10388000FCF7F3FD00944FF40050CDE9044002949E
:1038900001940394694607480794FEF7BBFE08B1FC
:1038A000FCF7E3FD0348FFF7DFF812B010BD00009E
:1038B00000040140940200200C4810B50A49016040
:1038C0004FF4E1314160002181600C22C160C0E908
:1038D00004128161C161FFF74BFC002803D0BDE8F1
:1038E0001040FCF7C2BD10BD0010014024030020B1
:1038F0000C4810B50A4901604FF4E13141600021E4
:1039000081600C22C160C0E904128161C161FFF7CE
:103910002FFC002803D0BDE81040FCF7A6BD10BD69
:10392000004800406C0300200C4810B50A490160B3
:103930004FF4E1314160002181600C22C160C0E997
:1039400004128161C161FFF713FC002803D0BDE8B8
:103950001040FCF78ABD10BD00140140B4030020E4
:1039600010B500220F49104801F093F808B1FCF798
:103970007CFD0E490C4801F0A4FA08B1FCF775FD76
:103980000B49094800F05EFE08B1FCF76EFD0648E1
:1039900001F01AFB002803D0BDE81040FCF765BD1C
:1039A00010BD000004000020FC030020D000002017
:1039B00054000020FEE7FEE70148FDF7DFBC0000F1
:1039C000F81A00202DE9F04103680D4604461E6CEC
:1039D00003EB4511D1F8080B94F806E04FF40047CB
:1039E0004FF0200C04F29C42BEF1010F09D0DFF829
:1039F00098E0764539D1020432D500BFC1F8087B82
:103A00003FE0224B5FEA007E04D59E4239D9000494
:103A1000F4D436E05FEA806E02D5C1F808CB30E01E
:103A200010F0280F2DD19E4201D90004E6D405EBF9
:103A3000C50004EB8000D1F8101BD0F87432C1F33C
:103A40001201591AC0F8681200F51570ADB9036972
:103A50001BB1C2681144C1600FE0012120680AE077
:103A600080060AD5C1F808CB07E035B9D4F864025E
:103A700018B90021184601F021FEE9B22046FDF7F1
:103A800067FB0020BDE8F0810A31544F0A30544FE3
:103A90002DE9F84F0E4601EBC60100EB810481468B
:103AA0000568D4E909101434884202D90120BDE820
:103AB000F88F081AA168814200D20846C01C870806
:103AC00005EB46181BE000BFA0EB010AA0685045BB
:103AD00000D282460AF10300870899F80600009098
:103AE0001FFA8AF3F2B22846E16802F021F9E16890
:103AF00001EB0A00E060616901EB0A006061D8F83F
:103B0000180980B2B84205D3D4E90401814201D238
:103B10000028D9D1D4E90401884208D806F00F0161
:103B200001208840D5F834188143C5F834180020A6
:103B3000BDE7704770470178407841EA0020704740
:103B4000FDF7B6B930B593B030216846FCF703FCF9
:103B500014210CA8FCF7FFFB1D480025016841F06B
:103B600080510160006800F0805011901948016890
:103B700041F4804101600068022400F4804011900B
:103B800001200090000401908001CDE9064006204C
:103B90000890A820CDE9090407200B906846FEF79D
:103BA00063F908B172B6FEE70CA90F2081E8310075
:103BB0004FF4A0500F904FF48050109005210CA8A6
:103BC000FDF7D4FF002801D072B6FEE713B030BD78
:103BD00040380240007000400248016841F4700122
:103BE0000160704788ED00E0F0B50268294C2A4D6D
:103BF0002A4E2B4F2B4B4FF0804CA04209D06045F2
:103C000007D0A84205D0B04203D0B84201D09842B4
:103C100004D122F0700E4A6842EA0E02A0421BD084
:103C2000604519D0A84217D0B04215D0B84213D081
:103C3000984211D01C4DA8420ED01C4DA8420BD06A
:103C40001B4DA84208D01B4DA84205D01A4DA842D2
:103C500002D01A4DA84203D122F44075CA682A4303
:103C60004D6922F080022A4302608A68C2620A68B3
:103C70008262A04201D0984201D109690163012109
:103C800041610169C90703D0016921F001010161A6
:103C9000F0BD0000000001400004004000080040AA
:103CA000000C00400004014000400140004401407D
:103CB0000048014000180040001C00400020004067
:103CC00070B50446224816460D46844225D0B4F10C
:103CD000804F22D01F4884421FD01F4884421CD0EE
:103CE0001E48844219D01E48844216D01D48844282
:103CF00013D01D48844210D01C4884420DD01C486B
:103D000084420AD01B48844207D01B48844204D016
:103D100041F69F5119A002F030F865B1042D0AD088
:103D2000082D08D00C2D06D03C2D04D04FF4ED51B9
:103D300012A002F022F805F01F010120226A88403B
:103D400082432262206A8E403043206270BD0000B0
:103D5000000001400004004000080040000C00404A
:103D6000000401400040014000440140004801407F
:103D700000180040001C0040002000402E2E2F4460
:103D80007269766572732F53544D333246347878A6
:103D90005F48414C5F4472697665722F5372632F9E
:103DA00073746D3332663478785F68616C5F746900
:103DB0006D2E63002DE9F0470446006A0D46216A26
:103DC00021F0010121626768A169AE6821F07302E8
:103DD000296820F00200DFF880900643DFF87CA01D
:103DE00041EA02084C4501D054450ED1E86830B193
:103DF000082804D041F6D02119A001F0BEFFE868E0
:103E000026F00801084320F004064C4501D0544533
:103E100019D1A869B0F5007F05D020B141F6DD21A8
:103E20000FA001F0AAFF6869B0F5807F05D020B12E
:103E300041F6DE210AA001F0A0FF27F44071686975
:103E4000AF69084307436760C4F818806868606317
:103E50002662BDE8F0870000000001400004014038
:103E60002E2E2F447269766572732F53544D333260
:103E7000463478785F48414C5F4472697665722FAA
:103E80005372632F73746D3332663478785F686170
:103E90006C5F74696D2E63002DE9F0470446006A7B
:103EA0000D46216A21F0100121626768A1692A6824
:103EB00021F4E64141EA0228A968DFF8889020F061
:103EC0002000DFF884A040EA01164C4501D054459B
:103ED0000FD1E86830B1082804D041F61C311BA08E
:103EE00001F04BFFE96826F0800040EA011020F065
:103EF00040064C4501D054451BD1A869B0F5007F60
:103F000005D020B141F6293110A001F036FF6869D3
:103F1000B0F5807F05D020B141F62A310BA001F029
:103F20002CFF696927F4406040EA8100A96940EAF2
:103F300081076760C4F818806868A0632662BDE8DE
:103F4000F087000000000140000401402E2E2F44A5
:103F50007269766572732F53544D333246347878D4
:103F60005F48414C5F4472697665722F5372632FCC
:103F700073746D3332663478785F68616C5F74692E
:103F80006D2E63002DE9F0470446006A0D46216A54
:103F900021F4807121626768E169DFF8949021F073
:103FA0007302296820F4007041EA0208A968DFF86A
:103FB00084A040EA01264C4501D054450FD1E86861
:103FC00030B1082804D041F667311BA001F0D5FEBE
:103FD000E96826F4006040EA012020F480664C4540
:103FE00001D054451BD1A869B0F5007F05D020B1A0
:103FF00041F6743110A001F0C0FE6869B0F5807F11
:1040000005D020B141F675310BA001F0B6FE69690B
:1040100027F4405040EA0110A96940EA011767609F
:10402000C4F81C806868E0632662BDE8F087000081
:1040300000000140000401402E2E2F447269766575
:1040400072732F53544D3332463478785F48414C65
:104050005F4472697665722F5372632F73746D3388
:1040600032663478785F68616C5F74696D2E6300C6
:104070002DE9F0410446006A0D46216A21F4805181
:1040800021626668E1692A6821F4E64141EA022872
:10409000A96820F4005040EA01370E48844202D05B
:1040A0000D4884420ED16869B0F5807F05D020B1FB
:1040B00041F6B43109A001F060FE696926F4804040
:1040C00040EA81166660C4F81C8068682064276234
:1040D000BDE8F08100000140000401402E2E2F4475
:1040E0007269766572732F53544D33324634787843
:1040F0005F48414C5F4472697665722F5372632F3B
:1041000073746D3332663478785F68616C5F74699C
:104110006D2E630070B5044640685449884204D946
:1041200040F6756152A001F028FEE06838B1B0F5A4
:10413000005F04D040F676614DA001F01EFE2069BC
:1041400050B1B0F5806F07D0B0F5C06F04D040F625
:10415000776147A001F011FE60694FF6F3710842E4
:1041600000D120B940F6786141A001F006FE206838
:104170000169E26821F44051114301612169A0689D
:10418000E26908436169114322680843D16849F232
:104190000C6399430143D16020684169A26921F40D
:1041A00040711143416141492068884202D0404931
:1041B000884202D1FDF716FE01E0FDF703FEE26939
:1041C0000023192164253226B2F5004F626828D0F9
:1041D000A0FB0101930F9200FCF746F80146B0FBEB
:1041E000F5F06FF01802504301EB800006EB001071
:1041F000B0FBF5F000F0F002B1FBF5F002EB0012BD
:10420000B1FBF5F06FF01803584301EB800006EBAB
:104210000010B0FBF5F000F00F002168104488603A
:1042200070BDA0FB010192185B41FCF71DF801462F
:10423000B0FBF5F00201B1FBF5F06FF01803584345
:1042400001EB800006EBC000B0FBF5F000F0F800D9
:1042500002EB4002B1FBF5F0584301EB800006EBA6
:10426000C000B0FBF5F000F00700D6E7A037A000D3
:104270002E2E2F447269766572732F53544D33324C
:10428000463478785F48414C5F4472697665722F96
:104290005372632F73746D3332663478785F68615C
:1042A0006C5F756172742E630000000000100140A5
:1042B000001401402DE9F0410C46D0F8D412D0F89A
:1042C000C82200EB8101D1F8C01229B304F00F0617
:1042D00006EB860300EB83050027AB694BB106EBC9
:1042E000C60602EB8602D269B3FBF2F602FB163277
:1042F000A2B1C1F81472D0F8D42200EB8200D0F839
:10430000C40203692BB1D1F80802224601F50471F9
:1043100098470020BDE8F0810320FBE700231A4600
:104320002146AF6100F0AEFDF3E770B50546D0F869
:10433000D40205EB8000D0F8C04294B1284600F0CA
:1043400080FCC4F80C02D5F8D412D4F8040205EBB2
:104350008101D1F8C412CA6804F5037190470020A6
:1043600070BD032070BD000070B5224D0446297851
:1043700000F0ABFB2878002600F00F0000EB800077
:1043800004EB800086846978204600F09EFB687804
:1043900000F00F0000EB800004EB8000A0F86461E7
:1043A000A978204600F091FBA87800F00F0000EB00
:1043B000800004EB80008684C684D4F8D40204EB29
:1043C0008000D0F8C01299B1D0F8C402406880478C
:1043D000D4F8D40204EB8000D0F8C00200F075FFDE
:1043E000D4F8D40204EB8000C0F8C062C4F8BC6208
:1043F000002070BD7C00002010B5D0F8D41200EB76
:104400008100D0F8C04284B1D0F8C41259B194F8F8
:104410000002FF2807D08B6894F8012221469847B4
:10442000FF2084F80002002010BD032010BD000012
:104430000A210180004870478000002070B50646C0
:1044400082210C4800F0D1FA05460121094800F00C
:10445000CCFA04468121074800F0C7FA0DB11021BB
:10446000A971402104B1A18000B181804320308036
:10447000004870BD8C00002070B5064682210D48B2
:1044800000F0B3FA054601210A4800F0AEFA0446EE
:104490008121084800F0A9FA0DB11021A9714FF44B
:1044A000007104B1A18000B18180432030800148B7
:1044B00070BD00008C00002070B5064682210C48BB
:1044C00000F093FA05460121094800F08EFA0446EF
:1044D0008121074800F089FA0DB11021A97140210E
:1044E00004B1A18000B1818043203080004870BDBC
:1044F0008C0000202DE9F04704464FF4077528464C
:1045000000F0E4FE06004FF0000863D02946FBF7F8
:1045100022FFD4F8D4023C4D04EB80004FF0100988
:10452000C0F8C062C4F8BC62207C4FF4007A012756
:10453000F0B3402302222978204600F0EEFB2878D1
:10454000402300F00F0000EB800004EB8000878424
:1045500002226978204600F0E0FB6878082300F02A
:104560000F0000EB800004EB80000322A0F86471D0
:10457000A978204601F00F0101EB810104EB8101D4
:10458000A1F82690A97800F0C8FBA87800F00F00E9
:1045900000EB800004EB80008784C6F80482D4F826
:1045A000D402474604EB8000D0F8C402006800E063
:1045B00018E006F5017680473761776132687AB195
:1045C000207CF8B140236978204600F0B2FB00203F
:1045D000BDE8F087D4F8D41204EB8101C1F8C082A1
:1045E0000220F5E7534602222978204600F095FB89
:1045F0002878534600F00F0000EB800004EB8000A9
:104600008784A5E75346DEE77C00002010B5D0F88C
:10461000D41200EB8101D1F8C01259B1027C084CD0
:10462000002AD1F8042207D04023617800F081FBF2
:10463000002010BD032010BD4FF40073F5E700000B
:104640007C00002039B1D0F8D42200EB8200C0F801
:10465000C4120020704703207047D0F8D42200EB2A
:104660008200D0F8C00218B1C0F8041200207047D0
:1046700003207047D0F8D43200EB8300D0F8C0029A
:1046800028B1C0F81022C0F808120020704703209B
:1046900070472DE9FC410646D0F8D4020C4606EBE3
:1046A00080000021D0F8C0728DF80010ADF8041021
:1046B0000D4637B1217811F060022FD0202A4BD15E
:1046C00002E00320BDE8FC81E288F2B109060DD5C5
:1046D000D0F8C40263783946D0F808C01846E047DD
:1046E000E288072A00D9072239462DE0607887F84A
:1046F0000002E088402800D34020C2B287F801229F
:104700003946304600F058F82BE0D0F8C402637800
:104710000022866821461846B04722E0607830B112
:1047200001281ED00A2809D00B2815D110E096F8D0
:104730009C02032810D1022201A905E096F89C02F0
:10474000032809D101226946304600F04FF808E0FD
:1047500096F89C02032804D02146304600F021F848
:1047600003252846AEE710B5D0F8B82200245268D9
:10477000904700B10324204610BD00207047002060
:104780007047134610B50A46002100F0D2FA002007
:1047900010BD134610B50A46002100F073FB00203F
:1047A00010BD10B50446802100F04DFB2046BDE849
:1047B0001040002100F047BB10B50323C0F894322D
:1047C000C0F858211346C0F85C210A46002100F0C9
:1047D000B0FA002010BD10B50521C0F894120023D6
:1047E0001A46194600F0A5FA002010BD10B50223A4
:1047F000C0F8943282611346C2610A46002100F07B
:1048000041FB002010BD10B50421C0F89412002314
:104810001A46194600F036FB002010BD10B50A46B6
:10482000024903A000F005F9004810BDD806002099
:1048300043444320436F6E6669670000122008807E
:10484000004870472400002010B50A46024903A022
:1048500000F0EFF8004810BDD80600204344432084
:10486000496E74657266616365000000042008800B
:10487000004870472000002010B50A46024903A0F6
:1048800000F0D7F8004810BDD806002053544D69F9
:1048900063726F656C656374726F6E696373000039
:1048A00010B50A46024903A000F0C3F8004810BD45
:1048B000D806002053544D33322056697274756106
:1048C0006C20436F6D506F727400000010B51A2099
:1048D00008800A480168001D0468001D0068081867
:1048E00009D008220649FEF775FD0549042210315A
:1048F0002046FEF76FFD0248801E10BD107AFF1F94
:104900003A000020F8B504460020ADF800004888C1
:104910000D46010A08295FD2DFE801F05E0409179D
:104920005E5E3C45D4F8B412207C0A6819E0207C15
:1049300002260028D4F8B80205D0C16A6846884724
:104940000146467039E0816AF8E7C0B2062843D2D2
:10495000DFE800F0030A1014181CD4F8B40242680F
:1049600005E0694690471CE0D4F8B402826892B32F
:10497000207CF6E7D4F8B402C268F8E7D4F8B402B1
:104980000269F4E7D4F8B4024269F0E7D4F8B4025B
:104990008269ECE7207CF0B9D4F8B802416B684634
:1049A0008847014609E0207CA8B9D4F8B802016B19
:1049B00068468847014607204870EA888AB1BDF8F2
:1049C000000040B1824200D90246ADF800202046E6
:1049D000FFF70CFFF8BDFFE729462046FFF7E1FE91
:1049E000F8E72046FFF70FFFF4E778B50E46428858
:1049F0000178002504468A4212D9ADF800100AE079
:104A0000694600F00FF84178052904D18178054600
:104A1000B14205D000256188BDF800209142EFD851
:104A2000284678BD0A8803781A440A800178084429
:104A3000704770B5002300281ED00025044602E010
:104A40006D1CEDB2641C2678002EF9D1022404EB13
:104A5000450414801278CA545B1C0322CA540024F3
:104A60005B1C06E0CA545B1CDAB28C54521CD3B2F5
:104A7000401C0278002AF5D170BD01004FF0000003
:104A800004D0012901D0022901D003207047012060
:104A9000704778B10023C0F8B832C0F8C432C0F80B
:104AA000D03209B1C0F8B412012180F89C12027012
:104AB00000F0CCB80320704710B5D0F8C802FCF75E
:104AC00089FBBDE81040FFF7D8BF10B5D0F8C80289
:104AD000FCF75BFBBDE81040FFF7CFBF2DE9F041CD
:104AE00017460446002521B194F89C02032842D0C1
:104AF0004CE0D4F8941204F11400022935D1D0E925
:104B000002639E4206D9F21A826039462046FFF7B8
:104B100040FE0FE0B34214D14068984211D3D4F85C
:104B2000981288420DD2002211462046FFF731FE2E
:104B3000C4F8985200231A461946204600F0F9F8A6
:104B400013E094F89C02032808D1D4F8B802C16895
:104B500021B1C4F8D452C16820468847802120463C
:104B600000F071F92046FFF736FE94F8A00268B114
:104B700084F8A0520AE0D4F8B802426932B1C4F80D
:104B8000D452426920469047002800D10020BDE859
:104B9000F08170B513460446002221B194F89C02BE
:104BA000032830D03AE0D4F8941204F5AA7003290F
:104BB00034D1D0E902518D420AD96A1A826008467E
:104BC000824200D3024619462046FFF7DAFD25E06F
:104BD00094F8AA0210F01F0003D0012802D0022886
:104BE00000D0002294F89C02032808D1D4F8B8021F
:104BF000016921B1C4F8D4220169204688472046C2
:104C0000FFF701FE0AE0D4F8B802836933B1C4F8B3
:104C1000D422826920469047002800D1002070BD30
:104C20000020704710B50024012180F89C12D0F8B4
:104C3000B82222B152680179904700B1032420467E
:104C400010BDD0F8C802FCF7F2BA000010B5017828
:104C500039BB15490222C1F8E004C0F8C8124FF070
:104C6000A040086004200871CA71002088714A724F
:104C70008872C87208738873C8730846FCF734FEDC
:104C800008B1FBF7F2FB80210748FCF72EFA40221F
:104C900000210548FCF72DFA802201210248FCF78B
:104CA00028FA002010BD0000F81A00200A0601F0C2
:104CB0007F01D0F8C80201EBC10100EB810001D5F2
:104CC000807D704790F85602704710B5D0F8D42216
:104CD00000EB8202D2F8B82222B190F89C32032B6A
:104CE00002D004E0032010BD126A02B190470020F8
:104CF00010BD10B5D0F8D42200EB8202D2F8B82251
:104D000022B190F89C32032B02D004E0032010BDA6
:104D1000526A02B19047002010BD10B51C461346E0
:104D2000D0F8C8022246FCF78BFABDE81040FFF726
:104D3000A4BE10B5D0F8C802FCF7B1FABDE8104027
:104D4000FFF79BBE2DE9F04100260125044680F8BF
:104D50009C52C4F894626660C4F8A46280F8A062B1
:104D6000D0F8B80230B1426822B100212046904705
:104D700000B103260022402311462046FFF7CDFF55
:104D80004027A4F864513B46002280212046C4F805
:104D90006071FFF7C2FFA58430462762BDE8F0814D
:104DA00090F89C12042903D190F89D1280F89C126F
:104DB0000020704710B590F89C12032905D1D0F857
:104DC000B81211B1C96901B18847002010BD017442
:104DD0000020704710B5D0F8C802FCF773FEBDE89C
:104DE0001040FFF74ABE70B5044600F2AA200546FF
:104DF00000F051F80120C4F89402B4F8B002C4F8ED
:104E0000980294F8AA0210F01F010AD001290ED0CE
:104E1000022912D000F080012046BDE8704000F069
:104E200012B829462046BDE8704000F0CFB82946A8
:104E30002046BDE8704000F00FBA29462046BDE884
:104E4000704000F059B910B5D0F8C802FCF743FA29
:104E5000BDE81040FFF711BE10B5D0F8C802FCF74E
:104E60004BFEBDE81040FFF708BE90F89C120429E5
:104E700003D090F89C1280F89D12042180F89C12B7
:104E80000020704710B5D0F8C802FCF75DFABDE805
:104E90001040FFF7F2BD70B5054611F8010B287000
:104EA000087868704C1C2046FEF745FE6880A41CFC
:104EB0002046FEF740FEA880A01CFEF73CFEE880DE
:104EC00070BD38B504460020ADF80000A1B1C4F8AB
:104ED000B812D4F8D40204EB8000D0F8B802C16A4A
:104EE00019B168468847C4F8D002D4F8D802401CEB
:104EF000C4F8D802002038BD032038BD0246002087
:104F0000D2F8B832002B02D01B6810461847704701
:104F10002DE9F04188462B4E8978002504463170F2
:104F2000012906D941462046FFF73BFC0320BDE896
:104F3000F08194F89C02022702280CD003281DD08F
:104F400041462046FFF72DFC31782046FFF70BFC49
:104F500003252846EBE789B320466160FFF7CEFFC3
:104F6000050004D041462046FFF71BFC1DE020460B
:104F7000FFF749FC032084F89C02EAE7C1B16068AE
:104F800088421BD0C1B22046FFF7EDFB31782046A6
:104F90006160FFF7B3FF050010D041462046FFF7E0
:104FA00000FC21792046FFF7DEFB84F89C72D0E7F5
:104FB00084F89C7220466160FFF7D5FB2046FFF71E
:104FC00022FCC6E778000020FFF746BF2DE9F0413C
:104FD0000A78002512F060020CD0202A01D0402A65
:104FE0007DD1D0F8D42200EB8202D2F8B8229268A8
:104FF000904731E04B78002201260A2B6FD2DFE880
:1050000003F041666E586E08056E2D29FFF77AFC95
:1050100067E004468888D8B9C888C8B94888802815
:1050200016D200F07F0794F89C02032810D084F871
:105030009E7239462046FFF7CDFE2046FFF7E3FB80
:105040001FB1022084F89C024BE084F89C6248E087
:10505000204644E0FFF75CFF054642E0CB88012B89
:105060003DD190F89C32012B04D0022B02D0032BAF
:1050700035D104E08260012200F1080116E001222E
:10508000011D13E090F89C22012A03D0022A01D0CE
:10509000032A24D1CA88022A21D1C660D0F8A412DA
:1050A00009B10321C160022200F10C01FFF79EFB50
:1050B00017E04A88012A02D0022A03D00FE0C0F884
:1050C000A46216E08988090A80F8A01211E090F81D
:1050D0009C32012B08D0022B06D0032B04D0FFF703
:1050E00060FB2846BDE8F08149880129F9D1C0F864
:1050F000A422FFF788FBF4E72DE9F0410546087884
:105100000C790E464FF0000810F060000BD02028FC
:1051100001D040286AD121462846FFF72EFBFF2800
:1051200000D0D8B395E07078C8B3012824D0032804
:105130005CD195F89C02022802D0032856D10CE0DD
:10514000002C53D0802C51D021462846FFF77BFEFF
:1051500080212846FFF777FE7BE0708840B93CB19C
:10516000802C05D0C88818B921462846FFF76BFE69
:105170002846FFF748FB6CE095F89C020228DFD038
:10518000032863D1708880BB600603D0214628467F
:10519000FFF792FC2846FFF736FBBCE700E00AE089
:1051A000C5F8D402D5F8B8028268F2B13146284673
:1051B000904780464DE095F89C020027022802D0D7
:1051C000032843D113E00CB1802C3FD1200604F01A
:1051D0007F0000EB800005EB800101D5143101E078
:1051E00001F5AA7102220F602CE032E02EE02006C9
:1051F00004F00F0000EB800005EB800009D5808CE7
:1052000020B304F07F0000EB800005EB800614362D
:105210000AE0B0F86401C8B104F07F0000EB800040
:1052200005EB800606F5AA764CB1802C07D0214606
:105230002846FFF73BFD10B10120306000E03760E9
:10524000022231462846FFF7D1FA02E02846FFF74E
:10525000A8FA4046BDE8F08170B5054608780024FC
:105260000E4610F0600003D0202801D0402827D13E
:1052700095F89C02012803D0022801D003281FD1F1
:10528000B088C1B201291AD8C1B22846FFF777FA0F
:10529000FF280CD058B9D5F8B8128A683AB1C5F8C9
:1052A000D4028A68314628469047044600E0032429
:1052B000F088204307D12846FFF7A5FA03E03146DE
:1052C0002846FFF76EFA204670BD704700487047C9
:1052D000D818002070B50A78012302F00F054E7827
:1052E000AB401B4CD0F81C58012E17D045EA0343A5
:1052F000C0F81C3800EB4210D0F8002B12040BD47D
:10530000D0F8002B0B890979C3F30A031A4344EA46
:1053100081410A43C0F8002B002070BD9BB21D43A1
:10532000C0F81C5800EB4210D0F800391B04F3D42D
:10533000D0F800390D890979C5F30A0589042B4392
:1053400041EA82510B432343C0F80039E4E70000EF
:1053500000800010D0F800196FF30A01C0F800199E
:10536000D0F8041841F48071C0F804180020704788
:1053700070B50D460446C2F3072104981E46012964
:105380001BD0E06840F04000E060204600F032F8BA
:10539000C6F307210029A16B26D021F48031A16337
:1053A000C5F30741012907D1A16841F00601A160B9
:1053B000A16841F02001A16070BDA16B21F4803192
:1053C000A163E1680A4A1140E160E16821F44011FB
:1053D000E160C0B2012803D1E06840F48010E060D1
:1053E000204600F007F8DBE741F48031D7E7000002
:1053F000BFFFBDFF08B500214FF070620091009B18
:105400005B1C009393420CD80369002BF7DA0091E0
:10541000016941F0010101610099491C009191422B
:1054200001D9032008BD0169C907F5D1002008BDD5
:1054300030B54C780A78012300EB4212012C2CD0B5
:10544000D2F8004B002C0BDAD2F8004B44F0006489
:10545000C2F8004BD2F8004B44F08044C2F8004B35
:10546000D0F83C580C7804F00F0403FA04F425EA51
:105470000444C0F83C48D0F81C48097801F00F01FA
:105480008B4024EA0341C0F81C18D2F8000B1949DC
:105490000840C2F8000B002030BDD2F80049002CB3
:1054A0000BDAD2F8004944F00064C2F80049D2F89F
:1054B000004944F08044C2F80049D0F83C480D78D7
:1054C00005F00F0503FA05F5ADB2AC43C0F83C4852
:1054D000D0F81C48097801F00F018B4099B28C4339
:1054E000C0F81C48D2F8000903490840C2F8000976
:1054F000D1E700000078F3EF007833ECD0F8001E1D
:1055000021F00301C0F8001ED0F8041821F00201B8
:10551000C0F8041800207047D0F8001E21F00301E5
:10552000C0F8001ED0F8041841F00201C0F80418B9
:10553000002070472DE9F04F00250E46044617461F
:105540002846294604EB8002C2F80411401C0F28AB
:10555000F8D3C3F307405FEA0009204616D0806BFA
:1055600020F40012A263A06B40F40022A26308465C
:1055700088462146C4F8000EC7F30720012817D03B
:105580000846D1F8001841F0030118E0D0F80408EB
:1055900040F00202C4F80428A06B40F40012A26399
:1055A000A06B20F40022A263A06B20F48022DDE730
:1055B000300E0846D1F8001801D041F00101C0F8C2
:1055C0000018102100F087FA00B10125204600F0F4
:1055D00066FA00B101254046C4F81088C4F8148862
:1055E000C4F81C8800214FF0006B4FF0904E4FF62E
:1055F0007F3AF2B215E000BF04EB4113D3F800C9C3
:10560000BCF1000F06DA11B1C3F800E904E0C4F8F8
:1056100000B901E0C3F80009C3F81009C3F808A9EC
:10562000491C8A42E8D8002115E000BF04EB411371
:10563000D3F800CBBCF1000F06DA11B1C3F800EBD0
:1056400004E0C4F800BB01E0C3F8000BC3F8100B82
:10565000C3F808AB491C8A42E8D8D4F8101821F4E2
:105660008072C4F81028A0616FF080406061C6F3BA
:10567000074018B9A06940F01000A061A0690A496C
:105680000843A061C7F3074018B1A06940F00800C3
:10569000A061B9F1010F03D1A06904490843A061D9
:1056A0002846BDE8F08F000000383C800400004030
:1056B000816821F0010181600020704710B5036C02
:1056C000134CA34203D9D0F8003B002B1EDB002370
:1056D000C0F8103BD0F8103B43F40023C0F8103B57
:1056E000D0F8103B43F01803C0F8103BD0F8103B43
:1056F00043F0C043C0F8103B012907D1C0F8142B78
:10570000D0F8001B41F08021C0F8001B002010BD24
:105710000A30544F4A780B78012A00EB43100BD023
:10572000D0F8002B22F40012C0F8002B09790329CD
:1057300014D0022912D017E0D0F8002922F4001268
:10574000C0F800290979032901D002290CD1D0F829
:10575000001941F08051C0F8001905E0D0F8001B95
:1057600041F08051C0F8001B002070470A784B7848
:10577000D1B200EB4110012B12D0D0F8001B002950
:1057800006DB2AB1D0F8001B21F08041C0F8001BD5
:10579000D0F8001B41F40011C0F8001B0020704736
:1057A000D0F80019002906DB2AB1D0F8001921F041
:1057B0008041C0F80019D0F8001941F40011C0F878
:1057C0000019EBE7F8B50C784F78894DE3B26FF02C
:1057D000604600EB4313012F29D0D3F8107B6FF301
:1057E0001207C3F8107BD3F8107B2F40C3F8107B4F
:1057F000002C0C697DD0002C7CD08D682C44641E5C
:10580000B4FBF5F4A4B265430D62D3F8105B06EA6D
:10581000C4442543C3F8105BD3F8104B0D6AC5F39D
:1058200012052C43C3F8104B012A7DD0C7E00F6945
:1058300027B3D3F810796FF31207C3F81079D3F8B0
:1058400010792F40C3F8107944B30F698D682F4445
:105850007F1EB7FBF5F506EAC545D3F81069354359
:10586000C3F81059D3F810590E69C6F31206354320
:10587000C3F810590D79012D1CD027E0D3F8106919
:105880002E40C3F81069D3F8105945F40025C3F829
:105890001059D3F810596FF3120515E00E698D6891
:1058A000AE4200D90D61D0F8105945F40026C0F879
:1058B0001069D7E7D3F8105925F0C045C3F810593F
:1058C000D3F8105945F00055C3F81059012A1AD0E1
:1058D00000EB4413D3F8004944F00444C3F80049F2
:1058E0000C79012C32D00A697AB3D0F834280978BF
:1058F00001E040E052E001F00F03012199400A432A
:10590000C0F8342871E0CA691AB100EB4413C3F837
:1059100014290979012910D1D0F80818C90500EB1C
:105920004411D1F8002900E045E002D442F00052D1
:1059300001E042F08052C1F8002900EB4410D0F899
:10594000001941F00441C0F800194EE0D0F80848B1
:10595000E405D3F8004902D444F0005401E044F0D7
:105960008054C3F8004900920A8A93B20A78C96841
:1059700000F0DEF939E00CB18C680C618C680C62C7
:10598000D0F8105BC4F312042543C0F8105BD0F8C4
:10599000104B44F40024C0F8104B45E7D3F8104BEB
:1059A0008D68C5F312052C43C3F8104BD3F8104B88
:1059B00044F4002436E7CA680AB1C3F8142B097905
:1059C00001290CD1D0F80808C005D3F8000B02D487
:1059D00040F0005001E040F08050C3F8000BD3F8D5
:1059E000000B40F00440C3F8000B0020F8BD00009D
:1059F000FFFF07E038B50022009213464D780A7881
:105A000042F2107400EB4212012D19D0D2F8005B63
:105A1000002D3CDAD2F8005B45F00065C2F8005B6F
:105A20000A7800EB4212D2F8005B45F08045C2F8DC
:105A3000005B009A521C0092A24221D9012326E069
:105A4000D2F80059002D22DAD2F8005945F000654D
:105A5000C2F800590A7800EB4212D2F8005945F01A
:105A60008045C2F80059009A521C0092A242E5D823
:105A70000A7800EB4212D2F80029002AF3DB06E094
:105A80000A7800EB4212D2F8002B002AD1DB18462C
:105A900038BD816841F0010181600020704708B580
:105AA00000214FF070620091009B5B1C00939342B9
:105AB0000AD80369002BF7DA0091102101610099DF
:105AC000491C0091914201D9032008BD0169C90612
:105AD000F5D4002008BD18B500224FF07063009285
