:020000040800F2
:1000000050090020790200082B1B0008ED19000898
:10001000291B00087F030008DB1B0008000000000C
:100020000000000000000000000000002F1B00087E
:1000300081030008000000002D1B0008311B000890
:10004000930200089302000893020008930200083C
:10005000930200089302000893020008930200082C
:10006000930200089302000893020008930200081C
:10007000930200089302000893020008930200080C
:1000800093020008930200089302000893020008FC
:1000900093020008930200089302000893020008EC
:1000A00093020008930200089302000893020008DC
:1000B00093020008930200089302000893020008CC
:1000C00093020008930200089302000893020008BC
:1000D00093020008930200089302000893020008AC
:1000E000930200089302000893020008930200089C
:1000F000930200089302000893020008930200088C
:10010000930200089302000893020008930200087B
:10011000930200089302000893020008930200086B
:10012000930200089302000893020008930200085B
:10013000930200089302000893020008930200084B
:10014000930200089302000893020008930200083B
:10015000930200089302000893020008930200082B
:10016000930200089302000893020008930200081B
:10017000930200089302000893020008930200080B
:1001800093020008930200089302000893020008FB
:100190009302000800000000930200089302000888
:1001A00093020008930200089302000893020008DB
:1001B00093020008930200089302000893020008CB
:1001C00093020008930200089302000893020008BB
:1001D000930200089302000800F002F800F03CF8D7
:1001E0000AA090E8000C82448344AAF10107DA4592
:1001F00001D100F031F8AFF2090EBAE80F0013F0A8
:10020000010F18BFFB1A43F001031847681A0000DA
:10021000881A0000103A24BF78C878C1FAD852076B
:1002200024BF30C830C144BF04680C607047000070
:100230000023002400250026103A28BF78C1FBD8EF
:10024000520728BF30C148BF0B6070471FB501F08F
:1002500003FD1FBD10B510BD00F058F81146FFF7A3
:10026000F5FF01F0CDFC00F076F803B4FFF7F2FFE4
:1002700003BC00F07DF800000948804709480047AA
:10028000FEE7FEE7FEE7FEE7FEE7FEE7FEE7FEE746
:10029000FEE7FEE704480549054A064B70470000A3
:1002A000A91B0008D90100085003002050090020B4
:1002B00050050020500500204FF0000200B5134605
:1002C00094469646203922BFA0E80C50A0E80C5076
:1002D000B1F12001BFF4F7AF090728BFA0E80C5027
:1002E00048BF0CC05DF804EB890028BF40F8042B20
:1002F00008BF704748BF20F8022B11F0804F18BF8D
:1003000000F8012B7047704770477047754600F042
:100310002BF8AE4605006946534620F00700854697
:1003200018B020B5FFF7B6FFBDE820404FF000063B
:100330004FF000074FF000084FF0000B21F00701CD
:10034000AC46ACE8C009ACE8C009ACE8C009ACE810
:10035000C0098D46704710B50446AFF300802046B3
:10036000BDE81040FFF781BF00487047EC02002055
:1003700001491820ABBEFEE7260002007047FEE7E9
:10038000704772B6FEE7000070B5044600F0A2F9AF
:100390000546601C02D004484068044400F09AF905
:1003A000401BA042FAD370BD000000202DE9F84F99
:1003B00000274FF0904ADFF85482DFF854B20D4620
:1003C0000446504513D0444511D05C450FD09148A8
:1003D00084420CD09048844209D09048844206D090
:1003E0008F48844203D0A9218EA001F007FC286821
:1003F0000104090C01D0000C03D0AA2189A001F04E
:10040000FDFB68684FF0030900281FD00128FCD0CD
:100410001128FAD00228F8D01228F6D0B0F5881F9B
:10042000F3D0B0F5041FF0D0B0F5441FEDD0B0F517
:10043000901FEAD0B0F5081FE7D0B0F5481FE4D010
:100440000328E2D0AB2177A001F0D8FBD6E0012051
:10045000B840009006407CD0287900F003000128C5
:1004600001D002281DD1E86848B1012807D0022830
:1004700005D0032803D0BB216AA001F0BFFBA1680F
:10048000780009FA00F29143EA6882400A43A260C8
:100490006068009988432979C1F30011B94001438C
:1004A00061602879C043800712D0A86838B101285C
:1004B00005D0022803D0CC215AA001F09FFBE268AE
:1004C000780009FA00F18A43A96881401143E1608C
:1004D000287900F00300022829D1544513D044455F
:1004E00011D05C450FD04B4884420CD04A4884421E
:1004F00009D04A48844206D04948844203D0D921D1
:1005000048A001F07BFB28690F2803D9DA2145A018
:1005100001F074FBF80804EB8000026A7907CB0E47
:100520000F2199408A43296999401143016221684A
:10053000780009FA00F291432A7902F0030282401E
:100540000A432260686810F4403F56D04448016E68
:1005500000E052E041F001010166006E27F0030166
:1005600000F0010000903F4801448868BA07130F6B
:100570000F229A409043544501D1002217E0444590
:1005800001D1012213E05C4501D102220FE0214A92
:10059000944201D103220AE01F4A944201D104226D
:1005A00005E01E4A944201D1052200E006229A404D
:1005B00002438A602C4A10686968B043C90200D5BA
:1005C00030431060284A121D10686968B0438902E0
:1005D00000D5304310602449091F08686A68B04399
:1005E000920300D5304308601F49083908686A68DB
:1005F000B043D20300D5304308607F1C2E6836FA22
:1006000007F07FF424AFBDE8F88F00000004004835
:1006100000080048000C0048001000480014004882
:10062000001800482E2E2F447269766572732F537E
:10063000544D3332473478785F48414C5F44726997
:100640007665722F5372632F73746D33326734780B
:10065000785F68616C5F6770696F2E6300000000EF
:1006600000100240000001400804014070B515462A
:100670000C00064604D14FF4CD7107A001F0BEFA7C
:1006800045B1012D04D040F29B1103A001F0B6FA50
:10069000B46170BDB46270BD2E2E2F447269766550
:1006A00072732F53544D3332473478785F48414C3E
:1006B0005F4472697665722F5372632F73746D3362
:1006C00032673478785F68616C5F6770696F2E633A
:1006D0000000000001488068704700000000002012
:1006E0000248816842681144816070470000002020
:1006F00010B50024032000F095F80F2000F008F852
:1007000008B1012401E000F025F8204610BD0000EA
:1007100070B50E4E05460024706898B14FF47A719A
:10072000B1FBF0F00A490968B1FBF0F001F04AF9B9
:1007300040B9102D06D200222946501E00F022F8A2
:10074000356000E00124204670BD0000000000205C
:100750000C0000200A4882B0016E41F001010166E0
:10076000016E01F001010091816D41F080518165C0
:10077000806D00F08050009002B000F0C3B900001E
:100780000010024070B515460C460646102A03D3E9
:10079000BE2114A001F032FA102C03D3BF2111A006
:1007A00001F02CFA1E480068C0F30223C3F10702CF
:1007B0002046042A00D90422191D072901D200234A
:1007C00000E0DB1E012404FA02F1491E01409940B9
:1007D0009C40641E2C4021433046BDE8704001F02F
:1007E000FDB900002E2E2F447269766572732F5367
:1007F000544D3332473478785F48414C5F447269D6
:100800007665722F5372632F73746D333267347849
:10081000785F68616C5F636F727465782E63000047
:100820000CED00E010B5044607280BD0062C09D0CB
:10083000052C07D0042C05D0032C03D0A62108A03A
:1008400001F0DCF9154904F0070208684FF6FF03D0
:10085000184040EA0220124A1043086010BD000010
:100860002E2E2F447269766572732F53544D333296
:10087000473478785F48414C5F4472697665722FDF
:100880005372632F73746D3332673478785F6861A5
:100890006C5F636F727465782E6300000CED00E08E
:1008A0000000FA0501220168C0F8D022002280F879
:1008B000C82231F8540F40F001000880088840F049
:1008C000020008801046704770B504000CD029491A
:1008D0002068884203D0872127A001F08FF994F87F
:1008E0009102002510B106E0012070BD84F89052FD
:1008F000204600F05DF8032084F89102206801F0A2
:1009000064F9002001260BE000EB800104EBC1013B
:100910004E740874CD740D624D62401CC0B28D627D
:1009200021798142F0D8002012E000BF00EB800165
:1009300004EBC10181F8515181F8500181F8535104
:10094000C1F86051C1F86451401CC0B2C1F868518F
:1009500021798142EAD894E8070001F02DF9257346
:1009600084F89162A07A012802D12046FFF79AFF0D
:10097000002070BD005C00402E2E2F447269766509
:1009800072732F53544D3332473478785F48414C5B
:100990005F4472697665722F5372632F73746D337F
:1009A00032673478785F68616C5F7063642E6300CF
:1009B00010B596B0044654216846FFF77DFC0C49FB
:1009C0002068884212D14014009000200F906846A1
:1009D00000F0A0F808B1FFF7D4FC0648816D41F49F
:1009E00000018165806D00F40000159016B010BD07
:1009F000005C004000100240304910B50968304AE0
:100A00003223304C5943D0B1B0F5007F0CD0B0F553
:100A1000806F03D09D212CA001F0F0F8206820F415
:100A2000C06040F4806008E02068C0F341200228E4
:100A30002AD054F8800F40F4807020603BE020689A
:100A4000C0F34120022804D054F8800F20F48070B5
:100A5000F3E7D4F8800020F48070C4F880002068A8
:100A600020F4C06040F400702060B1FBF2F0401C44
:100A700000E0401E6169490501D50028F9D160698F
:100A8000400518D5032010BDD4F8800040F48070D4
:100A9000C4F88000206820F4C06040F4007020603A
:100AA000B1FBF2F0401C00E0401E61694905E6D54B
:100AB0000028F9D1E3E7002010BD00000C00002061
:100AC00040420F00007000402E2E2F447269766560
:100AD00072732F53544D3332473478785F48414C0A
:100AE0005F4472697665722F5372632F73746D332E
:100AF00032673478785F68616C5F7077725F6578B1
:100B00002E6300000248816841F480418160704793
:100B1000007000402DE9F84F044600680026C10728
:100B20004FF4807A4FF4007BFE4D29D1810727D402
:100B3000410725D4010723D4C10621D481061FD43F
:100B400041061DD401061BD4C10519D4810317D455
:100B5000810515D4410513D4010511D4C1040FD466
:100B600081040DD441040BD4010409D4C10307D47A
:100B7000410305D4000306D48321EBA001F03EF825
:100B8000206800036BD5206D002750B1504508D078
:100B9000584506D0B0F5407F03D08B21E2A001F08C
:100BA0002DF8A86DC00008D4A86D40F08050A8654D
:100BB000A86D012700F080500090DFF8A893D9F8C5
:100BC000001041F48071C9F80010FFF783FD8046E2
:100BD00006E000BFFFF77EFDA0EB080002282BD83F
:100BE000D9F80000C005F5D5D5F8900010F4407094
:100BF00014D0216D814211D0D5F89000D5F8901015
:100C000020F4407041F48031C5F89010D5F8901070
:100C100021F48031C5F89010C5F89000C00711D0BC
:100C2000FFF758FD804641F2883907E0FFF752FD93
:100C3000A0EB0801494501D903260BE0D5F8900047
:100C40008007F3D5D5F89000216D20F4407008435B
:100C5000C5F890001FB1A86D20F08050A8652078DD
:100C6000C00713D0606848B1012807D0032805D019
:100C7000022803D0E021ACA000F0C0FFD5F8880026
:100C8000616820F003000843C5F8880020788007D9
:100C900013D5A06848B1042807D00C2805D008282F
:100CA00003D0EA21A0A000F0A9FFD5F88800A16830
:100CB00020F00C000843C5F888002078400713D5C1
:100CC000E06848B1102807D0302805D0202803D08C
:100CD000F42195A000F092FFD5F88800E16820F09B
:100CE00030000843C5F888002078000713D5206934
:100CF00048B1402807D0C02805D0802803D0FF2164
:100D000089A000F07BFFD5F88800216920F0C000A1
:100D10000843C5F888002078C00615D5606958B129
:100D2000504509D0B0F5407F06D0584504D04FF467
:100D300086717DA000F062FFD5F88800616920F41B
:100D400040700843C5F888002078800617D5A06950
:100D500068B1B0F5806F0AD0B0F5406F07D0B0F53C
:100D6000006F04D04FF48C716FA000F047FFD5F8EE
:100D70008800A16920F440600843C5F88800207805
:100D8000400614D5E06950B1B0F5805F07D0B0F5EA
:100D9000005F04D04FF4917163A000F02FFFD5F8ED
:100DA0008800E16920F440500843C5F888002078A5
:100DB000000614D5206A50B1B0F5804F07D0B0F5C9
:100DC000004F04D04FF4967157A000F017FFD5F8EC
:100DD0008800216A20F440400843C5F88800208834
:100DE000C00514D5606A50B1B0F5803F07D0B0F5AA
:100DF000003F04D04FF49B714BA000F0FFFED5F8EC
:100E00008800616A20F440300843C5F888002068F3
:100E1000800312D5A06A40B1012806D0022804D070
:100E20004FF4A17140A000F0E9FED5F89C00A16A42
:100E300020F003000843C5F89C002088800517D5E2
:100E4000E06A68B1B0F5802F0AD0B0F5002F07D066
:100E5000B0F5402F04D04FF4A77133A000F0CEFEC0
:100E6000D5F88800E16A20F440200843C5F88800DE
:100E700020884FF4801840054FF400191CD5206BD2
:100E800058B1404509D0484507D0B0F5401F04D0BF
:100E90004FF4AC7124A000F0B1FED5F88800216BAE
:100EA00020F440100843C5F88800206B404503D16A
:100EB000E86840F48010E860208800051FD5606B6A
:100EC0004FF4800760B1B8420AD0B0F5000F07D0E8
:100ED000B0F5400F04D04FF4B47113A000F08EFEB3
:100EE000D5F88800616B20F440000843C5F88800FD
:100EF000606BB84203D1E86840F48010E860208855
:100F0000C00440D5A06B4FF0807748B1B84207D0FD
:100F1000B0F1007F04D040F2791103A000F06EFE22
:100F200022E00000001002402E2E2F4472697665E8
:100F300072732F53544D3332473478785F48414CA5
:100F40005F4472697665722F5372632F73746D33C9
:100F500032673478785F68616C5F7263635F65786D
:100F60002E63000000700040D5F88800A16B20F0CF
:100F700040700843C5F88800A06BB84203D1E86808
:100F800040F48010E86020884FF00067800418D596
:100F9000E06B38B1B84205D040F28B11AFF2780067
:100FA00000F02CFED5F88800E16B20F0406008438B
:100FB000C5F88800E06BB84203D1E86840F48010BF
:100FC000E8602088400418D5206C38B1B84205D0BC
:100FD0004FF4CD71AFF2B00000F010FED5F88800EC
:100FE000216C20F040600843C5F88800206CB842AE
:100FF00003D1E86840F48010E860208800041DD523
:10100000606C4FF0805750B1B84208D0B0F1005F2B
:1010100005D04FF4D471AFF2F00000F0EFFDD5F839
:101020008800616C20F040500843C5F88800606C6F
:10103000B84203D1E86840F48030E8602068C0031B
:101040001DD5A06C4FF0804750B1B84208D0B0F128
:10105000004F05D040F2B911AFF2341000F0CEFDD0
:10106000D5F88800A16C20F040400843C5F88800FE
:10107000A06CB84203D1E86840F48030E860206892
:1010800040031AD5E06C404508D038B1484505D03A
:101090004FF4E671AFF2701000F0B0FDD5F89C008F
:1010A000E16C20F440100843C5F89C00E06C484512
:1010B00003D1E86840F48010E8603046BDE8F88F5E
:1010C0002DE9F0470D4606004FF000075FD030686D
:1010D000010701D0000904D040F20B31A3A000F0B9
:1010E0008DFD15B3012D20D0022D1ED0032D1CD057
:1010F000042D1AD0052D18D0062D16D0072D14D08A
:10110000082D12D0092D10D00A2D0ED00B2D0CD089
:101110000C2D0AD00D2D08D00E2D06D00F2D04D089
:101120004FF4437191A000F069FDDFF87882D8F8A0
:10113000000000F00F00A8420CD2D8F8001021F0F7
:101140000F012943C8F80010D8F8000000F00F0084
:10115000A8421CD13078944CC00741F2883A68D03C
:101160007068DFF8489201280DD002283BD0032890
:1011700010D040F223317DA000F040FD70680328BC
:1011800008D002282FD02068400500282EDB01203F
:10119000BDE8F08720688001F9D5E06800F0030120
:1011A000E068C0F30310401C03291AD0804900BF37
:1011B000B1FBF0F0E168C1F306214843E168C1F3F7
:1011C0004161491C4900B0FBF1F0484519D9A068BC
:1011D00010F0F00F0ED03078800712D5B06848B10B
:1011E0000FE07449E4E720688003CEE700F0EAF8F6
:1011F000484506D9A06820F0F00040F08000A060CB
:101200008027A068716820F003000843A060FFF702
:1012100061FA814606E000BFFFF75CFAA0EB090126
:10122000514550D8A068716800F00C00B0EB810FF8
:10123000F2D1306881072BD5400703D5A06840F470
:10124000E060A0603078000705D5A06820F4605009
:1012500040F4E060A060B068A0B1802812D090286F
:1012600010D0A0280ED0B0280CD0C0280AD0D0288A
:1012700008D0E02806D0F02804D040F27A313BA014
:1012800000F0BCFCA068B16820F0F000084304E066
:10129000802F03D1A06820F0F000A060D8F80010E3
:1012A000404601F00F01A94215D9016821F00F0154
:1012B00029430160FFF70EFA074606E0FFF70AFA36
:1012C000C11B514501D9032062E7D8F8000000F0A6
:1012D0000F00A842F2D130784FF4806540074FF4F8
:1012E000A0674FF4C0684FF4E06914D5F06860B1AE
:1012F000A8420AD0B84208D0404506D0484504D09C
:101300004FF4677119A000F079FCA068F16820F42F
:10131000E0600843A0603078000715D5306960B1FF
:10132000A8420AD0B84208D0404506D0484504D06B
:1013300040F2A3310DA000F061FCA068316920F4F7
:10134000605040EAC100A06000F03CF8A1681A4A71
:10135000C1F30311515C01F01F01C8401749086037
:1013600017480068BDE8F047FFF7D2B92E2E2F448A
:101370007269766572732F53544D333247347878DF
:101380005F48414C5F4472697665722F5372632FD8
:1013900073746D3332673478785F68616C5F726341
:1013A000632E6300002002400010024000B4C40419
:1013B0000024F40000127A00621C00080C000020D7
:1013C00000000020184910B58868C0F38102174852
:1013D000012A0BD08A684310C2F38102022A06D088
:1013E0008A68C2F38102032A03D0002010BD184688
:1013F00010BDCA6802F00304CA68C2F30312521C8B
:10140000032C02D0B0FBF2F001E0B3FBF2F0CA68AB
:10141000C968C2F306225043C1F34161491C490027
:10142000B0FBF1F010BD0000001002400024F400F9
:101430002DE9F84304007DD0FE4D206870B1C1074E
:101440000FD1810765D4810675D4010774D4400794
:1014500073D440F24511F8A000F0D0FB2078C0070B
:1014600054D060684FF480364FF4A02740B1B042AA
:1014700006D0B84204D040F24B11EFA000F0BEFB02
:10148000A868E96800F00C0001F003010C2802D004
:10149000082809D001E0032906D06068B0420AD1CB
:1014A000286840F4803013E0286880032ED56068F7
:1014B0000028C0D02AE0B842286803D140F4802038
:1014C0002860EDE720F480302860286820F4802030
:1014D0002860606868B1FFF7FDF8064605E000BFC8
:1014E000FFF7F8F8801B64287ED828688003F7D5BA
:1014F0000CE0FFF7EFF8064605E000BFFFF7EAF85B
:10150000801B6428F0D828688003F7D420788007EF
:1015100062D5E06838B1B0F5807F04D04FF4C07177
:10152000C5A000F06BFB20697F2809D940F281112A
:10153000C1A003E0AEE04FE051E087E000F05EFBC9
:10154000A868E96800F00C0001F003010C2802D043
:1015500004280DD001E002290AD0E068002828689C
:101560002AD040F480702860FFF7B4F8064618E0EF
:101570002868400502D5E06800289AD06868217C78
:1015800020F0FE4040EA01606860B9480068FFF75B
:10159000BFF800287ED11FE0FFF79CF8801B0228CF
:1015A000A2D828684005F7D56868217C20F0FE4065
:1015B00040EA016068600FE020F480702860FFF767
:1015C00089F8064605E000BFFFF784F8801B022873
:1015D0008AD828684005F7D42078000733D5606999
:1015E000F0B1012808D000E0A9E14FF4E47192A025
:1015F00000F004FB606998B1D5F8940040F0010058
:10160000C5F89400FFF766F8064604E0FFF762F8B5
:10161000801B0228C4D8D5F894008007F6D512E0C4
:10162000D5F8940020F00100C5F89400FFF752F8B7
:10163000064604E0FFF74EF8801B0228B0D8D5F824
:1016400094008007F6D4207840076FD5A068002664
:1016500040B1012806D0052804D04FF4FA7176A0D5
:1016600000F0CCFAA86DC00008D4A86D40F08050FE
:10167000A865A86D012600F0805000907D480168A3
:10168000C90514D40168804641F480710160FFF7F8
:1016900021F800E08DE1074605E000BFFFF71AF8EA
:1016A000C01B022894D8D8F80000C005F6D5A06861
:1016B000012815D00528D5F8900016D020F001009B
:1016C000C5F89000D5F8900020F00400C5F890000F
:1016D000A06841F28838B8B1FEF7FCFF07460EE07B
:1016E000D5F8900040F00100F0E740F00400C5F8A4
:1016F0009000F5E7FEF7EEFFC11B41458AD8D5F80B
:1017000090008007F6D50CE0FEF7E4FF074604E002
:10171000FEF7E0FFC11B414590D8D5F89000800747
:10172000F6D41EB1A86D20F08050A8652078800600
:1017300031D5A069E0B1012806D040F23B213EA09E
:1017400000F05CFAA06998B1D5F8980040F001006B
:10175000C5F89800FEF7BEFF064604E0FEF7BAFFA4
:10176000801B02289ED8D5F898008007F6D512E095
:10177000D5F8980020F00100C5F89800FEF7AAFF00
:10178000064604E0FEF7A6FF801B02288AD8D5F89B
:1017900098008007F6D4E06900286DD0012809D0B0
:1017A000022807D04FF4197123A000F027FAE0694E
:1017B0000028F2D0A868C0F381000328E06979D03E
:1017C000022807D0286820F080702860FEF782FF8A
:1017D0000446B7E0206A40B1022806D0032804D0AE
:1017E00040F26E2114A000F009FA606A401E0F2832
:1017F00004D940F26F2110A000F000FAA06A083866
:10180000772804D94FF41C710BA000F0F7F9E06AB7
:10181000801E1D2804D940F2712107A000F0EEF9C6
:10182000206B02282FD004282DD006282BD0082882
:1018300029D022E0001002402E2E2F4472697665D6
:1018400072732F53544D3332473478785F48414C8C
:101850005F4472697665722F5372632F73746D33B0
:1018600032673478785F68616C5F7263632E6300FF
:1018700000000020007000409DE040F27221AFF2B5
:10188000480000F0BBF9606B02280BD0042809D097
:10189000062807D0082805D040F27321AFF268006F
:1018A00000F0ACF9286820F080702860FEF712FF85
:1018B000064606E04EE000BFFEF70CFF801B022844
:1018C0003DD828688001F7D4F4E908016FF00F02D1
:1018D00002EB01110843218A5204490802EB4151ED
:1018E000A26841EA02210843217D4FF07E42490867
:1018F00002EB41610843217B40EAC160E9682F4A5D
:1019000011400843E860286840F080702860E8686B
:1019100040F08070E860FEF7DDFE044605E000BFA1
:10192000FEF7D8FE001B022809D828688001F7D5E9
:1019300041E000BFFEF7CEFE001B022802D90320C3
:10194000BDE8F88328688001F4D4E8681C490840A1
:10195000E86030E00128F3D0E868226A00F0030173
:10196000914226D1616A00F0F002090110399142DA
:101970001FD1A26A00F4FE41B1EB022F19D194F8F5
:101980002C2000F07841B1EBC26F12D1218E00F40F
:10199000C00249084905A1F50011914209D194F806
:1019A000341000F0C06049084906A1F1007181427D
:1019B00001D00120C4E70020C2E700000C809F0195
:1019C000FCFFEEFE10B5401EB0F1807F01D3012078
:1019D00010BD4FF0E02460610F21601700F0FEF8A9
:1019E0000020A06107202061002010BDFEE700005C
:1019F0002DE9F04186B014216846FEF75DFC3848B9
:101A0000C16C41F00401C164C16C01F00401059195
:101A1000C16C41F02001C164C16C01F0200105914D
:101A2000C16C41F04001C164C16C01F040010591FD
:101A3000C16C41F00101C164C16C01F0010105916B
:101A4000C16C41F00201C164C06C264F00F002007D
:101A50000590002204213846FEF708FE7E014FF073
:101A60009048002231464046FEF700FE4FF46040A9
:101A70000325CDE900050024694602941A48FEF7C3
:101A800095FC7011CDE90005694602941748FEF7F0
:101A90008DFC46F2FF70CDE9000569460294404690
:101AA000FEF784FC4FF6FB70CDE900056946029411
:101AB0003846FEF77BFC042000900125CDE9015457
:101AC000694638460394FEF771FC0096CDE901544F
:101AD000694640460394FEF769FC06B0BDE8F08114
:101AE00000100240000400480008004800180048A8
:101AF0000C4810B50A4901600821017102214171A9
:101B0000C1710021017241728172C172FEF7DCFE67
:101B1000002803D0BDE81040FEF733BC10BD000024
:101B2000005C004010000020FEE7FEE770477047B1
:101B3000FEF7D6BD00B593B038216846FEF7BCFB72
:101B400014210EA8FEF7B8FB4FF40070FEF754FF07
:101B5000222000904FF480700390402004900120D8
:101B6000069002200421CDE908014B21CDE90A109D
:101B700007900C900D906846FFF75AFC08B172B6BA
:101B8000FEE70F200E9003200F9000201090119080
:101B9000129004210EA8FFF793FA002801D072B624
:101BA000FEE713B000BD00000248016841F4700177
:101BB0000160704788ED00E0012120F8401F0021FE
:101BC0000180818001820846704730F8401F4BF643
:101BD00080729143018000207047FEE70907090EDB
:101BE000002804DB00F1E02080F80014704700F0CA
:101BF0000F0000F1E02080F8141D704770470000CE
:101C0000FEF776FDFFF796FFFFF7F2FEFFF770FF96
:101C1000104E4FF400444FF090454FF47A77012274
:101C200021462846FEF722FD012204213046FEF718
:101C30001DFD3846FEF7A8FB002204213046FEF7C2
:101C400015FD002221462846FEF710FD3846FEF716
:101C50009BFBE4E7000400484FF04070E1EE100AFF
:101C600070470000000000000000010203040607A6
:101C700008090000941C000800000020100000006B
:101C800014020008A41C00081000002040090000F5
:101C900030020008100000000100000000000000F9
:041CA0000024F40028
:04000005080001D915
:00000001FF
