:020000040800F2
:10000000F00A0020790200087B200008E51E0008A5
:10001000792000087F0300082B270008000000005B
:100020000000000000000000000000008126000821
:1000300081030008000000007D20000883260008DE
:10004000930200089302000893020008930200083C
:10005000930200089302000893020008930200082C
:10006000930200089302000893020008930200081C
:10007000930200089302000893020008930200080C
:1000800093020008930200089302000893020008FC
:1000900093020008930200089302000893020008EC
:1000A00093020008930200089302000893020008DC
:1000B00093020008930200089302000893020008CC
:1000C00093020008930200089302000893020008BC
:1000D00093020008930200089302000893020008AC
:1000E000930200089302000893020008930200089C
:1000F000930200089302000893020008930200088C
:10010000930200089302000893020008930200087B
:10011000930200089302000893020008930200086B
:10012000930200089302000893020008930200085B
:10013000930200089302000893020008930200084B
:10014000930200089302000893020008930200083B
:10015000930200089302000893020008930200082B
:10016000930200089302000893020008930200081B
:10017000930200089302000893020008930200080B
:1001800093020008930200089302000893020008FB
:100190009302000800000000930200089302000888
:1001A00093020008930200089302000893020008DB
:1001B00093020008930200089302000893020008CB
:1001C00093020008930200089302000893020008BB
:1001D000930200089302000800F002F800F03CF8D7
:1001E0000AA090E8000C82448344AAF10107DA4592
:1001F00001D100F031F8AFF2090EBAE80F0013F0A8
:10020000010F18BFFB1A43F001031847DC2C000054
:10021000FC2C0000103A24BF78C878C1FAD85207E5
:1002200024BF30C830C144BF04680C607047000070
:100230000023002400250026103A28BF78C1FBD8EF
:10024000520728BF30C148BF0B6070471FB502F08E
:10025000B9FA1FBD10B510BD00F058F81146FFF7F0
:10026000F5FF02F075FA00F076F803B4FFF7F2FF3D
:1002700003BC00F07DF800000948804709480047AA
:10028000FEE7FEE7FEE7FEE7FEE7FEE7FEE7FEE746
:10029000FEE7FEE704480549054A064B70470000A3
:1002A000F9260008D9010008F0040020F00A002017
:1002B000F0060020F00600204FF0000200B51346C3
:1002C00094469646203922BFA0E80C50A0E80C5076
:1002D000B1F12001BFF4F7AF090728BFA0E80C5027
:1002E00048BF0CC05DF804EB890028BF40F8042B20
:1002F00008BF704748BF20F8022B11F0804F18BF8D
:1003000000F8012B7047704770477047754600F042
:100310002BF8AE4605006946534620F00700854697
:1003200018B020B5FFF7B6FFBDE820404FF000063B
:100330004FF000074FF000084FF0000B21F00701CD
:10034000AC46ACE8C009ACE8C009ACE8C009ACE810
:10035000C0098D46704710B50446AFF300802046B3
:10036000BDE81040FFF781BF0048704790040020AF
:1003700001491820ABBEFEE7260002007047FEE7E9
:10038000704772B6FEE7000070B5044600F0A2F9AF
:100390000546601C02D004484068044400F09AF905
:1003A000401BA042FAD370BD000000202DE9F84F99
:1003B00000274FF0904ADFF85482DFF854B20D4620
:1003C0000446504513D0444511D05C450FD09148A8
:1003D00084420CD09048844209D09048844206D090
:1003E0008F48844203D0A9218EA002F0AFF928687B
:1003F0000104090C01D0000C03D0AA2189A002F04D
:10040000A5F968684FF0030900281FD00128FCD027
:100410001128FAD00228F8D01228F6D0B0F5881F9B
:10042000F3D0B0F5041FF0D0B0F5441FEDD0B0F517
:10043000901FEAD0B0F5081FE7D0B0F5481FE4D010
:100440000328E2D0AB2177A002F080F9D6E00120AA
:10045000B840009006407CD0287900F003000128C5
:1004600001D002281DD1E86848B1012807D0022830
:1004700005D0032803D0BB216AA002F067F9A16868
:10048000780009FA00F29143EA6882400A43A260C8
:100490006068009988432979C1F30011B94001438C
:1004A00061602879C043800712D0A86838B101285C
:1004B00005D0022803D0CC215AA002F047F9E26807
:1004C000780009FA00F18A43A96881401143E1608C
:1004D000287900F00300022829D1544513D044455F
:1004E00011D05C450FD04B4884420CD04A4884421E
:1004F00009D04A48844206D04948844203D0D921D1
:1005000048A002F023F928690F2803D9DA2145A071
:1005100002F01CF9F80804EB8000026A7907CB0EA0
:100520000F2199408A43296999401143016221684A
:10053000780009FA00F291432A7902F0030282401E
:100540000A432260686810F4403F56D04448016E68
:1005500000E052E041F001010166006E27F0030166
:1005600000F0010000903F4801448868BA07130F6B
:100570000F229A409043544501D1002217E0444590
:1005800001D1012213E05C4501D102220FE0214A92
:10059000944201D103220AE01F4A944201D104226D
:1005A00005E01E4A944201D1052200E006229A404D
:1005B00002438A602C4A10686968B043C90200D5BA
:1005C00030431060284A121D10686968B0438902E0
:1005D00000D5304310602449091F08686A68B04399
:1005E000920300D5304308601F49083908686A68DB
:1005F000B043D20300D5304308607F1C2E6836FA22
:1006000007F07FF424AFBDE8F88F00000004004835
:1006100000080048000C0048001000480014004882
:10062000001800482E2E2F447269766572732F537E
:10063000544D3332473478785F48414C5F44726997
:100640007665722F5372632F73746D33326734780B
:10065000785F68616C5F6770696F2E6300000000EF
:1006600000100240000001400804014070B515462A
:100670000C00064604D14FF4CD7107A002F066F8D5
:1006800045B1012D04D040F29B1103A002F05EF8A9
:10069000B46170BDB46270BD2E2E2F447269766550
:1006A00072732F53544D3332473478785F48414C3E
:1006B0005F4472697665722F5372632F73746D3362
:1006C00032673478785F68616C5F6770696F2E633A
:1006D0000000000001488068704700000000002012
:1006E0000248816842681144816070470000002020
:1006F00010B50024032000F095F80F2000F008F852
:1007000008B1012401E000F025F8204610BD0000EA
:1007100070B50E4E05460024706898B14FF47A719A
:10072000B1FBF0F00A490968B1FBF0F001F0C6FB3B
:1007300040B9102D06D200222946501E00F022F8A2
:10074000356000E00124204670BD0000000000205C
:100750000C0000200A4882B0016E41F001010166E0
:10076000016E01F001010091816D41F080518165C0
:10077000806D00F08050009002B000F0C3B900001E
:100780000010024070B515460C460646102A03D3E9
:10079000BE2114A001F0DAFF102C03D3BF2111A059
:1007A00001F0D4FF1E480068C0F30223C3F1070222
:1007B0002046042A00D90422191D072901D200234A
:1007C00000E0DB1E012404FA02F1491E01409940B9
:1007D0009C40641E2C4021433046BDE8704001F02F
:1007E000A5BF00002E2E2F447269766572732F53B9
:1007F000544D3332473478785F48414C5F447269D6
:100800007665722F5372632F73746D333267347849
:10081000785F68616C5F636F727465782E63000047
:100820000CED00E010B5044607280BD0062C09D0CB
:10083000052C07D0042C05D0032C03D0A62108A03A
:1008400001F084FF154904F0070208684FF6FF0322
:10085000184040EA0220124A1043086010BD000010
:100860002E2E2F447269766572732F53544D333296
:10087000473478785F48414C5F4472697665722FDF
:100880005372632F73746D3332673478785F6861A5
:100890006C5F636F727465782E6300000CED00E08E
:1008A0000000FA0501220168C0F8D022002280F879
:1008B000C82231F8540F40F001000880088840F049
:1008C000020008801046704770B504000CD029491A
:1008D0002068884203D0872127A001F037FF94F8D1
:1008E0009102002510B106E0012070BD84F89052FD
:1008F000204600F05DF8032084F89102206801F0A2
:100900000CFF002001260BE000EB800104EBC1018D
:100910004E740874CD740D624D62401CC0B28D627D
:1009200021798142F0D8002012E000BF00EB800165
:1009300004EBC10181F8515181F8500181F8535104
:10094000C1F86051C1F86451401CC0B2C1F868518F
:1009500021798142EAD894E8070001F0D5FE257399
:1009600084F89162A07A012802D12046FFF79AFF0D
:10097000002070BD005C00402E2E2F447269766509
:1009800072732F53544D3332473478785F48414C5B
:100990005F4472697665722F5372632F73746D337F
:1009A00032673478785F68616C5F7063642E6300CF
:1009B00010B596B0044654216846FFF77DFC0C49FB
:1009C0002068884212D14014009000200F906846A1
:1009D00000F0A0F808B1FFF7D4FC0648816D41F49F
:1009E00000018165806D00F40000159016B010BD07
:1009F000005C004000100240304910B50968304AE0
:100A00003223304C5943D0B1B0F5007F0CD0B0F553
:100A1000806F03D09D212CA001F098FE206820F467
:100A2000C06040F4806008E02068C0F341200228E4
:100A30002AD054F8800F40F4807020603BE020689A
:100A4000C0F34120022804D054F8800F20F48070B5
:100A5000F3E7D4F8800020F48070C4F880002068A8
:100A600020F4C06040F400702060B1FBF2F0401C44
:100A700000E0401E6169490501D50028F9D160698F
:100A8000400518D5032010BDD4F8800040F48070D4
:100A9000C4F88000206820F4C06040F4007020603A
:100AA000B1FBF2F0401C00E0401E61694905E6D54B
:100AB0000028F9D1E3E7002010BD00000C00002061
:100AC00040420F00007000402E2E2F447269766560
:100AD00072732F53544D3332473478785F48414C0A
:100AE0005F4472697665722F5372632F73746D332E
:100AF00032673478785F68616C5F7077725F6578B1
:100B00002E6300000248816841F480418160704793
:100B1000007000402DE9F84F044600680026C10728
:100B20004FF4807A4FF4007BFE4D29D1810727D402
:100B3000410725D4010723D4C10621D481061FD43F
:100B400041061DD401061BD4C10519D4810317D455
:100B5000810515D4410513D4010511D4C1040FD466
:100B600081040DD441040BD4010409D4C10307D47A
:100B7000410305D4000306D48321EBA001F0E6FD78
:100B8000206800036BD5206D002750B1504508D078
:100B9000584506D0B0F5407F03D08B21E2A001F08C
:100BA000D5FDA86DC00008D4A86D40F08050A865A0
:100BB000A86D012700F080500090DFF8A893D9F8C5
:100BC000001041F48071C9F80010FFF783FD8046E2
:100BD00006E000BFFFF77EFDA0EB080002282BD83F
:100BE000D9F80000C005F5D5D5F8900010F4407094
:100BF00014D0216D814211D0D5F89000D5F8901015
:100C000020F4407041F48031C5F89010D5F8901070
:100C100021F48031C5F89010C5F89000C00711D0BC
:100C2000FFF758FD804641F2883907E0FFF752FD93
:100C3000A0EB0801494501D903260BE0D5F8900047
:100C40008007F3D5D5F89000216D20F4407008435B
:100C5000C5F890001FB1A86D20F08050A8652078DD
:100C6000C00713D0606848B1012807D0032805D019
:100C7000022803D0E021ACA001F068FDD5F888007F
:100C8000616820F003000843C5F8880020788007D9
:100C900013D5A06848B1042807D00C2805D008282F
:100CA00003D0EA21A0A001F051FDD5F88800A16889
:100CB00020F00C000843C5F888002078400713D5C1
:100CC000E06848B1102807D0302805D0202803D08C
:100CD000F42195A001F03AFDD5F88800E16820F0F4
:100CE00030000843C5F888002078000713D5206934
:100CF00048B1402807D0C02805D0802803D0FF2164
:100D000089A001F023FDD5F88800216920F0C000FA
:100D10000843C5F888002078C00615D5606958B129
:100D2000504509D0B0F5407F06D0584504D04FF467
:100D300086717DA001F00AFDD5F88800616920F474
:100D400040700843C5F888002078800617D5A06950
:100D500068B1B0F5806F0AD0B0F5406F07D0B0F53C
:100D6000006F04D04FF48C716FA001F0EFFCD5F848
:100D70008800A16920F440600843C5F88800207805
:100D8000400614D5E06950B1B0F5805F07D0B0F5EA
:100D9000005F04D04FF4917163A001F0D7FCD5F847
:100DA0008800E16920F440500843C5F888002078A5
:100DB000000614D5206A50B1B0F5804F07D0B0F5C9
:100DC000004F04D04FF4967157A001F0BFFCD5F846
:100DD0008800216A20F440400843C5F88800208834
:100DE000C00514D5606A50B1B0F5803F07D0B0F5AA
:100DF000003F04D04FF49B714BA001F0A7FCD5F845
:100E00008800616A20F440300843C5F888002068F3
:100E1000800312D5A06A40B1012806D0022804D070
:100E20004FF4A17140A001F091FCD5F89C00A16A9B
:100E300020F003000843C5F89C002088800517D5E2
:100E4000E06A68B1B0F5802F0AD0B0F5002F07D066
:100E5000B0F5402F04D04FF4A77133A001F076FC19
:100E6000D5F88800E16A20F440200843C5F88800DE
:100E700020884FF4801840054FF400191CD5206BD2
:100E800058B1404509D0484507D0B0F5401F04D0BF
:100E90004FF4AC7124A001F059FCD5F88800216B07
:100EA00020F440100843C5F88800206B404503D16A
:100EB000E86840F48010E860208800051FD5606B6A
:100EC0004FF4800760B1B8420AD0B0F5000F07D0E8
:100ED000B0F5400F04D04FF4B47113A001F036FC0C
:100EE000D5F88800616B20F440000843C5F88800FD
:100EF000606BB84203D1E86840F48010E860208855
:100F0000C00440D5A06B4FF0807748B1B84207D0FD
:100F1000B0F1007F04D040F2791103A001F016FC7B
:100F200022E00000001002402E2E2F4472697665E8
:100F300072732F53544D3332473478785F48414CA5
:100F40005F4472697665722F5372632F73746D33C9
:100F500032673478785F68616C5F7263635F65786D
:100F60002E63000000700040D5F88800A16B20F0CF
:100F700040700843C5F88800A06BB84203D1E86808
:100F800040F48010E86020884FF00067800418D596
:100F9000E06B38B1B84205D040F28B11AFF2780067
:100FA00001F0D4FBD5F88800E16B20F040600843E5
:100FB000C5F88800E06BB84203D1E86840F48010BF
:100FC000E8602088400418D5206C38B1B84205D0BC
:100FD0004FF4CD71AFF2B00001F0B8FBD5F8880046
:100FE000216C20F040600843C5F88800206CB842AE
:100FF00003D1E86840F48010E860208800041DD523
:10100000606C4FF0805750B1B84208D0B0F1005F2B
:1010100005D04FF4D471AFF2F00001F097FBD5F892
:101020008800616C20F040500843C5F88800606C6F
:10103000B84203D1E86840F48030E8602068C0031B
:101040001DD5A06C4FF0804750B1B84208D0B0F128
:10105000004F05D040F2B911AFF2341001F076FB29
:10106000D5F88800A16C20F040400843C5F88800FE
:10107000A06CB84203D1E86840F48030E860206892
:1010800040031AD5E06C404508D038B1484505D03A
:101090004FF4E671AFF2701001F058FBD5F89C00E8
:1010A000E16C20F440100843C5F89C00E06C484512
:1010B00003D1E86840F48010E8603046BDE8F88F5E
:1010C0002DE9F0470D4606004FF000075FD030686D
:1010D000010701D0000904D040F20B319FA001F0BC
:1010E00035FB15B3012D20D0022D1ED0032D1CD0B1
:1010F000042D1AD0052D18D0062D16D0072D14D08A
:10110000082D12D0092D10D00A2D0ED00B2D0CD089
:101110000C2D0AD00D2D08D00E2D06D00F2D04D089
:101120004FF443718DA001F011FBDFF86882D8F80D
:10113000000000F00F00A8420CD2D8F8001021F0F7
:101140000F012943C8F80010D8F8000000F00F0084
:10115000A8421CD13078904CC00741F2883A60D048
:101160007068DFF8389201280DD0022834D00328A7
:1011700010D040F2233179A001F0E8FA706803281A
:1011800008D0022828D020684005002827DB01204D
:10119000BDE8F08720688001F9D5E068E068804A02
:1011A000C0F30310401CB2FBF0F0E168C1F306216C
:1011B0004843E168C1F34161491C4900B0FBF1F0CB
:1011C000484517D9A06810F0F00F0CD03078800790
:1011D00010D5B06838B10DE020688003D5E700F085
:1011E000E7F8484506D9A06820F0F00040F08000FC
:1011F000A0608027A068716820F003000843A06009
:10120000FFF768FA814605E0FFF764FAA0EB0901F1
:10121000514550D8A068716800F00C00B0EB810F08
:10122000F2D1306881072BD5400703D5A06840F480
:10123000E060A0603078000705D5A06820F4605019
:1012400040F4E060A060B068A0B1802812D090287F
:1012500010D0A0280ED0B0280CD0C0280AD0D0289A
:1012600008D0E02806D0F02804D040F27A313BA024
:1012700001F06CFAA068B16820F0F000084304E0C7
:10128000802F03D1A06820F0F000A060D8F80010F3
:10129000404601F00F01A94215D9016821F00F0164
:1012A00029430160FFF716FA074606E0FFF712FA36
:1012B000C11B514501D903206AE7D8F8000000F0AE
:1012C0000F00A842F2D130784FF4806540074FF408
:1012D000A0674FF4C0684FF4E06914D5F06860B1BE
:1012E000A8420AD0B84208D0404506D0484504D0AC
:1012F0004FF4677119A001F029FAA068F16820F491
:10130000E0600843A0603078000715D5306960B10F
:10131000A8420AD0B84208D0404506D0484504D07B
:1013200040F2A3310DA001F011FAA068316920F458
:10133000605040EAC100A06000F03AF8A168194A84
:10134000C1F30311515C01F01F01C8401649086048
:1013500016480068BDE8F047FFF7DAB92E2E2F4493
:101360007269766572732F53544D333247347878EF
:101370005F48414C5F4472697665722F5372632FE8
:1013800073746D3332673478785F68616C5F726351
:10139000632E6300002002400010024000B4C40429
:1013A0000024F400D62E00080C00002000000020CD
:1013B00013498868C0F381021248012A0AD08A685A
:1013C000C2F38102022A05D08A68C2F38102032A8D
:1013D00001D000207047CA6802F00303CA68C2F354
:1013E0000312521CB0FBF2F0CA68C968C2F30622AD
:1013F0005043C1F34161491C4900B0FBF1F0704713
:10140000001002400024F4002DE9F84304007DD0D0
:10141000FE4D206870B1C1070FD1810765D48106E8
:1014200075D4010774D4400773D440F24511F8A075
:1014300001F08CF92078C00754D060684FF48036F2
:101440004FF4A02740B1B04206D0B84204D040F2D9
:101450004B11EFA001F07AF9A868E96800F00C00E0
:1014600001F003010C2802D0082809D001E003296B
:1014700006D06068B0420AD1286840F4803013E09A
:10148000286880032ED560680028C0D02AE0B842C2
:10149000286803D140F480202860EDE720F48030F4
:1014A0002860286820F480202860606868B1FFF711
:1014B00011F9064605E000BFFFF70CF9801B642810
:1014C0007ED828688003F7D50CE0FFF703F90646BD
:1014D00005E000BFFFF7FEF8801B6428F0D82868FD
:1014E0008003F7D42078800762D5E06838B1B0F582
:1014F000807F04D04FF4C071C5A001F027F92069A6
:101500007F2809D940F28111C1A003E0AEE04FE08D
:1015100051E087E001F01AF9A868E96800F00C00D2
:1015200001F003010C2802D004280DD001E00229AB
:101530000AD0E068002828682AD040F4807028602B
:10154000FFF7C8F8064618E02868400502D5E068AD
:1015500000289AD06868217C20F0FE4040EA0160B3
:101560006860B9480068FFF7D3F800287ED11FE013
:10157000FFF7B0F8801B0228A2D828684005F7D5ED
:101580006868217C20F0FE4040EA016068600FE05E
:1015900020F480702860FFF79DF8064605E000BF44
:1015A000FFF798F8801B02288AD828684005F7D4EE
:1015B0002078000733D56069F0B1012808D000E039
:1015C000A9E14FF4E47192A001F0C0F8606998B10C
:1015D000D5F8940040F00100C5F89400FFF77AF8C0
:1015E000064604E0FFF776F8801B0228C4D8D5F839
:1015F00094008007F6D512E0D5F8940020F00100A1
:10160000C5F89400FFF766F8064604E0FFF762F8B5
:10161000801B0228B0D8D5F894008007F6D4207833
:1016200040076FD5A068002640B1012806D00528E4
:1016300004D04FF4FA7176A001F088F8A86DC000CC
:1016400008D4A86D40F08050A865A86D012600F070
:10165000805000907D480168C90514D40168804617
:1016600041F480710160FFF735F800E08DE1074635
:1016700005E000BFFFF72EF8C01B022894D8D8F869
:101680000000C005F6D5A068012815D00528D5F8BA
:10169000900016D020F00100C5F89000D5F8900019
:1016A00020F00400C5F89000A06841F28838B8B175
:1016B000FFF710F807460EE0D5F8900040F0010063
:1016C000F0E740F00400C5F89000F5E7FFF702F8F6
:1016D000C11B41458AD8D5F890008007F6D50CE0AB
:1016E000FEF7F8FF074604E0FEF7F4FFC11B414593
:1016F00090D8D5F890008007F6D41EB1A86D20F0E0
:101700008050A8652078800631D5A069E0B1012815
:1017100006D040F23B213EA001F018F8A06998B134
:10172000D5F8980040F00100C5F89800FEF7D2FF08
:10173000064604E0FEF7CEFF801B02289ED8D5F8AF
:1017400098008007F6D512E0D5F8980020F0010047
:10175000C5F89800FEF7BEFF064604E0FEF7BAFFA4
:10176000801B02288AD8D5F898008007F6D4E06953
:1017700000286DD0012809D0022807D04FF4197134
:1017800023A000F0E3FFE0690028F2D0A868C0F3CE
:1017900081000328E06979D0022807D0286820F06A
:1017A00080702860FEF796FF0446B7E0206A40B1DB
:1017B000022806D0032804D040F26E2114A000F0C5
:1017C000C5FF606A401E0F2804D940F26F2110A0A7
:1017D00000F0BCFFA06A0838772804D94FF41C71C8
:1017E0000BA000F0B3FFE06A801E1D2804D940F270
:1017F000712107A000F0AAFF206B02282FD0042837
:101800002DD006282BD0082829D022E00010024035
:101810002E2E2F447269766572732F53544D3332D6
:10182000473478785F48414C5F4472697665722F1F
:101830005372632F73746D3332673478785F6861E5
:101840006C5F7263632E6300000000200070004034
:101850009DE040F27221AFF2480000F077FF606B2C
:1018600002280BD0042809D0062807D0082805D064
:1018700040F27321AFF2680000F068FF286820F0A2
:1018800080702860FEF726FF064606E04EE000BFA7
:10189000FEF720FF801B02283DD828688001F7D47E
:1018A000F4E908016FF00F0202EB01110843218AED
:1018B0005204490802EB4151A26841EA022108435F
:1018C000217D4FF07E42490802EB41610843217BB4
:1018D00040EAC160E9682F4A11400843E86028687F
:1018E00040F080702860E86840F08070E860FEF7A3
:1018F000F1FE044605E000BFFEF7ECFE001B0228E7
:1019000009D828688001F7D541E000BFFEF7E2FE64
:10191000001B022802D90320BDE8F8832868800153
:10192000F4D4E8681C490840E86030E00128F3D0AE
:10193000E868226A00F00301914226D1616A00F052
:10194000F0020901103991421FD1A26A00F4FE4150
:10195000B1EB022F19D194F82C2000F07841B1EBB3
:10196000C26F12D1218E00F4C00249084905A1F5C9
:101970000011914209D194F8341000F0C060490878
:101980004906A1F10071814201D00120C4E7002085
:10199000C2E700000C809F01FCFFEEFE2DE9F04144
:1019A00004007DD0A249206888420DD0A149884218
:1019B0000AD0A149884207D0A049884204D040F209
:1019C00045119FA000F0C2FE60684FF4827630B1EE
:1019D000B04204D04FF4A37199A000F0B7FEA06804
:1019E0004FF4806748B1B84207D0B0F5004F04D03B
:1019F00040F2471192A000F0A9FEE0684FF4706831
:101A00004FF4E065404526D0B0F5606F23D0B0F5C7
:101A1000506F20D0B0F5406F1DD0B0F5306F1AD0A8
:101A2000B0F5206F17D0B0F5106F14D0B0F5006F7F
:101A300011D0A8420FD0B0F5C06F0CD0B0F5A06F98
:101A400009D0B84207D0B0F5407F04D04FF4A4715C
:101A50007BA000F07BFEA069B0F5007F08D038B114
:101A6000B0F5802F04D040F2491175A000F06EFE51
:101A7000606B082805D020B14FF4A57170A000F06C
:101A800065FEE069A0B1082812D0102810D01828EF
:101A90000ED020280CD028280AD0302808D000E00A
:101AA00038E0382804D040F24B1165A000F04EFE1B
:101AB000206A30B1802804D04FF4A67160A000F0F5
:101AC00045FE606A002740B3102806D040F24D1151
:101AD0005BA000F03BFE606AF8B1E06990B10828B5
:101AE00010D010280ED018280CD020280AD0282872
:101AF00008D0302806D0382804D040F25F1150A01A
:101B000000F024FE27616761A76294F85D00002859
:101B100031D035E00120BDE8F081206930B10228E4
:101B200004D04FF4A87146A000F010FE606930B1F7
:101B3000012804D040F2511141A000F007FE606876
:101B4000B04216D1E0690028DED00828DCD0102889
:101B5000DAD01828D8D02028D6D02828D4D03028B9
:101B6000D2D03828D0D040F2551135A000F0EEFD8B
:101B7000CAE7E761C8E784F85C70204600F07CF8AB
:101B8000022084F85D002068016821F040010160B6
:101B9000E068A84203D90021404502D104E04FF497
:101BA0008051A84200D0A762A088228900F48270E8
:101BB00002F404421043227C02F002021043227D10
:101BC00002F001021043228B02F400721043227FC4
:101BD00002F03802104394F8202002F080021043F3
:101BE000228D02F40052104322681060A069042282
:101BF00002EA104094F8242001F4805102F010020F
:101C0000104394F8342002F008021043A28902F431
:101C1000706210430843216848602068C16921F45C
:101C20000061C1612766012084F85D00002072E731
:101C30000030014000380040003C0040003C0140C2
:101C40002E2E2F447269766572732F53544D3332A2
:101C5000473478785F48414C5F4472697665722FEB
:101C60005372632F73746D3332673478785F6861B1
:101C70006C5F7370692E630010B586B00446142142
:101C80006846FEF719FB1249206888421ED11148A8
:101C9000816D41F480418165816D01F48041059140
:101CA000C16C41F00201C164C06C694600F00200E1
:101CB00005904FF4204000900220019000200290F7
:101CC0000390052004900448FEF770FB06B010BD99
:101CD0000038004000100240000400482DE9F84F91
:101CE00004468068984615468A46002638B1B0F505
:101CF000004F04D04FF44F7162A000F027FD94F81C
:101D00005C0001280DD0012784F85C70FEF7E2FC2E
:101D1000814694F85D004FF0000B012804D00226A4
:101D2000ACE00220BDE8F88FBAF1000F79D0002DA9
:101D300077D0032084F85D00C4F860B0C4F838A000
:101D4000A587E587C4F840B0A4F844B0A4F846B02D
:101D5000C4F850B0C4F84CB0A068B0F5004F09D139
:101D60002068016821F0400101602068016841F4A9
:101D70008041016020680168490603D4016841F090
:101D800040010160E068B0F5E06F606828D908B1F3
:101D9000012D1FD1A06B21680088C86006E0206873
:101DA0008168890709D5A16B0988C160A06B801C77
:101DB000A063E08F401EE0870CE0FEF78BFCA0EBF9
:101DC0000901414503D3B8F1FF3F03D006E0B8F164
:101DD000000F03D0E08F0028E1D13BE003264BE069
:101DE00008B1012D33D1E08F0128A06B03D9216800
:101DF0000088C8600FE021680078087314E0E0876D
:101E000025E020688168890714D5E18F0129A16B3D
:101E100008D90988C160A06B801CA063E08F801E78
:101E2000EDE727E009780173A06B401CA063E08F09
:101E3000401EE4E7FEF74EFCA0EB0901414503D349
:101E4000B8F1FF3F03D0C9E7B8F1000FC6D0E08F6B
:101E50000028D6D14A464146204600F010F908B184
:101E600020202066A06818B92068C16880680090AA
:101E7000206E08B1012601E084F85D7084F85CB042
:101E800030464FE72E2E2F447269766572732F53BA
:101E9000544D3332473478785F48414C5F4472691F
:101EA0007665722F5372632F73746D333267347893
:101EB000785F68616C5F7370692E630010B5401EB7
:101EC000B0F1807F01D3012010BD4FF0E0246061AC
:101ED0000F21601700F02AFC0020A061072020617C
:101EE000002010BDFEE700002DE9F04387B014216B
:101EF0006846FEF7E1F93A48C16C41F00401C1645B
:101F0000C16C01F004010591C16C41F02001C16474
:101F1000C16C01F020010591C16C41F04001C16428
:101F2000C16C01F040010591C16C41F00101C16437
:101F3000C16C01F001010591C16C41F00201C16465
:101F4000C06CDFF8A08000F0020045F21C0605908E
:101F5000002231464046FEF789FB4FF400474FF020
:101F60009049002239464846FEF780FB4FF4604016
:101F70000325CDE900050024694602941A48FEF7BE
:101F800015FA7811CDE90005694602941748FEF765
:101F90000DFA40F2FF70CDE900056946029448460B
:101FA000FEF704FA40F6E370CDE9000569460294B5
:101FB0004046FEF7FBF901250096CDE9015469463C
:101FC00040460394FEF7F2F90097CDE901546946C3
:101FD00048460394FEF7EAF907B0BDE8F083000035
:101FE00000100240000400480008004800180048A3
:101FF000124810B5104901604FF482714160002110
:102000004FF4E062C0E902124FF400720161C0E9CE
:1020100005121022C0E9072107224162C0E90A1215
:10202000016308214163FFF7B9FC002803D0BDE834
:102030001040FEF7A6B910BD003800405001002046
:102040000C4810B50A490160082101710221417153
:10205000C1710021017241728172C172FEF734FCBC
:10206000002803D0BDE81040FEF78BB910BD00007A
:10207000005C0040B4010020FEE7FEE77047F8B5C1
:1020800015460E460B460092044600224FF4C051FE
:1020900000F01AF888B933460022802120460095C6
:1020A00000F082F848B9334600224FF4C061204660
:1020B000009500F009F8002804D0206E40F02000C0
:1020C00020660320F8BD00002DE9FE4F4FF0000A06
:1020D000984617460E4604460C9D8DF804A0FEF760
:1020E000F9FA411BA8EB0105FEF7F4FA81462068D6
:1020F0004FF4C06B0C3002902A480068C0EBC0005F
:1021000000EB8000000D6843009043E05E4506D17F
:102110002FB9029800788DF804009DF80400B8F1FA
:10212000FF3F37D0FEF7D6FAA0EB0900A84203D252
:1021300015B1009858B32BE02068416821F0E00108
:1021400041606068B0F5827F0BD1A068B0F5004FA8
:1021500002D0B0F5806F04D12068016821F0400101
:102160000160A06AB0F5005F09D12068016821F420
:10217000005101602068016841F4005101600120B4
:1021800084F85D0084F85CA00320BDE8FE8F002584
:10219000401E0090206880683040B842B6D10020D0
:1021A000F3E700000C0000202DE9F8431E4691469D
:1021B00088460446089DFEF78DFA401B351AFEF747
:1021C00089FA074625480068C0F3CB30684338E0F9
:1021D000701C37D0FEF77EFAC01BA84203D215B19F
:1021E000009860B32CE02068416821F0E001416074
:1021F0006068B0F5827F0BD1A068B0F5004F02D0C7
:10220000B0F5806F04D12068016821F040010160C1
:10221000A06AB0F5005F09D12068016821F400517F
:1022200001602068016841F400510160012084F8D8
:102230005D00002084F85C000320BDE8F8830025E1
:10224000401E00902068816838EA010004D0002117
:102250004945BDD10020F0E70121F9E70C0000203D
:1022600070B51C4615460A19521ED3B24219521EA9
:10227000D2B2C9B2C0B2049E00F06CF92C2000F0BA
:10228000C1F9690061433046BDE8704000F0D8B93B
:102290002DE9F0411E46069B002415461F0A134AED
:1022A000DBB207E002F8147002EB440C641C8CF8FB
:1022B0000130A4B2AC42F5D38A19521ED3B24219EE
:1022C000521ED2B2C9B2C0B200F044F92C2000F0C4
:1022D00099F900246D0005E02946044800F0B0F9A2
:1022E000641CA4B2B442F7D3BDE8F0811000002012
:1022F00008B5002100905023A0220846FFF7C8FF30
:1023000008BD10B500F00EF9112000F07BF978201F
:10231000FEF73AF8B12000F075F9012000F054F909
:102320002C2000F051F92D2000F04EF9B22000F0E1
:1023300069F9012000F048F92C2000F045F92D2022
:1023400000F042F9B32000F05DF9012000F03CF903
:102350002C2000F039F92D2000F036F9012000F092
:1023600033F92C2000F030F92D2000F02DF9B420A5
:1023700000F048F9072000F027F9C02000F042F9EA
:10238000A22000F021F9022000F01EF9842000F0C4
:102390001BF9C12000F036F9C52000F015F9C22064
:1023A00000F030F90A2000F00FF9002000F00CF9DD
:1023B000C32000F027F98A2000F006F92A2000F057
:1023C00003F9C42000F01EF98A2000F0FDF8EE2089
:1023D00000F0FAF8C52000F015F90E2000F0F4F82E
:1023E000212000F00FF93A2000F00CF9052000F050
:1023F000EBF82A2000F006F9002000F0E5F80020B4
:1024000000F0E2F8002000F0DFF87F2000F0DCF8B8
:102410002B2000F0F7F8002000F0D6F8002000F0A4
:10242000D3F8002000F0D0F89F2000F0CDF8E02095
:1024300000F0E8F8022000F0C7F81C2000F0C4F813
:10244000072000F0C1F8122000F0BEF8372000F09D
:10245000BBF8322000F0B8F8292000F0B5F82D20A4
:1024600000F0B2F8292000F0AFF8252000F0ACF819
:102470002B2000F0A9F8392000F0A6F8002000F089
:10248000A3F8012000F0A0F8032000F09DF8102030
:1024900000F09AF8E12000F0B5F8032000F094F87D
:1024A0001D2000F091F8072000F08EF8062000F0C3
:1024B0008BF82E2000F088F82C2000F085F82920D9
:1024C00000F082F82D2000F07FF82E2000F07CF83C
:1024D0002E2000F079F8372000F076F83F2000F049
:1024E00073F8002000F070F8002000F06DF8022072
:1024F00000F06AF8102000F067F8132000F082F86E
:102500000A20FDF741FF292000F07CF80A20FDF7A2
:102510003BFF032000F03EF8BDE810400020FFF72D
:10252000E7BE000070B50A4D4FF4805400222146EA
:102530002846FEF79BF86420FDF726FF012221467E
:102540002846FEF793F8BDE870406420FDF71CBFF5
:1025500000040048F8B5451C01F11A04571C03F1AA
:102560001A062A2000F04EF8002000908DF8015045
:102570008DF803700421684600F062F82B2000F00B
:1025800041F88DF801408DF803600421684600F0A1
:1025900057F8F8BD10B5002430B1012806D0022844
:1025A00006D0032807D105E0C82404E0A82402E0EF
:1025B000082400E06824362000F024F82046BDE816
:1025C000104000F001B8000031B50C4C012291031D
:1025D0002046FEF74BF8002208212046FEF746F879
:1025E0004FF0FF33012269460548FFF777FB0122D0
:1025F00008212046FEF73AF838BD000000040048E4
:102600005001002031B50C4C00224FF4804120468F
:10261000FEF72CF8002208212046FEF727F84FF09D
:10262000FF33012269460548FFF758FB01220821C4
:102630002046FEF71BF838BD00040048500100207A
:1026400070B50D4E0D460446012291033046FEF74B
:102650000DF8002208213046FEF708F8AAB24FF024
:10266000FF3321460548FFF739FB3046BDE870408F
:1026700001220821FDF7FABF0004004850010020A4
:102680007047FEF72DB800B593B038216846FDF7C6
:1026900013FE14210EA8FDF70FFE4FF40070FEF795
:1026A000ABF9222000904FF48070039040200490FA
:1026B0000120069002200421CDE908014B21CDE93B
:1026C0000A1007900C900D906846FEF79DFE08B129
:1026D00072B6FEE70F200E9003200F90002010909E
:1026E0001190129004210EA8FEF7EAFC002801D0F8
:1026F00072B6FEE713B000BD0248016841F47001F4
:102700000160704788ED00E0012120F8401F0021A2
:102710000180818001820846704730F8401F4BF6E7
:1027200080729143018000207047FEE70907090E7F
:10273000002804DB00F1E02080F80014704700F06E
:102740000F0000F1E02080F8141D70477047000072
:1027500008B5FDF7CDFFFFF796FFFFF7C5FBFFF7C5
:102760006FFCFFF745FCFFF7CCFD144C0122102154
:102770002046FDF77BFF0122D1034FF09040FDF78B
:1027800075FF0020FFF7B4FD0D4D00220421204607
:10279000FDF76CFF6420FDF7F7FD012204212046C0
:1027A000FDF764FF6420FDF7EFFD1E231A4632217A
:1027B00078200095FFF754FDE7E70000000400488B
:1027C000CE2700084FF04070E1EE100A704700007D
:1027D00000000000000000000000000000000000F9
:1027E00000000000000000000000000000000000E9
:1027F00000000000000000000000000000000000D9
:1028000000000000000000000000000000000000C8
:1028100000000000000000000000000000000000B8
:1028200000000000000000000000000000000000A8
:102830000000000000000000000000000000000098
:102840000000000000000000000000000000000088
:102850000000000000000000000000000000000078
:102860000000000000000000000000000000000068
:102870000000000000000000000000000000000058
:102880000000000000000000000000000000000048
:1028900061088E73AE73AE73AE73AE73AE73AE7308
:1028A000AE73AE73AE73AE73AE73AE7345290000F4
:1028B0000000000000000000000000000000000018
:1028C000000000000000000000000000A631FFFF33
:1028D000FFFFFFFFFFFFFFFFFFFFFFFFFFFFFFFF08
:1028E000FFFFFFFFFFFFFFFF38C6C3180000000017
:1028F00000000000000000000000000000000000D8
:10290000000000000000000059CEFFFFFFFFFFFFA6
:10291000FFFFFFFFFFFFFFFFFFFFFFFFFFFFFFFFC7
:10292000FFFFFFFFFFFFEF7B000000000000000043
:102930000000000000000000000000000000000097
:102940006D6B7DEFFFFFFFFFEF7BA210A210A210C7
:10295000A210A2108A525DEFFFFFFFFFEB5A108416
:10296000FFFFFFFF1CE78A5200000000000000008C
:1029700000000000000000000000A210FFFFFFFFA9
:10298000FFFF18C6C3180000000000000000000090
:10299000A6313CE7FFFF694A00004D6BFFFFFFFFD8
:1029A000FFFFBEF700000000000000000000000074
:1029B000000000000000A210DFFFFFFF284200001F
:1029C000000075ADFFFFFFFF3CE7C739A63179CEA8
:1029D000284200002842DFFFFFFFFFFFFFFFBEF796
:1029E00000000000000000000000000000000000E7
:1029F0000000A210DFFFBEF7000061088E739EF793
:102A0000FFFFFFFF3CE7C7390421452900000842CA
:102A1000DFFFFFFFFFFFFFFFFFFFBEF7000000002B
:102A20000000000000000000000000000000A210F4
:102A3000DFFFBEF700004D6BFFFFFFFFFFFFFFFF53
:102A40003CE7C73900000000694AFFFFFFFFFFFFB6
:102A50003CE738C6FFFFBEF70000000000000000A2
:102A600000000000000000000000A210DFFFBEF721
:102A700000004D6BFFFFFFFFFFFFFFFF3CE7C73983
:102A80000000CB5ADFFFFFFFFFFFDBDE8A52E318B7
:102A9000FFFFBEF700000000000000000000000083
:102AA000000000000000A210DFFFBEF700004D6B29
:102AB000FFFFFFFFFFFFFFFF3CE7C739E318BAD670
:102AC000FFFFFFFF3CE7084200008E73FFFFBEF7E9
:102AD00000000000000000000000000000000000F6
:102AE0000000A210DFFFBEF700004D6BFFFFFFFFED
:102AF000FFFFFFFF3CE7C739A6313CE7FFFFFFFFC1
:102B0000C73900002C63BEF7FFFFBEF700000000CE
:102B10000000000000000000000000000000A21003
:102B2000DFFFBEF700004D6BFFFFFFFFFFFFFFFF62
:102B30003CE7C739A6313CE7FFFF45290000AA5210
:102B4000DFFFFFFFFFFFBEF70000000000000000F6
:102B500000000000000000000000A210DFFFBEF730
:102B600000004D6BFFFFFFFFFFFFFFFF3CE7C73992
:102B7000A631BAD645290000E739FFFFFFFFFFFF66
:102B8000FFFFBEF700000000000000000000000092
:102B9000000000000000A210DFFFBEF700004D6B38
:102BA000FFFFFFFFFFFFFFFF3CE7C7392421E318CA
:102BB0000000A631FFFFFFFFFFFFFFFFFFFFBEF793
:102BC0000000000000000000000000000000000005
:102BD0000000A210DFFFBEF700004D6BFFFFFFFFFC
:102BE000FFFFFFFF3CE7C739000000000842FFFF7E
:102BF000FFFFFFFF38C655ADFFFFDFFF00000000FD
:102C00000000000000000000000000000000A21012
:102C1000DFFFBEF700004D6BFFFFFFFFFFFFFFFF71
:102C20003CE7C7390000694ADFFFFFFFFFFF75ADD2
:102C3000E3186108DFFFBEF700000000000000009D
:102C4000000000000000000000008210DFFFBEF75F
:102C500000008631DBDEFFFFFFFFFFFF3CE7C739E7
:102C6000C318BAD6FFFFFFFF96B5E3188210D39CB6
:102C7000FFFFBEF7000000000000000000000000A1
:102C80000000000000000000DFFFFFFF718C00006B
:102C90009294FFFFFFFFFFFF3CE7C739A6313CE7F7
:102CA000FFFFB6B5A2108210D39CFFFFFFFFDFFF2E
:102CB0000000000000000000000000000000000014
:102CC00000000000DBDEFFFF59CE00000000F7BD72
:102CD000FFFFFFFF3CE7C73986313CE7B6B5200070
:102CE0004108D39CFFFFFFFFFFFF452900000000C4
:102CF00000000000000000000000000000000000D4
:102D00000000FFFFFFFFF39C0000000096B5FFFFEF
:102D10003CE7C739A631518C00000000B294FFFF98
:102D2000FFFFFFFFFFFF00000000000000000000A9
:102D3000000000000000000000000000000061082A
:102D4000FFFFFFFF518C61080000000038C686318C
:102D5000000000000000B294FFFFFFFFFFFF9EF79E
:102D60002000000000000000000000000000000043
:102D7000000000000000000000000000AE731CE72F
:102D8000FFFF59CE2842000000000000000061084B
:102D9000D39CFFFFFFFFFFFF1CE724210000000082
:102DA0000000000000000000000000000000000023
:102DB00000000000000000000000C739FBDEFFFF3C
:102DC000FFFF8E73E7390000A210D39CFFFFFFFFC7
:102DD000FFFF9AD6A63100000000000000000000AE
:102DE00000000000000000000000000000000000E3
:102DF0000000000000000000E73938C6FFFFFFFFB9
:102E00003CE7518C96B5FFFFFFFFFFFF92946529C9
:102E100000000000000000000000000000000000B2
:102E200000000000000000000000000000000000A2
:102E30000000000000000421694AFFFFFFFFFFFFC0
:102E4000FFFFFFFFFBDE494A2000000000000000FA
:102E50000000000000000000000000000000000072
:102E60000000000000000000000000000000000062
:102E70000000000000004529718CFFFFFFFFEB5AA6
:102E8000C318000000000000000000000000000067
:102E90000000000000000000000000000000000032
:102EA0000000000000000000000000000000000022
:102EB0000000000000000000000000000000000012
:102EC0000000000000000000000000000000000002
:102ED00000000000000000000000000000000102EF
:102EE0000304060708090000082F0008000000205E
:102EF0001000000014020008182F00081000002025
:102F0000E00A00003002000810000000010000008C
:082F1000000000000024F400A1
:04000005080001D915
:00000001FF
