:020000040800F2
:10000000C807002089010008AB140008A5130008E8
:10001000A91400088F020008D3190008000000008E
:100020000000000000000000000000006D19000842
:100030009102000800000000AD1400086F190008CC
:10004000A3010008A3010008A3010008A301000800
:10005000A3010008A3010008A3010008A3010008F0
:10006000A3010008A3010008A3010008A3010008E0
:10007000A3010008A3010008A3010008A3010008D0
:10008000A3010008A3010008A3010008A3010008C0
:10009000A3010008A3010008A3010008A3010008B0
:1000A000A3010008A3010008A3010008A3010008A0
:1000B000A3010008A3010008A3010008A301000890
:1000C000A3010008A3010008A3010008A301000880
:1000D000A3010008A3010008A3010008A301000870
:1000E000A3010008A3010008A301000800F002F822
:1000F00000F03AF80AA090E8000C82448344AAF188
:100100000107DA4501D100F02FF8AFF2090EBAE885
:100110000F0013F0010F18BFFB1A43F0010318473B
:100120004019000060190000103A24BF78C878C157
:10013000FAD8520724BF30C830C144BF04680C60ED
:10014000704700000023002400250026103A28BF35
:1001500078C1FBD8520728BF30C148BF0B60704739
:100160001FB51FBD10B510BD00F058F81146FFF7C0
:10017000F7FF01F040FC00F076F803B4FFF7F2FF60
:1001800003BC00F07DF8000009488047094800479B
:10019000FEE7FEE7FEE7FEE7FEE7FEE7FEE7FEE737
:1001A000FEE7FEE704480549054A064B7047000094
:1001B000D1190008ED000008C8010020C807002080
:1001C000C8030020C80300204FF0000200B513460A
:1001D00094469646203922BFA0E80C50A0E80C5067
:1001E000B1F12001BFF4F7AF090728BFA0E80C5018
:1001F00048BF0CC05DF804EB890028BF40F8042B11
:1002000008BF704748BF20F8022B11F0804F18BF7D
:1002100000F8012B7047704770477047754600F033
:100220002BF8AE4605006946534620F00700854688
:1002300018B020B5FFF7B6FFBDE820404FF000062C
:100240004FF000074FF000084FF0000B21F00701BE
:10025000AC46ACE8C009ACE8C009ACE8C009ACE801
:10026000C0098D46704710B50446AFF300802046A4
:10027000BDE81040FFF781BF0048704768010020CB
:1002800001491820ABBEFEE7260002007047FEE7DA
:10029000704772B6FEE7000070B5044600F0D6F96C
:1002A0000546601C02D004480078044400F0CEF9F2
:1002B000401BA042FAD370BD000000202DE9F84F8A
:1002C0000026DFF89CB20D460446B14658450FD0D3
:1002D000A44884420CD0A448844209D0A348844254
:1002E00006D0A348844203D0BD21A2A001F082FB26
:1002F00028680104090C01D0000C03D0BE219DA088
:1003000001F078FB6868DFF8A8A200281ED0012859
:10031000FCD01128FAD00228F8D01228F6D0504587
:10032000F4D0A4498842F1D0A3498842EED0A34931
:100330008842EBD0A2498842E8D0A2498842E5D061
:100340000328E3D0BF218BA001F054FB00E1012082
:1003500000FA06F807EA080747456FD15C450FD059
:10036000804884420CD08048844209D07F4884422F
:1003700006D07F48844203D0CD217EA001F03AFB15
:100380006868A0EB0A02504559D00EDC032875D0EE
:1003900006DC002853D0012819D0022869D131E0A9
:1003A000112821D0122864D13AE0B2F5881F46D036
:1003B00006DCB2F5803F42D0B2F5801F59D13EE055
:1003C000B2F5001F3BD0B2F5041F52D137E0E86808
:1003D000022807D0012805D0032803D0D52165A025
:1003E00001F008FBE8683EE0E868022807D0012831
:1003F00005D0032803D0DC215EA001F0FBFAE868F9
:10040000001D30E0E868022807D0012805D0032845
:1004100003D0E32157A001F0EDFAE868083022E0AC
:10042000E868022807D0012805D0032803D0EA2174
:1004300050A001F0DFFAE8680C3014E087E0A8680B
:1004400080B1012811D0022807D0F72149A001F07E
:10045000D1FAA86830B1012807D04FF00809C4F8D4
:10046000148006E00420814603E04FF00809C4F838
:100470001080FF2F05D8214605E0FFE74FF0000070
:10048000F1E704F104014FEA860001D9A0F1200050
:100490000B684FF00F0202FA00FC23EA0C0309FA82
:1004A00000FC43EA0C030B606868C0004FD5464867
:1004B000816941F001018161806926F0030100F04A
:1004C0000100009041480B189868B1074FEA117C71
:1004D00002FA0CF290435C4501D100210FE0214962
:1004E0008C4201D101210AE01F498C4201D1022135
:1004F00005E01E498C4201D1032100E0042101FAEC
:100500000CF1014399606868C0023148016801D567
:10051000394300E0B9430160686880022D480168F2
:1005200001D5394300E0B9430160686880032A4877
:10053000016801D5394300E0B94301606868C00330
:100540002648016801D5394300E0B9430160761CB3
:100550002F6837FA06F07FF4FAAEBDE8F88F000096
:1005600000080140000C014000100140001401404F
:10057000001801402E2E2F447269766572732F5336
:10058000544D3332463178785F48414C5F4472694C
:100590007665722F5372632F73746D3332663178C0
:1005A000785F68616C5F6770696F2E6300000000A0
:1005B0000000111000002110000031100000121086
:1005C0000000221000003210001002400000014024
:1005D000080401400C0401400404014000040140EF
:1005E00070B515460C00064604D14FF4EA7108A018
:1005F00001F000FA45B1012D04D040F2D51104A05C
:1006000001F0F8F9346170BD2004306170BD000064
:100610002E2E2F447269766572732F53544D3332E8
:10062000463178785F48414C5F4472697665722F35
:100630005372632F73746D3332663178785F6861FB
:100640006C5F6770696F2E6300000000014880686E
:1006500070470000000000200248816802781144C1
:100660008160704700000020074810B5016841F024
:1006700010010160032000F097F80F2000F006F849
:1006800000F024F8002010BD0020024070B50D4D90
:1006900004464FF47A712878B1FBF0F00A490968F2
:1006A000B1FBF0F000F06AFE48B9102C07D200222E
:1006B0002146501E00F028F800206C6070BD01201B
:1006C00070BD0000000000200C0000200C4808B5A0
:1006D000816941F001018161816901F001010091AD
:1006E000C16941F08051C161C06900F08050009043
:1006F0000448416821F0E06141F00071416008BDAB
:10070000001002400000014070B515460C46064638
:10071000102A03D3A92114A001F06CF9102C03D3E3
:10072000AA2111A001F066F91E480068C0F3022357
:10073000C3F107022046042A00D90422191D072903
:1007400001D2002300E0DB1E012404FA02F1491E5D
:10075000014099409C40641E2C4021433046BDE836
:10076000704001F037B900002E2E2F447269766573
:1007700072732F53544D3332463178785F48414C71
:100780005F4472697665722F5372632F73746D3391
:1007900032663178785F68616C5F636F7274657818
:1007A0002E6300000CED00E010B5044607280BD0C6
:1007B000062C09D0052C07D0042C05D0032C03D01F
:1007C000912108A001F016F9154904F00702086804
:1007D0004FF6FF03184040EA0220124A1043086017
:1007E00010BD00002E2E2F447269766572732F5350
:1007F000544D3332463178785F48414C5F447269DA
:100800007665722F5372632F73746D33326631784D
:10081000785F68616C5F636F727465782E63000047
:100820000CED00E00000FA052DE9F0470F46050049
:1008300078D02868C1070AD1810708D4410706D4B7
:10084000000704D440F236316FA001F0D3F847B16D
:10085000012F06D0022F04D040F237316AA001F0F8
:10086000C9F8774E306800F00700B84209D2306806
:1008700020F0070038433060306800F00700B842CD
:1008800077D128686F4C810729D5400703D5606868
:1008900040F4E06060602878000703D5606840F4A9
:1008A00060506060A868A0B1802812D0902810D055
:1008B000A0280ED0B0280CD0C0280AD0D02808D04C
:1008C000E02806D0F02804D040F25D314EA001F0BF
:1008D00091F86068A96820F0F0000843606028780B
:1008E000C00737D0686868B101281CD002281DD025
:1008F0004FF4597144A001F07DF86868012812D0C6
:10090000022813D020688007002832DA60686968FE
:1009100020F0030008436060FFF798FE804641F234
:10092000883910E025E020688003EDE72068800129
:10093000EAE700BFFFF78AFEA0EB0801494502D9AC
:100940000320BDE8F0876068696800F00C00B0EB38
:10095000810FEFD1306800F00700B8420BD9306842
:1009600020F0070038433060306800F00700B842DC
:1009700001D00120E5E728784FF4806640074FF466
:10098000A0674FF4C0684FF4E06914D5E86860B11F
:10099000B0420AD0B84208D0404506D0484504D0FD
:1009A00040F2A23118A001F025F86068E96820F44F
:1009B000E060084360602878000715D5286960B1B9
:1009C000B0420AD0B84208D0404506D0484504D0CD
:1009D00040F2A9310CA001F00DF86068296920F4FB
:1009E000605040EAC100606000F034F86168164A67
:1009F000C1F30311515CC8401449086014480068F1
:100A0000FFF744FE00209CE72E2E2F447269766586
:100A100072732F53544D3332463178785F48414CCE
:100A20005F4472697665722F5372632F73746D33EE
:100A300032663178785F68616C5F7263632E630041
:100A400000200240001002404E1A00080C00002056
:100A5000040000200E4A51680E4801F00C03042BDC
:100A600011D0082B0FD10C48C1F38343C903C05CDC
:100A70000AD55168084AC1F34041921E515C054AAB
:100A80005043B0FBF1F07047044948437047000001
:100A90000010024000127A003E1A000800093D00D2
:100AA0002DE9F84F04007DD0FA4EFB4D20684FF041
:100AB000010A4FF000084FF4803960B1C1070DD131
:100AC000810762D401076ED440076DD440F26511EE
:100AD000F2A000F08FFF2078C00753D060684FF479
:100AE000A02740B1484506D0B84204D040F26B116F
:100AF000EAA000F07FFF6868C0F38100012807D0FA
:100B00006868C0F38100022809D16868C00306D56F
:100B10002868800336D560680028C4D032E0606859
:100B2000484503D1286840F4803009E008B1B84254
:100B30000DD0286820F480302860286820F48020B8
:100B40002860606888B1FFF781FD074609E02868E2
:100B500040F480202860E5E7FFF778FDC01B64289B
:100B600077D828688003F7D50CE0FFF76FFD0746BC
:100B700005E000BFFFF76AFDC01B6428F0D82868B5
:100B80008003F7D4207880074ED5206930B1012842
:100B900004D040F29F11C1A000F02CFF60691F2813
:100BA00008D902E096E042E07BE04FF4D071BBA0B0
:100BB00000F020FF686810F00C0F07D06868C0F3E1
:100BC0008100022809D16868C00306D4286880071C
:100BD00014D5206901287DD110E02069B0B1C6F894
:100BE00000A0FFF733FD074605E000BFFFF72EFD2D
:100BF000C01B0228B4D828688007F7D52868616927
:100C000020F0F80040EAC10028600DE0C6F800803E
:100C1000FFF71CFD074604E0FFF718FDC01B022884
:100C20009ED828688007F7D42078000736D5A94FCA
:100C3000A06920B3012806D04FF4F07197A000F00E
:100C4000D9FEA069D8B1C7F800A0FFF7FFFC07469E
:100C500005E054E1FFF7FAFCC01B02288ED8686A51
:100C60008007F7D59C484FF4FA510068B0FBF1F0CB
:100C7000009000BF0098411E0091FAD20EE0C7F824
:100C80000080FFF7E3FC074605E000BFFFF7DEFC4E
:100C9000C01B0228AED8686A8007F7D420784007C6
:100CA0006ED5E068002740B1012806D0052804D0A1
:100CB00040F20F2179A000F09DFEE869C00008D441
:100CC000E86940F08050E861E869012700F0805051
:100CD000009000E027E181480168C90512D401684D
:100CE00041F480710160FFF7B1FC834606E000BF6C
:100CF000FFF7ACFCA0EB0B00642891D877480068A4
:100D0000C005F5D5E06801280AD008B1052811D042
:100D1000286A20F001002862286A20F0040002E01E
:100D2000286A40F001002862E068A8B1FFF78EFC55
:100D300083460DE0286A40F004002862F0E700BF17
:100D4000FFF784FCA0EB0B0141F28830814285D88B
:100D5000286A8007F4D50EE0FFF778FC834607E0A9
:100D6000FFF774FCA0EB0B0141F28830814291D86F
:100D7000286A8007F4D41FB1E86920F08050E86148
:100D8000E06900287ED0012809D0022807D040F26F
:100D9000AD2142A000F02EFEE069002872D0686804
:100DA000C0F381000228E0696DD0022805D0C6F8A2
:100DB0006080FFF74BFC0446A4E0206A30B1484550
:100DC00004D040F2B62135A000F014FE606A70B382
:100DD000B0F5802F2BD0B0F5002F28D0B0F5402FE4
:100DE00025D0B0F5801F22D0B0F5A01F1FD0B0F5E0
:100DF000C01F1CD0B0F5E01F19D0B0F5001F16D0F1
:100E0000B0F5101F13D0B0F5201F10D0B0F5301F73
:100E10000DD0B0F5401F0AD0B0F5501F07D0B0F587
:100E2000601F04D040F2B7211CA000F0E3FDC6F81B
:100E30006080FFF70BFC074605E000BFFFF706FCEC
:100E4000C01B02285BD828688001F7D4206A484577
:100E50000FD1A06838B1B0F5003F04D040F2CD21E9
:100E60000EA000F0C7FD6868A16820F400300843B8
:100E70006860D4E908010843696821F474110843E3
:100E8000686001E051E041E0C6F860A0FFF7DEFBDA
:100E900004462AE000004242001002402E2E2F4459
:100EA0007269766572732F53544D333246317878B8
:100EB0005F48414C5F4472697665722F5372632FAD
:100EC00073746D3332663178785F68616C5F72631A
:100ED000632E6300800442420C000020007000403A
:100EE000FFF7B4FB001B022809D828688001F7D55A
:100EF0001BE000BFFFF7AAFB001B022802D903205A
:100F0000BDE8F88F28688001F4D40EE00128F7D0FE
:100F10006868226A00F48031914204D1616A00F469
:100F20007010884201D00120EAE70020E8E70000C5
:100F300070B504007ED07B492068884207D07A498A
:100F4000884204D04FF4AB7178A000F053FD606884
:100F50004FF4827630B1B04204D040F2571173A002
:100F600000F048FDA06850B1B0F5806F07D0B0F533
:100F7000004F04D04FF4AC716CA000F03BFDE06872
:100F8000B0F5006F05D020B140F2591167A000F014
:100F900031FDA069B0F5007F08D038B1B0F5802FE1
:100FA00004D04FF4AD7161A000F024FDE06990B170
:100FB000082810D010280ED018280CD020280AD0CD
:100FC000282808D0302806D0382804D040F25B11F9
:100FD00056A000F00FFD206A30B1802804D04FF4F5
:100FE000AE7152A000F006FD606A002538B340F2F1
:100FF0005F114EA000F0FEFC606A00B3E06990B1A2
:10100000082810D010280ED018280CD020280AD07C
:10101000282808D0302806D0382804D040F2711192
:1010200042A000F0E7FC25616561A56294F85100DB
:10103000002800E001E030D034E0012070BD2069DC
:1010400030B1022804D04FF4B17138A000F0D2FCC6
:10105000606930B1012804D040F2631133A000F080
:10106000C9FC6068B04216D1E0690028DDD00828CC
:10107000DBD01028D9D01828D7D02028D5D02828C0
:10108000D3D03028D1D03828CFD040F2671127A054
:1010900000F0B0FCC9E7E561C7E784F8505020468E
:1010A00000F060F8022084F851002068016821F007
:1010B00040010160A088218900F4827001F404419C
:1010C0000843A18901F400610843217C01F0020179
:1010D0000843217D01F001010843218B01F40071D7
:1010E0000843217F01F03801084394F8201001F0F3
:1010F00080010843218D01F40051084321680860F4
:10110000A069042101EA1040216848602068C16993
:1011100021F40061C1616565012084F8510000205F
:1011200070BD000000300140003800402E2E2F44DA
:101130007269766572732F53544D33324631787825
:101140005F48414C5F4472697665722F5372632F1A
:1011500073746D3332663178785F68616C5F737079
:10116000692E630000B585B00021009101910291C4
:10117000039100680F4988421AD10F48816941F4F0
:1011800080518161816901F480510491816941F04C
:10119000040181618069694600F004000490A02088
:1011A000009002200190032003900448FFF786F886
:1011B00005B000BD003001400010024000080140B1
:1011C0002DE9F84F04468068984615468A46002661
:1011D00038B1B0F5004F04D04FF4487159A000F079
:1011E00009FC94F8500001280DD0012784F85070B4
:1011F000FFF72CFA814694F851004FF0000B0128BC
:1012000004D002269AE00220BDE8F88FBAF1000F60
:101210006FD0002D6DD0032084F85100C4F854B075
:10122000C4F830A0A586E586C4F838B0A4F83CB070
:10123000A4F83EB0C4F844B0C4F840B0A068B0F51B
:10124000004F09D12068016821F040010160206849
:10125000016841F48041016020680168490603D4B7
:10126000016841F040010160E068B0F5006F60681E
:1012700003D058B3012D29D049E008B1012D1FD169
:10128000206B21680088C86006E0206881688907B3
:1012900009D5216B0988C160206B801C2063E08E1A
:1012A000401EE0860CE0FFF7D1F9A0EB09014145B3
:1012B00003D3B8F1FF3F03D006E0B8F1000F03D02D
:1012C000E08E0028E1D125E0032635E0206B21687F
:1012D0000078087306E02068816889070AD5216BC9
:1012E00009780173206B401C2063E08E401EE0866D
:1012F0000DE01FE0FFF7AAF9A0EB0901414503D378
:10130000B8F1FF3F03D0DFE7B8F1000FDCD0E08E8B
:101310000028E0D14A464146204600F0C8F808B10E
:1013200020206065A06818B92068C16880680090B6
:10133000606D08B1012601E084F8517084F850B066
:10134000304661E72E2E2F447269766572732F53F3
:10135000544D3332463178785F48414C5F4472696E
:101360007665722F5372632F73746D3332663178E2
:10137000785F68616C5F7370692E630010B5401E02
:10138000B0F1807F01D3012010BD4FF0E0246061F7
:101390000F21601700F01EFB0020A06107202061D4
:1013A000002010BDFEE7000070B586B0002528487B
:1013B0000095019502950395816941F010018161C5
:1013C000816901F010010491816941F0200181617E
:1013D000816901F020010491816941F0040181617A
:1013E000816901F004010491816941F00801816182
:1013F0008069184E00F00800049000221E2130463B
:10140000FFF7EEF84FF460400324CDE9000469468D
:101410001148FEF753FF49F64170CDE900046946D3
:101420003046FEF74BFF1E2000900120CDE901055C
:101430000220039069463046FEF740FF4FF6FF70EA
:10144000CDE9000469460548FEF738FF06B070BDD7
:10145000001002400008014000100140000C014053
:10146000104810B50E4901604FF4827141600021AF
:101470008160C1604FF400720161C0E90512102261
:10148000C0E90721416281620A21C162FFF750FD74
:10149000002803D0BDE81040FEF7FBBE10BD0000E1
:1014A0000030014010010020FEE7FEE7704738B52C
:1014B0000B46009204460022802100F009F8002823
:1014C00004D0606D40F020006065032038BD00004E
:1014D0002DE9F8431E46914688460446089DFFF7CD
:1014E000B5F8401B351AFFF7B1F8074625480068E4
:1014F000C0F3CB30684338E0701C37D0FFF7A6F854
:10150000C01BA84203D215B1009860B32CE020683C
:10151000416821F0E00141606068B0F5827F0BD145
:10152000A068B0F5004F02D0B0F5806F04D12068FC
:10153000016821F040010160A06AB0F5005F09D1A7
:101540002068016821F4005101602068016841F4BD
:1015500000510160012084F85100002084F85000FF
:101560000320BDE8F8830025401E009020688168B4
:1015700038EA010004D000214945BDD10020F0E740
:101580000121F9E70C0000202DE9F0411E46069BE1
:10159000002415461F0A134ADBB207E002F8147054
:1015A00002EB440C641C8CF80130A4B2AC42F5D3BD
:1015B0008A19521ED3B24219521ED2B2C9B2C0B257
:1015C00000F042F92C2000F093F900246D0005E0B2
:1015D0002946044800F0AAF9641CA4B2B442F7D327
:1015E000BDE8F0811000002008B500210090A02384
:1015F00080220846FFF7C8FF08BD10B500F00EF9BD
:10160000112000F075F97820FEF746FEB12000F0B9
:101610006FF9012000F04EF92C2000F04BF92D203D
:1016200000F048F9B22000F063F9012000F042F91F
:101630002C2000F03FF92D2000F03CF9B32000F001
:1016400057F9012000F036F92C2000F033F92D2055
:1016500000F030F9012000F02DF92C2000F02AF9DB
:101660002D2000F027F9B42000F042F9072000F007
:1016700021F9C02000F03CF9A22000F01BF9022063
:1016800000F018F9842000F015F9C12000F030F9BD
:10169000C52000F00FF9C22000F02AF90A2000F05E
:1016A00009F9002000F006F9C32000F021F98A2092
:1016B00000F000F92A2000F0FDF8C42000F018F92D
:1016C0008A2000F0F7F8EE2000F0F4F8C52000F0D2
:1016D0000FF90E2000F0EEF8202000F009F93A2072
:1016E00000F006F9052000F0E5F82A2000F000F9E6
:1016F000002000F0DFF8002000F0DCF8002000F00F
:10170000D9F87F2000F0D6F82B2000F0F1F8002067
:1017100000F0D0F8002000F0CDF8002000F0CAF86A
:101720009F2000F0C7F8E02000F0E2F8022000F06F
:10173000C1F81C2000F0BEF8072000F0BBF8122012
:1017400000F0B8F8372000F0B5F8322000F0B2F819
:10175000292000F0AFF82D2000F0ACF8292000F08F
:10176000A9F8252000F0A6F82B2000F0A3F83920D6
:1017700000F0A0F8002000F09DF8012000F09AF899
:10178000032000F097F8102000F094F8E12000F01A
:10179000AFF8032000F08EF81D2000F08BF8072032
:1017A00000F088F8062000F085F82E2000F082F87E
:1017B0002C2000F07FF8292000F07CF82D2000F08C
:1017C00079F82E2000F076F82E2000F073F83720FC
:1017D00000F070F83F2000F06DF8002000F06AF88B
:1017E000002000F067F8022000F064F8102000F0FC
:1017F00061F8132000F07CF80A20FEF74DFD292047
:1018000000F076F80A20FEF747FD002000F03AF8D5
:10181000BDE810400020FFF7E7BE000010B5094CFE
:10182000002210212046FEF7DBFE6420FEF734FD87
:10183000012210212046FEF7D3FEBDE810406420AF
:10184000FEF72ABD00080140F8B507461C461546BC
:101850000E462A2000F04CF8002000908DF8017010
:101860008DF803500421684600F060F82B2000F04A
:101870003FF88DF801608DF803400421684600F0C0
:1018800055F8F8BD10B5002430B1012806D0022863
:1018900007D0032805D103E0C02402E0A02400E023
:1018A0006024362000F024F82046BDE8104000F007
:1018B00001B8000031B50C4C012208212046FEF78A
:1018C0008FFE002204212046FEF78AFE4FF0FF33F0
:1018D000012269460548FFF773FC012204212046D6
:1018E000FEF77EFE38BD0000000801401001002018
:1018F00031B50C4C002208212046FEF771FE002273
:1019000004212046FEF76CFE4FF0FF3301226946AA
:101910000548FFF755FC012204212046FEF760FE32
:1019200038BD0000000801401001002070B50D4EC8
:101930000D460446012208213046FEF751FE0022E2
:1019400004213046FEF74CFEAAB24FF0FF33214689
:101950000548FFF735FC3046BDE870400122042100
:10196000FEF73EBE00080140100100207047FEF760
:1019700073BE30B58FB028216846FEF725FC1421D0
:101980000AA8FEF721FC01210804CDE9001000247B
:10199000029402250491CDE907504FF4E01009901C
:1019A0006846FFF77DF808B172B6FEE70F20CDE973
:1019B0000A054FF48060CDE90C4002210AA80E947C
:1019C000FEF732FF002801D072B6FEE70FB030BD3F
:1019D0007047FEE70907090E002804DB00F1E0204C
:1019E00080F80014704700F00F0000F1E02080F84C
:1019F000141D70477047FEF737FEFFF7FEFDFFF737
:101A0000B8FFFFF7D1FCFFF72BFD4FF478454FF4FB
:101A1000FA744FF4FC662846FFF7E6FD2046FEF711
:101A20003BFC3046FFF7E0FD2046FEF735FC1F206B
:101A3000FFF7DAFD2046FEF72FFCECE70102020378
:101A40000405060708090A0B0C0D0E0F1010000004
:101A5000000000000000010203040607080900005E
:101A6000801A000800000020100000002801000873
:101A7000901A000810000020B80700004401000878
:101A80000100000010000000000000000024F4002D
:04000005080000ED02
:00000001FF
