:020000040800F2
:100000003063002029020008B74E0008F9460008B6
:10001000B54E00081F040008297300080000000006
:100020000000000000000000000000003550000843
:100030006905000800000000335000084150000826
:10004000430200084302000843020008430200087C
:1000500043020008430200086B0500084302000841
:10006000430200084302000843020008430200085C
:1000700099040008430200084302000843020008F4
:100080004302000843020008430200082D04000850
:10009000210400084302000843020008710500081B
:1000A000F150000843020008430200084302000820
:1000B000430200084302000843020008430200080C
:1000C00043020008430200084302000843020008FC
:1000D0004302000861580008430200086D580008F8
:1000E00043020008430200084302000843020008DC
:1000F00043020008430200084302000843020008CC
:1001000043020008430200084302000843020008BB
:1001100043020008430200084302000843020008AB
:10012000A5040008B1040008BD040008C9040008C3
:100130004302000843020008430200084504000887
:10014000390400084302000843020008B94E0008C1
:1001500043020008D5040008E104000879580008AB
:10016000430200084302000843020008430200085B
:100170004302000843020008430200080000000098
:10018000430200084302000800F002F800F03CF8C7
:100190000AA090E8000C82448344AAF10107DA45E2
:1001A00001D100F031F8AFF2090EBAE80F0013F0F8
:1001B000010F18BFFB1A43F001031847307200000B
:1001C00050720000103A24BF78C878C1FAD852079C
:1001D00024BF30C830C144BF04680C6070470000C1
:1001E0000023002400250026103A28BF78C1FBD840
:1001F000520728BF30C148BF0B6070471FB507F0DA
:10020000DFF81FBD10B510BD00F0CFF81146FFF7A5
:10021000F5FF07F09BF800F0EDF803B4FFF7F2FFED
:1002200003BC00F0F5F80000094880470948004782
:10023000FEE7FEE7FEE7FEE7FEE7FEE7FEE7FEE796
:10024000FEE7FEE704480549054A064B70470000F3
:10025000E1500008890100083023002030630020AD
:10026000304300203043002053EA020C00F0698044
:100270002DE9F04B4FF00006002B1FBFB3FA83F5BA
:1002800003FA05F424FA05F65E4012BF1643B2FAEB
:1002900082F502FA05F4C5F120051EBF22FA05FC1D
:1002A00044EA0C04203556EA044C4FEA144418BFC3
:1002B000641C4FF000084FF00009904271EB030CF2
:1002C00039D3002919BFB1FA81F701FA07F6B0FA5C
:1002D00080F700FA07F6C7F120071EBF20FA07FCD7
:1002E00046EA0C062037B6FBF4FCA7EB0507103FE7
:1002F00007F01F0BCBF120060CFA0BFB2CFA06F6CD
:1003000044BFB3460026202FA4BF5E464FF0000B2B
:100310005BEA060C08BF4FF0010B19EB0B09ABFBB6
:10032000027C48EB0608C01B06FB02CC0BFB03CC8F
:1003300071EB0C01C1E70B46024641464846BDE859
:10034000F08B13B54FF000004FF00001AFF30080C9
:10035000BDE81C4070474FF0000200B513469446BC
:100360009646203922BFA0E80C50A0E80C50B1F10D
:100370002001BFF4F7AF090728BFA0E80C5048BF21
:100380000CC05DF804EB890028BF40F8042B08BFBF
:10039000704748BF20F8022B11F0804F18BF00F8BB
:1003A000012B7047704770477047754600F02CF876
:1003B000AE4605006946534620F00700854618B052
:1003C00020B5FFF73FFFBDE820404FF000064FF09B
:1003D00000074FF000084FF0000B21F00701AC467A
:1003E000ACE8C009ACE8C009ACE8C009ACE8C00999
:1003F0008D46704710B50446AFF300802046BDE837
:100400001040FFF70ABF000000487047D0220020CC
:1004100001491820ABBEFEE7260002007047FEE748
:10042000014800F0B1B8000008010020014800F0C8
:10043000ABB8000008010020014800F0A5B800009A
:1004400030010020014800F09FB80000300100207A
:10045000002070470020704710B50022044905486D
:1004600005F0F0FB0449034805F0DFFB002010BD58
:10047000CC130020F0060020CC0B002010B5014664
:10048000034805F0D2FB024805F0A8FB002010BD90
:10049000F006002000207047014800F0D5BB0000A6
:1004A00088050020014800F0CFBB000010020020AA
:1004B000014800F0C9BB0000E8050020014800F039
:1004C000C3BB0000C8040020014800F0BDBB000011
:1004D00070020020014800F0B7BB00004806002071
:1004E000014800F0B1BB0000280500200168182376
:1004F000CAB2103AB2FBF3F2054B6FF30901032ABB
:100500009B5CC36500D9091D8165084670470000E2
:10051000CA73000810B5014600208B698A6A4FF043
:10052000C07453B1B3F5005F15D072B1012A0CD07D
:10053000022A0AD0032A09D104E01AB1012A06D0FE
:10054000022A03D1C96AC90100D5012010BDC96AB8
:10055000A142FAD010BD002AF7D0012AF2D0022A17
:10056000F3D0032AF3D010BD7047012000F0C0BDC6
:1005700010B5202000F0BCFDBDE81040402000F088
:10058000B7BD72B6FEE770472DE9F05F054600681B
:1005900000244669D0F804908768D0F80CB0D0F8F1
:1005A00010A0D0F81880F10748D0F90714D0012125
:1005B0008160B80703D5284600F0E4FA0CE078071C
:1005C00002D54FF4006407E0380702D54FF4805499
:1005D00002E0284600F0D5FAF80516D529684FF450
:1005E00080708860B80503D5284600F0CDFA0CE08D
:1005F000780502D544F4005407E0380502D544F4E8
:10060000804402E0284600F0BEFAF80316D52968B7
:100610004FF480308860B80303D5284600F0B6FA5E
:100620000CE0780302D544F4004407E0380302D517
:1006300044F4803402E0284600F0A7FA300707D5DA
:100640005FEACB6004D52968102044F40074C860C8
:1006500070074FF0080707D55FEA0B7004D52868CC
:10066000C760284600F088FAB00706D52868C06839
:10067000800702D0284600F080FA700607D55FEAAE
:10068000CA6004D52968102044F480640861B0066B
:1006900007D55FEA0A7004D528680761284600F08C
:1006A0006DFAF00606D528680069800702D0284652
:1006B00000F065FAB00308D55FEAC96005D529687E
:1006C00010204860284600F05BFAF00307D55FEA87
:1006D000097004D528684760284600F058FA3004AD
:1006E00046D55FEA497040D5F00504D55FEAC87089
:1006F00001D044F00104B00504D55FEA887001D54B
:1007000044F00204700504D55FEA487001D544F056
:100710000404300529D518F0700F26D008F07000B9
:10072000402815D006DC102809D020280AD030280F
:1007300016D10AE050280ED0602811D10EE044F006
:1007400008040DE044F010040AE044F0200407E03F
:1007500044F0400404E044F0800401E044F4807478
:100760002868816921F0700181612968042048604E
:10077000002C05D0686A204368622846FFF703FF13
:10078000BDE8F09F70B504007ED0A449206888427F
:1007900007D0A349884204D04FF48F71A1A006F07E
:1007A000D4FD207E30B1012804D040F21F119DA05D
:1007B00006F0CBFD607E30B1012804D04FF490717B
:1007C00098A006F0C2FDA07E30B1012804D040F20E
:1007D000211194A006F0B9FDE07E30B1012804D0CB
:1007E0004FF491718FA006F0B0FD207F30B1012849
:1007F00004D040F223118BA006F0A7FD607F30B13A
:10080000012804D04FF4927186A006F09EFDA068E6
:1008100068B1B0F1804F0AD0B0F1004F07D0B0F10D
:10082000404F04D040F225117EA006F08EFDE06816
:1008300068B1B0F1807F0AD0B0F1007F07D0B0F18D
:10084000407F04D04FF4937176A006F07EFD2069BE
:1008500098B3B0F5803F30D0B0F5003F2DD0B0F563
:10086000403F2AD0B0F5802F27D0B0F5A02F24D05C
:10087000B0F5C02F21D0B0F5E02F1ED0B0F5002F7D
:100880001BD0B0F5102F00E041E016D0B0F5202FBE
:1008900013D0B0F5302F10D0B0F5402F0DD0B0F5FB
:1008A000502F0AD0B0F5602F07D0B0F5702F04D0CC
:1008B00040F227115BA006F048FD6069C8B1B0F5B1
:1008C000801F16D0B0F5001F13D0B0F5401F10D018
:1008D000B0F5800F0DD0B0F5A00F0AD0B0F5C00F65
:1008E00007D0B0F5E00F04D04FF494714DA006F09E
:1008F0002CFD6068401EB0F5806F04D340F22911D2
:1009000048A006F022FD94F8200010B104E0012078
:1009100070BD204600F0A2F82068016841F0010196
:10092000016000F0A5FD0546052604E000F0A0FDED
:10093000401B0A2811D820684068C007F6D02068FC
:10094000016821F00201016000F092FD05460BE014
:1009500000F08EFD401B0A2806D9606A40F4003082
:10096000606284F82060D2E7206840688007EFD496
:10097000207E0128206801683DD021F080010160BF
:10098000607E01282068016838D021F040010160B4
:10099000A07E01282068016833D021F02001016089
:1009A000E07E0128206801682ED041F0100101602E
:1009B000207F01282068016829D021F0080101600A
:1009C000607F01282068016824D021F004010160C3
:1009D000D4E902010843D4E90412114308436168D1
:1009E000491E08432168C86100206062012084F824
:1009F0002000002070BD41F08001C0E741F04001BF
:100A0000C5E741F02001CAE721F01001CFE741F02E
:100A10000801D4E741F00401D9E700000064004078
:100A2000006800402E2E2F447269766572732F5332
:100A3000544D3332463478785F48414C5F44726994
:100A40007665722F5372632F73746D333266347808
:100A5000785F68616C5F63616E2E6300F0B587B08C
:100A6000044614216846FFF776FC3E4B3E48DFF80B
:100A7000F0E01968D4F800C03B4A03250226092794
:100A800010300024491CF4452AD11960012907D1EE
:100A9000016841F000710160006800F0007005908D
:100AA000106840F0080010601068CDE9005600F0B2
:100AB0000800CDE9047069462C48CDE9024500F0F4
:100AC00023FB00221146132000F074FF132000F0D6
:100AD0003FFF00221146142000F06CFF14203AE082
:100AE000DFF88CE0F44538D1D0F800C04CF0806CD1
:100AF000C0F800C0D0F800C001290CF0806CCDF81F
:100B000014C0196007D1016841F0007101600068EC
:100B100000F000700590106840F00200106010684E
:100B200002AB00F0020005906020CDE9000683E8EA
:100B3000B00069460F4800F0E7FA002211463F2056
:100B400000F038FF3F2000F003FF00221146402054
:100B500000F030FF402000F0FBFE07B0F0BD0000C9
:100B6000006400400000002030380240000C0240C9
:100B700000680040000402407047704770477047AB
:100B800070477047704770477047704770477047AD
:100B90002DE9F0410446876D00F06AFC064694F8A2
:100BA00035000025022806D08020606584F8345086
:100BB0000120BDE8F0812068016821F01601016084
:100BC0002068416921F080014161206C08B9A06C66
:100BD00020B12068016821F00801016020680168E7
:100BE00021F0010101600CE000F042FC801B0528AF
:100BF00007D920206065032084F8350084F834503C
:100C0000D7E720680068C007EED194F85C103F2059
:100C10008840B860012084F8350084F83450002002
:100C2000C7E790F83510022903D0802141650120E3
:100C30007047052180F835100068016821F0010136
:100C400001600020704700002DE9F84304464FF092
:100C50000009CDF8009063484FF41651A56D006867
:100C6000B0FBF1F72E6894F85C10082000FA01F14F
:100C700031420FD021680A6852070BD50A6822F06A
:100C800004020A6094F85C108840A860606D40F02F
:100C90000100606594F85C104FF0010808FA01F05B
:100CA000304208D021684969090604D5A860606D02
:100CB00040F00200606594F85C10042088403042E7
:100CC00008D021680968890704D5A860606D40F0E4
:100CD0000400606594F85C1010208840304218D001
:100CE00021680968090714D5A860206801684903CC
:100CF00004D50068000308D5A16C07E00168C905A8
:100D000003D4016821F008010160216C09B120467B
:100D1000884794F85C1020208840304231D0216808
:100D20000968C9062DD5A86094F835000528206803
:100D3000016806D0490347D5006800031DD4616CE3
:100D40001CE021F0160101602068416921F080015A
:100D50004161206C08B9A06C20B12068016821F0C5
:100D60000801016094F85C103F208840A86084F876
:100D7000358084F83490216D1FE0E16B09B1204685
:100D80008847606D00282BD0606DC00714D0052007
:100D900084F835002068016821F0010101600098A5
:100DA000401C0090B84203D820680068C007F6D104
:100DB00084F8358084F83490E16C002910D001B0BB
:100DC0002046BDE8F04308470168C905D5D401684D
:100DD00021F01001016084F8358084F83490CCE76C
:100DE000BDE8F883740000202DE9F041044600F0CE
:100DF0003FFB0546002C7CD0A249206888423ED0AB
:100E0000A049183188423AD09E493031884236D0C4
:100E10009C494831884232D09A49603188422ED06C
:100E20009849783188422AD096499031884226D014
:100E30009449A831884222D0934988421FD09249D0
:100E4000183188421BD090493031884217D08E49E2
:100E50004831884213D08C49603188420FD08A498A
:100E6000783188420BD088499031884207D0864932
:100E7000A831884203D0B72184A006F066FA6068E2
:100E8000C0B1B0F1007F15D0B0F1806F12D0B0F1D9
:100E9000C06F0FD0B0F1006F0CD0B0F1206F09D04F
:100EA000B0F1406F06D0B0F1606F03D0B82177A0E9
:100EB00006F04BFAA06838B1402805D0802803D04E
:100EC000B92172A006F041FAE068B0F5007F04D0C5
:100ED00018B1BA216DA006F038FA2069B0F5806F1C
:100EE00004D018B1BB2169A006F02FFA606958B18F
:100EF00000E071E0B0F5006F06D0B0F5805F03D080
:100F0000BC2162A006F021FAA06948B1B0F5005FEB
:100F100006D0B0F5804F03D0BD215CA006F015FAD5
:100F2000E06940B1B0F5807F05D0202803D0BE2114
:100F300056A006F00AFA206A60B1B0F5803F09D0E9
:100F4000B0F5003F06D0B0F5403F03D0BF214FA021
:100F500006F0FBF9606A002832D0042806D0C021D0
:100F60004AA006F0F2F9606A002829D0A06A48B1C8
:100F7000012807D0022805D0032803D0C52143A0AB
:100F800006F0E3F9E06A60B1B0F5000F09D0B0F106
:100F9000807F06D0B0F1C07F03D0C6213BA006F011
:100FA000D4F9206B60B1B0F5001F09D0B0F5800F07
:100FB00006D0B0F5C00F03D0C72134A006F0C5F9A4
:100FC000022084F83500002684F834602068016827
:100FD00021F0010101600EE00120BDE8F08100BFB9
:100FE00000F046FA401B052805D920206065032043
:100FF00084F83500F1E720680068C007F0D1226866
:10100000116830480140D4E901031843D4E903359D
:101010002B43184363691843A3691843E3691843D2
:10102000236A18430843616A042903D1D4E90B13E6
:1010300019430843106020684069656A20F0070082
:1010400029460543012704290CD1A06A0543E06A1B
:1010500040B12046FFF75EFA20B14020606584F879
:101060003570B9E7206845612046FFF73FFA94F8EC
:101070005C203F2191408160666584F835700020D6
:10108000ABE7000010600240106402402E2E2F4497
:101090007269766572732F53544D333246347878C3
:1010A0005F48414C5F4472697665722F5372632FBB
:1010B00073746D3332663478785F68616C5F646D29
:1010C000612E63003F8010F070B5044600F0D0F947
:1010D0000546601C02D004480078044400F0C8F9BA
:1010E000401BA042FAD370BD68000020704700008A
:1010F000044910B50A68024202D00860FFF7F6FF03
:1011000010BD0000143C01402DE9F84FDFF888B213
:101110000D46044658451BD0A048844218D0A0482C
:10112000844215D09F48844212D09F4884420FD0F9
:101130009E4884420CD09E48844209D09D488442F7
:1011400006D09D48844203D0AC219CA006F0FDF857
:1011500028680104090C01D0000C03D0AD2197A030
:1011600006F0F3F86868F8B101281DD011281BD0EB
:10117000022819D0122817D0B0F5881F14D0B0F566
:10118000041F11D0B0F5441F0ED0B0F5901F0BD046
:10119000B0F5081F08D0B0F5481F05D0032803D0CC
:1011A000AE2186A006F0D1F800264FF0010A4FF0DC
:1011B000030900BF0AFA06F02F688046074047453A
:1011C0007ED1287900F00300012801D002281DD12A
:1011D000E86848B1012807D0022805D0032803D0C9
:1011E000C02176A006F0B1F8A168720009FA02F0F9
:1011F0008143E86890400843A0606068297920EA4C
:101200000800C1F30011B140014361602879C04377
:10121000800712D0A86838B1012805D0022803D071
:10122000D12166A006F091F8E168720009FA02F097
:101230008143A86890400843E060287900F00300EB
:1012400002282ED12869F8B109281DD001281BD009
:10125000022819D0032817D0042815D0052813D048
:10126000062811D007280FD008280DD00A280BD047
:101270000B2809D00C2807D00D2805D00F2803D043
:10128000DE214EA006F061F8F00804EB8002106A3F
:101290007107CB0E0F21994088432969994001437A
:1012A00011622068720009FA02F18843297901F07D
:1012B0000301914001432160686810F4403F00E061
:1012C00063E062D04C48016841F4804101600068ED
:1012D00026F0030100F48040009048480A18D2F834
:1012E0000808B1070B0F0F21994088435C4501D1D5
:1012F000002123E029498C4201D101211EE0284927
:101300008C4201D1022119E026498C4201D10321EE
:1013100014E025498C4201D104210FE023498C427D
:1013200001D105210AE022498C4201D1062105E0C4
:1013300020498C4201D1072100E008219940014356
:10134000C2F808182E4908686A68B843D20200D566
:10135000384308602A49091D08686A68B843920240
:1013600000D5384308602649091F08686A68B843F1
:10137000920300D5384308602149083908686A6833
:10138000B843D20300D538430860761C102EFFF412
:1013900011AFBDE8F88F00000000024000040240D9
:1013A00000080240000C02400010024000140240FD
:1013B00000180240001C0240002002402E2E2F4444
:1013C0007269766572732F53544D33324634787890
:1013D0005F48414C5F4472697665722F5372632F88
:1013E00073746D3332663478785F68616C5F6770F0
:1013F000696F2E6300000000443802400030014055
:10140000083C014070B515460C00064604D140F278
:101410009D1108A005F099FF45B1012D04D04FF4AE
:10142000CF7104A005F091FFB46170BD2004B061DC
:1014300070BD00002E2E2F447269766572732F5393
:10144000544D3332463478785F48414C5F4472697A
:101450007665722F5372632F73746D3332663478EE
:10146000785F68616C5F6770696F2E6300000000D1
:1014700001488068704700006800002070B50400D3
:101480007DD08A49206888420AD08949884207D09D
:101490008849884204D040F2C91187A005F055FF61
:1014A00060689349401E884204D94FF4E57182A0D8
:1014B00005F04BFFA0684FF4804530B1A84204D03E
:1014C00040F2CB117CA005F040FFE068800A04D018
:1014D0004FF4E67178A005F038FF2069A84207D0E4
:1014E000B0F5404F04D040F2CD1173A005F02DFFB0
:1014F000606930B1012804D04FF4E7716EA005F0A7
:1015000024FFA06930F0FE0004D040F2CF116AA0A1
:1015100005F01BFFE06930B1402804D04FF4E871BA
:1015200065A005F012FF206A30B1802804D040F297
:10153000D11161A005F009FF94F83D00002520B904
:1015400084F83C50204600F0DDF8242084F83D006B
:101550002068016821F0010101602068016841F400
:10156000004101602068016821F40041016001F040
:101570003FF9604A6168914202D85F4901E002E0A8
:101580005E49884201D2012070BD5D492368B0FBED
:10159000F1F15E6826F03F060E435E606368934299
:1015A00006D94FF4967359434FF47A73B1FBF3F1B4
:1015B0002368491C1E6A26F03F06314319626168A0
:1015C000914210D84900401EB0FBF1F2521CC2F308
:1015D0000B02042A01D2042022E0B0FBF1F0401CEF
:1015E000C0F30B001CE0A368F3B301EBC10202EBF4
:1015F0000116421EB2FBF6F2521C42F48042120562
:1016000049D093B301EBC10202EB0111401EB0FBC4
:10161000F1F0401CC0F30B0040F4804040F4004067
:101620002168CA694CF6FF739A431043C861D4E934
:10163000071001432068026822F0C00211430160D4
:10164000D4E9030101432068826848F2FF339A43DA
:1016500011438160D4E9050108432168CA6822F07A
:10166000FF021043C86001E00EE016E02068016848
:1016700041F0010101602564202084F83D002563CC
:1016800084F83E50002070BD01EB4106421EB2FBC3
:10169000F6F2521CB3E70120C2E701EB4101401E04
:1016A000B0FBF1F0401CC0F30B00B7E70054004062
:1016B00000580040005C00402E2E2F447269766571
:1016C00072732F53544D3332463478785F48414C0F
:1016D0005F4472697665722F5372632F73746D3332
:1016E00032663478785F68616C5F6932632E6300BC
:1016F0007F1A0600A086010080841E0000093D00BC
:1017000040420F0010B586B0044614216846FEF72B
:1017100022FE14492068884221D11348016841F013
:10172000020101600068694600F0020005904FF474
:10173000407000901220019001200290032003903D
:10174000042004900948FFF7DFFC074810300168C7
:1017500041F400110160006800F40010059006B02B
:1017600010BD000000540040303802400004024028
:1017700070B5040033D026492068884203D0AE21DA
:1017800024A005F0E2FD606878B101280DD00228A0
:101790000BD0032809D0042807D0052805D0062837
:1017A00003D0AF211BA005F0D0FDA068B0F5805F8D
:1017B00003D3B02117A005F0C8FD21684CF6CC403A
:1017C0000860216845F255500860D4E90001416085
:1017D0002168A0688860FFF74BFE05460DE00120F8
:1017E00070BD00BFFFF744FE401B312805D92068BB
:1017F000C068800701D0032070BD2068C0688007E2
:10180000F0D121684AF6AA200860002070BD0000CF
:10181000003000402E2E2F447269766572732F536C
:10182000544D3332463478785F48414C5F44726996
:101830007665722F5372632F73746D33326634780A
:10184000785F68616C5F697764672E6300000000F1
:101850000248816802781144816070476800002066
:101860000B4810B5016841F400710160016841F452
:1018700080610160016841F480710160032000F023
:10188000E9F80F2000F006F800F04AF8002010BD3B
:10189000003C024030B505461C4887B00024016872
:1018A00041F480310160006806A900F480300090A6
:1018B00001A800F077FF00F0ABFF15494000B0FB36
:1018C000F1F11548134A491E026040F2E732C0E9BF
:1018D0000324C0E90114846101F022FD040012D147
:1018E0000D4801F007FE04000DD1182000F030F87B
:1018F000102D07D200222946182000F05BF8074877
:10190000056000E0012407B0204630BD44380240A5
:1019100040420F0000400140A80600206C0000205B
:101920000A4808B5016841F480410160006800F48C
:10193000804000900548001F016841F0805101601F
:10194000006800F08050009008BD0000443802405C
:1019500010B5040003D5BC2107A005F0F6FC002C4F
:1019600009DB04F01F01012088406109890001F1B1
:10197000E021C1F8000110BD2E2E2F44726976655A
:1019800072732F53544D3332463478785F48414C4C
:101990005F4472697665722F5372632F73746D336F
:1019A00032663478785F68616C5F636F72746578F3
:1019B0002E63000070B515460C460646102A03D368
:1019C000A82114A005F0C1FC102C03D3A92111A05B
:1019D00005F0BBFC1E480068C0F30223C3F10702F8
:1019E0002046042A00D90422191D072901D2002308
:1019F00000E0DB1E012404FA02F1491E0140994077
:101A00009C40641E2C4021433046BDE8704005F0E8
:101A10008CBC00002E2E2F447269766572732F5392
:101A2000544D3332463478785F48414C5F44726994
:101A30007665722F5372632F73746D333266347808
:101A4000785F68616C5F636F727465782E63000005
:101A50000CED00E010B5044607280BD0062C09D089
:101A6000052C07D0042C05D0032C03D0902108A00E
:101A700005F06BFC154904F0070208684FF6FF03F8
:101A8000184040EA0220124A1043086010BD0000CE
:101A90002E2E2F447269766572732F53544D333254
:101AA000463478785F48414C5F4472697665722F9E
:101AB0005372632F73746D3332663478785F686164
:101AC0006C5F636F727465782E6300000CED00E04C
:101AD0000000FA0570470068416200207047F0B5C9
:101AE0000368586A39B19C6A4FF4827600EB14445B
:101AF00000204D1E0AE040EA024098620FE006EB2B
:101B00008007DF59401C04EB1744C0B2A842F6D34B
:101B100044EA02404FF4807202EB810158500020E9
:101B2000F0BDD0F8E00404F063BB01EBC10200EBB0
:101B30008202D0F8E004126A04F0B8BA01EBC102E4
:101B400000EB8202D0F8E004D2F8602204F009BB76
:101B5000D0F8E00404F04EBB0A0601F00F0101EBDF
:101B6000C10100EB810101D5143101E001F51571CE
:101B7000006805F027BA70B504460B0601F00F00A7
:101B800000EBC00104EB81014FF001024FF00005B2
:101B900002D54A75143103E081F8555201F51571EB
:101BA000087094F89404012808D084F894242068DC
:101BB00004F026FF84F89454002070BD022070BD0C
:101BC00070B5044601F00F002279904201D901203E
:101BD00070BD0B0601F00F0101EBC10104EB8101A7
:101BE0004FF001024FF0000502D54A75143103E0B1
:101BF00081F8555201F515718D70087094F89404B0
:101C0000012808D084F89424206805F06BF884F843
:101C10009454002070BD022070BD01F00F0101EB53
:101C2000C10100EB8100D0F8680270472DE9F04156
:101C300004460F0601F00F0000EBC00104EB810128
:101C40004FF001064FF0000502D54E75143103E048
:101C500081F8555201F5157108708A600B714A7848
:101C600002B14883022B00D14D7194F894040128ED
:101C700009D084F89464206804F014FE284684F89F
:101C80009454BDE8F0810220FBE710B501F00F0489
:101C900004EBC40100EB8101C1E998230023C1F8E2
:101CA000683281F8553281F85442837901F5157113
:101CB000012B00D1CA618279006805F06BF8002021
:101CC00010BD70B504460D4601F00F002179884221
:101CD00001D9012070BD29064FF000064FF0010226
:101CE00006D500EBC00104EB81014A75143107E011
:101CF00005EBC50104EB810181F8556201F5157111
:101D00008A70087094F89404012807D084F8942409
:101D1000206805F013F8280702D007E0022070BD04
:101D2000A17904F29C42206804F0B0FF84F8946426
:101D3000002070BD10B501F00F0404EBC40100EBEE
:101D40008101C1E9082300238B6201234B7501F84F
:101D5000144F8379012B00D1CA618279006805F0A4
:101D600019F8002010BD00002DE9FC5F056804464D
:101D7000284605F0C3F900287DD1206805F0EAF96E
:101D8000002878D0D5F80808C0F30D20C4F8D40492
:101D9000206805F0DFF9800704D52068416901F06B
:101DA00002014161206805F0D5F9C10604F29C40AA
:101DB000009034D52068816921F0100181612F6A7B
:101DC00007F00F0000EBC00004EB8006C7F34340B0
:101DD00006F51576022802D0062811D01AE047F63B
:101DE000F070074216D0C7F30A1217462846F1686A
:101DF00005F0B4F9F0683844F0607069384408E0E0
:101E000008222846009905F0A9F97069C7F30A115C
:101E1000084470612068816941F010018161206887
:101E200005F098F900034FF0080B4FF0000A4FF04F
:101E300001097CD50026206805F06BF9074674E09F
:101E4000F80770D0F1B2206805F07CF98046C00731
:101E500007D005EB4611C1F8089B3146204603F038
:101E600031F85FEA087024D505EB4611C1F808BBCC
:101E70002068016C00E023E200EB46100191D0F8ED
:101E8000082BFB4B994205D9110403D54FF40041AF
:101E9000C0F8081B204600F01EFBF5490198884257
:101EA00007D9A079012804D120680121009A04F003
:101EB000EDFE5FEAC86004D505EB46111020C1F8BD
:101EC000080B5FEA88701DD56869000605D5D5F84E
:101ED000040840F48061C5F8041806EBC60004EB62
:101EE000800090F8571200F51570012905D180F88F
:101EF00003A0F1B2204600F0E9F905EB46110220FB
:101F0000C1F8080B5FEA886004D505EB4610202174
:101F1000C0F8081B5FEA884005D505EB46104FF472
:101F20000051C0F8081B7F08761C002F88D120685C
:101F300005F010F940036ED5206805F0E3F8074678
:101F4000002666E0F80762D0F1B2206805F0E8F8F4
:101F50008046C00723D006F00F01D5F8342809FACF
:101F600001F18A43C5F8342805EB4611C1F80899F8
:101F7000A07901280FD106EBC60004EB8000D0E960
:101F800007211144016236B9606A20B92068012135
:101F9000009A04F07BFEF1B22046FFF7C6FD5FEA2F
:101FA000087003D505EB4611C1F808B95FEAC860AF
:101FB00004D505EB46111020C1F808095FEA486016
:101FC00004D505EB46104021C0F808195FEA887077
:101FD00016D53146284605F066F806EBC60004EB38
:101FE0008000C17D1430012905D180F803A0F1B231
:101FF000204600F067F905EB46110220C1F80809F8
:102000005FEA086003D53146204602F0C1FF7F0831
:10201000761C002F96D1206805F09CF8002811DA74
:10202000D5F8040820F00101C5F8041894F8CC0490
:1020300001282BD0204600F033FA2068416901F0D6
:1020400000414161206805F085F800050BD5D5F801
:102050000808C00702D0204600F066FA20684169EF
:1020600001F400614161206805F074F8C00467D58F
:10207000D5F8040820F00100C5F8040810212068F4
:1020800005F011F800214FF67F3220E084F8CCA44F
:1020900000212046FFF71EFDCFE700BF05EB4110F2
:1020A000C0F80829D0F8003923F40013C0F800392B
:1020B000C0F8082BD0F8003B23F40013C0F8003B15
:1020C000D0F8003B43F00063C0F8003B491C207986
:1020D0008842E3D8D5F81C0840F00111C5F81C1857
:1020E000E07B002828460DD0D0F8840840F00B0192
:1020F000C5F88418D5F8440840F00B012846C5F807
:1021000044180DE0D0F8140842F22B010843C5F83A
:102110001408D5F8100840F00B012846C5F810182F
:10212000D0F8000820F4FE61C5F80018A1792068F5
:10213000009A04F0ABFD2068416901F480514161CF
:10214000206805F007F8800415D5206804F0EAFB44
:10215000206804F0C6FFE07100F044FB0146E2791C
:10216000206805F059F8204600F084F9206841699C
:1021700001F400514161206804F0ECFF000707D52D
:10218000204600F091F92068416901F008014161A1
:10219000206804F0DFFF000616D5A86920F0800152
:1021A000A96101260DE000BF06EBC60004EB80002C
:1021B00090F85702012803D1F1B22046FFF7CCFC7A
:1021C000761C2079B042EFD8206804F0C3FFC0022B
:1021D0001FD501264F4614E005EB4610D0F8001934
:1021E00006EBC60004EB8002107E012808D100290E
:1021F00006DAF0B240F08001D7752046FFF7ACFC5C
:10220000761C2079B042E7D82068416901F480113A
:102210004161206804F09EFF800234D501204A46C7
:1022200029E000BF05EB4011D1F8001B00EBC00313
:1022300004EB830393F85862012E1BD1002919DAAD
:1022400094F8D46401F4803106F00106B14211D152
:1022500083F85722A96941F08003AB6169690906D7
:1022600008D4D5F8040840F40070C5F8040805E067
:102270000A30544F401C21798142D3D820684169EB
:1022800001F400114161206804F064FF400007D5AB
:102290002046FFF746FC2068416901F0804141611A
:1022A000206804F057FF40070AD520684568680792
:1022B00002D52046FFF74CFC206841682943416065
:1022C000BDE8FC9FD0F8E00403F0E7BFD0F8E004DD
:1022D00003F0F7BFF8B5040011D020684FF0A04715
:1022E000B84206D03349884203D0892132A005F094
:1022F0002CF894F895042668002510B106E001201A
:10230000F8BD84F89454204600F072F8032084F855
:102310009504BE4200D1A571206804F0B1FC207C78
:102320008DF8000094E80F0004F00AFB0226B0BB11
:102330000021206804F031FF88BB002001270CE059
:1023400000EBC00104EB81014F750875C8850D765F
:10235000CD610D62401CC0B24D6221798142EFD83F
:10236000002011E000EBC00104EB810181F855521F
:1023700081F8540281F85852C1F85C52C1F8605299
:10238000401CC0B2C1F8645221798142EAD8207C55
:102390008DF8000094E80F0004F0B4FB10B184F84D
:1023A0009564ACE7657484F89574206804F09CFB30
:1023B0000020F8BD000004402E2E2F44726976657F
:1023C00072732F53544D3332463478785F48414C02
:1023D0005F4472697665722F5372632F73746D3325
:1023E00032663478785F68616C5F7063642E630076
:1023F00010B586B0044614216846FDF7ACFF20688E
:10240000B0F1A04F2FD119480021026842F001021B
:102410000260006800F0010005904FF4C050009089
:102420000220CDE90101032003900A2004906946AF
:102430000F48FEF769FE0D48001D016841F080015C
:1024400001600A481430016841F48041016000686D
:10245000002200F48040059011464320FFF7AAFABD
:102460004320FFF775FA06B010BD00003038024077
:102470000000024070B50446C079012570B1022801
:1024800001D0FEF77EF82946D4F8E00403F087FF78
:10249000D4F8E004BDE8704003F03CBF0025F2E74B
:1024A000D0F8E00403F064BFD0F8E00403F06ABFA2
:1024B00010B5044690F8940401280AD0012084F84D
:1024C00094046174206804F096FE002084F894045B
:1024D00010BD022010BDD0F8E02400F29C4110464F
:1024E00003F069BF10B50446006894F894140129FC
:1024F00009D0012184F89414C168490609D5617B8B
:10250000012902D005E0022010BD816B41F4803129
:102510008163206804F0A5FD206804F0D7FA00204C
:1025200084F8940410BD000010B50446D0F8E0040F
:1025300003F083FF2068D0F8001E41F00101C0F8CD
:10254000001EE07A002804D00248016841F006012C
:10255000016010BD10ED00E02DE9F0470E460400CB
:102560007DD02068401E0E2804D940F25A217AA05E
:1025700004F0EBFE96B1012E10D0022E0ED0032EE9
:102580000CD0042E0AD0052E08D0062E06D0072E19
:1025900004D040F25B2170A004F0D7FEDFF8F08198
:1025A000D8F80000F7B200F00700B04207D288F870
:1025B0000070D8F8000000F00700B0424FD120684A
:1025C000744D810729D5400703D5286840F4E050B1
:1025D00028602078000703D5286840F46040286010
:1025E000A068A0B1802812D0902810D0A0280ED0CA
:1025F000B0280CD0C0280AD0D02808D0E02806D0B7
:10260000F02804D040F27E2153A004F09EFE2868FA
:10261000A16820F0F000084328602078C00743D06C
:10262000DFF870916068A9F1080988B1012822D00B
:10263000022824D0032822D040F2852146A004F0AD
:1026400084FE6068012816D0022818D0032816D00E
:10265000D9F800008007002833DA286800E030E06D
:10266000616820F0030008432860FEF701FF8146FF
:1026700041F2883A11E0D9F800008003EBE7D9F87D
:1026800000008001E7E700BFFEF7F2FEA0EB0901C2
:10269000514502D90320BDE8F0872868616800F041
:1026A0000C00B0EB810FEFD1D8F80010404601F0DC
:1026B0000701B14207D90770006800F00700B04277
:1026C00001D00120E7E720784FF4805640074FF40F
:1026D000A0574FF4C0584FF4E05914D5E06860B1EA
:1026E000B0420AD0B84208D0404506D0484504D090
:1026F00040F2C32118A004F028FE2868E16820F405
:10270000E050084328602078000715D5206960B1A3
:10271000B0420AD0B84208D0404506D0484504D05F
:1027200040F2CA210CA004F010FE2868216920F4B0
:10273000604040EAC100286000F07AF82968164A33
:10274000C1F30311515CC840144908601448006883
:10275000FFF7A0F800209EE72E2E2F4472697665C1
:1027600072732F53544D3332463478785F48414C5E
:102770005F4472697665722F5372632F73746D3381
:1027800032663478785F68616C5F7263632E6300D1
:10279000003C024008380240D27300087400002058
:1027A0006C0000200F2202600C4A136803F0030340
:1027B0004360136803F0F0038360136803F4E0538D
:1027C000C36012684FF4E05303EAD2020261044886
:1027D000006800F0070008607047000008380240F9
:1027E000003C02400148006870470000740000206F
:1027F0000448054900680968044AC1F38221515C14
:10280000C84070477400002008380240E273000896
:102810000448054900680968044AC1F34231515C23
:10282000C84070477400002008380240E273000876
:10283000154810B5006810F00C02144813D0144964
:10284000042A0FD0082A0ED10F4C241F22682368B7
:1028500002F03F025B0207D52068C0F38810A0FB9E
:10286000010106E0084610BD2168C1F38811A1FBF3
:1028700000010023FDF7F8FC2168C1F30141491C68
:102880004900B0FBF1F010BD083802400024F4000C
:10289000001BB7002DE9F84F04007DD020680F28F9
:1028A00003D9E621F7A004F050FD2078DFF80C945E
:1028B000C007A9F1040555D060684FF480364FF485
:1028C000A02738B1B04205D0B84203D0EB21EDA02B
:1028D00004F03BFDF948001D0168C1F381010129A5
:1028E00008D00068C0F3810002280AD1D9F800009E
:1028F000400206D52868800334D560680028CCD013
:1029000030E06068B04203D1286840F480300CE0C9
:10291000B842286803D140F480202860F4E720F40E
:1029200080302860286820F480202860606860B1CA
:10293000FEF79EFD064604E0FEF79AFD801B642824
:102940007ED828688003F7D50CE0FEF791FD064697
:1029500005E000BFFEF78CFD801B6428F0D82868D6
:102960008003F7D42078DFF8588380074FF0000AFF
:1029700056D5E06830B1012804D040F21D11C1A045
:1029800004F0E3FC20691F2804D94FF48F71BDA027
:1029900004F0DBFCC94800E092E0001D016811F082
:1029A0000C0F08D00068C0F38100022810D1D9F8BC
:1029B000000040020CD42868800702D5E068012896
:1029C0007ED12868216920F0F80040EAC10017E0B4
:1029D000E068B8B10120C8F80000FEF749FD0646DE
:1029E00005E000BFFEF744FD801B0228A8D8286838
:1029F0008007F7D5286820F0F801206941EAC00077
:102A000028600DE0C8F800A0FEF732FD064604E09D
:102A1000FEF72EFD801B022892D828688007F7D485
:102A2000207800072ED5A54EA64F60697036D0B12C
:102A3000012808D04FF4AF7192A004F086FC00E0AA
:102A40004BE1606978B101203860FEF711FD07465F
:102A500005E000BFFEF70CFDC01B0228C6D8306899
:102A60008007F7D50EE0C7F800A0FEF701FD074686
:102A700005E000BFFEF7FCFCC01B0228B6D830689A
:102A80008007F7D42078400776D5A068002740B1AA
:102A9000012806D0052804D04FF4C57179A004F0B0
:102AA00054FCDFF818B20BF13C0BDBF80000C0005F
:102AB0000DD4DBF8001041F08051CBF8001000E09D
:102AC00038E1DBF80000012700F0805000907E4ED6
:102AD0003068C00511D4306840F480703060FEF773
:102AE000C7FC009006E000BFFEF7C2FC0099401A48
:102AF000022891D83068C005F6D5704EA0686C36B3
:102B000001280FD00528306810D020F00100306077
:102B1000306820F004003060A068B8B1FEF7A8FC6F
:102B200000900FE0306840F00100F4E740F004004E
:102B30003060F7E7FEF79CFC0099411A41F28830BB
:102B400081428BD830688007F4D50EE0FEF790FC08
:102B5000009007E0FEF78CFC0099411A41F28830A2
:102B600081428BD830688007F4D42FB1DBF8001095
:102B700021F08051CBF80010A069002876D0012800
:102B800009D0022807D040F2CD113EA004F0DDFBB1
:102B9000A0690028F2D04948001D0068C0F38100F8
:102BA0000228A0696DD0022805D0C8F860A0FEF701
:102BB0005FFC044694E0E06938B1B0F5800F04D0C2
:102BC0004FF4EB712FA004F0C0FB206A801E3D285B
:102BD00004D940F2D7112BA004F0B7FB606A323859
:102BE000B0F5BF7F04D94FF4EC7126A004F0ADFB23
:102BF000A06A02280AD0042808D0062806D008288F
:102C000004D040F2D9111FA004F09FFBE06A801E9F
:102C10000D2804D94FF4ED711AA004F096FB474635
:102C2000C8F860A0FEF724FC064604E0FEF720FC8E
:102C3000801B022851D828688001F7D4D4E9070105
:102C40000843A16A214A490802EB0141626A41EA4C
:102C50008211084394F82C1040EA0161C9F8001071
:102C600001203866FEF704FC044606E064E000BF7D
:102C7000FEF7FEFB001B02282FD828688001F7D53D
:102C80005AE031E02E2E2F447269766572732F530D
:102C9000544D3332463478785F48414C5F44726912
:102CA0007665722F5372632F73746D333266347886
:102CB000785F68616C5F7263632E63000438024062
:102CC00000004742800E4742007000400000FFFFB6
:102CD000FEF7CEFB001B022802D90320BDE8F88FC7
:102CE00028688001F4D427E00128F7D0D9F8000043
:102CF000E26900F4800191421CD1226A00F03F0198
:102D0000914217D147F6C071626A0140B1EB821F50
:102D100010D1A26A4FF0FF3300F4403103EB5202AE
:102D2000B1EB024F06D194F82C1000F07060B0EBBC
:102D3000016F01D00120D1E70020CFE770B504007A
:102D40007ED08049206888420AD07F49884207D0D7
:102D50007E49884204D04FF4A0717DA004F0F5FABA
:102D600060684FF4827630B1B04204D040F2411135
:102D700077A004F0EAFAA06850B1B0F5806F07D0F0
:102D8000B0F5004F04D04FF4A17171A004F0DDFA4A
:102D9000E068B0F5006F05D020B140F243116CA09F
:102DA00004F0D3FAA069B0F5007F08D038B1B0F5CF
:102DB000802F04D04FF4A27165A004F0C6FAE06938
:102DC00090B1082810D010280ED018280CD0202838
:102DD0000AD0282808D0302806D0382804D040F25D
:102DE00045115BA004F0B1FA206A30B1802804D00C
:102DF0004FF4A37156A004F0A8FA606A002548B306
:102E0000102806D040F2471151A004F09EFA606AE3
:102E100000B3E06990B1082810D010280ED018280F
:102E20000CD020280AD0282808D0302806D03828EE
:102E300004D040F2591146A004F087FA256100E061
:102E400006E06561A56294F85100002830D034E0B6
:102E5000012070BD206930B1022804D04FF4A57163
:102E60003BA004F072FA606930B1012804D040F24E
:102E70004B1137A004F069FA6068B04216D1E069DE
:102E80000028DFD00828DDD01028DBD01828D9D0C2
:102E90002028D7D02828D5D03028D3D03828D1D052
:102EA00040F24F112AA004F050FACBE7E561C9E7E0
:102EB00084F85050204600F067F8022084F8510052
:102EC0002068016821F040010160A088218900F498
:102ED000827001F404410843A18901F400610843B0
:102EE000217C01F002010843217D01F0010108432A
:102EF000218B01F400710843217F01F03801084360
:102F000094F8201001F080010843218D01F4005154
:102F1000084321680860A069042101EA104094F880
:102F2000241001F010010843216848602068C1693D
:102F300021F40061C1616565012084F85100002021
:102F400070BD00000030014000380040003C0040EF
:102F50002E2E2F447269766572732F53544D33327F
:102F6000463478785F48414C5F4472697665722FC9
:102F70005372632F73746D3332663478785F68618F
:102F80006C5F7370692E63002DE9F04186B00646D0
:102F900014216846FDF7DFF934493068884262D170
:102FA00033480024016841F480510160006800F456
:102FB000805005902E481438016841F002010160EC
:102FC000016801F002010591016841F00101016011
:102FD0000068022500F0010005901820CDE90005E9
:102FE00002AA03274FF0050882E8900169462148AC
:102FF000FEF78AF88020CDE9000502AA694682E83A
:1030000090011D48FEF780F81D4D1C487F06286082
:10301000C5E901744FF48068C5E903486C61AC618F
:10302000EC612C6228466C62FDF7DEFE08B1FDF70C
:10303000A8FAF564AE63124D104860354830E5E8F3
:1030400002074020A5E811010D4845F814496030F9
:10305000AC61EC612C626C62FDF7C6FE08B1FDF755
:1030600090FAB564AE6306B0BDE8F081003001406F
:103070004438024000040240000002401064024054
:10308000100200207047704770B50C460546006876
:103090003E49884207D03E49884204D040F2E6715A
:1030A0003CA004F052F92068B0F5006F05D020B1C3
:1030B00040F2E77137A004F048F96068B0F5806F1E
:1030C00005D020B14FF4FD6132A004F03EF9A068B4
:1030D00068B1B0F5807F0AD0B0F5007F07D0B0F5B9
:1030E000407F04D040F2E9712AA004F02EF9E06894
:1030F000FF2804D940F2EA7126A004F026F92069DD
:10310000B0F5805F05D020B140F2EB7121A004F052
:103110001CF9606938B1B0F5005F04D040F2EC7181
:103120001CA004F012F9E069B0F5804F05D020B181
:1031300040F2ED7117A004F008F995F83C00012861
:1031400022D0012085F83C00E068A26820F440709D
:103150001043626820F480601043226820F400600D
:103160001043226920F480501043626920F400501B
:103170001043E269002120F4804010432A68506423
:1031800085F83C10002070BD022070BD0000014099
:10319000000401402E2E2F447269766572732F53FE
:1031A000544D3332463478785F48414C5F447269FD
:1031B0007665722F5372632F73746D333266347871
:1031C000785F68616C5F74696D5F65782E6300007D
:1031D0002DE9F05F044600683A4E3B4FDFF8EC8083
:1031E000DFF8EC90DFF8ECA00D464FF0804BB042DA
:1031F00015D0584513D0B84211D040450FD048459E
:103200000DD04FEAB641884209D03349884206D0F2
:10321000504504D040F2A97130A004F096F8286817
:1032200090B1102810D020280ED030280CD0402883
:103230000AD0502808D0602806D0702804D040F268
:10324000AA7126A004F081F86868802805D020B112
:1032500040F2AB7121A004F078F894F83C0001280A
:103260002DD0012284F83C20022084F83D00216802
:1032700048688B6820F0700C286840EA0C004860B1
:103280002068B0420FD058450DD0B8420BD0404511
:1032900009D0484507D0504505D01F49884202D083
:1032A0001E49884204D1696823F080031943816074
:1032B00084F83D20002084F83C00BDE8F09F022007
:1032C000FBE700000000014000040040000800404F
:1032D000000C004000040140001400402E2E2F443A
:1032E0007269766572732F53544D33324634787851
:1032F0005F48414C5F4472697665722F5372632F49
:1033000073746D3332663478785F68616C5F7469AA
:103310006D5F65782E63000000400140001800409A
:1033200070B5040057D0484920688E03474D884245
:1033300029D0B04227D04649884224D04549884206
:1033400021D0A8421FD0444988421CD0434988421A
:1033500019D04349884216D04249884213D0424985
:10336000884210D0414988420DD0414988420AD054
:103370004049884207D04049884204D040F21311A6
:103380003EA003F0E2FFA06860B110280AD0202818
:1033900008D0402806D0602804D04FF48A7137A0A6
:1033A00003F0D3FF206950B1B0F5807F07D0B0F5AE
:1033B000007F04D040F2151130A003F0C6FF206852
:1033C000B0420AD0A84208D0E0684FF6FE71401E15
:1033D000884209D903E0012070BDE06820B94FF4AC
:1033E0008B7126A003F0B1FFA06930B1802804D012
:1033F00040F2171121A003F0A8FF94F83D0028B96E
:10340000002084F83C00204600F054F8022084F8A4
:103410003D00211D206801F071FE012084F8460066
:1034200084F83E0084F83F0084F8400084F84100AE
:1034300084F8420084F8430084F8440084F845008E
:1034400084F83D00002070BD00000140000C0040E9
:10345000000400400008004000100040001400403C
:103460000004014000400140004401400048014088
:1034700000180040001C0040002000402E2E2F4469
:103480007269766572732F53544D333246347878AF
:103490005F48414C5F4472697665722F5372632FA7
:1034A00073746D3332663478785F68616C5F746909
:1034B0006D2E630008B50C4A01680C48914207D193
:1034C000016841F002010160006800F0020009E0BB
:1034D000074A914207D1016841F400310160006858
:1034E00000F40030009008BD000401404438024060
:1034F000004401402DE9F05F044600682F4D304E36
:10350000304FDFF8C480DFF8C490DFF8C4A0DFF8E4
:10351000C4B0A84226D0B0F1804F23D0B04221D011
:10352000B8421FD040451DD04FEAB541884219D05E
:103530002949884216D0484514D0504512D0274911
:1035400088420FD0264988420CD058450AD02549D8
:10355000884207D02449884204D04FF4E87123A060
:1035600003F0F3FE94F83D00012802D00120BDE8ED
:10357000F09F022084F83D002068C16841F00101FD
:10358000C1602068A8420ED0B0F1804F0BD0B0428D
:1035900009D0B84207D0404505D0484503D0504532
:1035A00001D0584504D1816801F00701062903D0F4
:1035B000016841F0010101600020D8E700000140EE
:1035C0000004004000080040000C004000040140DE
:1035D0000040014000180040001400400044014039
:1035E00000480140001C0040002000402E2E2F44C7
:1035F0007269766572732F53544D3332463478783E
:103600005F48414C5F4472697665722F5372632F35
:1036100073746D3332663478785F68616C5F746997
:103620006D2E63002DE9F84F05460020009095F8B7
:103630003C000C46012841D0012085F83C000220C6
:1036400085F83D0020684FF4805B584516D07028FF
:1036500014D0B0F5005F11D040280FD050280DD005
:1036600060280BD050B1102808D0202806D0302870
:1036700004D041F2C341D4A003F067FE28688168FA
:1036800021F0770121F47F4181602068DC49DD4A27
:10369000DD4BDE4EDE4FDFF87CC3DFF87C834FF07E
:1036A00080494FF4004A50287ED00FDC202804D0F7
:1036B00007DC0028FBD0102877D161E10220BDE8AB
:1036C000F88F3028F9D04028F6D126E160286DD057
:1036D000702874D0584544D04FF400584045EBD181
:1036E000286888420ED048450CD090420AD09842B3
:1036F00008D0B04206D0B84204D041F2EE41B2A0A8
:1037000003F023FEA06858B1584509D0404507D0C2
:10371000B0F5405F04D041F2F141ABA003F015FEDB
:103720006068504509D040B1022806D00A2804D06C
:1037300041F2F241A4A003F008FEE0680F2804D98A
:1037400041F2F341A0A003F000FED4E90121E368B7
:10375000286801F03FFD2868816841F4804181605C
:1037600029E128688842FBD04845F9D09042F7D03B
:103770009842F5D0B042F3D0A8498842F0D0A84989
:103780008842EDD0B842EBD06045E9D0A5498842E7
:10379000E6D0A5498842E3D04045E1D0A34988421C
:1037A000DED0A349884203E04FE002E180E006E07A
:1037B000D6D041F2CF4184A003F0C7FDFBE02868DA
:1037C000884212D0484510D090420ED098420CD07A
:1037D000B0420AD0B84208D0604506D0404504D077
:1037E00041F2D64178A003F0B0FDA06860B1584521
:1037F0000AD0B0F5005F07D0B0F5405F04D041F2C9
:10380000D94171A003F0A1FD6068504509D040B1D5
:10381000022806D00A2804D041F2DA416AA003F057
:1038200094FDE0680F2804D941F2DB4166A003F063
:103830008CFDD4E90121E368286801F0CBFC2968FC
:10384000886840F077008860B5E02868884212D028
:10385000484510D090420ED098420CD0B0420AD0C9
:10386000B84208D0604506D0404504D041F202512C
:1038700055A003F06AFD6068504509D040B10228A8
:1038800006D00A2804D041F205514FA003F05DFD97
:10389000E0680F2804D941F206514BA003F055FD12
:1038A000E2686168286801F057FE5021286831E01D
:1038B0002868884212D0484510D090420ED09842D5
:1038C0000CD0B0420AD0B84208D0604506D040457E
:1038D00004D041F212513CA003F037FD606850451E
:1038E00009D040B1022806D00A2804D041F215516F
:1038F00035A003F02AFDE0680F2804D941F21651E3
:1039000031A003F022FDE2686168286801F035FE0D
:103910006021286801F068FC4DE02868884212D0D8
:10392000484510D090420ED098420CD0B0420AD0F8
:10393000B84208D0604506D0404504D041F222513B
:1039400021A003F002FD6068504509D040B1022873
:1039500006D00A2804D041F225511BA003F0F5FC43
:10396000E0680F2804D941F2265117A003F0EDFCBE
:10397000E2686168286801F0EFFD40212868C9E726
:103980002868884212D0484510D090420ED0984204
:103990000CD0B0420AD0B84208D0604506D04045AD
:1039A00004D041F2355108A003F0CFFC216828680B
:1039B000B0E701200090012085F83D00002085F847
:1039C0003C0000987BE600002E2E2F44726976653D
:1039D00072732F53544D3332463478785F48414CDC
:1039E0005F4472697665722F5372632F73746D33FF
:1039F00032663478785F68616C5F74696D2E63003D
:103A0000000001400004004000080040000C00409D
:103A10000004014000400140001800400010004038
:103A2000001400400044014000480140001C0040D8
:103A30000020004070472DE9F04104460068C66848
:103A400005694FF00007A90713D5B10711D5F91E75
:103A5000016101202077206880698007204602D01C
:103A6000FFF7E8FF04E000F0F1F8204600F00EFB5D
:103A70002777680716D5700714D521686FF0040002
:103A80000861022020772068806910F4407F20467A
:103A900002D0FFF7CFFF04E000F0D8F8204600F096
:103AA000F5FA2777280715D5300713D521686FF069
:103AB00008000861042020772068C069800720463C
:103AC00002D0FFF7B7FF04E000F0C0F8204600F096
:103AD000DDFA2777E80616D5F00614D521686FF0D1
:103AE00010000861082020772068C06910F4407F2A
:103AF000204602D0FFF79EFF04E000F0A7F8204622
:103B000000F0C4FA2777E80708D0F00706D021684C
:103B10006FF001000861204600F0BAFA280608D5C7
:103B2000300606D521686FF0800008612046FFF757
:103B3000A9FA680608D5700606D521686FF040001E
:103B40000861204600F0AEFAA8060AD5B00608D5EE
:103B500021686FF0200008612046BDE8F041FFF7C2
:103B600092BABDE8F081000030B587B00446142158
:103B70006846FCF7F0FB23682B4C00212B480222FF
:103B8000A34210D1036843F004030360006800F00F
:103B900004000590D0010090CDE90121CDE9031288
:103BA0006946234812E0234CA34213D1036843F033
:103BB00008030360006800F00800059020140090DE
:103BC000CDE90121CDE9031269461B48FDF79CFAB6
:103BD00007B030BD194D0324AB4210D1036843F444
:103BE00080730360006800F480700590C02000902E
:103BF000CDE90121CDE9031469461148E6E7114DED
:103C0000AB42E5D1036843F020030360006800F095
:103C10002000059040200090CDE90121CDE903145A
:103C200069460948D2E700000004004030380240ED
:103C30000008024000080040000C0240000401405F
:103C40000020024000440140001402407047000080
:103C50002DE9F05F16000D4604464FF000090CD028
:103C6000042E0AD0082E08D00C2E06D03C2E04D0EC
:103C700041F2820177A003F068FB2868602806D033
:103C8000702804D041F2830172A003F05EFBA868A3
:103C900030B1022804D041F284016EA003F055FB3C
:103CA000286930B1042804D041F2850169A003F0ED
:103CB0004CFB94F83C0001281CD001207349744A45
:103CC000744B754FDFF8D4C1DFF8D4A1DFF8D4B15D
:103CD00084F83C004FF0804876B1042E41D0082E85
:103CE0006AD00C2E7DD08146002084F83C004846E6
:103CF000BDE8F09F0220FBE7206888421ED04045C7
:103D00001CD090421AD0984218D0B84216D06045C4
:103D100014D0504512D0644988420FD0634988427C
:103D20000CD058450AD06249884207D06149884280
:103D300004D041F28F0147A003F007FB2946206819
:103D400001F05AFA2068816941F008018161206818
:103D5000816921F004018161206881692A69114328
:103D600028E02068884212D0404510D090420ED002
:103D700098420CD0B8420AD0604508D0504506D0D1
:103D8000584504D04FF4855132A003F0DEFA29469D
:103D9000206801F0A3FA2068816941F40061816123
:103DA0002068816921F480618161206881692A69C4
:103DB00041EA0221816197E7206888420ED04045A0
:103DC0000CD090420AD0984208D0B84206D0604544
:103DD00004D041F2B1011FA003F0B7FA29462068D0
:103DE00000E010E001F0F0FA2068C16941F008013C
:103DF000C1612068C16921F00401C1612068C16905
:103E00002A69114324E0206888420ED040450CD036
:103E100090420AD0984208D0B84206D0604504D0FB
:103E200041F2C2010BA003F090FA2946206801F08C
:103E300041FB2068C16941F40061C1612068C1692A
:103E400021F48061C1612068C1692A6941EA0221C7
:103E5000C16149E72E2E2F447269766572732F5324
:103E6000544D3332463478785F48414C5F44726930
:103E70007665722F5372632F73746D3332663478A4
:103E8000785F68616C5F74696D2E630000000140AB
:103E90000004004000080040000C00400004014005
:103EA000004001400018004000440140004801402B
:103EB000001C00400020004070B5040057D0484965
:103EC00020688E03474D884229D0B04227D046490A
:103ED000884224D04549884221D0A8421FD0444975
:103EE00088421CD04349884219D04349884216D0A1
:103EF0004249884213D04249884210D04149884201
:103F00000DD0414988420AD04049884207D04049F3
:103F1000884204D040F22C513EA003F016FAA0686B
:103F200060B110280AD0202808D0402806D0602888
:103F300004D040F22D5137A003F007FA206950B1A8
:103F4000B0F5807F07D0B0F5007F04D040F22E514D
:103F500030A003F0FAF92068B0420AD0A84208D095
:103F6000E0684FF6FE71401E884209D903E0012047
:103F700070BDE06820B940F22F5126A003F0E5F9AA
:103F8000A06930B1802804D04FF4A66121A003F0CD
:103F9000DCF994F83D0028B9002084F83C00204664
:103FA00000F054F8022084F83D00211D206801F043
:103FB000A5F8012084F8460084F83E0084F83F000C
:103FC00084F8400084F8410084F8420084F84300FB
:103FD00084F8440084F8450084F83D00002070BD5A
:103FE00000000140000C00400004004000080040B8
:103FF0000010004000140040000401400040014057
:10400000004401400048014000180040001C0040EE
:10401000002000402E2E2F447269766572732F5354
:10402000544D3332463478785F48414C5F4472696E
:104030007665722F5372632F73746D3332663478E2
:10404000785F68616C5F74696D2E630008B50C4A17
:1040500001680C48914207D1016841F002010160FA
:10406000006800F0020009E0074A914207D10168A8
:1040700041F004010160006800F00400009008BDF8
:104080000004004040380240000800407047000033
:1040900000680349884201D1FDF7DABB7047000090
:1040A000004001407047704770470000F8B5016854
:1040B00004460868CA684B6910F00F0F4FF00005FE
:1040C00059D003F0010602F49077374365D0C10759
:1040D00005D0D10503D5616C41F001016164410750
:1040E00005D5D90703D0616C41F0020161648107F5
:1040F00005D5D90703D0616C41F004016164010763
:1041000007D502F02001314303D0616C41F0080172
:104110006164616C00293AD0800604D5900602D50E
:10412000204601F06BFA20684069616CC0F3801092
:10413000090700D460B3204601F039FA20684069CD
:10414000400621D52068143050E8001F21F04001BE
:1041500040E80012002AF5D1E06BA8B16E49016574
:10416000E06BFCF75EFD002811D0E06B016D01B043
:10417000BDE8F040084783060FD593060DD52046CD
:10418000BDE8F84001F03ABA2046FFF78DFFF8BDD0
:104190002046FFF789FF6564F8BD266B2023012EBA
:1041A0007DD1C6067BD5D60679D5086848680090CB
:1041B00048694FF00206400641D5E16B0868406847
:1041C0000004000CE8D0A28D8242E5D9E085C869E0
:1041D000B0F5807F2DD020680C3050E8001F21F40E
:1041E000807140E80012002AF5D12068143050E8B0
:1041F000001F21F0010140E80012002AF5D12068DB
:10420000143050E8001F21F0400140E80012002A5D
:10421000F5D184F84230256320680C3050E8001F47
:1042200021F0100140E80012002AF5D1E06BFCF704
:10423000AFFC6663A08DE18D401A81B22AE0A08DAB
:10424000E18D401A81B2E08D0028A5D00029A3D0CD
:1042500022680C3252E8000F20F4907042E8000708
:10426000002FF5D12068143050E8002F22F0010211
:1042700040E80027002FF5D184F8423025632068FC
:104280000C3050E8002F22F0100240E80023002BF1
:10429000F5D166632046FFF706FFF8BDFFE7050688
:1042A0002BD5150629D594F841002128F5D1A06811
:1042B000B0F5805F01D12069B0B1206A411C216254
:1042C000216800784860E08C401E0004000CE08407
:1042D000E3D12068C16821F08001C1602068C16815
:1042E00041F04001C160D8E7206A0088C0F30800AF
:1042F0004860206A801C2062E5E74006CDD5500664
:10430000CBD5CA68204622F04002CA6084F841300A
:1043100000F0F1F9C1E700009F55000870B50400F6
:1043200023D0A0693B4900283B4A3C4B3C4D2068C8
:104330001DD088420CD090420AD0984208D0A842A2
:1043400006D040F2731137A002F0FFFFA06908B356
:10435000A069B0F5807F1DD0B0F5007F1AD0B0F510
:10436000407F17D04FF4BA7111E0012070BD884230
:1043700010D090420ED098420CD03949884209D0D2
:104380003849884206D0A84204D04FF4BC7125A019
:1043900002F0DBFFA06838B1B0F5805F04D04FF4C5
:1043A000BD7120A002F0D1FFE06938B1B0F5004F37
:1043B00004D040F27B111BA002F0C7FF94F841002B
:1043C000002520B984F84050204600F04DF8242004
:1043D00084F841002068C16821F40051C160204682
:1043E00001F06EF92068016921F4904101612068B3
:1043F000416921F02A0141612068C16841F40051FE
:10440000C1606564202084F8410084F8420065633F
:10441000002070BD001001400044004000480040F2
:10442000001401402E2E2F447269766572732F534B
:10443000544D3332463478785F48414C5F4472695A
:104440007665722F5372632F73746D3332663478CE
:10445000785F68616C5F756172742E6300000000A4
:10446000004C0040005000402DE9F04F87B0054659
:1044700014216846FBF76FFF9348DFF84882143831
:10448000D5F800C0904B02210322871500240615A1
:104490004FF007094FF0006BC4456BD1D3F800C053
:1044A0004CF0100CC3F800C01B6803F01003059318
:1044B000036843F002030360036803F002030593FB
:1044C000036843F00103036000688A4600F00100BE
:1044D00005908020CDE9000A0DF1080C90468CE88B
:1044E000100369467948FCF70FFE7010CDE9000A09
:1044F0000DF1080A69468AE810037548FCF704FEC6
:10450000DFF8D48173494046C8F80010C0E901B40F
:10451000C0E90346C8F81440C0E90647C8F820407F
:10452000D946C8F82440FCF75FFC08B1FCF729F82D
:10453000694F6848C5F83C8060377830C8F8385013
:10454000E7E80209402051C7634847F81449603042
:10455000BC61FC613C627C62FCF746FC08B1FCF784
:1045600010F8AF63002211462520BD63FDF722FA43
:10457000252044E0DFF86481C44545D1524B1B1F20
:10458000D3F800C04CF4802CC3F800C01B6803F4BF
:1045900080230593036843F004030360006800F080
:1045A000040005904FF440608DE81300CDE9032925
:1045B00069464B48FCF7A8FDDFF81C81494908F122
:1045C000C0084046C8F80010C0E901B4C0E903467D
:1045D000C8F81440C0E90647C8F82040C8F824408D
:1045E000FCF702FC08B1FBF7CCFFC5F83C800022C9
:1045F00011462720C8F83850FDF7DCF92720FDF7D1
:10460000A7F907B0BDE8F08FDFF8DC80C445F8D12A
:10461000D3F800C04CF0200CC3F800C01B6803F0B6
:1046200020030593036843F040030360006800F033
:10463000400005904FF484408DE813000820CDE938
:10464000032069462948FCF75FFD2249DFF8A08076
:10465000183940464FF02069C8F80010C0E90194AD
:10466000C0E90346C8F81440C0E90647C8F820402E
:10467000C8F82440FCF7B8FB08B1FBF782FF1C4FD9
:104680001448C5F83C8060376030C8F83850E7E817
:104690000209402051C7164847F814496030BC61F0
:1046A000FC613C627C62FCF79FFB08B1FBF769FF91
:1046B000AF63002211464720BD63FDF77BF9472019
:1046C0009DE7000000100140443802400004024011
:1046D0000000024040640240C8040020004800403E
:1046E0000008024028600240001401400018024007
:1046F000E805002070477047FEE70000F0B5002392
:104700000A24302537261F4611E000BFB4EB107F86
:1047100002D905EB107C01E006EB107C01F813C018
:1047200001EB430C00015B1C8CF80170DBB293427F
:10473000ECD3F0BD104810B50E4901600321416073
:1047400000214FF410228160C0E903124FF40012DF
:1047500042610176012242768276C2760177427703
:10476000FCF710F8002803D0BDE81040FBF709BFA4
:1047700010BD00000064004008010020104810B582
:104780000E4901600321416000214FF41022816035
:10479000C0E903124FF40012426101760122427611
:1047A0008276C27601774277FBF7ECFF002803D0D0
:1047B000BDE81040FBF7E5BE10BD000000680040FA
:1047C00030010020254808B5016841F480010160EE
:1047D000016801F480010091016841F40011016059
:1047E0000068002200F40010009011460C20FDF734
:1047F000E1F80C20FDF7ACF8002211463820FDF757
:10480000D9F83820FDF7A4F8002211463920FDF729
:10481000D1F83920FDF79CF8002211463A20FDF727
:10482000C9F83A20FDF794F8002211463B20FDF725
:10483000C1F83B20FDF78CF8002211464520FDF71A
:10484000B9F84520FDF784F8002211464620FDF70F
:10485000B1F8BDE808404620FDF77AB8303802408C
:104860002DE9F04F87B014216846FBF774FD91489D
:104870000024016841F010010160016801F010019D
:104880000591016841F002010160016801F0020137
:104890000591016841F040010160016801F04001AB
:1048A0000591016841F008010160016801F008010B
:1048B0000591016841F004010160016801F0040103
:1048C0000591016841F001010160016801F00101F9
:1048D0000591016841F480710160016801F4807103
:1048E0000591016841F080010160016801F08001DB
:1048F0000591016841F0200101600068DFF8B8917E
:1049000000F020000590012240214846FCF77AFD86
:10491000DFF8A8A14FF4E058002241465046FCF7CA
:1049200071FDDFF89CB1012210215846FCF76AFDA9
:10493000012211466348FCF765FD4FF6FF70032620
:10494000CDE90006694602945F48FCF7DDFB4BF6B3
:10495000B750CDE90006694602944846FCF7D4FBFF
:104960004BF6FC70CDE90006694602945748FCF707
:10497000CBFB4FF28820CDE90006694602945448EB
:10498000FCF7C2FB48F26E50CDE90006694602947E
:104990005846FCF7B9FB40F63F70CDE90006694682
:1049A00002944C48FCF7B0FB4EF2FC30CDE9000617
:1049B000694602945046FCF7A7FB4FF6BF70CDE95D
:1049C0000006694602944448FCF79EFB40274FF4DA
:1049D000441001250097CDE9010569463C48FCF7E4
:1049E00093FBCDE900750295694648460395FCF7AF
:1049F0008BFBCDF80080CDE9015469465046039405
:104A0000FCF782FB082000904FF40410CDE901056B
:104A100069464846FCF778FB0720CDE90004694663
:104A20002B480294FCF770FB4DF60640CDE90006DA
:104A3000694602942348FCF767FB4FF488170095FA
:104A4000CDE9017469465846FCF75EFB1020CDE9BC
:104A500000050226CDE9025669465846FCF754FB8C
:104A60003020CDE90007694602941948FCF74CFB59
:104A700068038DE8510069461248FCF745FBCDE913
:104A80000256009569460F480195FCF73DFB002250
:104A900011460620FCF78EFF0620FCF759FF002286
:104AA00011461720FCF786FF1720FCF751FF07B0CF
:104AB000BDE8F08F3038024000180240001C024070
:104AC000000002400004024000100240000C0240BE
:104AD0000008024000200240001402400D4810B5BA
:104AE0000B4901600C49416000214FF48042816014
:104AF000C0E9031241618161C1610162FCF7BEFC42
:104B0000002803D0BDE81040FBF73BBD10BD0000FE
:104B10000054004058010020801A0600094810B5D2
:104B200007490160032141601D218160FCF720FEDF
:104B3000002803D0BDE81040FBF723BD10BD0000E6
:104B400000300040AC010020104810B50E49016053
:104B50004FF48271416000218160C1604FF40072A6
:104B60000161C0E905123022C0E90721416281627A
:104B70000A21C162FEF7E2F8002803D0BDE8104028
:104B8000FBF7FFBC10BD000000300140B801002061
:104B900010B588B01C216846FBF7DDFB15481449A9
:104BA00000240160A721C0E9011440F2CF71C0E9DF
:104BB00003148461FEF7B4FB08B1FBF7E2FC0D4877
:104BC000FFF77AF908B1FBF7DCFC6020CDE90004BF
:104BD00002940022694607480494FFF739F808B1A7
:104BE000FBF7CFFC0348FEF7BFFF08B010BD000085
:104BF00000440140A803002010B58AB000240794A7
:104C00001C2168460894FBF7A6FB1648144901606E
:104C10005321C0E9011440F2CF71C0E9031484614B
:104C2000FFF74AF908B1FBF7ACFC079407A90D4858
:104C30000894FEF7CDFA08B1FBF7A3FC6020CDE99C
:104C4000000402940822694606480494FFF700F81D
:104C500008B1FBF796FC0348FEF786FF0AB010BDCB
:104C600000040040D002002010B58AB00024079450
:104C70001C2168460894FBF76EFB16481449016036
:104C80005321C0E9011444F61F61C0E90314846193
:104C9000FFF712F908B1FBF774FC079407A90D4858
:104CA0000894FEF795FA08B1FBF76BFC6020CDE99C
:104CB000000402940822694606480494FEF7C8FFDF
:104CC00008B1FBF75EFC0348FEF74EFF0AB010BDCB
:104CD000000800401803002010B596B000240F947F
:104CE00010941194129413941C2168461494FBF7A9
:104CF00032FB202107A8FBF72EFB2C482A49016034
:104D0000A721C0E9011444F61F61C0E903144461FE
:104D10008461FEF705FB08B1FBF733FC4FF48050CC
:104D20000F900FA92148FEF77DFC08B1FBF729FC85
:104D30001E48FFF7C1F808B1FBF723FC139413A931
:104D40001A481494FEF744FA08B1FBF71AFC6020E5
:104D5000CDE9000402940394049405940422694666
:104D600012480694FEF774FF08B1FBF70AFC08220C
:104D700069460E48FEF76CFF08B1FBF702FC07948A
:104D8000089409944FF400500A94CDE90B4007A908
:104D900006480E94FEF778F908B1FBF7F2FB0348DA
:104DA000FEF7E2FE16B010BD0004014060030020D3
:104DB0000C4810B50A4901604FF46121416000219F
:104DC00081600C22C160C0E904128161C161FFF7FA
:104DD000A5FA002803D0BDE81040FBF7D2BB10BDF8
:104DE00000100140F00300200D4810B50B49016090
:104DF0000C49416000214FF480628160C0E90312D8
:104E00000C22C0E90521C161FFF788FA002803D010
:104E1000BDE81040FBF7B5BB10BD000000480040E6
:104E200038040020A08601000C4810B50A49016032
:104E30004FF4E1314160002181600C22C160C0E982
:104E400004128161C161FFF769FA002803D0BDE84F
:104E50001040FBF796BB10BD0014014080040020F9
:104E600010B500220F49104801F0FBF808B1FBF71C
:104E700088FB0E490C4801F00CFB08B1FBF781FBE5
:104E80000B49094800F0C6FE08B1FBF77AFB06485B
:104E900001F082FB002803D0BDE81040FBF771BB96
:104EA00010BD000004000020F0060020D00000200B
:104EB00054000020FEE7FEE70148FCF755BF000064
:104EC000EC1D00202DE9F04103680D4604461E6CE0
:104ED00003EB4511D1F8080B94F806E04FF40047B6
:104EE0004FF0200C04F29C42BEF1010F09D0DFF814
:104EF00098E0764539D1020432D500BFC1F8087B6D
:104F00003FE0224B5FEA007E04D59E4239D900047F
:104F1000F4D436E05FEA806E02D5C1F808CB30E009
:104F200010F0280F2DD19E4201D90004E6D405EBE4
:104F3000C50004EB8000D1F8101BD0F87432C1F327
:104F40001201591AC0F8681200F51570ADB903695D
:104F50001BB1C2681144C1600FE0012120680AE062
:104F600080060AD5C1F808CB07E035B9D4F8640249
:104F700018B90021184601F089FEE9B22046FCF775
:104F8000DDFD0020BDE8F0810A31544F0A30544F56
:104F90002DE9F84F0E4601EBC60100EB8104814676
:104FA0000568D4E909101434884202D90120BDE80B
:104FB000F88F081AA168814200D20846C01C8708F1
:104FC00005EB46181BE000BFA0EB010AA0685045A6
:104FD00000D282460AF10300870899F80600009083
:104FE0001FFA8AF3F2B22846E16802F089F9E16813
:104FF00001EB0A00E060616901EB0A006061D8F82A
:10500000180980B2B84205D3D4E90401814201D223
:105010000028D9D1D4E90401884208D806F00F014C
:1050200001208840D5F834188143C5F83418002091
:10503000BDE7704770470178407841EA002070472B
:105040007047000030B593B030216846FBF783F914
:1050500014210CA8FBF77FF91F480025016841F0D7
:1050600080510160006800F0805011901B48016879
:1050700041F4804101600068022400F480401190F6
:10508000092000904FF4803001900120CDE9050403
:105090008005079006200890A820CDE90904072084
:1050A0000B906846FDF7F6FB08B172B6FEE70CA957
:1050B0000F2081E831004FF4A0500F904FF4805042
:1050C000109005210CA8FDF747FA002801D072B610
:1050D000FEE713B030BD00004038024000700040D1
:1050E0000248016841F470010160704788ED00E0FA
:1050F0000148FEF7A0BC0000A8060020F0B5026839
:10510000294C2A4D2A4E2B4F2B4B4FF0804CA0425E
:1051100009D0604507D0A84205D0B04203D0B842BC
:1051200001D0984204D122F0700E4A6842EA0E0281
:10513000A0421BD0604519D0A84217D0B04215D06C
:10514000B84213D0984211D01C4DA8420ED01C4D2D
:10515000A8420BD01B4DA84208D01B4DA84205D039
:105160001A4DA84202D01A4DA84203D122F440752C
:10517000CA682A434D6922F080022A4302608A6885
:10518000C2620A688262A04201D0984201D10969D4
:105190000163012141610169C90703D0016921F05F
:1051A00001010161F0BD0000000001400004004069
:1051B00000080040000C0040000401400040014095
:1051C000004401400048014000180040001C00401D
:1051D0000020004010B5846842EA032224F47F4492
:1051E0000A432243826010BD826822F070020A43A3
:1051F00042F00701816070472DE9F0470446006ADC
:105200000D46216A21F0010121626768A169AE683B
:1052100021F07302296820F00200DFF88090064335
:10522000DFF87CA041EA02084C4501D054450ED17C
:10523000E86830B1082804D041F6D02119A002F066
:1052400084F8E86826F00801084320F004064C457D
:1052500001D0544519D1A869B0F5007F05D020B11F
:1052600041F6DD210FA002F070F86869B0F5807F8B
:1052700005D020B141F6DE210AA002F066F827F43D
:1052800040716869AF69084307436760C4F81880D4
:10529000686860632662BDE8F08700000000014096
:1052A000000401402E2E2F447269766572732F53CD
:1052B000544D3332463478785F48414C5F447269CC
:1052C0007665722F5372632F73746D333266347840
:1052D000785F68616C5F74696D2E63002DE9F0473B
:1052E0000446006A0D46216A21F0100121626768B8
:1052F000A1692A6821F4E64141EA0228A968DFF899
:10530000889020F02000DFF884A040EA01164C4588
:1053100001D054450FD1E86830B1082804D041F6D7
:105320001C311BA002F011F8E96826F0800040EA69
:10533000011020F040064C4501D054451BD1A8690E
:10534000B0F5007F05D020B141F6293110A001F061
:10535000FCFF6869B0F5807F05D020B141F62A31A5
:105360000BA001F0F2FF696927F4406040EA810078
:10537000A96940EA81076760C4F818806868A0637B
:105380002662BDE8F08700000000014000040140F3
:105390002E2E2F447269766572732F53544D33321B
:1053A000463478785F48414C5F4472697665722F65
:1053B0005372632F73746D3332663478785F68612B
:1053C0006C5F74696D2E63002DE9F0470446006A36
:1053D0000D46216A21F4807121626768E169DFF876
:1053E000949021F07302296820F4007041EA0208C9
:1053F000A968DFF884A040EA01264C4501D0544555
:105400000FD1E86830B1082804D041F667311BA0FD
:1054100001F09BFFE96826F4006040EA012020F4D7
:1054200080664C4501D054451BD1A869B0F5007F7A
:1054300005D020B141F6743110A001F086FF6869F3
:10544000B0F5807F05D020B141F675310BA001F099
:105450007CFF696927F4405040EA0110A96940EADD
:1054600001176760C4F81C806868E0632662BDE8C5
:10547000F087000000000140000401402E2E2F4460
:105480007269766572732F53544D3332463478788F
:105490005F48414C5F4472697665722F5372632F87
:1054A00073746D3332663478785F68616C5F7469E9
:1054B0006D2E63002DE9F0410446006A0D46216A15
:1054C00021F4805121626668E1692A6821F4E6418D
:1054D00041EA0228A96820F4005040EA01370E484A
:1054E000844202D00D4884420ED16869B0F5807FB5
:1054F00005D020B141F6B43109A001F026FF696959
:1055000026F4804040EA81166660C4F81C80686812
:1055100020642762BDE8F0810000014000040140E2
:105520002E2E2F447269766572732F53544D333289
:10553000463478785F48414C5F4472697665722FD3
:105540005372632F73746D3332663478785F686199
:105550006C5F74696D2E630010B5036A046A24F0F1
:1055600001040462846924F0F00444EA021423F084
:105570000A020A438461026210BD10B5036A046A1C
:1055800024F010040462846923F0A00324F470441E
:1055900044EA023243EA01118261016210BD10B592
:1055A000806B0021C185C184FEF77EFD10BD0168BE
:1055B0000C3151E8002F22F4907241E80023002BB7
:1055C000F5D10168143151E8002F22F0010241E8C1
:1055D0000023002BF5D1016B012909D101680C31A1
:1055E00051E8002F22F0100241E80023002BF5D1F2
:1055F000202180F8421000210163704708B590F81F
:105600004210222901D0022008BD82684FF4805345
:105610009A4201D1016921B1816A9A421BD04AB1F3
:105620000AE00268816A5268C2F308020A80816A4D
:10563000891C08E0026972B10268526802F07F02B8
:105640000A70816A491C8162C18D491E0904090CD6
:10565000C18503D01BE002685268F1E70168CA689F
:1056600022F02002CA600168CA6822F48072CA600F
:1056700001684A6922F001024A61202180F8421043
:1056800000214163026B012A03D0FFF733F80020A9
:1056900008BD016301680C3151E8002F22F01002AF
:1056A00041E80023002BF5D101680A68D20602D533
:1056B0000A6849680091818DFEF7F5FCE7E7000074
:1056C00070B5044640685449884204D940F6756173
:1056D00052A001F03AFEE06838B1B0F5005F04D0A6
:1056E00040F676614DA001F030FE206950B1B0F572
:1056F000806F07D0B0F5C06F04D040F6776147A047
:1057000001F023FE60694FF6F371084200D120B921
:1057100040F6786141A001F018FE20680169E26856
:1057200021F44051114301612169A068E2690843F5
:105730006169114322680843D16849F20C639943B7
:105740000143D16020684169A26921F4407111438D
:10575000416141492068884202D04049884202D1D3
:10576000FDF756F801E0FDF743F8E269002319213F
:1057700064253226B2F5004F626828D0A0FB0101F3
:10578000930F9200FAF770FD0146B0FBF5F06FF051
:105790001802504301EB800006EB0010B0FBF5F05F
:1057A00000F0F002B1FBF5F002EB0012B1FBF5F0F6
:1057B0006FF01803584301EB800006EB0010B0FBBC
:1057C000F5F000F00F0021681044886070BDA0FB68
:1057D000010192185B41FAF747FD0146B0FBF5F075
:1057E0000201B1FBF5F06FF01803584301EB8000A4
:1057F00006EBC000B0FBF5F000F0F80002EB400251
:10580000B1FBF5F0584301EB800006EBC000B0FBA4
:10581000F5F000F00700D6E7A037A0002E2E2F44A9
:105820007269766572732F53544D333246347878EB
:105830005F48414C5F4472697665722F5372632FE3
:1058400073746D3332663478785F68616C5F75614C
:1058500072742E630000000000100140001401402B
:105860000148FEF723BC0000F00300200148FEF7CA
:105870001DBC0000380400200148FEF717BC0000E2
:10588000800400202DE9F0410C46D0F8D412D0F865
:10589000C82200EB8101D1F8C01229B304F00F0631
:1058A00006EB860300EB83050027AB694BB106EBE3
:1058B000C60602EB8602D269B3FBF2F602FB163291
:1058C000A2B1C1F81472D0F8D42200EB8200D0F853
:1058D000C40203692BB1D1F80802224601F5047114
:1058E00098470020BDE8F0810320FBE700231A461B
:1058F0002146AF6100F0AEFDF3E770B50546D0F884
:10590000D40205EB8000D0F8C04294B1284600F0E4
:1059100080FCC4F80C02D5F8D412D4F8040205EBCC
:105920008101D1F8C412CA6804F5037190470020C0
:1059300070BD032070BD000070B5224D044629786B
:1059400000F0ABFB2878002600F00F0000EB800091
:1059500004EB800086846978204600F09EFB68781E
:1059600000F00F0000EB800004EB8000A0F8646101
:10597000A978204600F091FBA87800F00F0000EB1A
:10598000800004EB80008684C684D4F8D40204EB43
:105990008000D0F8C01299B1D0F8C40240688047A6
:1059A000D4F8D40204EB8000D0F8C00200F075FFF8
:1059B000D4F8D40204EB8000C0F8C062C4F8BC6222
:1059C000002070BD7C00002010B5D0F8D41200EB90
:1059D0008100D0F8C04284B1D0F8C41259B194F813
:1059E0000002FF2807D08B6894F8012221469847CF
:1059F000FF2084F80002002010BD032010BD00002D
:105A00000A210180004870478000002070B50646DA
:105A100082210C4800F0D1FA05460121094800F026
:105A2000CCFA04468121074800F0C7FA0DB11021D5
:105A3000A971402104B1A18000B181804320308050
:105A4000004870BD8C00002070B5064682210D48CC
:105A500000F0B3FA054601210A4800F0AEFA044608
:105A60008121084800F0A9FA0DB11021A9714FF465
:105A7000007104B1A18000B18180432030800148D1
:105A800070BD00008C00002070B5064682210C48D5
:105A900000F093FA05460121094800F08EFA044609
:105AA0008121074800F089FA0DB11021A971402128
:105AB00004B1A18000B1818043203080004870BDD6
:105AC0008C0000202DE9F04704464FF40775284666
:105AD00000F0E4FE06004FF0000863D02946FAF714
