:020000040800F2
:100000000808002029020008EF150008D91300088D
:10001000ED1500081F040008C91C000800000000BE
:100020000000000000000000000000001D1C00088F
:100030002104000800000000F11500081F1C000842
:10004000430200084302000843020008430200087C
:10005000430200084302000843020008430200086C
:10006000430200084302000843020008430200085C
:10007000430200084302000843020008430200084C
:10008000430200084302000843020008430200083C
:10009000430200084302000843020008430200082C
:1000A000430200084302000843020008430200081C
:1000B000430200084302000843020008430200080C
:1000C00043020008430200084302000843020008FC
:1000D00043020008430200084302000843020008EC
:1000E00043020008430200084302000843020008DC
:1000F00043020008430200084302000843020008CC
:1001000043020008430200084302000843020008BB
:1001100043020008430200084302000843020008AB
:10012000430200084302000843020008430200089B
:10013000430200084302000843020008430200088B
:10014000430200084302000843020008430200087B
:10015000430200084302000843020008430200086B
:10016000430200084302000843020008430200085B
:100170004302000843020008430200080000000098
:10018000430200084302000800F002F800F03CF8C7
:100190000AA090E8000C82448344AAF10107DA45E2
:1001A00001D100F031F8AFF2090EBAE80F0013F0F8
:1001B000010F18BFFB1A43F0010318474038000035
:1001C00060380000103A24BF78C878C1FAD85207C6
:1001D00024BF30C830C144BF04680C6070470000C1
:1001E0000023002400250026103A28BF78C1FBD840
:1001F000520728BF30C148BF0B6070471FB501F0E0
:10020000A1FD1FBD10B510BD00F0CFF81146FFF7DE
:10021000F5FF01F06BFD00F0EDF803B4FFF7F2FF1E
:1002200003BC00F0F5F80000094880470948004782
:10023000FEE7FEE7FEE7FEE7FEE7FEE7FEE7FEE796
:10024000FEE7FEE704480549054A064B70470000F3
:10025000B91C0008890100080802002008080020D5
:10026000080400200804002053EA020C00F0698012
:100270002DE9F04B4FF00006002B1FBFB3FA83F5BA
:1002800003FA05F424FA05F65E4012BF1643B2FAEB
:1002900082F502FA05F4C5F120051EBF22FA05FC1D
:1002A00044EA0C04203556EA044C4FEA144418BFC3
:1002B000641C4FF000084FF00009904271EB030CF2
:1002C00039D3002919BFB1FA81F701FA07F6B0FA5C
:1002D00080F700FA07F6C7F120071EBF20FA07FCD7
:1002E00046EA0C062037B6FBF4FCA7EB0507103FE7
:1002F00007F01F0BCBF120060CFA0BFB2CFA06F6CD
:1003000044BFB3460026202FA4BF5E464FF0000B2B
:100310005BEA060C08BF4FF0010B19EB0B09ABFBB6
:10032000027C48EB0608C01B06FB02CC0BFB03CC8F
:1003300071EB0C01C1E70B46024641464846BDE859
:10034000F08B13B54FF000004FF00001AFF30080C9
:10035000BDE81C4070474FF0000200B513469446BC
:100360009646203922BFA0E80C50A0E80C50B1F10D
:100370002001BFF4F7AF090728BFA0E80C5048BF21
:100380000CC05DF804EB890028BF40F8042B08BFBF
:10039000704748BF20F8022B11F0804F18BF00F8BB
:1003A000012B7047704770477047754600F02CF876
:1003B000AE4605006946534620F00700854618B052
:1003C00020B5FFF73FFFBDE820404FF000064FF09B
:1003D00000074FF000084FF0000B21F00701AC467A
:1003E000ACE8C009ACE8C009ACE8C009ACE8C00999
:1003F0008D46704710B50446AFF300802046BDE837
:100400001040FFF70ABF000000487047A801002015
:1004100001491820ABBEFEE7260002007047FEE748
:10042000704772B6FEE7000070B5044600F08AF926
:100430000546601C02D004480078044400F082F9AC
:10044000401BA042FAD370BD000000202DE9F84FF8
:10045000DFF888B20D46044658451BD0A0488442B8
:1004600018D0A048844215D09F48844212D09F489B
:1004700084420FD09E4884420CD09E48844209D0CA
:100480009D48844206D09D48844203D0AC219C48BC
:1004900001F02BFC28680104090C01D0000C03D0EA
:1004A000AD21974801F021FC6868F8B101281DD002
:1004B00011281BD0022819D0122817D0B0F5881F98
:1004C00014D0B0F5041F11D0B0F5441F0ED0B0F514
:1004D000901F0BD0B0F5081F08D0B0F5481F05D00D
:1004E000032803D0AE21864801F0FFFB00264FF021
:1004F000010A4FF0030900BF0AFA06F02F68804690
:10050000074047457ED1287900F00300012801D03B
:1005100002281DD1E86848B1012807D0022805D07B
:10052000032803D0C021764801F0DFFBA1687200E8
:1005300009FA02F08143E86890400843A0606068CF
:10054000297920EA0800C1F30011B140014361603C
:100550002879C043800712D0A86838B1012805D097
:10056000022803D0D121664801F0BFFBE168720088
:1005700009FA02F08143A86890400843E0602879B6
:1005800000F0030002282ED12869F8B109281DD0F7
:1005900001281BD0022819D0032817D0042815D011
:1005A000052813D0062811D007280FD008280DD011
:1005B0000A280BD00B2809D00C2807D00D2805D00D
:1005C0000F2803D0DE214E4801F08FFBF00804EB2A
:1005D0008002106A7107CB0E0F2199408843296968
:1005E0009940014311622068720009FA02F18843C0
:1005F000297901F00301914001432160686810F4FA
:10060000403F00E063E062D03E48016841F4804131
:100610000160006826F0030100F4804000903A4831
:100620000A18D2F80808B1070B0F0F219940884328
:100630005C4501D1002123E029498C4201D10121EF
:100640001EE028498C4201D1022119E026498C4242
:1006500001D1032114E025498C4201D104210FE08E
:1006600023498C4201D105210AE022498C4201D163
:10067000062105E020498C4201D1072100E0082134
:1006800099400143C2F80818204908686A68B843CD
:10069000D20200D5384308601C49091D08686A6801
:1006A000B843920200D5384308601849091F08680A
:1006B0006A68B843920300D5384308601349083983
:1006C00008686A68B843D20300D538430860761CCE
:1006D000102EFFF411AFBDE8F88F000000000240BB
:1006E0000004024000080240000C024000100240DA
:1006F0000014024000180240001C0240002002408A
:10070000143900084438024000300140083C0140E0
:1007100070B515460C00064604D140F29D110848FC
:1007200001F0E3FA45B1012D04D04FF4CF71044834
:1007300001F0DBFAB46170BD2004B06170BD00004F
:10074000143900080148806870470000000000204C
:1007500002488168027811448160704700000020DF
:100760000B4810B5016841F400710160016841F463
:1007700080610160016841F480710160032000F034
:1007800075F80F2000F006F800F024F8002010BDE6
:10079000003C024070B50D4D04464FF47A71287844
:1007A000B1FBF0F00A490968B1FBF0F000F000FE7F
:1007B00048B9102C07D200222146501E00F022F822
:1007C00000206C6070BD012070BD000000000020A2
:1007D0000C0000200A4808B5016841F4804101601E
:1007E000006800F4804000900548001F016841F057
:1007F00080510160006800F08050009008BD00004A
:100800004438024070B515460C460646102A03D3FC
:10081000A821144801F069FA102C03D3A92111482A
:1008200001F063FA10480068C0F30223C3F1070225
:100830002046042A00D90422191D072901D20023C9
:1008400000E0DB1E012404FA02F1491E0140994038
:100850009C40641E2C4021433046BDE8704001F0AE
:1008600034BA0000883900080CED00E010B50446E9
:1008700007280BD0062C09D0052C07D0042C05D056
:10088000032C03D09021084801F02FFA074904F007
:10089000070208684FF6FF03184040EA0220044AA6
:1008A0001043086010BD0000883900080CED00E01E
:1008B0000000FA052DE9F0470E4604007DD02068BF
:1008C000401E0E2804D940F25A217A4801F00DFA50
:1008D00096B1012E10D0022E0ED0032E0CD0042E75
:1008E0000AD0052E08D0062E06D0072E04D040F2DE
:1008F0005B21704801F0F9F9DFF8BC81D8F80000FD
:10090000F7B200F00700B04207D288F80070D8F8BC
:10091000000000F00700B0424FD12068674D81070A
:1009200029D5400703D5286840F4E0502860207896
:10093000000703D5286840F460402860A068A0B193
:10094000802812D0902810D0A0280ED0B0280CD02B
:10095000C0280AD0D02808D0E02806D0F02804D03B
:1009600040F27E21534801F0C0F92868A16820F0C8
:10097000F000084328602078C00743D0DFF83C919E
:100980006068A9F1080988B1012822D0022824D082
:10099000032822D040F28521464801F0A6F960687C
:1009A000012816D0022818D0032816D0D9F8000044
:1009B0008007002833DA286800E030E0616820F022
:1009C000030008432860FFF7BDFE814641F2883AE4
:1009D00011E0D9F800008003EBE7D9F800008001AE
:1009E000E7E700BFFFF7AEFEA0EB0901514502D9D2
:1009F0000320BDE8F0872868616800F00C00B0EBC8
:100A0000810FEFD1D8F80010404601F00701B14244
:100A100007D90770006800F00700B04201D001203C
:100A2000E7E720784FF4805640074FF4A0574FF483
:100A3000C0584FF4E05914D5E06860B1B0420AD014
:100A4000B84208D0404506D0484504D040F2C32102
:100A5000184801F04AF92868E16820F4E05008439A
:100A600028602078000715D5206960B1B0420AD00F
:100A7000B84208D0404506D0484504D040F2CA21CB
:100A80000C4801F032F92868216920F4604040EAFE
:100A9000C100286000F01AF82968094AC1F303115F
:100AA000515CC8400749086007480068FFF772FEBC
:100AB00000209EE7A0380008003C024008380240B1
:100AC0001C3800080C00002004000020154810B558
:100AD000006810F00C02144813D01449042A0FD0F7
:100AE000082A0ED10F4C241F2268236802F03F020F
:100AF0005B0207D52068C0F38810A0FB010106E067
:100B0000084610BD2168C1F38811A1FB0001002334
:100B1000FFF7AAFB2168C1F30141491C4900B0FB62
:100B2000F1F010BD083802400024F400001BB700AB
:100B30002DE9F84F04007DD020680F2803D9E62165
:100B4000F74801F0D2F82078DFF8D893C007A9F170
:100B5000040555D060684FF480364FF4A02738B1B3
:100B6000B04205D0B84203D0EB21ED4801F0BDF80A
:100B7000EC48001D0168C1F38101012908D000681B
:100B8000C0F3810002280AD1D9F80000400206D53E
:100B90002868800334D560680028CCD030E06068D5
:100BA000B04203D1286840F480300CE0B842286895
:100BB00003D140F480202860F4E720F480302860DE
:100BC000286820F480202860606860B1FFF7BAFDD3
:100BD000064604E0FFF7B6FD801B64287ED828682F
:100BE0008003F7D50CE0FFF7ADFD064605E000BF3A
:100BF000FFF7A8FD801B6428F0D828688003F7D48D
:100C00002078DFF8248380074FF0000A56D5E0688B
:100C100030B1012804D040F21D11C14801F065F83F
:100C200020691F2804D94FF48F71BD4801F05DF889
:100C3000BC4800E092E0001D016811F00C0F08D0E4
:100C40000068C0F38100022810D1D9F800004002EA
:100C50000CD42868800702D5E06801287ED1286876
:100C6000216920F0F80040EAC10017E0E068B8B15F
:100C70000120C8F80000FFF765FD064605E000BF4B
:100C8000FFF760FD801B0228A8D828688007F7D5E9
:100C9000286820F0F801206941EAC00028600DE0D2
:100CA000C8F800A0FFF74EFD064604E0FFF74AFD36
:100CB000801B022892D828688007F7D42078000784
:100CC0002ED5984E994F60697036D0B1012808D062
:100CD0004FF4AF71924801F008F800E0D6E0606987
:100CE00078B101203860FFF72DFD074605E000BF11
:100CF000FFF728FDC01B0228C6D830688007F7D54B
:100D00000EE0C7F800A0FFF71DFD074605E000BF95
:100D1000FFF718FDC01B0228B6D830688007F7D44B
:100D20002078400776D5A068002740B1012806D07A
:100D3000052804D04FF4C571794800F0D6FFDFF8DC
:100D4000E4B10BF13C0BDBF80000C0000DD4DBF884
:100D5000001041F08051CBF8001000E01EE1DBF8FC
:100D60000000012700F080500090714E3068C005EF
:100D700011D4306840F480703060FFF7E3FC0090DD
:100D800006E000BFFFF7DEFC0099401A02287DD87C
:100D90003068C005F6D5634EA0686C3601280FD0C8
:100DA0000528306810D020F001003060306820F055
:100DB00004003060A068B8B1FFF7C4FC00900FE0F9
:100DC000306840F00100F4E740F004003060F7E7DD
:100DD000FFF7B8FC0099411A41F28830814255D89A
:100DE00030688007F4D50EE0FFF7ACFC009007E018
:100DF000FFF7A8FC0099411A41F28830814245D89A
:100E000030688007F4D42FB1DBF8001021F0805156
:100E1000CBF80010A069D0B3012808D0022806D072
:100E200040F2CD113E4800F060FFA06978B33D4824
:100E3000001D0068C0F381000228A0696FD002285D
:100E400005D0C8F860A0FFF77DFC04467CE0E069AF
:100E500038B1B0F5800F04D04FF4EB71304800F09A
:100E600044FF206A801E3D2804D940F2D7112C4847
:100E700000F03BFF606A3238B0F5BF7F04D94FF411
:100E8000EC71274800F031FFA06A01E059E087E0EB
:100E900002280AD0042808D0062806D0082804D042
:100EA00040F2D9111E4800F020FFE06A801E0D2894
:100EB00004D94FF4ED711A4800F017FF4746C8F8FF
:100EC00060A0FFF73FFC064605E000BFFFF73AFCD5
:100ED000801B022835D828688001F7D4D4E907019F
:100EE0000843A16A134A490802EB0141626A41EAD8
:100EF0008211084394F82C1040EA0161C9F80010EF
:100F000001203866FFF71EFC044604E0FFF71AFCD8
:100F1000001B022815D828688001F7D540E017E0AB
:100F2000A03800080438024000004742800E4742C3
:100F3000007000400000FFFFFFF704FC001B0228C8
:100F400002D90320BDE8F88F28688001F4D427E097
:100F50000128F7D0D9F80000E26900F4800191423D
:100F60001CD1226A00F03F01914217D147F6C071AF
:100F7000626A0140B1EB821F10D1A26A4FF0FF33C9
:100F800000F4403103EB5202B1EB024F06D194F86A
:100F90002C1000F07060B0EB016F01D00120D1E7A0
:100FA0000020CFE770B504007ED0804920688842D9
:100FB0000AD07F49884207D07E49884204D04FF446
:100FC000A0717D4800F091FE60684FF4827630B1E8
:100FD000B04204D040F24111774800F086FEA0688C
:100FE00050B1B0F5806F07D0B0F5004F04D04FF48A
:100FF000A171714800F079FEE068B0F5006F05D08E
:1010000020B140F243116C4800F06FFEA069B0F5CA
:10101000007F08D038B1B0F5802F04D04FF4A27112
:10102000654800F062FEE06990B1082810D01028F1
:101030000ED018280CD020280AD0282808D0302814
:1010400006D0382804D040F245115B4800F04DFE30
:10105000206A30B1802804D04FF4A371564800F0C4
:1010600044FE606A002540B3102806D040F24711C4
:10107000514800F03AFE606AF8B1E06990B1082882
:1010800010D010280ED018280CD020280AD02828DC
:1010900008D0302806D0382804D040F259114648EC
:1010A00000F023FE256100E005E06561A56294F88B
:1010B000510070B335E0012070BD206930B10228C5
:1010C00004D04FF4A5713C4800F00FFE606930B1C8
:1010D000012804D040F24B11374800F006FE60684A
:1010E000B04217D1E0690028E0D00828DED01028EF
:1010F000DCD01828DAD02028D8D02828D6D030281C
:10110000D4D03828D2D040F24F112B4800F0EDFD5A
:10111000CCE701E0E561C9E784F85050204600F0D3
:101120004DF8022084F851002068016821F0400148
:101130000160A088218900F4827001F40441084311
:10114000A18901F400610843217C01F002010843F8
:10115000217D01F001010843218B01F40071084356
:10116000217F01F03801084394F8201001F080013C
:101170000843218D01F40051084321680860A069EB
:10118000042101EA104094F8241001F010010843F2
:10119000216848602068C16921F40061C16165650A
:1011A000012084F85100002070BD00000030014093
:1011B00000380040003C00402C38000810B586B0D4
:1011C000044614216846FFF7C6F81449206888428F
:1011D00021D113480021026842F480420260006875
:1011E00000F4804005900E481038026842F0020278
:1011F0000260006800F0020005904FF4204000906B
:101200000220CDE9010103200390052004906946E6
:101210000448FFF71BF906B010BD0000003800407D
:1012200040380240000402402DE9F84F044680682F
:10123000984615468A46002638B1B0F5004F04D0CE
:101240004FF44271594800F050FD94F850000128C5
:101250000DD0012784F85070FFF774FA814694F896
:1012600051004FF0000B012804D002269AE0022022
:10127000BDE8F88FBAF1000F6FD0002D6DD00320BC
:1012800084F85100C4F854B0C4F830A0A586E586AF
:10129000C4F838B0A4F83CB0A4F83EB0C4F844B0E8
:1012A000C4F840B0A068B0F5004F09D120680168CB
:1012B00021F0400101602068016841F48041016033
:1012C00020680168490603D4016841F040010160CB
:1012D000E068B0F5006F606803D058B3012D29D0E5
:1012E00049E008B1012D1FD1206B21680088C8603A
:1012F00006E020688168890709D5216B0988C160EB
:10130000206B801C2063E08E401EE0860CE0FFF71F
:1013100019FAA0EB0901414503D3B8F1FF3F03D00F
:1013200006E0B8F1000F03D0E08E0028E1D125E0FF
:10133000032635E0206B21680078087306E02068FA
:10134000816889070AD5216B09780173206B401CDD
:101350002063E08E401EE0860DE01FE0FFF7F2F90B
:10136000A0EB0901414503D3B8F1FF3F03D0DFE70C
:10137000B8F1000FDCD0E08E0028E0D14A464146AB
:10138000204600F037F908B120206065A06818B940
:101390002068C16880680090606D08B1012601E096
:1013A00084F8517084F850B0304661E72C3800085A
:1013B00010B5401EB0F1807F01D3012010BD4FF069
:1013C000E02460610F21601700F07FFC0020A06125
:1013D00007202061002010BDFEE700002DE9F04F3E
:1013E00087B014216846FEF7B6FF64480024016800
:1013F00041F010010160016801F0100105910168E0
:1014000041F002010160016801F0020105910168EB
:1014100041F040010160016801F04001059101685F
:1014200041F008010160016801F0080105910168BF
:1014300041F004010160016801F0040105910168B7
:1014400041F001010160016801F0010105910168AD
:1014500041F480710160016801F4807105910168B7
:1014600041F080010160016801F08001059101688F
:1014700041F0200101600068DFF804A100F02000C5
:101480000590002203215046FFF742F9DFF8F4B03F
:101490004FF4E058002241465846FFF739F94FF41F
:1014A000A049002249463848FFF732F94FF6FF7647
:1014B00003250096CDE9015469463448FEF7C6FF7E
:1014C00037110097CDE9015469462F48FEF7BEFF5A
:1014D0000096CDE9015469462D48FEF7B7FF009606
:1014E000CDE9015469462B48FEF7B0FF0096CDE9DF
:1014F000015469462848FEF7A9FF49F6FF70CDE977
:101500000005694602942548FEF7A0FF0097CDE943
:10151000015469462248FEF799FF4EF2FC30CDE9AE
:101520000005694602945846FEF790FF0126009593
:10153000CDE90164694650460394FEF787FF4FF6F4
:10154000FC70CDE90005694602945046FEF77EFF27
:10155000CDF80080CDE90164694658460394FEF752
:1015600075FFCDF80090CDE9016469460648039403
:10157000FEF76CFF07B0BDE8F08F00003038024086
:1015800000140240001C024000040240001002400F
:1015900000180240000C0240000802400000024017
:1015A00000200240104810B50E4901604FF48271CE
:1015B000416000218160C1604FF400720161C0E9A7
:1015C00005120822C0E90721416281620A21C16235
:1015D000FFF7E8FC002803D0BDE81040FEF721BF6C
:1015E00010BD00000038004050010020FEE7FEE77B
:1015F00070470000F8B515460E460B4600920446AB
:101600000122022100F02CF8A0B913481349006808
:10161000B0FBF1F04FF47A71484300906068B0F588
:10162000827F0DD13346002280212046009500F0B4
:1016300017F870B1606D40F0200060650320F8BDC0
:10164000009830B1401E009020688068C0430006BA
:10165000F6D50020F8BD00000C00002000366E0119
:101660002DE9F8431E46914688460446089DFFF73B
:1016700069F8401B351AFFF765F8074625480068EA
:10168000C0F3CB30684338E0701C37D0FFF75AF80E
:10169000C01BA84203D215B1009860B32CE02068AB
:1016A000416821F0E00141606068B0F5827F0BD1B4
:1016B000A068B0F5004F02D0B0F5806F04D120686B
:1016C000016821F040010160A06AB0F5005F09D116
:1016D0002068016821F4005101602068016841F42C
:1016E00000510160012084F85100002084F850006E
:1016F0000320BDE8F8830025401E00902068816823
:1017000038EA010004D000214945BDD10020F0E7AE
:101710000121F9E70C0000202DE9FF4F83B0984626
:10172000DDE910944A1E637825781A44D3B2421E2C
:101730002A44D2B2C9B2C0B200F0CCF92C2000F0D9
:1017400025FA002637E01F488442059801D12E383B
:1017500000E0203800FB0160616800254FEA192B8A
:1017600051F820704FEA1820019008F0FF0009F0AE
:10177000FF0A00901BE000BF07FA05F1102802D90C
:101780004FF0004001E04FF40040014206D00198C4
:101790008DF8080000988DF8090003E08DF808B076
:1017A0008DF809A0022102A800F012FA6D1C207821
:1017B000A842E1D8761C6178B142C4D807B0BDE830
:1017C000F08F0000143800082DE9F0411E46069BFA
:1017D000002415461F0A134ADBB207E002F8147012
:1017E00002EB440C641C8CF80130A4B2AC42F5D37B
:1017F0008A19521ED3B24219521ED2B2C9B2C0B215
:1018000000F068F92C2000F0C1F900246D0005E01B
:101810002946044800F0DCF9641CA4B2B442F7D3B2
:10182000BDE8F081100000202DE9FC479946DDE974
:101830000A8416460F46054616E020782844A0285C
:1018400003D960780025384487B26078384450283E
:101850000DD8CDE900844B4639462846FFF75CFF9A
:101860002078761C284485B23278002AE5D1BDE87C
:10187000FC8708B5002100905023A0220846FFF7FE
:10188000A3FF08BD10B500F00DF9112000F07EF99E
:101890007820FEF7C9FDB12000F078F9012000F0B2
:1018A00053F92C2000F050F92D2000F04DF9B22012
:1018B00000F06CF9012000F047F92C2000F044F909
:1018C0002D2000F041F9B32000F060F9012000F074
:1018D0003BF92C2000F038F92D2000F035F90120DB
:1018E00000F032F92C2000F02FF92D2000F02CF917
:1018F000B42000F04BF9072000F026F9C02000F0DA
:1019000045F9A22000F020F9022000F01DF9842002
:1019100000F01AF9C12000F039F9C52000F014F9DF
:10192000C22000F033F90A2000F00EF9002000F088
:101930000BF9C32000F02AF98A2000F005F92A20CB
:1019400000F002F9C42000F021F98A2000F0FCF830
:10195000EE2000F0F9F8C52000F018F90E2000F094
:10196000F3F8202000F012F93A2000F00FF90520DA
:1019700000F0EAF82A2000F009F9002000F0E4F86D
:10198000002000F0E1F8002000F0DEF87F2000F0F9
:10199000DBF82B2000F0FAF8002000F0D5F800204A
:1019A00000F0D2F8002000F0CFF89F2000F0CCF833
:1019B000E02000F0EBF8022000F0C6F81C2000F058
:1019C000C3F8072000F0C0F8122000F0BDF837205F
:1019D00000F0BAF8322000F0B7F8292000F0B4F88F
:1019E0002D2000F0B1F8292000F0AEF8252000F0FD
:1019F000ABF82B2000F0A8F8392000F0A5F8002063
:101A000000F0A2F8012000F09FF8032000F09CF8FD
:101A1000102000F099F8E12000F0B8F8032000F061
:101A200093F81D2000F090F8072000F08DF80620B4
:101A300000F08AF82E2000F087F82C2000F084F8BF
:101A4000292000F081F82D2000F07EF82E2000F0F3
:101A50007BF82E2000F078F8372000F075F83F2052
:101A600000F072F8002000F06FF8002000F06CF831
:101A7000022000F069F8102000F066F8132000F052
:101A800085F80A20FEF7D0FC292000F07FF80A2014
:101A9000FEF7CAFC032000F03FF8BDE8104000202C
:101AA000FFF7E7BE70B50A4D4FF48054002221467F
:101AB0002846FEF72DFE6420FEF7B6FC01222146E3
:101AC0002846FEF725FEBDE870406420FEF7ACBC5A
:101AD00000040240F8B500F10A0501F10A0402F120
:101AE0000A0703F10A062A2000F050F800200090AF
:101AF0008DF801508DF803700421684600F068F8F5
:101B00002B2000F043F88DF801408DF8036004218C
:101B1000684600F05DF8F8BD10B5002430B101282A
:101B200006D0022807D0032805D103E0C02402E034
:101B3000A02400E06024362000F028F82046BDE80C
:101B4000104000F001B8000031B5012202210C481C
:101B5000FEF7DEFD0B4D4FF480440022214628465F
:101B6000FEF7D6FD4FF0FF33012269460648FFF726
:101B70005BFB012221462846FEF7CAFD38BD000066
:101B800000140240000402405001002031B5002240
:101B900002210C48FEF7BCFD0B4D4FF4804400229F
:101BA00021462846FEF7B4FD4FF0FF330122694677
:101BB0000648FFF739FB012221462846FEF7A8FD1B
:101BC00038BD000000140240000402405001002013
:101BD0002DE9F0410C460546012202210C48FEF792
:101BE00097FD0C4F4FF48046002231463846FEF7F1
:101BF0008FFDA2B24FF0FF3329460748FFF714FBD1
:101C000031463846BDE8F0410122FEF781BD0000B3
:101C10000014024000040240500100207047FEF70B
:101C200097BD000030B593B030216846FEF793FBB6
:101C300014210CA8FEF78FFB1D480025016841F018
:101C400080510160006800F08050119019480168CF
:101C500041F4804101600068022400F4804011904A
:101C600001200090000401908001CDE9064006208B
:101C70000890A820CDE9090404200B906846FEF7DF
:101C800057FF08B172B6FEE70CA90F2081E83100BA
:101C90004FF4A0500F904FF48050109005210CA8E5
:101CA000FEF708FE002801D072B6FEE713B030BD83
:101CB00040380240007000400248016841F4700161
:101CC0000160704788ED00E0FEE70907090E002873
:101CD00004DB00F1E02080F80014704700F00F00F2
:101CE00000F1E02080F8141D704770471CB5FEF726
:101CF00037FDFFF7C7FDFFF795FFFFF76FFBFFF716
:101D000051FCFFF7BFFD064E00244FF6E075CDE90C
:101D1000004600212B4603A20846FFF785FDF6E7A3
:101D20000C3800083132333435363738392F722FBA
:101D30006E31323334353738393134353231343528
:101D4000000000004FF04070E1EE100A7047000004
:101D50000000000000000000000000000000000083
:101D60000000000000000000000000000000000073
:101D70000000000000000000000000000000000063
:101D80000000000000000000000000000000000053
:101D9000000000000000000000000000000C000037
:101DA000000C0000000C0000000C0000000C000003
:101DB000000C0000000C0000000C0000000C0000F3
:101DC000000C0000000C000000000000000C0000EF
:101DD000000C0000000000000000000000000000F7
:101DE00000000000001B0000001B0000001B0000A2
:101DF000001B0000001B00000000000000000000AD
:101E000000000000000000000000000000000000D2
:101E100000000000000000000000000000000000C2
:101E20000000000000000000000000008019000019
:101E3000801900008019000080190000C07F000098
:101E4000C07F00008019000000330000C07F000048
:101E5000C07F0000003300000033000000330000AA
:101E6000003300000000000000000000000000003F
:101E700000000000001E0000003F00008075000010
:101E80008065000000740000003C0000001E00009F
:101E900000070000800500008065000080650000EC
:101EA00080750000003F0000001E000000040000DC
:101EB00000040000000000000000000000700000AE
:101EC00000D8000040D80000C0D8000080D9000031
:101ED0000073000000060000000C0000801B0000E2
:101EE000C0360000C0660000C0460000C00600000A
:101EF000800300000000000000000000000000005F
:101F000000000000001E0000003F00000033000041
:101F10000033000000330000001E0000000C000031
:101F2000C03C0000C06600008063000080610000CB
:101F300080630000C03E0000801C00000000000024
:101F4000000000000000000000000000000C000085
:101F5000000C0000000C0000000C0000000C000051
:101F60000000000000000000000000000000000071
:101F70000000000000000000000000000000000061
:101F80000000000000000000000000000000000051
:101F900080000000000100000003000000060000B7
:101FA0000006000000040000000C0000000C00000F
:101FB000000C0000000C0000000C0000000C0000F1
:101FC00000040000000600000006000000030000FE
:101FD0000001000080000000002000000010000050
:101FE00000180000000C0000000C000000040000BD
:101FF00000060000000600000006000000060000C9
:10200000000600000006000000040000000C0000B4
:10201000000C00000018000000100000002000006C
:1020200000000000000C0000002D0000003F000038
:10203000001E00000033000000000000000000004F
:102040000000000000000000000000000000000090
:102050000000000000000000000000000000000080
:102060000000000000000000000000000000000070
:1020700000000000000C0000000C0000000C00003C
:10208000000C0000C0FF0000C0FF0000000C0000BA
:10209000000C0000000C0000000C0000000000001C
:1020A0000000000000000000000000000000000030
:1020B0000000000000000000000000000000000020
:1020C0000000000000000000000000000000000010
:1020D0000000000000000000000000000000000000
:1020E00000000000000C0000000C000000040000D4
:1020F00000040000000800000000000000000000D4
:1021000000000000000000000000000000000000CF
:10211000000000000000000000000000001E0000A1
:10212000001E000000000000000000000000000091
:10213000000000000000000000000000000000009F
:10214000000000000000000000000000000000008F
:10215000000000000000000000000000000000007F
:10216000000000000000000000000000000000006F
:1021700000000000000C0000000C00000000000047
:10218000000000000000000000000000000300004C
:10219000000300000003000000060000000600002D
:1021A0000006000000060000000C0000000C00000B
:1021B000000C0000000C00000018000000180000D7
:1021C00000180000000000000000000000000000F7
:1021D00000000000001E0000003F0000003300006F
:1021E000806100008061000080610000806D00005F
:1021F000806D00008061000080610000806100004F
:1022000000330000003F0000001E0000000000003E
:1022100000000000000000000000000000060000B8
:10222000000E0000001E0000003600000026000026
:102230000006000000060000000600000006000086
:102240000006000000060000000600000006000076
:102250000006000000000000000000000000000078
:1022600000000000001E0000003F0000807300001E
:102270008061000080610000800100000003000018
:1022800000060000000C00000018000000300000F4
:1022900000600000807F0000807F000000000000E0
:1022A000000000000000000000000000001C000012
:1022B000003E000000630000006300000003000017
:1022C000000E0000000E000000030000800100006E
:1022D000800100008061000080730000003F00006A
:1022E000001E0000000000000000000000000000D0
:1022F0000000000000060000000E0000000E0000BC
:10230000001E0000001E0000001600000036000045
:102310000036000000660000807F0000807F000023
:10232000000600000006000000060000000000009B
:10233000000000000000000000000000007F00001E
:10234000007F0000006000000060000000600000EE
:10235000006E0000007F000080630000800100002C
:10236000800100008061000080730000003F0000D9
:10237000001E00000000000000000000000000003F
:1023800000000000001E0000003F0000803300003D
:102390008061000000600000006E0000007F00000F
:1023A0008073000080610000806100008061000097
:1023B00080330000003F0000001E0000000000000D
:1023C000000000000000000000000000807F00000E
:1023D000807F000080010000000300000003000077
:1023E0000006000000060000000C0000000C0000C9
:1023F000000C000000080000001800000018000099
:1024000000180000000000000000000000000000B4
:1024100000000000001E0000003F0000806300007C
:10242000806100008061000000210000001E0000AB
:10243000003F0000806100008061000080610000BA
:1024400080610000003F0000001E0000000000004E
:10245000000000000000000000000000001E00005E
:10246000003F0000007300008061000080610000F8
:102470008061000080730000803F0000801D00002C
:10248000800100008061000000730000003F000038
:10249000001E00000000000000000000000000001E
:1024A000000000000000000000000000000000002C
:1024B00000000000000C0000000C00000000000004
:1024C000000000000000000000000000000000000C
:1024D00000000000000C0000000C000000000000E4
:1024E00000000000000000000000000000000000EC
:1024F00000000000000000000000000000000000DC
:10250000000C0000000C00000000000000000000B3
:10251000000000000000000000000000000C0000AF
:10252000000C00000004000000040000000800008F
:10253000000000000000000000000000000000009B
:102540008000000080030000000E00000038000042
:102550000060000000380000000E00008003000052
:1025600080000000000000000000000000000000EB
:10257000000000000000000000000000000000005B
:10258000000000000000000000000000807F00004C
:10259000807F00000000000000000000807F00003D
:1025A000807F00000000000000000000000000002C
:1025B000000000000000000000000000000000001B
:1025C000000000000000000000000000000000000B
:1025D0000040000000700000001C00000007000028
:1025E0008001000000070000001C000000700000D7
:1025F000004000000000000000000000000000009B
:10260000000000000000000000000000001F0000AB
:10261000803F0000C0710000C0600000C0000000EA
:10262000C00100008003000000070000000E000051
:10263000000C0000000C000000000000000C000076
:10264000000C00000000000000000000000000007E
:1026500000000000001E0000003F0000803100006C
:102660008071000080630000806F0000806D0000BA
:10267000806D0000806F0000806700000060000037
:1026800000320000003E0000001C000000000000BE
:10269000000000000000000000000000000E00002C
:1026A000000E0000001B0000001B0000001B0000CB
:1026B000001B00008031000080310000803F0000DE
:1026C000803F000080310000C0600000C06000005A
:1026D000C0600000000000000000000000000000DA
:1026E00000000000007C0000007E0000006300008D
:1026F000006300000063000000630000007E000033
:10270000007E000000630000806100008061000026
:1027100080630000007F0000007E000000000000D9
:10272000000000000000000000000000001E00008B
:10273000003F000080310000806100000060000068
:102740000060000000600000006000000060000009
:10275000006000008061000080310000003F000048
:10276000001E00000000000000000000000000004B
:1027700000000000007C0000007F000000630000FB
:1027800080630000806100008061000080610000C3
:102790008061000080610000806100000063000033
:1027A00000630000007E0000007C000000000000CC
:1027B000000000000000000000000000807F00001A
:1027C000807F0000006000000060000000600000EA
:1027D00000600000007F0000007F0000006000003B
:1027E000006000000060000000600000807F0000CA
:1027F000807F0000000000000000000000000000DA
:1028000000000000807F0000807F0000006000006A
:10281000006000000060000000600000007F000019
:10282000007F000000600000006000000060000009
:102830000060000000600000006000000000000078
:10284000000000000000000000000000001E00006A
:10285000003F000080310000806100000060000047
:1028600000600000006000008063000080630000E2
:10287000806100008061000080310000803F000026
:10288000001E00000000000000000000000000002A
:102890000000000080610000806100008061000095
:1028A000806100008061000080610000807F000086
:1028B000807F000080610000806100008061000076
:1028C0008061000080610000806100000000000065
:1028D000000000000000000000000000003F0000B9
:1028E000003F0000000C0000000C0000000C000085
:1028F000000C0000000C0000000C0000000C0000A8
:10290000000C0000000C0000000C0000003F000064
:10291000003F000000000000000000000000000078
:102920000000000080010000800100008001000024
:102930008001000080010000800100008001000093
:1029400080010000800100008061000080610000C3
:1029500080730000003F0000001E00000000000027
:10296000000000000000000000000000C060000047
:102970008061000000630000006600000066000047
:10298000006C000000780000007C00000066000081
:1029900000660000006300008061000080610000AC
:1029A000C060000000000000000000000000000007
:1029B00000000000006000000060000000600000F7
:1029C0000060000000600000006000000060000087
:1029D0000060000000600000006000000060000077
:1029E00000600000807F0000807F00000000000089
:1029F000000000000000000000000000C0710000A6
:102A0000C0710000C07B0000C07A0000C06A0000F6
:102A1000C06A0000C06E0000C0640000C06000001A
:102A2000C0600000C0600000C0600000C060000026
:102A3000C060000000000000000000000000000076
:102A400000000000807100008071000080790000AB
:102A50008079000080790000806D0000806D0000AA
:102A6000806D0000806500008067000080670000C6
:102A700080670000806300008063000000000000A9
:102A8000000000000000000000000000001E000028
:102A9000003F000000330000806100008061000002
:102AA00080610000806100008061000080610000A2
:102AB000806100008061000000330000003F0000E2
:102AC000001E0000000000000000000000000000E8
:102AD00000000000007E0000007F00008063000016
:102AE0008061000080610000806100008063000060
:102AF000007F0000007E0000006000000060000019
:102B000000600000006000000060000000000000A5
:102B1000000000000000000000000000001E000097
:102B2000003F000000330000806100008061000071
:102B30008061000080610000806100008061000011
:102B4000806500008067000000330000803F0000C7
:102B5000401E000000000000000000000000000017
:102B600000000000007E0000007F00008063000085
:102B7000806100008061000080630000007F000031
:102B8000007E00000066000000630000006300009B
:102B90008061000080610000C06000000000000053
:102BA000000000000000000000000000000E000017
:102BB000001F000080310000803100000030000064
:102BC00000380000001E0000000700008003000025
:102BD000806100008061000080310000003F000043
:102BE000001E0000000000000000000000000000C7
:102BF00000000000C0FF0000C0FF0000000C00004B
:102C0000000C0000000C0000000C0000000C000094
:102C1000000C0000000C0000000C0000000C000084
:102C2000000C0000000C0000000C00000000000080
:102C300000000000000000000000000080610000B3
:102C40008061000080610000806100008061000000
:102C500080610000806100008061000080610000F0
:102C6000806100008061000080730000003F000070
:102C7000001E000000000000000000000000000036
:102C800000000000C0600000C0600000C0600000E4
:102C9000803100008031000080310000001B000006
:102CA000001B0000001B0000001B0000000E0000C5
:102CB000000E0000000E00000004000000000000F4
:102CC000000000000000000000000000C0C0000084
:102CD000C0C00000C0C00000C0C00000C0C00000F4
:102CE000C0CC0000804C0000804C0000805E0000E2
:102CF000805200008052000080730000806100005C
:102D000080610000000000000000000000000000E2
:102D100000000000C0C00000806000008061000072
:102D200000330000003B0000001E0000000C00000B
:102D3000000C0000001E0000001F0000003B00000F
:102D40008071000080610000C0C000000000000031
:102D5000000000000000000000000000C0C00000F3
:102D6000806100008061000000330000003300003B
:102D7000001E0000001E0000000C0000000C0000FF
:102D8000000C0000000C0000000C0000000C000013
:102D9000000C000000000000000000000000000027
:102DA00000000000803F0000803F00008001000024
:102DB000000300000003000000060000000C0000FB
:102DC000000C000000180000001800000030000097
:102DD00000600000807F0000807F00000000000095
:102DE0000000000000000000000F0000000F0000C5
:102DF000000C0000000C0000000C0000000C0000A3
:102E0000000C0000000C0000000C0000000C000092
:102E1000000C0000000C0000000C0000000C000082
:102E2000000C0000000C0000000F0000000F00006C
:102E3000000000000018000000180000001800004A
:102E4000000C0000000C0000000C0000000C000052
:102E5000000600000006000000060000000600005A
:102E60000003000000030000000300000000000059
:102E70000000000000000000001E0000001E000016
:102E8000000600000006000000060000000600002A
:102E9000000600000006000000060000000600001A
:102EA000000600000006000000060000000600000A
:102EB0000006000000060000001E0000001E0000CA
:102EC00000000000000C0000000C0000001E0000CC
:102ED0000012000000330000003300008061000099
:102EE0008061000000000000000000000000000001
:102EF00000000000000000000000000000000000D2
:102F000000000000000000000000000000000000C1
:102F100000000000000000000000000000000000B1
:102F200000000000000000000000000000000000A1
:102F30000000000000000000000000000000000091
:102F40000000000000000000E0FF000000000000A2
:102F5000000000000038000000180000000C000015
:102F60000000000000000000000000000000000061
:102F70000000000000000000000000000000000051
:102F80000000000000000000000000000000000041
:102F90000000000000000000000000000000000031
:102FA000000000000000000000000000001F000002
:102FB000803F00008061000080010000801F000051
:102FC000803F00008061000080630000807F00007F
:102FD000C0380000000000000000000000000000F9
:102FE00000000000006000000060000000600000C1
:102FF00000600000006E0000007F00008073000091
:10300000806100008061000080610000806100003C
:1030100080730000007F0000006E000000000000D0
:1030200000000000000000000000000000000000A0
:10303000000000000000000000000000001E000072
:10304000003F00008073000080610000006000000D
:10305000006000008061000080730000003F0000FD
:10306000001E000000000000000000000000000042
:1030700000000000800100008001000080010000CD
:1030800080010000801D0000803F00008073000070
:1030900080610000806100008061000080610000AC
:1030A00080730000803F0000801D000000000000D1
:1030B0000000000000000000000000000000000010
:1030C000000000000000000000000000001E0000E2
:1030D000003F00000073000080610000807F00005E
:1030E000807F00000060000080710000003F000051
:1030F000001E0000000000000000000000000000B2
:1031000000000000C0070000C00F0000000C00001D
:10311000000C0000807F0000807F0000000C000099
:10312000000C0000000C0000000C0000000C00006F
:10313000000C0000000C0000000C0000000000006B
:10314000000000000000000000000000000000007F
:103150000000000000000000801D0000803F000013
:1031600080730000806100008061000080610000C9
:103170008061000080730000803F0000801D00001F
:103180008001000080630000007F0000003E00001E
:10319000000000000060000000600000006000000F
:1031A00000600000006F0000807F00008071000060
:1031B000806100008061000080610000806100008B
:1031C000806100008061000080610000000000005C
:1031D00000000000000000000000000000060000E9
:1031E000000600000000000000000000003E00009B
:1031F000003E00000006000000060000000600007F
:1032000000060000000600000006000000060000A6
:1032100000060000000000000000000000000000A8
:103220000006000000060000000000000000000092
:10323000003E0000003E0000000600000006000006
:103240000006000000060000000600000006000066
:103250000006000000060000000600000046000016
:10326000007E0000003C0000000000000060000044
:10327000006000000060000000600000806100004D
:103280000063000000660000006C0000007C00008D
:103290000076000000630000006300008061000011
:1032A000C0600000000000000000000000000000FE
:1032B00000000000003E0000003E0000000600008C
:1032C00000060000000600000006000000060000E6
:1032D00000060000000600000006000000060000D6
:1032E00000060000000600000006000000000000CC
:1032F00000000000000000000000000000000000CE
:1033000000000000000000000000000080DD000060
:10331000C0FF0000C0CE0000C0CC0000C0CC000048
:10332000C0CC0000C0CC0000C0CC0000C0CC00006D
:10333000C0CC000000000000000000000000000001
:10334000000000000000000000000000000000007D
:1033500000000000006F0000807F0000807100000E
:1033600080610000806100008061000080610000D9
:1033700080610000806100008061000000000000AA
:10338000000000000000000000000000000000003D
:10339000000000000000000000000000001E00000F
:1033A000003F000080730000806100008061000029
:1033B000806100008061000080730000003F000019
:1033C000001E0000000000000000000000000000DF
:1033D00000000000000000000000000000000000ED
:1033E000006E0000007F000080730000806100001C
:1033F0008061000080610000806100008073000037
:10340000007F0000006E000000600000006000000F
:1034100000600000006000000000000000000000EC
:103420000000000000000000801D0000803F000040
:1034300080730000806100008061000080610000F6
:103440008061000080730000803F0000801D00004C
:103450008001000080010000800100008001000068
:10346000000000000000000000000000000000005C
:103470000000000000670000803F000000390000ED
:10348000003000000030000000300000003000007C
:10349000003000000030000000300000000000009C
:1034A000000000000000000000000000000000001C
:1034B000000000000000000000000000001E0000EE
:1034C000803F00008061000000600000007F00007D
:1034D000803F00008001000080610000007F00004C
:1034E000001E0000000000000000000000000000BE
:1034F00000000000000000000008000000180000AC
:1035000000180000007F0000007F0000001800008D
:10351000001800000018000000180000001800004B
:1035200000180000801F0000800F00000000000055
:10353000000000000000000000000000000000008B
:10354000000000000000000000000000806100009A
:1035500080610000806100008061000080610000E7
:10356000806100008061000080630000807F0000B7
:10357000803D00000000000000000000000000008E
:10358000000000000000000000000000000000003B
:1035900000000000C06000008031000080310000A9
:1035A00080310000001B0000001B0000001B000019
:1035B000000E0000000E00000006000000000000E9
:1035C00000000000000000000000000000000000FB
:1035D00000000000000000000000000080DD00008E
:1035E00080DD000080DD0000005500000055000077
:1035F0000055000000770000007700000022000066
:103600000022000000000000000000000000000098
:1036100000000000000000000000000000000000AA
:103620000000000080610000003300000033000053
:10363000001E0000000C0000000C0000001E000036
:103640000033000000330000806100000000000033
:10365000000000000000000000000000000000006A
:103660000000000000000000806100008061000098
:10367000803100000033000000330000001B000018
:10368000001B0000001B0000000E0000000E0000E8
:10369000000E0000001C0000007C00000070000014
:1036A000000000000000000000000000000000001A
:1036B00000000000C07F0000C07F0000800100000B
:1036C0000003000000060000000C000000180000CD
:1036D00000300000C07F0000C07F0000000000003C
:1036E00000000000000000008003000080070000D0
:1036F00000060000000600000006000000060000B2
:1037000000060000000E0000001C0000001C00006D
:10371000000E000000060000000600000006000089
:103720000006000000060000800700008003000083
:103730000006000000060000000600000006000071
:103740000006000000060000000600000006000061
:103750000006000000060000000600000006000051
:103760000006000000060000000600000006000041
:10377000000600000006000000380000003C0000C9
:10378000000C0000000C0000000C0000000C000009
:10379000000C0000000E0000000700000007000001
:1037A000000E0000000C0000000C0000000C0000E7
:1037B000000C0000000C0000003C0000003800007D
:1037C00000000000000000000000000000000000F9
:1037D0000000000000000000000000008038000031
:1037E000807F000000470000000000000000000093
:1037F00000000000000000000000000000000000C9
:103800000000000000000000000000000B1200009B
:10381000501D0008000000000838000800000000EB
:10382000000000000102030406070809433A2F556F
:10383000736572732F736D6974682F53544D3332EF
:10384000437562652F5265706F7369746F72792F5B
:1038500053544D3332437562655F46575F46345F5C
:1038600056312E32382E302F447269766572732F9E
:1038700053544D3332463478785F48414C5F44723C
:10388000697665722F5372632F73746D33326634A9
:1038900078785F68616C5F7370692E630000000068
:1038A000433A2F55736572732F736D6974682F5384
:1038B000544D3332437562652F5265706F7369746E
:1038C0006F72792F53544D3332437562655F46579B
:1038D0005F46345F56312E32382E302F447269766F
:1038E0006572732F53544D3332463478785F4841B4
:1038F0004C5F4472697665722F5372632F73746DD7
:103900003332663478785F68616C5F7263632E630C
:1039100000000000433A2F55736572732F736D6971
:1039200074682F53544D3332437562652F5265705E
:103930006F7369746F72792F53544D3332437562CC
:10394000655F46575F46345F56312E32382E302F32
:10395000447269766572732F53544D33324634780E
:10396000785F48414C5F4472697665722F53726389
:103970002F73746D3332663478785F68616C5F677B
:1039800070696F2E63000000433A2F5573657273A0
:103990002F736D6974682F53544D333243756265CC
:1039A0002F5265706F7369746F72792F53544D3352
:1039B00032437562655F46575F46345F56312E323B
:1039C000382E302F447269766572732F53544D33FD
:1039D00032463478785F48414C5F4472697665724C
:1039E0002F5372632F73746D3332663478785F6847
:1039F000616C5F636F727465782E63001C3A000817
:103A00000000002010000000C40100082C3A00084B
:103A100010000020F8070000E0010008010000008D
:0C3A200010000000000000000024F40072
:040000050800018965
:00000001FF
