:020000040800F2
:10000000B80B002029020008131E0008051B000879
:10001000111E00081F0400089922000800000000BB
:10002000000000000000000000000000171E000893
:100030002104000800000000151E0008191E000819
:10004000430200084302000843020008430200087C
:10005000430200084302000843020008430200086C
:10006000430200084302000843020008430200085C
:10007000430200084302000843020008430200084C
:10008000430200084302000843020008430200083C
:10009000430200084302000843020008430200082C
:1000A000430200084302000843020008430200081C
:1000B000430200084302000843020008430200080C
:1000C00043020008430200084302000843020008FC
:1000D00043020008430200084302000843020008EC
:1000E00043020008430200084302000843020008DC
:1000F00043020008430200084302000843020008CC
:1001000043020008430200084302000843020008BB
:1001100043020008430200084302000843020008AB
:10012000430200084302000843020008430200089B
:10013000430200084302000843020008430200088B
:10014000430200084302000843020008430200087B
:10015000430200084302000843020008430200086B
:10016000430200084302000843020008430200085B
:100170004302000843020008430200080000000098
:10018000430200084302000800F002F800F03CF8C7
:100190000AA090E8000C82448344AAF10107DA45E2
:1001A00001D100F031F8AFF2090EBAE80F0013F0F8
:1001B000010F18BFFB1A43F0010318471025000078
:1001C00030250000103A24BF78C878C1FAD8520709
:1001D00024BF30C830C144BF04680C6070470000C1
:1001E0000023002400250026103A28BF78C1FBD840
:1001F000520728BF30C148BF0B6070471FB502F0DF
:1002000083F81FBD10B510BD00F0CFF81146FFF701
:10021000F5FF02F053F800F0EDF803B4FFF7F2FF3A
:1002200003BC00F0F5F80000094880470948004782
:10023000FEE7FEE7FEE7FEE7FEE7FEE7FEE7FEE796
:10024000FEE7FEE704480549054A064B70470000F3
:10025000B51E000889010008B8050020B80B002071
:10026000B8070020B807002053EA020C00F06980AC
:100270002DE9F04B4FF00006002B1FBFB3FA83F5BA
:1002800003FA05F424FA05F65E4012BF1643B2FAEB
:1002900082F502FA05F4C5F120051EBF22FA05FC1D
:1002A00044EA0C04203556EA044C4FEA144418BFC3
:1002B000641C4FF000084FF00009904271EB030CF2
:1002C00039D3002919BFB1FA81F701FA07F6B0FA5C
:1002D00080F700FA07F6C7F120071EBF20FA07FCD7
:1002E00046EA0C062037B6FBF4FCA7EB0507103FE7
:1002F00007F01F0BCBF120060CFA0BFB2CFA06F6CD
:1003000044BFB3460026202FA4BF5E464FF0000B2B
:100310005BEA060C08BF4FF0010B19EB0B09ABFBB6
:10032000027C48EB0608C01B06FB02CC0BFB03CC8F
:1003300071EB0C01C1E70B46024641464846BDE859
:10034000F08B13B54FF000004FF00001AFF30080C9
:10035000BDE81C4070474FF0000200B513469446BC
:100360009646203922BFA0E80C50A0E80C50B1F10D
:100370002001BFF4F7AF090728BFA0E80C5048BF21
:100380000CC05DF804EB890028BF40F8042B08BFBF
:10039000704748BF20F8022B11F0804F18BF00F8BB
:1003A000012B7047704770477047754600F02CF876
:1003B000AE4605006946534620F00700854618B052
:1003C00020B5FFF73FFFBDE820404FF000064FF09B
:1003D00000074FF000084FF0000B21F00701AC467A
:1003E000ACE8C009ACE8C009ACE8C009ACE8C00999
:1003F0008D46704710B50446AFF300802046BDE837
:100400001040FFF70ABF0000004870475405002065
:1004100001491820ABBEFEE7260002007047FEE748
:10042000704772B6FEE7000070B504007ED0A449A4
:100430002068884207D0A349884204D04FF48F71C6
:10044000A14801F03AFF207E30B1012804D040F2EB
:100450001F119D4801F031FF607E30B1012804D0AA
:100460004FF49071984801F028FFA07E30B1012828
:1004700004D040F22111944801F01FFFE07E30B11A
:10048000012804D04FF491718F4801F016FF207FAE
:1004900030B1012804D040F223118B4801F00DFF48
:1004A000607F30B1012804D04FF49271864801F08A
:1004B00004FFA06868B1B0F1804F0AD0B0F1004FDE
:1004C00007D0B0F1404F04D040F225117E4801F032
:1004D000F4FEE06868B1B0F1807F0AD0B0F1007F2F
:1004E00007D0B0F1407F04D04FF49371764801F00B
:1004F000E4FE206998B3B0F5803F30D0B0F5003FFE
:100500002DD0B0F5403F2AD0B0F5802F27D0B0F5E0
:10051000A02F24D0B0F5C02F21D0B0F5E02F1ED0F1
:10052000B0F5002F1BD0B0F5102F00E041E016D041
:10053000B0F5202F13D0B0F5302F10D0B0F5402FEC
:100540000DD0B0F5502F0AD0B0F5602F07D0B0F520
:10055000702F04D040F227115B4801F0AEFE6069B5
:10056000C8B1B0F5801F16D0B0F5001F13D0B0F59C
:10057000401F10D0B0F5800F0DD0B0F5A00F0AD0FD
:10058000B0F5C00F07D0B0F5E00F04D04FF4947170
:100590004D4801F092FE6068401EB0F5806F04D3B4
:1005A00040F22911484801F088FE94F8200010B16B
:1005B00004E0012070BD204600F088F82068016842
:1005C00041F00101016000F043FA0546052604E010
:1005D00000F03EFA401B0A2811D820684068C00786
:1005E000F6D02068016821F00201016000F030FAC5
:1005F00005460BE000F02CFA401B0A2806D9606A79
:1006000040F40030606284F82060D2E720684068DF
:100610008007EFD4207E0128206801683DD021F0BA
:1006200080010160607E01282068016838D021F0D7
:1006300040010160A07E01282068016833D021F0CC
:1006400020010160E07E0128206801682ED041F081
:1006500010010160207F01282068016829D021F065
:1006600008010160607F01282068016824D021F022
:1006700004010160D4E902010843D4E904121143E2
:1006800008436168491E08432168C8610020606210
:10069000012084F82000002070BD41F08001C0E7F7
:1006A00041F04001C5E741F02001CAE721F0100107
:1006B000CFE741F00801D4E741F00401D9E7000099
:1006C00000640040006800402C23000810B586B08C
:1006D000044614216846FFF73EFE1349206888420D
:1006E0001FD112480021026842F0007202600068C7
:1006F00000F0007005900D481038026842F00802C2
:1007000002600068022200F0080005900320CDE995
:100710000210CDE90002092004906946044800F067
:100720001BF806B010BD00000064004040380240D5
:10073000000C024070B5044600F08AF90546601CC2
:1007400002D004480078044400F082F9401BA04223
:10075000FAD370BD000000202DE9F84FDFF888B211
:100760000D46044658451BD0A048844218D0A048E6
:10077000844215D09F48844212D09F4884420FD0B3
:100780009E4884420CD09E48844209D09D488442B1
:1007900006D09D48844203D0AC219C4801F08DFDD9
:1007A00028680104090C01D0000C03D0AD21974842
:1007B00001F083FD6868F8B101281DD011281BD015
:1007C000022819D0122817D0B0F5881F14D0B0F520
:1007D000041F11D0B0F5441F0ED0B0F5901F0BD000
:1007E000B0F5081F08D0B0F5481F05D0032803D086
:1007F000AE21864801F061FD00264FF0010A4FF05E
:10080000030900BF0AFA06F02F68804607404745F3
:100810007ED1287900F00300012801D002281DD1E3
:10082000E86848B1012807D0022805D0032803D082
:10083000C021764801F041FDA168720009FA02F07A
:100840008143E86890400843A0606068297920EA05
:100850000800C1F30011B140014361602879C04331
:10086000800712D0A86838B1012805D0022803D02B
:10087000D121664801F021FDE168720009FA02F019
:100880008143A86890400843E060287900F00300A5
:1008900002282ED12869F8B109281DD001281BD0C3
:1008A000022819D0032817D0042815D0052813D002
:1008B000062811D007280FD008280DD00A280BD001
:1008C0000B2809D00C2807D00D2805D00F2803D0FD
:1008D000DE214E4801F0F1FCF00804EB8002106AC2
:1008E0007107CB0E0F219940884329699940014334
:1008F00011622068720009FA02F18843297901F037
:100900000301914001432160686810F4403F00E01A
:1009100063E062D03E48016841F4804101600068B4
:1009200026F0030100F4804000903A480A18D2F8FB
:100930000808B1070B0F0F21994088435C4501D18E
:10094000002123E029498C4201D101211EE02849E0
:100950008C4201D1022119E026498C4201D10321A8
:1009600014E025498C4201D104210FE023498C4237
:1009700001D105210AE022498C4201D1062105E07E
:1009800020498C4201D1072100E008219940014310
:10099000C2F80818204908686A68B843D20200D52E
:1009A000384308601C49091D08686A68B843920208
:1009B00000D5384308601849091F08686A68B843B9
:1009C000920300D5384308601349083908686A68FB
:1009D000B843D20300D538430860761C102EFFF4CC
:1009E00011AFBDE8F88F0000000002400004024093
:1009F00000080240000C02400010024000140240B7
:100A000000180240001C024000200240142400088C
:100A10004438024000300140083C014070B51546A2
:100A20000C00064604D140F29D11084801F045FC37
:100A300045B1012D04D04FF4CF71044801F03DFCC5
:100A4000B46170BD2004B06170BD000014240008C2
:100A5000014880687047000000000020F8B50400DD
:100A600011D020684FF0A047B84206D01D498842F7
:100A700003D07B211C4801F020FC94F8D5032568A5
:100A8000002610B106E00120F8BD84F8D4632046AA
:100A900000F02CF8032084F8D503BD4200D1A671E4
:100AA000206801F023FB207C8DF8000094E80F0003
:100AB00001F0BCFA022560B90121206801F0BEFBFB
:100AC00038B9207C8DF8000094E80F0001F04EFB4F
:100AD00010B184F8D553D6E7012084F8D50300205F
:100AE000F8BD0000000004405826000810B586B08C
:100AF000044614216846FFF72EFC2068B0F1A04F91
:100B000027D115480021026842F001020260006806
:100B100000F0010005904FF4C05000900220CDE994
:100B20000101032003900A20049069460B48FFF757
:100B300013FE0948001D016841F08001016006486C
:100B40001430016841F480410160006800F4804085
:100B5000059006B010BD0000303802400000024091
:100B600070B504007DD08A49206888420AD089493E
:100B7000884207D08849884204D040F2C91187488A
:100B800001F09BFB60688649401E884204D94FF4FF
:100B9000E571824801F091FBA0684FF4804530B1C7
:100BA000A84204D040F2CB117C4801F086FBE068FB
:100BB000800A04D04FF4E671784801F07EFB20698A
:100BC000A84207D0B0F5404F04D040F2CD11734891
:100BD00001F073FB606930B1012804D04FF4E77174
:100BE0006E4801F06AFBA06930F0FE0004D040F2CC
:100BF000CF116A4801F061FBE06930B1402804D0B0
:100C00004FF4E871654801F058FB206A30B1802844
:100C100004D040F2D111614801F04FFB94F83D003F
:100C2000002520B984F83C50204600F0C3F8242069
:100C300084F83D002068016821F00101016020680E
:100C4000016841F4004101602068016821F400411D
:100C5000016000F0A1FA534A6168914202D85249FA
:100C600001E002E05149884201D2012070BD5049A3
:100C70002368B0FBF1F15E6826F03F060E435E602C
:100C80006368934206D94FF4967359434FF47A73CD
:100C9000B1FBF3F12368491C1E6A26F03F0631437D
:100CA00019626168914210D84900401EB0FBF1F210
:100CB000521CC2F30B02042A01D2042022E0B0FB32
:100CC000F1F0401CC0F30B001CE0A368F3B301EB90
:100CD000C10202EB0116421EB2FBF6F2521C42F4B4
:100CE0008042120549D093B301EBC10202EB01111E
:100CF000401EB0FBF1F0401CC0F30B0040F48040FC
:100D000040F400402168CA694CF6FF739A431043CF
:100D1000C861D4E9071001432068026822F0C002CC
:100D200011430160D4E9030101432068826848F25D
:100D3000FF339A4311438160D4E9050108432168D8
:100D4000CA6822F0FF021043C86001E00EE016E01E
:100D50002068016841F0010101602564202084F8C9
:100D60003D00256384F83E50002070BD01EB410634
:100D7000421EB2FBF6F2521CB3E70120C2E701EBC0
:100D80004101401EB0FBF1F0401CC0F30B00B7E77F
:100D90000054004000580040005C0040FC24000863
:100DA0007F1A0600A086010080841E0000093D0015
:100DB00040420F0010B586B0044614216846FFF784
:100DC000CAFA13492068884220D1124800210268DB
:100DD00042F002020260006800F002000590C020AC
:100DE00000901220CDE9010103200390042004901B
:100DF00069460948FFF7B0FC06481030016841F425
:100E000000110160006800F40010059006B010BDEC
:100E1000005400403038024000040240024881681B
:100E20000278114481607047000000200B4810B523
:100E3000016841F400710160016841F48061016062
:100E4000016841F480710160032000F075F80F2003
:100E500000F006F800F024F8002010BD003C02402D
:100E600070B50D4D04464FF47A712878B1FBF0F05F
:100E70000A490968B1FBF0F000F058FD48B9102CA0
:100E800007D200222146501E00F022F800206C609C
:100E900070BD012070BD0000000000200C0000208B
:100EA0000A4808B5016841F480410160006800F417
:100EB000804000900548001F016841F080510160AA
:100EC000006800F08050009008BD000044380240E7
:100ED00070B515460C460646102A03D3A8211448BF
:100EE00001F0EBF9102C03D3A921114801F0E5F929
:100EF00010480068C0F30223C3F107022046042A09
:100F000000D90422191D072901D2002300E0DB1EAD
:100F1000012404FA02F1491E014099409C40641EDC
:100F20002C4021433046BDE8704001F0B6B90000C6
:100F3000882400080CED00E010B5044607280BD00B
:100F4000062C09D0052C07D0042C05D0032C03D087
:100F50009021084801F0B1F9074904F00702086838
:100F60004FF6FF03184040EA0220044A104308608D
:100F700010BD0000882400080CED00E00000FA0518
:100F80002DE9F0470E4604007DD02068401E0E2853
:100F900004D940F25A217A4801F08FF996B1012E16
:100FA00010D0022E0ED0032E0CD0042E0AD0052E07
:100FB00008D0062E06D0072E04D040F25B217048E0
:100FC00001F07BF9DFF8BC81D8F80000F7B200F03F
:100FD0000700B04207D288F80070D8F8000000F08F
:100FE0000700B0424FD12068674D810729D54007DF
:100FF00003D5286840F4E05028602078000703D526
:10100000286840F460402860A068A0B1802812D011
:10101000902810D0A0280ED0B0280CD0C0280AD01C
:10102000D02808D0E02806D0F02804D040F27E2155
:10103000534801F042F92868A16820F0F000084305
:1010400028602078C00743D0DFF83C916068A9F1A0
:10105000080988B1012822D0022824D0032822D0F0
:1010600040F28521464801F028F96068012816D031
:10107000022818D0032816D0D9F8000080070028CD
:1010800033DA286800E030E0616820F003000843AC
:101090002860FFF7DDFC814641F2883A11E0D9F87B
:1010A00000008003EBE7D9F800008001E7E700BF0C
:1010B000FFF7CEFCA0EB0901514502D90320BDE8A2
:1010C000F0872868616800F00C00B0EB810FEFD169
:1010D000D8F80010404601F00701B14207D9077067
:1010E000006800F00700B04201D00120E7E7207857
:1010F0004FF4805640074FF4A0574FF4C0584FF4B8
:10110000E05914D5E06860B1B0420AD0B84208D0C6
:10111000404506D0484504D040F2C321184801F0AC
:10112000CCF82868E16820F4E05008432860207873
:10113000000715D5206960B1B0420AD0B84208D086
:10114000404506D0484504D040F2CA210C4801F081
:10115000B4F82868216920F4604040EAC1002860A2
:1011600000F03AF82968094AC1F30311515CC840FC
:101170000749086007480068FFF772FE00209EE7F5
:10118000A0230008003C0240083802401223000857
:101190000C0000200400002004480549006809688C
:1011A000044AC1F38221515CC84070470C00002002
:1011B00008380240222300080448054900680968ED
:1011C000044AC1F34231515CC84070470C00002012
:1011D0000838024022230008154810B5006810F0B6
:1011E0000C02144813D04110042A0FD0082A0ED143
:1011F0000F4C241F2268236802F03F025B0207D5D0
:101200002068C0F38810A0FB010106E0084610BD6D
:101210002168C1F38811A1FB00010023FFF724F826
:101220002168C1F30141491C4900B0FBF1F010BD38
:10123000083802400024F4002DE9F84F04007DD066
:1012400020680F2803D9E621F74801F036F8207806
:10125000DFF8D893C007A9F1040555D060684FF4B2
:1012600080364FF4A02738B1B04205D0B84203D041
:10127000EB21ED4801F021F8EC48001D0168C1F3B5
:101280008101012908D00068C0F3810002280AD139
:10129000D9F80000400206D52868800334D560687C
:1012A0000028CCD030E06068B04203D1286840F418
:1012B00080300CE0B842286803D140F480202860D8
:1012C000F4E720F480302860286820F4802028602B
:1012D000606860B1FFF7BCFB064604E0FFF7B8FBAF
:1012E000801B64287ED828688003F7D50CE0FFF7C0
:1012F000AFFB064605E000BFFFF7AAFB801B642892
:10130000F0D828688003F7D42078DFF8248380079A
:101310004FF0000A56D5E06830B1012804D040F201
:101320001D11C14800F0C9FF20691F2804D94FF4DE
:101330008F71BD4800F0C1FFBC4800E092E0001D85
:10134000016811F00C0F08D00068C0F3810002287A
:1013500010D1D9F8000040020CD42868800702D5CB
:10136000E06801287ED12868216920F0F80040EA71
:10137000C10017E0E068B8B10120C8F80000FFF72D
:1013800067FB064605E000BFFFF762FB801B0228F3
:10139000A8D828688007F7D5286820F0F8012069C8
:1013A00041EAC00028600DE0C8F800A0FFF750FB3C
:1013B000064604E0FFF74CFB801B022892D8286801
:1013C0008007F7D4207800072ED5984E994F606992
:1013D0007036D0B1012808D04FF4AF71924800F0B8
:1013E0006CFF00E0D6E0606978B101203860FFF75B
:1013F0002FFB074605E000BFFFF72AFBC01B0228B2
:10140000C6D830688007F7D50EE0C7F800A0FFF710
:101410001FFB074605E000BFFFF71AFBC01B0228B1
:10142000B6D830688007F7D42078400776D5A06812
:10143000002740B1012806D0052804D04FF4C5711B
:10144000794800F03AFFDFF8E4B10BF13C0BDBF830
:101450000000C0000DD4DBF8001041F08051CBF843
:10146000001000E01EE1DBF80000012700F08050D2
:101470000090714E3068C00511D4306840F480701F
:101480003060FFF7E5FA009006E000BFFFF7E0FAF2
:101490000099401A02287DD83068C005F6D5634E01
:1014A000A0686C3601280FD00528306810D020F0D5
:1014B00001003060306820F004003060A068B8B1EE
:1014C000FFF7C6FA00900FE0306840F00100F4E743
:1014D00040F004003060F7E7FFF7BAFA0099411ACC
:1014E00041F28830814255D830688007F4D50EE04B
:1014F000FFF7AEFA009007E0FFF7AAFA0099411A49
:1015000041F28830814245D830688007F4D42FB149
:10151000DBF8001021F08051CBF80010A069D0B3A7
:10152000012808D0022806D040F2CD113E4800F034
:10153000C4FEA06978B33D48001D0068C0F3810077
:101540000228A0696FD0022805D0C8F860A0FFF774
:101550007FFA04467CE0E06938B1B0F5800F04D032
:101560004FF4EB71304800F0A8FE206A801E3D2841
:1015700004D940F2D7112C4800F09FFE606A32383F
:10158000B0F5BF7F04D94FF4EC71274800F095FE09
:10159000A06A01E059E087E002280AD0042808D0B8
:1015A000062806D0082804D040F2D9111E4800F0C1
:1015B00084FEE06A801E0D2804D94FF4ED711A48AC
:1015C00000F07BFE4746C8F860A0FFF741FA0646E8
:1015D00005E000BFFFF73CFA801B022835D82868D9
:1015E0008001F7D4D4E907010843A16A134A4908E6
:1015F00002EB0141626A41EA8211084394F82C101F
:1016000040EA0161C9F8001001203866FFF720FAAE
:10161000044604E0FFF71CFA001B022815D82868CE
:101620008001F7D540E017E0A0230008043802400D
:1016300000004742800E4742007000400000FFFF5C
:10164000FFF706FA001B022802D90320BDE8F88F35
:1016500028688001F4D427E00128F7D0D9F80000E9
:10166000E26900F4800191421CD1226A00F03F013E
:10167000914217D147F6C071626A0140B1EB821FF7
:1016800010D1A26A4FF0FF3300F4403103EB520255
:10169000B1EB024F06D194F82C1000F07060B0EB63
:1016A000016F01D00120D1E70020CFE770B5040021
:1016B0007ED08049206888420AD07F49884207D07E
:1016C0007E49884204D04FF4A0717D4800F0F5FDBA
:1016D00060684FF4827630B1B04204D040F24111DC
:1016E000774800F0EAFDA06850B1B0F5806F07D0F0
:1016F000B0F5004F04D04FF4A171714800F0DDFD4A
:10170000E068B0F5006F05D020B140F243116C489D
:1017100000F0D3FDA069B0F5007F08D038B1B0F576
:10172000802F04D04FF4A271654800F0C6FDE06937
:1017300090B1082810D010280ED018280CD02028DE
:101740000AD0282808D0302806D0382804D040F203
:1017500045115B4800F0B1FD206A30B1802804D00B
:101760004FF4A371564800F0A8FD606A002540B30D
:10177000102806D040F24711514800F09EFD606AE3
:10178000F8B1E06990B1082810D010280ED01828C0
:101790000CD020280AD0282808D0302806D0382895
:1017A00004D040F25911464800F087FD256100E061
:1017B00005E06561A56294F8510070B335E0012041
:1017C00070BD206930B1022804D04FF4A5713C48A7
:1017D00000F073FD606930B1012804D040F24B1174
:1017E000374800F06AFD6068B04217D1E069002810
:1017F000E0D00828DED01028DCD01828DAD0202845
:10180000D8D02828D6D03028D4D03828D2D040F20A
:101810004F112B4800F051FDCCE701E0E561C9E72D
:1018200084F85050204600F04DF8022084F8510012
:101830002068016821F040010160A088218900F43E
:10184000827001F404410843A18901F40061084356
:10185000217C01F002010843217D01F001010843D0
:10186000218B01F400710843217F01F03801084306
:1018700094F8201001F080010843218D01F40051FB
:10188000084321680860A069042101EA104094F827
:10189000241001F010010843216848602068C169E4
:1018A00021F40061C1616565012084F851000020C8
:1018B00070BD00000030014000380040003C004096
:1018C0007025000810B586B0044614216846FEF75E
:1018D00042FD13492068884220D112480021026845
:1018E00042F480520260006800F4805005900D4878
:1018F0001438026842F001020260006800F0010042
:101900000590A02000900220CDE901010320039062
:101910000520049069460448FEF71EFF06B010BD7E
:1019200000300140443802400000024010B5401E23
:10193000B0F1807F01D3012010BD4FF0E024606141
:101940000F21601700F0A9FC0020A0610720206192
:10195000002010BD70B5040023D0A0693B490028C9
:101960003B4A3C4B3C4D20681DD088420CD09042F5
:101970000AD0984208D0A84206D040F273113748E6
:1019800000F09BFCA06908B3A069B0F5807F1DD072
:10199000B0F5007F1AD0B0F5407F17D04FF4BA7180
:1019A00011E0012070BD884210D090420ED09842C4
:1019B0000CD02B49884209D02A49884206D0A84237
:1019C00004D04FF4BC71254800F077FCA06838B112
:1019D000B0F5805F04D04FF4BD71204800F06DFC7D
:1019E000E06938B1B0F5004F04D040F27B111B48DC
:1019F00000F063FC94F84100002520B984F84050C1
:101A0000204600F031F8242084F841002068C168A5
:101A100021F40051C160204600F054FA20680169A9
:101A200021F4904101612068416921F02A0141615E
:101A30002068C16841F40051C1606564202084F8C9
:101A4000410084F842006563002070BD0010014031
:101A5000004400400048004000140140E425000814
:101A6000004C004000500040F0B587B004461421FF
:101A70006846FEF770FC1F4F236800221E490224AF
:101A8000032507261D48BB4213D11B4B14331F6887
:101A900047F010071F601B6803F0100305930B68E5
:101AA00043F001030B60096801F00101059169022F
:101AB00015E0134FBB421AD10F4B10331F6847F488
:101AC00000371F601B6803F4003305930B6843F075
:101AD00001030B60096801F0010105910C21CDE9BA
:101AE000001402AB694683E86400FEF735FE07B0D8
:101AF000F0BD0000001001403038024000000240FC
:101B000000440040FEE700000D4810B50B4901609D
:101B10001021416000218160C16001614161017655
:101B200041768176C17601774177FEF77DFC00280A
:101B300003D0BDE81040FEF774BC10BD0064004047
:101B4000100000202DE9F04F87B014216846FEF701
:101B500002FC5F480024016841F010010160016847
:101B600001F010010591016841F004010160016874
:101B700001F004010591016841F0800101600168F4
:101B800001F080010591016841F0010101600168E7
:101B900001F001010591016841F002010160016855
:101BA00001F002010591016841F00801016000683F
:101BB000484F00F008000590002213213846FEF738
:101BC0002DFFDFF814A1002202215046FEF726FF68
:101BD000DFF808B1002204215846FEF71FFF4FF43A
:101BE0002858002241463E48FEF718FF4FF480690E
:101BF000002249463B48FEF711FF4DF2FF500325F6
:101C0000CDE90005694602943548FEF7A5FD4FF67B
:101C1000EC70CDE90005694602943846FEF79CFD5C
:101C2000132000900126CDE90164694638460394EB
:101C3000FEF792FD48F25110CDE900056946029485
:101C40005046FEF789FD02270097CDE901646946F9
:101C500050460394FEF780FD4FF63B70CDE900053A
:101C6000694602945846FEF777FD04200090CDE9BE
:101C70000164694658460394FEF76EFDCDF8008076
:101C8000CDE90164694616480394FEF765FD280214
:101C9000CDE9000702940720CDE9035069461148B9
:101CA000FEF75AFDCDF80090CDE9016469460D4874
:101CB0000394FEF751FD4FF6FC00CDE9000569469F
:101CC00002940848FEF748FD07B0BDE8F08F000019
:101CD0003038024000080240000002400004024088
:101CE00000100240000C02400D4810B50B49016085
:101CF0000C49416000214FF480428160C0E9031229
:101D000041618161C1610162FEF72AFF002803D0B1
:101D1000BDE81040FEF785BB10BD00000054004038
:101D200038000020A08601000F4810B50D49016061
:101D30004FF48271416000218160C1604FF40072F4
:101D40000161C0E90512C1610162416281620A213B
:101D5000C162FFF7ABFC002803D0BDE81040FEF7DE
:101D600060BB10BD003001408C0000200C4810B555
:101D70000A4901604FF4E1314160002181600C2289
:101D8000C160C0E904128161C161FFF7E3FD002871
:101D900003D0BDE81040FEF744BB10BD0010014069
:101DA000E40000200C4810B50A4901604FF4E1310D
:101DB0004160002181600C22C160C0E90412816190
:101DC000C161FFF7C7FD002803D0BDE81040FEF752
:101DD00028BB10BD004400402C0100200B4810B56A
:101DE0004FF0A0410160082141710121C171002122
:101DF0008171022242728172FEF730FE002803D008
:101E0000BDE81040FEF70DBB10BD000074010020BE
:101E1000FEE7FEE770477047FFF700B830B593B0B4
:101E200030216846FEF797FA14210CA8FEF793FAC2
:101E30001E480025016841F080510160006800F0F3
:101E4000805011901A48016841F480410160006897
:101E5000022400F480401190012000904FF4A02053
:101E600001906005CDE9064004200890A820CDE946
:101E7000090407200B906846FFF7DEF908B172B637
:101E8000FEE70CA90F2081E831004FF4A0500F901D
:101E90004FF48050109005210CA8FFF771F800282E
:101EA00001D072B6FEE713B030BD000040380240EA
:101EB000007000400248016841F470010160704701
:101EC00088ED00E070B5044640685449884204D962
:101ED00040F67561524800F0F0F9E06838B1B0F5AD
:101EE000005F04D040F676614D4800F0E6F92069C5
:101EF00050B1B0F5806F07D0B0F5C06F04D040F698
:101F00007761474800F0D9F960694FF6F3710842EC
:101F100000D120B940F67861414800F0CEF9206840
:101F20000169E26821F44051114301612169A0680F
:101F3000E26908436169114322680843D16849F2A4
:101F40000C6399430143D16020684169A26921F47F
:101F500040711143416133492068884202D03249BF
:101F6000884202D1FFF728F901E0FFF715F9E2698D
:101F70000023192164253226B2F5004F626828D06B
:101F8000A0FB0101930F9200FEF76EF90146B0FB32
:101F9000F5F06FF01802504301EB800006EB0010E3
:101FA000B0FBF5F000F0F002B1FBF5F002EB00122F
:101FB000B1FBF5F06FF01803584301EB800006EB1E
:101FC0000010B0FBF5F000F00F00216810448860AD
:101FD00070BDA0FB010192185B41FEF745F9014677
:101FE000B0FBF5F00201B1FBF5F06FF018035843B8
:101FF00001EB800006EBC000B0FBF5F000F0F8004C
:1020000002EB4002B1FBF5F0584301EB800006EB18
:10201000C000B0FBF5F000F00700D6E7A037A00045
:10202000E4250008001001400014014070B50D4681
:102030000446C2F3072104981E4601291BD0E0681C
:1020400040F04000E060204600F032F8C6F307217F
:102050000029A16B26D021F48031A163C5F307418B
:10206000012907D1A16841F00601A160A16841F0F2
:102070002001A16070BDA16B21F48031A163E168F2
:102080000A4A1140E160E16821F44011E160C0B208
:10209000012803D1E06840F48010E060204600F0A1
:1020A00007F8DBE741F48031D7E70000BFFFBDFF51
:1020B00008B500214FF070620091009B5B1C0093FB
:1020C00093420CD80369002BF7DA0091016941F0C3
:1020D000010101610099491C0091914201D903203D
:1020E00008BD0169C907F5D1002008BD816821F04C
:1020F000010181600020704708B500214FF0706237
:102100000091009B5B1C009393420AD80369002B4B
:10211000F7DA0091102101610099491C0091914268
:1021200001D9032008BD0169C906F5D4002008BD06
:1021300018B500224FF070630092009C641C00945C
:102140009C420CD80469002CF7DA0092202242EA63
:10215000811101610099491C0091994201D9032024
:1021600018BD01698906F5D4002018BDF0B5002519
:102170000E4604462F46C0F8005E806B40F4001007
:10218000A063A06B20F40020A063A06B20F480204B
:10219000A063E068400602D4300E012804D0D4F8D1
:1021A000000420F0040103E0D4F8000440F004012E
:1021B0002046C4F800141021FFF7BAFF00B1012532
:1021C0002046FFF799FF00B101250020411EC6F30C
:1021D000072206E004EB4013C3F80815C3F80C759A
:1021E000401C8242F6D8A76161610E48844205D145
:1021F000401560620C48A0620C4804E080206062D8
:102200000B48A0620B48C4F80001C6F3074018B998
:10221000A06940F01000A061A06907490843A061CF
:102220002846F0BD00000440000200010003E00069
:1022300080006000E0004000080020A370B5044664
:10224000C068002520F0C040E060012901D079B1CC
:1022500020E0E06840F00050E0600A20FEF76AFAF3
:1022600060690A3510F0010F10D1C82DF5D30DE0CB
:10227000E06840F08040E0600A20FEF75BFA6069A9
:102280000A3510F0010F01D0C82DF5D3C82D01D0AB
:10229000002070BD012070BDFEE70907090E00286F
:1022A00004DB00F1E02080F80014704700F00F001C
:1022B00000F1E02080F8141D70477047FEF7B6FD6E
:1022C000FFF7ACFDFFF73EFCFFF71EFCFFF70CFD30
:1022D000FFF74CFDFFF782FDFFF726FDFFF762FDDC
:1022E000084C012204212046FEF798FBC820FEF787
:1022F00021FA002204212046FEF790FBC820FEF7B9
:1023000019FAEEE7000402404FF04070E1EE100AC7
:1023100070470000000000000000010203040607EF
:10232000080900000000010203040000433A2F5591
:10233000736572732F736D6974682F53544D333204
:10234000437562652F5265706F7369746F72792F70
:1023500053544D3332437562655F46575F46345F71
:1023600056312E32382E302F447269766572732FB3
:1023700053544D3332463478785F48414C5F447251
:10238000697665722F5372632F73746D33326634BE
:1023900078785F68616C5F63616E2E630000000097
:1023A000433A2F55736572732F736D6974682F5399
:1023B000544D3332437562652F5265706F73697483
:1023C0006F72792F53544D3332437562655F4657B0
:1023D0005F46345F56312E32382E302F4472697684
:1023E0006572732F53544D3332463478785F4841C9
:1023F0004C5F4472697665722F5372632F73746DEC
:102400003332663478785F68616C5F7263632E6321
:1024100000000000433A2F55736572732F736D6986
:1024200074682F53544D3332437562652F52657073
:102430006F7369746F72792F53544D3332437562E1
:10244000655F46575F46345F56312E32382E302F47
:10245000447269766572732F53544D333246347823
:10246000785F48414C5F4472697665722F5372639E
:102470002F73746D3332663478785F68616C5F6790
:1024800070696F2E63000000433A2F5573657273B5
:102490002F736D6974682F53544D333243756265E1
:1024A0002F5265706F7369746F72792F53544D3367
:1024B00032437562655F46575F46345F56312E3250
:1024C000382E302F447269766572732F53544D3312
:1024D00032463478785F48414C5F44726976657261
:1024E0002F5372632F73746D3332663478785F685C
:1024F000616C5F636F727465782E6300433A2F5589
:10250000736572732F736D6974682F53544D333232
:10251000437562652F5265706F7369746F72792F9E
:1025200053544D3332437562655F46575F46345F9F
:1025300056312E32382E302F447269766572732FE1
:1025400053544D3332463478785F48414C5F44727F
:10255000697665722F5372632F73746D33326634EC
:1025600078785F68616C5F6932632E6300000000F9
:10257000433A2F55736572732F736D6974682F53C7
:10258000544D3332437562652F5265706F736974B1
:102590006F72792F53544D3332437562655F4657DE
:1025A0005F46345F56312E32382E302F44726976B2
:1025B0006572732F53544D3332463478785F4841F7
:1025C0004C5F4472697665722F5372632F73746D1A
:1025D0003332663478785F68616C5F7370692E633C
:1025E00000000000433A2F55736572732F736D69B5
:1025F00074682F53544D3332437562652F526570A2
:102600006F7369746F72792F53544D33324375620F
:10261000655F46575F46345F56312E32382E302F75
:10262000447269766572732F53544D333246347851
:10263000785F48414C5F4472697665722F537263CC
:102640002F73746D3332663478785F68616C5F75B0
:102650006172742E63000000433A2F5573657273E4
:102660002F736D6974682F53544D3332437562650F
:102670002F5265706F7369746F72792F53544D3395
:1026800032437562655F46575F46345F56312E327E
:10269000382E302F447269766572732F53544D3340
:1026A00032463478785F48414C5F4472697665728F
:1026B0002F5372632F73746D3332663478785F688A
:1026C000616C5F6863642E6300000000EC26000804
:1026D0000000002010000000C4010008FC260008D3
:1026E00010000020A80B0000E0010008010000001D
:0C26F00010000000000000000024F400B6
:040000050800018965
:00000001FF
