:020000040800F2
:10000000680D002029020008A11E0008CD1C000870
:100010009D1E00080B0500087D260008000000005A
:10002000000000000000000000000000A51E000805
:100030005B06000800000000A31E0008A71E0008C1
:10004000430200084302000843020008430200087C
:10005000430200084302000843020008430200086C
:10006000430200084302000843020008430200085C
:10007000430200084302000843020008430200084C
:10008000430200084302000843020008430200083C
:10009000430200084302000843020008430200082C
:1000A000430200084302000843020008430200081C
:1000B000430200084302000843020008430200080C
:1000C00043020008430200084302000843020008FC
:1000D000430200086D26000843020008430200089E
:1000E00043020008430200084302000843020008DC
:1000F00043020008430200084302000843020008CC
:1001000043020008430200084302000843020008BB
:1001100043020008430200084302000843020008AB
:1001200043020008110500084302000843020008CA
:10013000430200084302000843020008430200088B
:10014000430200084302000843020008430200087B
:100150002105000831050008410500084302000898
:10016000430200084302000843020008430200085B
:100170004302000843020008430200080000000098
:10018000430200084302000800F002F800F03CF8C7
:100190000AA090E8000C82448344AAF10107DA45E2
:1001A00001D100F031F8AFF2090EBAE80F0013F0F8
:1001B000010F18BFFB1A43F001031847C0300000BD
:1001C000E0300000103A24BF78C878C1FAD852074E
:1001D00024BF30C830C144BF04680C6070470000C1
:1001E0000023002400250026103A28BF78C1FBD840
:1001F000520728BF30C148BF0B6070471FB503F0DE
:1002000022F81FBD10B510BD00F046F91146FFF7EA
:10021000F5FF02F07FFA00F064F903B4FFF7F2FF94
:1002200003BC00F06BF9000009488047094800470B
:10023000FEE7FEE7FEE7FEE7FEE7FEE7FEE7FEE796
:10024000FEE7FEE704480549054A064B70470000F3
:10025000651F00088901000868070020680D00205C
:10026000680900206809002053EA020C00F0698048
:100270002DE9F04B4FF00006002B1FBFB3FA83F5BA
:1002800003FA05F424FA05F65E4012BF1643B2FAEB
:1002900082F502FA05F4C5F120051EBF22FA05FC1D
:1002A00044EA0C04203556EA044C4FEA144418BFC3
:1002B000641C4FF000084FF00009904271EB030CF2
:1002C00039D3002919BFB1FA81F701FA07F6B0FA5C
:1002D00080F700FA07F6C7F120071EBF20FA07FCD7
:1002E00046EA0C062037B6FBF4FCA7EB0507103FE7
:1002F00007F01F0BCBF120060CFA0BFB2CFA06F6CD
:1003000044BFB3460026202FA4BF5E464FF0000B2B
:100310005BEA060C08BF4FF0010B19EB0B09ABFBB6
:10032000027C48EB0608C01B06FB02CC0BFB03CC8F
:1003300071EB0C01C1E70B46024641464846BDE859
:10034000F08B13B54FF000004FF00001AFF30080C9
:10035000BDE81C407047032A40F2308010F0030CC7
:1003600000F0158011F8013BBCF1020F624498BF08
:1003700011F801CB00F8013B38BF11F8013BA2F1A5
:10038000040298BF00F801CB38BF00F8013B11F020
:10039000030300F04F80083AC0F0088051F8043B96
:1003A000083A51F804CBA0E80810F5E7121D5CBF2D
:1003B00051F8043B40F8043BAFF30080D20724BF60
:1003C00011F8013B11F801CB48BF11F8012B24BFF4
:1003D00000F8013B00F801CB48BF00F8012B704743
:1003E0004FF0000200B5134694469646203922BFCE
:1003F000A0E80C50A0E80C50B1F12001BFF4F7AF19
:10040000090728BFA0E80C5048BF0CC05DF804EBFA
:10041000890028BF40F8042B08BF704748BF20F868
:10042000022B11F0804F18BF00F8012B7047704766
:100430007047704710B5203AC0F00B80B1E81850F3
:10044000203AA0E81850B1E81850A0E81850BFF4BE
:10045000F5AF5FEA027C24BFB1E81850A0E818505D
:1004600044BF18C918C0BDE810405FEA827C24BFB1
:1004700051F8043B40F8043B08BF7047D20728BF3F
:1004800031F8023B48BF11F8012B28BF20F8023B8E
:1004900048BF00F8012B7047754600F02BF8AE46B8
:1004A00005006946534620F00700854618B020B580
:1004B000FFF7C8FEBDE820404FF000064FF00007F0
:1004C0004FF000084FF0000B21F00701AC46ACE8FC
:1004D000C009ACE8C009ACE8C009ACE8C0098D4669
:1004E000704710B50446AFF300802046BDE81040C9
:1004F000FFF793BE00487047040700200149182009
:10050000ABBEFEE726000200704700BFFEE700001A
:1005100010B5024800F00EF910BD0000440600209E
:1005200010B5024800F006F910BD0000E4050020F7
:1005300010B5024800F0FEF810BD0000A40600202F
:1005400010B5024800F0F6F810BD00008405002048
:100550000146087810381823B0FBF3F20848805C95
:10056000C865032A05D908686FF30900001D88656E
:1005700003E008686FF309008865886D7047000024
:100580005A320008014600208A6A8B69CBB932B121
:10059000012A0DD0022A03D0032A10D10EE000BF99
:1005A000CB6A03F08073B3F1807F00D1012007E0B4
:1005B000CB6AB3F1C07F00D1012001E000E000BFB1
:1005C00034E08B69B3F5005F1AD132B1012A07D04C
:1005D000022A03D0032A11D10AE000BF01200EE055
:1005E000CB6A03F08073B3F1807F00D1012006E075
:1005F000CB6AB3F1C07F00D1012000E000BF15E05D
:1006000032B1012A05D0022A04D0032A0CD103E01A
:1006100000BF00BF012008E0CB6A03F08073B3F194
:10062000807F00D1012000E000BF00BF704730B5DF
:100630000468246824F4802405682C6004686360DE
:100640008468402C04D10468A2600468E16003E07F
:100650000468A1600468E26030BD7047704770B5FF
:100660000446A56D00F05AFB064694F835000228B2
:1006700008D08020606500BF002084F8340000BFEF
:10068000012070BD2068006820F016002168086015
:100690002068406920F0800021684861206C08B91A
:1006A000A06C28B12068006820F00800216808606C
:1006B0002068006820F001002168086010E000F068
:1006C0002DFB801B05280BD920206065032084F8B2
:1006D000350000BF002084F8340000BF0320D0E7BD
:1006E0002068006800F001000028E8D194F85C1050
:1006F0003F208840A860012084F8350000BF00201A
:1007000084F8340000BF00BFBBE7014691F8350014
:10071000022803D08020486501207047052081F819
:1007200035000868006820F001000A6810600020A9
:10073000F3E70000F8B50446002000908C480068FC
:100740004FF41651B0FBF1F7A56D2E6894F85C10CC
:1007500008208840304098B12068006800F004000C
:1007600070B12068006820F004002168086094F8E7
:100770005C1008208840A860606D40F00100606552
:1007800094F85C1001208840304068B120684069CE
:1007900000F0800040B194F85C1001208840A8600F
:1007A000606D40F00200606594F85C1004208840A1
:1007B000304068B12068006800F0020040B194F851
:1007C0005C1004208840A860606D40F00400606503
:1007D00094F85C1010208840304078B3206800689E
:1007E00000F0080050B394F85C1010208840A86016
:1007F0002068006800F4802080B12068006800F460
:10080000002028B9206CC8B12046216C884715E02B
:10081000A06C98B12046A16C88470FE02068006862
:1008200000F4807028B92068006820F00800216872
:100830000860206C10B12046216C884794F85C1049
:10084000202088403040002865D02068006800F0F3
:10085000100000285FD094F85C1020208840A86029
:1008600094F83500052828D12068006820F016008B
:10087000216808602068406920F080002168486194
:10088000206C08B9A06C28B12068006820F008002E
:100890002168086094F85C103F208840A86001201F
:1008A00084F8350000BF002084F8340000BF206DBC
:1008B00010B12046216D8847F8BD2068006800F41B
:1008C000802080B12068006800F4002028B9606CA6
:1008D00010B12046616C88471DE0E06BD8B120461E
:1008E000E16B884717E02068006800F4807068B901
:1008F0002068006820F0100021680860012084F85A
:10090000350000BF002084F8340000BFE06B10B158
:100910002046E16B8847606D38B3606D00F00100E0
:10092000F0B1052084F835002068006820F001004F
:100930002168086000BF0098401C0090B84200D9B0
:1009400005E02068006800F001000028F3D100BF36
:10095000012084F8350000BF002084F8340000BF77
:10096000E06C10B12046E16C884700BFA4E70000AE
:100970000C0000202DE9F0410446002500F0CEF9DE
:10098000074614B90120BDE8F081606A00B100BFDC
:10099000022084F8350000BF002084F8340000BF36
:1009A0002068006820F00100216808600AE000F07B
:1009B000B5F9C01B052805D920206065032084F8FF
:1009C0003500E0E72068006800F001000028EED163
:1009D0002068056821480540D4E901010843E16821
:1009E00008432169084361690843A1690843E16933
:1009F0000843216A08430543606A042803D1D4E907
:100A00000B0108430543206805602068456925F00F
:100A10000705606A0543606A04280DD1A06A054392
:100A2000E06A48B12046FFF7ADFD28B1402060657F
:100A3000012084F83500A6E7206845612046FFF7CD
:100A400087FD064694F85C103F208840B060002087
:100A50006065012084F83500002094E73F8010F0A5
:100A60002DE9F04704460D4616461F464FF0000894
:100A7000D4F8589000BF94F83400012802D1022025
:100A8000BDE8F087012084F8340000BF94F83500F9
:100A9000012825D1022084F83500002060653B46FE
:100AA000324629462046FFF7C2FD94F85C103F20ED
:100AB0008840C9F808002068006840F016002168E6
:100AC0000860206C28B12068006840F008002168A8
:100AD00008602068006840F001002168086006E0B6
:100AE00000BF002084F8340000BF4FF002084046E9
:100AF000C6E7000070B5044600F010F9064625462A
:100B0000681C10B104480078054400BF00F006F9E5
:100B1000801BA842FAD370BD08000020F8B5024639
:100B20000B460025002400200021D6E0012606FA0D
:100B300001F51E6806EA0504AC4274D11E7906F080
:100B40000306012E04D01E7906F00306022E13D1EF
:100B500090684F000326BE40B0434F00DE68BE40A1
:100B600030439060506801268E40B0431E79C6F332
:100B700000168E40304350601E7906F00306032EA7
:100B800009D0D0684F000326BE40B0434F009E6896
:100B9000BE403043D0601E7906F00306022E13D10A
:100BA000CF0802F1200656F827004E07F70E0F2651
:100BB000BE40B0434F07FF0E1E69BE403043CF0812
:100BC00002F1200646F8270010684F000326BE40B9
:100BD000B0431E7906F003064F00BE40304310605C
:100BE0005E6806F44036002E76D000BF00260096E0
:100BF0003C4E366846F480463A4F3E603E46366884
:100C000006F48046009600BF00BF374E8F0856F8A6
:100C100027008E07370F0F26BE40B043334EB24237
:100C200002D1002624E057E0314EB24201D1012624
:100C30001EE0304EB24201D1022619E02E4EB242E1
:100C400001D1032614E02D4EB24201D104260FE05B
:100C50002B4EB24201D105260AE02A4EB24201D102
:100C6000062605E0284EB24201D1072600E00826FC
:100C70008F073F0FBE4030431B4E8F0846F82700BA
:100C8000224E3068A0435E6806F4801606B1204309
:100C90001E4E3060361D3068A0435E6806F40016B4
:100CA00006B12043194E361D3060184E361F30688D
:100CB000A0435E6806F4003606B12043134E361F8B
:100CC0003060361F3068A0435E6806F4803606B197
:100CD00020430E4E083E3060491C1029FFF426AF19
:100CE000F8BD0000443802400838014000000240CE
:100CF0000004024000080240000C024000100240C4
:100D00000014024000180240001C0240083C014050
:100D10000AB1816101E00B048361704701480068FA
:100D2000704700000000002003480068034909786C
:100D300008440149086070470000002008000020B6
:100D400010B50D48006840F400700B490860084673
:100D5000006840F4806008600846006840F48070D5
:100D60000860032000F0A6F8002000F007F800F06B
:100D70002BF8002010BD0000003C024070B5044676
:100D80000E4800784FF47A71B1FBF0F00C49096815
:100D9000B1FBF0F5284600F02FFC08B1012070BD32
:100DA000102C07D200222146501E00F045F80548BD
:100DB000046001E00120F2E70020F0E708000020D5
:100DC0000C0000200400002008B500BF00200090A7
:100DD0000E48006840F480400C49086008460068EE
:100DE00000F48040009000BF00BF00BF00200090D2
:100DF000081F006840F08050091F0860084600681E
:100E000000F08050009000BF00BF08BD4438024091
:100E10000146084600280DDB00BF00BF00F01F039D
:100E200001229A4043099B0003F1E023C3F800210B
:100E300000BF00BF00BF70472DE9F05F80460D4640
:100E40001646002701F01CFC074639462A46334661
:100E500001F00700C0F1070ABAF1040F02D94FF000
:100E6000040A01E0C0F1070AD14600F1040ABAF110
:100E7000070F02D24FF0000A01E0A0F1030AD446A6
:100E80004FF0010A0AFA09FAAAF1010A0AEA020A6B
:100E90000AFA0CFA4FF0010B0BFA0CFBABF1010B49
:100EA0000BEA030B4AEA0B042146404601F0F0FB33
:100EB000BDE8F09F00BF00F00702064B19684FF62F
:100EC000FF031940044B0B4343EA0221014B196015
:100ED00000BF70470CED00E00000FA0570B5044655
:100EE0000D460CB9012070BD5848006800F007009D
:100EF000A84209D255490D700846006800F0070065
:100F0000A84201D00120EEE7207800F0020002287C
:100F10001DD1207800F00400042805D14C48006859
:100F200040F4E0504A490860207800F008000828A2
:100F300005D14748006840F460404549086044488E
:100F4000006820F0F000A16808434149086020785B
:100F500000F00100A8B36068012807D13C480838B8
:100F60000068C0F34040B8B90120BCE760680228BF
:100F700002D06068032807D1354808380068C0F3FC
:100F8000406048B90120AEE7314808380068C0F336
:100F9000400008B90120A6E72D48006820F00300B2
:100FA000616808432A490860FFF7B8FE064609E071
:100FB000FFF7B4FE801B41F28831884202D903203A
:100FC00091E707E02248006800F00C006168B0EB90
:100FD000810FEDD11D48006800F00700A84209D933
:100FE0001A490D700846006800F00700A84201D0B9
:100FF000012078E7207800F00400042807D1144885
:10100000006820F4E050E168084311490860207846
:1010100000F00800082808D10D48006820F460405E
:10102000216940EAC1000A49086000F03FF8084918
:101030000968C1F30311074A515CC84006490860BA
:1010400006480068FFF79AFE00204CE7003C02408B
:1010500008380240623200080C0000200400002022
:1010600001480068704700000C00002000B5FFF741
:10107000F7FF04490968C1F38221034A515CC84063
:1010800000BD0000083802407232000800B5FFF7CA
:10109000E7FF04490968C1F34231034A515CC84083
:1010A00000BD000008380240723200082DE9F04708
:1010B000002400250026A1462548006800F00C0009
:1010C00020B1042805D008283AD105E0DFF8849043
:1010D00039E0DFF8849036E01D48001F006800F01A
:1010E0003F041B48001F006800F4800078B11A48D4
:1010F0001749091F0968C1F38811A0FB0170014657
:10110000224600233846FFF7AFF805460EE01148A7
:101110000F49091F0968C1F38811A0FB017001463E
:10112000224600233846FFF79FF805460848001F6F
:101130000068C0F30140401C4600B5FBF6F902E030
:10114000DFF8109000BF00BF4846BDE8F087000000
:10115000083802400024F400001BB700F8B504462C
:101160000CB90120F8BD207800F00100002874D0EF
:10117000F948006800F00C0004280DD0F64800681B
:1011800000F00C00082813D1F348001F006800F499
:101190008000B0F5800F0BD1EF4808380068C0F32D
:1011A0004040002859D06068002856D10120D9E776
:1011B00000BF6068B0F5803F08D1E7480838006894
:1011C00040F48030E449083908601EE06068B0F5FA
:1011D000A02F0DD1E0480838006840F48020DE4997
:1011E000083908600846006840F4803008600CE068
:1011F000D9480838006820F48030D7490839086099
:101200000846006820F48020086000BF606890B144
:10121000FFF784FD054606E0FFF780FD401B6428CC
:1012200001D903209EE7CC4808380068C0F340404D
:101230000028F1D011E0FFF771FD054606E0FFF749
:101240006DFD401B642801D903208BE7C248083894
:101250000068C0F340400028F1D1207800F002007F
:1012600002285FD1BC48006800F00C0058B1BA48B1
:10127000006800F00C0008281CD1B748001F006867
:1012800000F48000B0B9B44808380068C0F34000EA
:1012900020B1E068012801D0012063E7AE4808389A
:1012A000006820F0F800216940EAC100AA49083925
:1012B000086037E0E06800B30120A8490860FFF744
:1012C0002DFD054606E0FFF729FD401B022801D948
:1012D000032047E7A04808380068C0F34000002812
:1012E000F1D09D480838006820F0F800216940EAF4
:1012F000C10099490839086014E000209749086046
:10130000FFF70CFD054606E0FFF708FD401B02282D
:1013100001D9032026E7904808380068C0F3400050
:101320000028F1D1207800F0080008282CD160694D
:10133000A8B101208A490860FFF7F0FC054606E0E5
:10134000FFF7ECFC401B022801D903200AE7824882
:101350006C300068C0F340000028F1D014E0002099
:101360007F490860FFF7DAFC054606E0FFF7D6FC88
:10137000401B022801D90320F4E677486C3000684E
:10138000C0F340000028F1D1207800F004000428C8
:1013900070D1002770483830006800F0805090B954
:1013A00000BF002000906C483830006840F080504A
:1013B0006949383108600846006800F080500090A4
:1013C00000BF00BF01276748006800F48070B0B913
:1013D0006448006840F4807062490860FFF79EFC32
:1013E000054606E0FFF79AFC401B022801D90320BE
:1013F000B8E65C48006800F480700028F2D000BFB6
:10140000A068012808D154486830006840F0010005
:101410005149683108601DE0A06805280DD14E488B
:101420006830006840F004004B49683108600846A5
:10143000006840F0010008600CE047486830006830
:1014400020F001004449683108600846006820F037
:101450000400086000BFA068A8B1FFF75FFC054664
:1014600009E0FFF75BFC401B41F28831884202D95A
:10147000032077E626E0384868300068C0F3400073
:101480000028EED013E0FFF749FC054608E0FFF71F
:1014900045FC401B41F28831884201D9032061E6B6
:1014A0002D4868300068C0F340000028EFD1012FBC
:1014B00007D129483830006820F08050264938315B
:1014C000086000BFA069002845D02348006800F0EC
:1014D0000C0008285DD0A069022845D100201F49D2
:1014E0000866FFF71BFC054606E0FFF717FC401BEC
:1014F000022801D9032035E6174808380068C0F3F0
:1015000040600028F1D1D4E907010843616A40EA4C
:1015100081110122A06AC2EB500041EA00412C2057
:10152000005D41EA00600C49091F086001200B4979
:101530000866FFF7F3FB054606E0FFF7EFFB401BED
:10154000022801D903200DE6034808380068C0F3DB
:1015500040600028F1D049E00838024000004742CE
:10156000800E474200700040002021490866FFF7C6
:10157000D5FB054606E0FFF7D1FB401B022801D949
:101580000320EFE51B480068C0F340600028F2D15B
:101590002CE0A069012800D1E4E51648001D06688A
:1015A000A069012820D006F48001E06981421BD1A6
:1015B00006F03F01206A814216D147F6C0703040E4
:1015C000616AB0EB811F0FD106F440310122A06A9D
:1015D000C2EB5000B1EB004F06D106F070612C2039
:1015E000005DB1EB006F01D00120BBE50020B9E543
:1015F000000047420038024070B504462546681E88
:10160000B0F1807F01D301200FE0681E4FF0E02190
:1016100048610F214FF0FF3001F03AF800204FF001
:10162000E021886107200861002070BD7047704785
:101630002DE9F84F0446206805682068C6682068D0
:1016400047694FF00009CA4605F00F09B9F1000FCC
:101650000AD105F0200038B106F0200020B1204664
:1016600000F0DCFDBDE8F88FB9F1000F7CD007F089
:10167000010018B906F49070002875D005F001003B
:1016800030B106F4807018B1606C40F00100606405
:1016900005F0040030B107F0010018B1606C40F0B3
:1016A0000200606405F0020030B107F0010018B1DB
:1016B000606C40F00400606405F0080048B106F07A
:1016C000200010B907F0010018B1606C40F008006C
:1016D0006064606C002846D005F0200028B106F058
:1016E000200010B1204600F099FD20684069C0F349
:1016F000801A606C00F0080010B9BAF1000F2DD00C
:10170000204600F032FD2068406900F0400040288B
:1017100020D100BF00BF2168143151E8001F21F023
:1017200040002168143141E80002002AF3D100BFD3
:10173000E06B50B17748E16B0865E06BFEF7E5FFC1
:1017400088B1E06B016D88470DE02046FFF76FFF21
:1017500009E009E02046FFF76AFF04E02046FFF7B2
:1017600066FF002060647DE7206B012878D105F0DA
:101770001000002874D006F010000028FAD000BF36
:101780000020009020680068009020684068009069
:1017900000BF00BF2068406900F04000402860D1D1
:1017A000E06B006840681FFA80F8B8F1000F56D06F
:1017B000A08D404553DDA4F82E80E06BC069B0F5E4
:1017C000807F43D000BF00BF21680C3151E8001F6B
:1017D00021F4807021680C3141E80002002AF3D125
:1017E00000BF00BF00BF2168143151E8001F21F085
:1017F00001002168143141E80002002AF3D100BF42
:1018000000BF00BF2168143151E8001F21F04000E3
:101810002168143141E80002002AF3D100BF2020E2
:1018200084F842000020206300BF00BF21680C3113
:1018300051E8001F21F0100021680C3141E800023E
:10184000002AF3D100BFE06BFEF709FF02206063BE
:10185000A08DE28D801A81B22046FFF7E7FE01E7F6
:1018600042E0A08DE18D401A1FFA80F8E08DD0B3E0
:10187000B8F1000F37D000BF00BF21680C3151E82C
:10188000001F21F4907021680C3141E80002002A09
:10189000F3D100BF00BF00BF2168143151E8001F21
:1018A00021F001002168143141E80002002AF3D13F
:1018B00000BF202084F842000020206300BF00BF4A
:1018C00021680C3151E8001F21F0100021680C3113
:1018D00041E80002002AF3D100BF022060634146C4
:1018E0002046FFF7A3FEBDE605F0800030B106F00C
:1018F000800018B1204600F089FEB3E605F04000F4
:1019000030B106F0400018B1204600F064FCA9E6B2
:1019100000BFA7E6C91F000810B504460CB9012096
:1019200010BDA06900B100E000BF94F8410028B9E3
:10193000002084F84000204600F02AF8242084F893
:1019400041002068C06820F400502168C86020462B
:1019500000F0E2FC2068006920F4904021680861F2
:101960002068406920F02A00216848612068C0682A
:1019700040F400502168C86000206064202084F892
:10198000410084F842000020606300BFC8E7000007
:1019900010B586B00446142101A8FEF721FD904938
:1019A000206888427ED100BF002000908D480068EA
:1019B00040F010008B4908600846006800F01000F5
:1019C000009000BF00BF00BF002000908548143881
:1019D000006840F002008349143908600846006836
:1019E00000F00200009000BF00BF00BF0020009088
:1019F0000846006840F0010008600846006800F0F2
:101A00000100009000BF00BF8020019002200290E2
:101A100000200390032004900720059001A972483C
:101A2000FFF77CF84FF40070019002200290002034
:101A30000390032004900720059001A96B48FFF74D
:101A40006DF86B486B4908604FF0006048604021BA
:101A5000684881600021C1604FF48061016100210C
:101A600041618161C1614FF44031016200214162F5
:101A7000FEF780FF08B1FEF7F1FD00BF5D48A063EF
:101A8000846300BF5A4830385B4908604FF00060FB
:101A90004860002158488160C1604FF48061016155
:101AA000002100E01AE041618161C1614FF44031E1
:101AB000016200214162FEF75DFF08B1FEF7CEFD35
:101AC00000BF4D48E063846300BF0022052125204C
:101AD000FFF7B2F92520FFF79BF97EE04749206820
:101AE00088427AD100BF002000903E48006840F054
:101AF00020003C4908600846006800F02000009083
:101B000000BF00BF00BF00200090364814380068B6
:101B100040F040003349143908600846006800F07E
:101B20004000009000BF00BF4FF4844001900220AD
:101B3000029000200390032004900820059001A942
:101B40002F48FEF7EBFF2A4890382E4908608005A1
:101B5000486000212B488160C1604FF480610161C1
:101B6000002141618161C1614FF440310162002176
:101B70004162FEF7FFFE08B1FEF770FD00BF21488D
:101B8000E063846300BF1A4818381F4908604FF0AB
:101B90002060486040211C4881600021C1604FF4F2
:101BA00080610161002141618161C1614FF4403177
:101BB000016200214162FEF7DDFE08B1FEF74EFD35
:101BC00000BF1148A063846300BF00221146472074
:101BD000FFF732F94720FFF71BF906B010BD0000F0
:101BE000001001404438024000040240000002405E
:101BF000B864024084050020E40500200014014080
:101C00000018024044060020A406002070B50446D7
:101C10000D46164694F8420020280BD105B10EB9A6
:101C2000012070BD0020206332462946204600F086
:101C300089FCF6E70220F4E770477047F7B50446E1
:101C4000154694F84100202836D1019800B10DB90D
:101C50000120FEBD01982062A584E5840020606417
:101C6000212084F841001548A16BC8631448A16B7A
:101C700008641448A16BC8640020A16B086501AE1C
:101C800023681A1D31682B46A06BFEF7E9FE6FF042
:101C900040002168086000BF00BF2168143151E88E
:101CA000001F41F080002168143141E80002002A41
:101CB000F3D100BF0020CCE70220CAE705210008CD
:101CC0005D210008DD1F00087047704700BFFEE778
:101CD00008B500BF002000901648006840F480005E
:101CE000144908600846006800F48000009000BFB6
:101CF00000BF002205213920FFF79EF83920FFF7A9
:101D000087F8002205214420FFF796F84420FFF7CA
:101D10007FF8002205214520FFF78EF84520FFF7C8
:101D200077F8002205214620FFF786F84620FFF7C6
:101D30006FF808BD3038024000B587B0142102A802
:101D4000FEF74EFB00BF002001903548006840F0D0
:101D50004000334908600846006800F040000190E8
:101D600000BF00BF00BF002001900846006840F09F
:101D7000010008600846006800F00100019000BF03
:101D800000BF00BF002001900846006840F002003C
:101D900008600846006800F00200019000BF00BF24
:101DA00000BF002001900846006840F0080008606D
:101DB0000846006800F00800019000BF00BF00BFA7
:101DC000002001900846006840F080000860084646
:101DD000006800F08000019000BF00BF01224FF4B6
:101DE000E0511048FEF794FF60200290022003901B
:101DF00000200490032005900720069002A90A48BD
:101E0000FEF78CFE4FF4E050029001200390049006
:101E10000220059002A90348FEF780FE07B000BD2E
:101E200030380240001C0240000C024010B50A4845
:101E30000A4908600A484860002108488160C1607A
:101E400001610C21416100218161C161FFF764FDE5
:101E500008B1FEF703FC10BD00100140F40400209F
:101E6000003E490010B50B480B4908604FF4E130C3
:101E70004860002108488160C16001610C21416116
:101E800000218161C161FFF747FD08B1FEF7E6FB64
:101E900010BD0000001401403C05002000BFFEE71B
:101EA00070477047704710B5FEF73EFF10BD000049
:101EB00000B593B0302107A8FEF792FA142102A8CA
:101EC000FEF78EFA00BF002001902448006840F021
:101ED0008050224908600846006800F08050019058
:101EE00000BF00BF00BF002001901D48006840F403
:101EF00080401B4908600846006800F4804001905B
:101F000000BF00BF012007900004089002200D9040
:101F100041050E9106210F91A821109102211191E6
:101F20000421129107A8FFF719F908B1FEF796FBF3
:101F30000F20029002200390002004904FF4A05044
:101F400005904FF480500690052102A8FEF7C6FFC9
:101F500008B1FEF783FB13B000BD0000403802401B
:101F6000007000401448006840F470001249086096
:101F70001248006840F001001049086000200F4935
:101F8000083108600D4800680D4908400B49086099
:101F90000C48091D0860081F006820F48020091FF4
:101FA0000860002005490C3108604FF000600249CC
:101FB000803908607047000088ED00E0003802407A
:101FC000FFFFF6FE1030002470B50546AC6B002014
:101FD000E085E0842046FFF72AFB70BD70B5064619
:101FE0000025B46B20684069C0F3C01594F8410027
:101FF000212805D125B10020E084204600F0FBF81F
:1020000020684069C0F3801594F84200222805D169
:1020100025B10020E085204600F0A7F8606C40F074
:10202000100060642046FFF702FB70BD70B50546E6
:10203000AC6B2868006800F48070002842D1E0850D
:1020400000BF00BF21680C3151E8001F21F48070EF
:1020500021680C3141E80002002AF3D100BF00BF23
:1020600000BF2168143151E8001F21F001002168F0
:10207000143141E80002002AF3D100BF00BF00BFC5
:102080002168143151E8001F21F04000216814310B
:1020900041E80002002AF3D100BF202084F842006A
:1020A000206B01280ED100BF00BF21680C3151E820
:1020B000001F21F0100021680C3141E80002002AC5
:1020C000F3D100BF00206063206B012804D1A18DF3
:1020D0002046FFF7ABFA02E02046FFF7ADFD70BDEA
:1020E00070B50546AC6B01206063206B012805D1FB
:1020F000A08D41082046FFF799FA02E02046FFF73D
:102100009CFD70BD70B50546AC6B2868006800F496
:102110008070F8B90020E08400BF00BF216814314E
:1021200051E8001F21F080002168143141E80002CD
:10213000002AF3D100BF00BF00BF21680C3151E875
:10214000001F41F0400021680C3141E80002002AE4
:10215000F3D102E02046FFF7B7FD70BD70B504462D
:10216000A56B2846FFF7B1FD70BD00BF00BF026838
:102170000C3252E8002F22F4907102680C3242E8CF
:102180000013002BF3D100BF00BF00BF0268143260
:1021900052E8002F22F001010268143242E80013D5
:1021A000002BF3D100BF016B01290ED100BF00BF8E
:1021B00002680C3252E8002F22F0100102680C3243
:1021C00042E80013002BF3D100BF202180F8421019
:1021D00000210163704710B504462068C06820F0F4
:1021E00040002168C860202084F841002046FFF7A5
:1021F0006BFD002010BD00BF00BF02680C3252E82A
:10220000002F22F0C00102680C3242E80013002BBC
:10221000F3D100BF202180F841107047F8B5044683
:1022200094F84200222875D1A068B0F5805F0CD1E7
:10223000206950B90025A66A20684068C0F30800EC
:102240003080A06A801CA06215E0A56A0026A06804
:10225000B0F5805F03D0A06828B9206918B920685C
:102260004068287004E02068406800F07F00287013
:10227000A06A401CA062E08D401E80B2E08500286C
:1022800046D12068C06820F020002168C86020681E
:10229000C06820F480702168C8602068406920F020
:1022A000010021684861202084F84200002060631A
:1022B000206B012826D10020206300BF00BF2168C9
:1022C0000C3151E8001F21F0100021680C3141E869
:1022D0000002002AF3D100BF2068006800F010005F
:1022E00010280AD100BF00200090206800680090EC
:1022F00020684068009000BF00BFA18D2046FFF716
:1023000095F902E02046FFF797FC0020F8BD01E0B8
:102310000020FBE70220F9E72DE9F84F044620688A
:10232000006920F44050E168084321680861216990
:10233000A068084361690843E16908430090206888
:10234000C06849F20C618843009908432168C8605D
:102350002068406920F44070A16908432168486101
:1023600076492068884203D075492068884203D1A5
:10237000FEF78CFE814602E0FEF778FE8146E069BA
:10238000B0F5004F6CD102206168A0FB01500346FC
:102390001920A9FB007001462A463846FDF764FF64
:1023A0006421B0FBF1F04FEA001A02206168A0FB43
:1023B00001510B461920A9FB00712A463846FDF74A
:1023C00053FF834602206168A0FB01500346192099
:1023D000A9FB00712A463846FDF746FF6421B0FB91
:1023E000F1F000EBC00101EB0010ABEB80003221FB
:1023F00001EBC0006421B0FBF1F000F0F8000AEB43
:10240000400A02206168A0FB015003461920A9FB85
:10241000007001462A463846FDF726FF8346022013
:102420006168A0FB015003461920A9FB00712A46F0
:102430003846FDF719FF6421B0FBF1F000EBC00155
:1024400001EB0010ABEB8000322101EBC0006421F6
:10245000B0FBF1F000F007005044216888606AE0AA
:1024600004206168A0FB015003461920A9FB0070FD
:1024700001462A463846FDF7F7FE82460420616889
:10248000A0FB015003461920A9FB007001462A4613
:102490003846FDF7E9FE6421B0FBF1F000EBC00126
:1024A00001EB0010AAEB8000322101EB0010642147
:1024B000B0FBF1F000F0F00A04206168A0FB0170AD
:1024C00003461920A9FB00513A462846FDF7CCFEE9
:1024D0006421B0FBF1F00AEB001A04206168A0FB54
:1024E00001510B461920A9FB00712A463846FDF719
:1024F000BBFE834604206168A0FB015003461920FF
:10250000A9FB007001462A463846FDF7ADFE64215E
:10251000B0FBF1F000EBC00101EB0010ABEB800071
:10252000322101EB00106421B0FBF1F000F00F004C
:10253000504421688860BDE8F88F00000010014019
:102540000014014077B581B0044615460298A06298
:10255000A58500206064222084F842002848E16BB1
:10256000C8632848E16B08642748E16BC864002011
:10257000E16B086502AE32682368191D2B46E06BDB
:10258000FEF76EFA00BF00200090206800680090FF
:1025900020684068009000BF00BF206970B100BF94
:1025A00000BF21680C3151E8001F41F480702168A0
:1025B0000C3141E80002002AF3D100BF00BF00BF88
:1025C0002168143151E8001F41F0010021681431E5
:1025D00041E80002002AF3D100BF00BF00BF21681C
:1025E000143151E8001F41F040002168143141E8E6
:1025F0000002002AF3D100BF002004B070BD00002B
:102600002D200008E1200008DD1F0008014691F898
:102610004100212828D18868B0F5805F0BD1086976
:1026200048B90A6A1088C0F308000B685860086A45
:10263000801C086205E00B6A581C086218780B6859
:102640005860C88C401E80B2C88458B90868C068F9
:1026500020F080000B68D8600868C06840F0400037
:102660000B68D860002070470220FCE710B50248D4
:10267000FEF7DEFF10BD0000F404002000BFFEE7FF
:1026800002480068C0F30220704700000CED00E033
:1026900010B5002804DB0A07130E054A135406E0A0
:1026A0000A07140E034A00F00F031B1FD45410BD79
:1026B00000E400E018ED00E0F0B502460B4600250E
:1026C0000026681E124F00211FE04FF0004552F80F
:1026D0002160002416E000F0004CBCF1000F05D092
:1026E0004000DFF82CC080EA0C0000E0400006EA61
:1026F000050CBCF1000F03D0DFF814C080EA0C0019
:102700006D08641C202CE6D3491C9942DDD3F0BD32
:10271000B71DC104FEF714FBFFF7CAFBFFF70CFB64
:10272000FFF7D6FAFFF782FBFFF79CFB00224FF47E
:1027300080513948FEF7ECFA00224FF40061364828
:10274000FEF7E6FA00224FF480613348FEF7E0FA24
:1027500032480068C06840F0200030490968C8600D
:102760002E480068C06840F010002C490968C86015
:102770002B480068C06840F0200029490968C860FB
:1027800027480068C06840F0100025490968C86003
:1027900040E0012211032048FEF7BAFA0122D102DB
:1027A0001D48FEF7B5FA012291021B48FEF7B0FA68
:1027B0006420FEF79FF9B7EE001ADFED1A0A9FEDCD
:1027C0001A0A0021194800F035F8144800F06EF894
:1027D00000224FF480511048FEF79AFA00224FF47D
:1027E00000610D48FEF794FA00224FF480610A4818
:1027F000FEF78EFA6420FEF77DF9B7EE001ADFEDE2
:10280000090A9FED0B0A0021084800F013F803485D
:1028100000F04CF8BDE70000001C0240F40400206A
:102820003C050020A69BC43B081FD4C2100000201A
:10283000081FD44270B52DED088B04460D46B0EE4E
:10284000409AB0EE608AF0EE418A222044F8220FCE
:102850000A20E080A58019EE100A00F083FC41EC0C
:102860001B0B9FED0F0B53EC102B00F07DFB41EC8D
:102870001A0B00F0D7F920619FED0B0A10EE100A39
:10288000E0609FED090A10EE100AA06018EE100A31
:10289000606118EE900AA061223CBDEC088B70BD0F
:1028A000F9978C385F54C43F0000000010B52DED3F
:1028B000048B9EB00446CB4884427DD1FE20CA4999
:1028C0000870EE204870084690F8260088700020B6
:1028D000C870084690F828000871FF21C24841716D
:1028E00000218171C1719FEDC10A10EE100ABE492D
:1028F00088600846D0F82A0000EE100ADFEDBC0A16
:1029000020EE200ABDEEC00A10EE100A01B2B64851
:102910008181D0F82E0000EE100ADFEDB60A20EE1D
:10292000200ABDEEC00A10EE100A01B2AE48C18105
:10293000D0F8320000EE100ADFEDAF0A80EE201A68
:102940009FEDAE0A21EE000ABDEEC00A10EE100A9D
:10295000A54908610846D0F8360000EE100ADFED00
:10296000A80A20EE200ABDEEC00A10EE100A01B23D
:102970009D488182D0F83A0000EE100ADFEDA10AEE
:1029800020EE200ABDEEC00A10EE100A01B29648F1
:10299000C1820021017641760146D1F83E10C0F88F
:1029A0001A100721FFF788FE8F49C1F81E00222266
:1029B00015A8FDF7D0FC00E00FE1222215A98948F7
:1029C000FFF73CF90A20FEF795F84E2201A9854849
:1029D000FFF71CF99DF806008B4988709DF80800E8
:1029E00008719DF80A0041B2874881719DF80B106B
:1029F000C1719DF810009DF8111040EA012001B24C
:102A0000814881819DF812009DF8131040EA012051
:102A100001B27D48C1819DF81E009DF81F1040EA5B
:102A2000012001B2784841839DF8250000069DF8F9
:102A3000241040EA01409DF8231040EA01209DF84F
:102A4000221008437049C1F81E000846807881F8BA
:102A500052000846007981F85300084690F90600B4
:102A600048650846C07988650846B0F90C0000EE54
:102A7000100AF8EEC00A9FED5E1A80EE810A10EE91
:102A8000100AC865D1F81E0000F056FA41EC190B87
:102A90009FED5E0B53EC102B00F0F6F841EC180B99
:102AA00000F0C0F8584948660846B0F90E0000EE3C
:102AB000100AF8EEC00A9FED4F1A80EE810A10EE60
:102AC000100A08660846B0F91A0000EE100AB8EEBF
:102AD000C00ABDEEC00A10EE100AC8660846406D76
:102AE000A8B900224FF480514A48FEF711F900229C
:102AF0004FF400614748FEF70BF900224FF4806164
:102B00004448FEF705F94FF47A70FDF7F3FF3E48AD
:102B100090F85200E0B93C4890F852003E4981F8E4
:102B20005200394890F8530081F853003648406D00
:102B300048653548806D88653348C06DC865324842
:102B4000006E08663048406E48662F48C06EC86602
:102B50002D4890F8520001281CD12B4890F85200C3
:102B60002E4981F85200284890F8530081F853000C
:102B70002548406D48652448806D88652248C06DB1
:102B8000C8652148006E08661F48406E48661E48AA
:102B9000C06EC8661C4890F8520002281CD11A4822
:102BA00090F852001E4981F85200174890F85300DF
:102BB00081F853001448406D48651348806D88655E
:102BC0001148C06DC8651048006E08660E48406E1A
:102BD00048660D48C06EC86600BF1EB0BDEC048BD1
:102BE00010BD0000F40400201000002000000000D0
:102BF0000000804300000043F90FC94000008046F8
:102C0000000000450000804494000020F5DA7A8E30
:102C1000315FA440001C024020010020AC010020D4
:102C20003802002021F00042A2F16052B2F5801F6C
:102C300001F0004328BFD2F17F6C0BD95FEA001C82
:102C400043EAC20242EB507018BF704728BF20F021
:102C500001007047B2F5801FBCBF184670474FEAAD
:102C6000410C1CF5001F02D2084600F0F1BA70B505
:102C700000F024FA00000089FFF7F6BF4FF0004093
:102C8000A0F58000704700002DE9C04130B4DFF8A6
:102C9000A0C23CEA111418BF3CEA131400F0EC8007
:102CA00081EA03051CEA111444EAD57418BF1CEA32
:102CB000131500F0C780A4EB05044FF0004545EA6A
:102CC000C12145EAC32341EA505143EA525304F17A
:102CD0007F74994204F500344FEAC0204FEAC222C3
:102CE00008BF904200F09C804FEA13650FF2401637
:102CF000765D4FEA134506FB05F7C7F1807706FBC3
:102D000007F74FEAD737A7FB03687642C8F5803844
:102D1000A7FB06CE38BFA8F1010807FB08E64FF075
:102D2000000EA6FB028CE6FB03CEDCF1000CCEF11C
:102D3000004E38BFAEF1010EA6FB0C584FF0000755
:102D40004FF00005E6FB0E87A1FB08C6A0FB07CEEF
:102D500016EB0E0645F10005E1FB076515F1E04EA7
:102D60007EBFA4F580345FEA46066D4116F1800708
:102D700045F100054FEA17274FEA066647EA05675F
:102D8000A6F1DE46B6F1805F4FEA15251FD9384619
:102D900024F0010C05EBC471BCF1FE6F01EB0C11CA
:102DA00002D8F0BCBDE8008124425CBF01F5801E62
:102DB0009EEAC47F02D4F0BCBDE80081244238D42E
:102DC000F0BCA1F1C041BDE8004100F0C5B94FEA37
:102DD000D22242EA43524FEAD323A7FB02864FEAAC
:102DE000D02040EA415007FB03661EEA0E0F4FEA6F
:102DF000D12105FB026658BFA6EB0056B6EB005684
:102E00004FEA520E4EEAC37E18EB0E0E56EB530EEF
:102E1000BDD518EB02085E417F1C55F10005B6E7F1
:102E20004FF480154FF000074FF000064FF00008F8
:102E3000ADE7F0BC4FF0000001F1C04101F00041EE
:102E4000BDE8008111EA0C1F0CEA131500D00CE05C
:102E500013EA0C1F00F025804FF00000F0BC81EA5F
:102E6000030101F00041BDE80081F0BCBDE8004174
:102E700081EA030100F070B9F0BCBDE8004170B513
:102E800000F01CF9097EFC3E00F007B881EA03015E
:102E90004FF0000001F00041704781EA030100F0AB
:102EA0005BB9F0BCBDE800414FF00000214970471C
:102EB000FFFDFBF9F7F5F4F2F0EEEDEBE9E8E6E4FF
:102EC000E3E1E0DEDDDBDAD8D7D5D4D3D1D0CFCD86
:102ED000CCCBCAC8C7C6C5C4C2C1C0BFBEBDBCBBBF
:102EE000BAB9B8B7B6B5B4B3B2B1B0AFAEADACABBA
:102EF000AAA9A8A8A7A6A5A4A3A3A2A1A09F9F9E94
:102F00009D9C9C9B9A999998979796959594939345
:102F1000929191908F8F8E8E8D8C8C8B8B8A8989DC
:102F2000888887878685858484838382828181805F
:102F30000000FF070000F87F10F0004248BF404249
:102F4000B0FA80F310FA03F10AD0C3F11D0303F5C0
:102F500080634FEA415002EB035202EBD1217047EC
:102F60004FF0000070470000DFF848C170B51CEA60
:102F7000111E1EBF1CEA13159EEA0C0F95EA0C0FDA
:102F800000F06F8081EA030423EA4C134EEAD47EFA
:102F900021EA4C1141F4801143F48013AE44A1FBAB
:102FA000024CA0FB0365AEF17F7E361955EB0C0594
:102FB000A1FB034C4CF10003A0FB021C16EB0C061A
:102FC000654153F10003094218BF46F0010613F4AE
:102FD000007F0BD14FEA03314FEA0530340341EA59
:102FE000155140EA16506FF003020AE04FEAC32180
:102FF0004FEAC520F40241EA555140EA56506FF0BD
:10300000020202EB2E4201EB025585EACE710AD094
:103010005FEA440C18BF24F0004450F1000041F175
:10302000000120EAD47040F2FE7C624500D270BDFF
:10303000A84214BF4FF080444FF04044002E08BF18
:103040000024BEF1806FA8BFA1F1C041BDE870406F
:1030500080F282804FF0000001F1C04101F0004198
:1030600070479EEA0C0F0CEA131518BF95EA0C0F77
:1030700006D04FF0000081EA030E0EF0004170BD53
:1030800000F01CF88900013E00F007B800F009B814
:103090004FEA430C5FEA5C5C08D081EA030100F070
:1030A0005BB84FEA410C5FEA5C5CF6D14FF0000080
:1030B000014970470000FF070000F87F0EF1020E83
:1030C0002EF0030E5EF8046B364205D4012A43EB62
:1030D000030515F5001F12D8012841EB010C1CF562
:1030E000001F0CD80ED14FEAD17C15F5001F0CEB58
:1030F0004C0C0CF1020C08BF4CEBD37C04E04FF0FD
:10310000080C01E04FEAD37C0CEB4C0526FA05F6DF
:1031100006F00706B6F1040C06D20EEB860CBDE8ED
:1031200070404CF0010C6047DFE80CF0090B020224
:103130004FF000414FF00000A1F5002170BD19468D
:103140001046012851EB010418BFD4F5001484BFC8
:10315000002001F0004170BD0808A0F500114FEA01
:103160003101704743004FEAD30C4FEA3C0C434017
:103170001FBF40070CF1605113F0FE4F70471CF069
:10318000006F03D100200CF0004170470CF00043A9
:1031900043EA507010B540EACC0000F00EF800BFD2
:1031A000000000924FEA0001FFF7D6BF4FF0004148
:1031B0004FF00000A1F5002170470EF1020E2EF035
:1031C000030E5EF8044B244204D44FEA4102B2F1EC
:1031D0007F4F11D84FEA4003B3F17F4F0CD80ED187
:1031E0004FEAD07CB2F17F4F0CEB4C0C0CF1020C8F
:1031F00008BF4CEBD17C04E04FF0080C01E04FEA33
:10320000D17C0CEB4C0324FA03F404F00704B4F172
:10321000040C06D20EEB840CBDE810404CF0010CFF
:103220006047DFE80CF0070802024FF00040A0F50D
:10323000800010BD0846420018BFD2F1807288BFDE
:1032400000F0004010BD4FF04070E1EE100A7047F2
:10325000FF2141EAD050C005704700061016000655
:103260001016000000000000000001020304060721
:103270000809000000000102030400009C3200085D
:103280000000002010000000C4010008AC3200085B
:1032900010000020580D0000E001000800000000B0
:0C32A00010000000010000000024F400F9
:040000050800018965
:00000001FF
