:020000040800F2
:10000000480B00202902000853230008092000089B
:10001000512300081F040008792B0008000000008D
:10002000000000000000000000000000612900083E
:10003000E5040008000000005523000863290008BB
:10004000430200084302000843020008430200087C
:10005000430200084302000843020008430200086C
:10006000430200084302000843020008430200085C
:1000700021040008430200082D0400084302000880
:100080003904000845040008430200084302000840
:10009000430200084302000843020008430200082C
:1000A000430200084302000843020008430200081C
:1000B000430200084302000843020008430200080C
:1000C00043020008430200084302000843020008FC
:1000D00043020008430200084302000843020008EC
:1000E00043020008430200084302000843020008DC
:1000F00043020008430200084302000843020008CC
:1001000043020008430200084302000843020008BB
:1001100043020008430200084302000843020008AB
:10012000430200084302000851040008430200088B
:10013000430200084302000843020008430200088B
:10014000430200084302000843020008430200087B
:1001500043020008430200085D040008430200084F
:10016000430200084302000843020008430200085B
:100170004302000843020008430200080000000098
:10018000430200084302000800F002F800F03CF8C7
:100190000AA090E8000C82448344AAF10107DA45E2
:1001A00001D100F031F8AFF2090EBAE80F0013F0F8
:1001B000010F18BFFB1A43F001031847DC58000079
:1001C000FC580000103A24BF78C878C1FAD852070A
:1001D00024BF30C830C144BF04680C6070470000C1
:1001E0000023002400250026103A28BF78C1FBD840
:1001F000520728BF30C148BF0B6070471FB502F0DF
:10020000C9FD1FBD10B510BD00F0CFF81146FFF7B6
:10021000F5FF02F0C3FC00F0EDF803B4FFF7F2FFC6
:1002200003BC00F0F5F80000094880470948004782
:10023000FEE7FEE7FEE7FEE7FEE7FEE7FEE7FEE796
:10024000FEE7FEE704480549054A064B70470000F3
:10025000012A00088901000848050020480B0020F9
:10026000480700204807002053EA020C00F069808C
:100270002DE9F04B4FF00006002B1FBFB3FA83F5BA
:1002800003FA05F424FA05F65E4012BF1643B2FAEB
:1002900082F502FA05F4C5F120051EBF22FA05FC1D
:1002A00044EA0C04203556EA044C4FEA144418BFC3
:1002B000641C4FF000084FF00009904271EB030CF2
:1002C00039D3002919BFB1FA81F701FA07F6B0FA5C
:1002D00080F700FA07F6C7F120071EBF20FA07FCD7
:1002E00046EA0C062037B6FBF4FCA7EB0507103FE7
:1002F00007F01F0BCBF120060CFA0BFB2CFA06F6CD
:1003000044BFB3460026202FA4BF5E464FF0000B2B
:100310005BEA060C08BF4FF0010B19EB0B09ABFBB6
:10032000027C48EB0608C01B06FB02CC0BFB03CC8F
:1003300071EB0C01C1E70B46024641464846BDE859
:10034000F08B13B54FF000004FF00001AFF30080C9
:10035000BDE81C4070474FF0000200B513469446BC
:100360009646203922BFA0E80C50A0E80C50B1F10D
:100370002001BFF4F7AF090728BFA0E80C5048BF21
:100380000CC05DF804EB890028BF40F8042B08BFBF
:10039000704748BF20F8022B11F0804F18BF00F8BB
:1003A000012B7047704770477047754600F02CF876
:1003B000AE4605006946534620F00700854618B052
:1003C00020B5FFF73FFFBDE820404FF000064FF09B
:1003D00000074FF000084FF0000B21F00701AC467A
:1003E000ACE8C009ACE8C009ACE8C009ACE8C00999
:1003F0008D46704710B50446AFF300802046BDE837
:100400001040FFF70ABF000000487047E8040020D2
:1004100001491820ABBEFEE7260002007047FEE748
:10042000014800F0E9B9000028040020014800F06C
:10043000E3B9000088040020014800F0DDB90000A5
:1004400068030020014800F0D7B90000C80300206D
:10045000014800F0D1B90000A8020020014800F0D6
:10046000CBB900000803002001681823CAB2103A73
:10047000B2FBF3F2054B6FF30901032A9B5CC365E2
:1004800000D9091D816508467047000064570008BF
:1004900010B5014600208B698A6A4FF0C07453B1D1
:1004A000B3F5005F15D072B1012A0CD0022A0AD030
:1004B000032A09D104E01AB1012A06D0022A03D185
:1004C000C96AC90100D5012010BDC96AA142FAD08C
:1004D00010BD002AF7D0012AF2D0022AF3D0032A55
:1004E000F3D010BD704772B6FEE7000070B504008F
:1004F0007ED0A4492068884207D0A349884204D00E
:100500004FF48F71A14802F048FB207E30B10128E2
:1005100004D040F21F119D4802F03FFB607E30B1D5
:10052000012804D04FF49071984802F036FBA07E69
:1005300030B1012804D040F22111944802F02DFB83
:10054000E07E30B1012804D04FF491718F4802F061
:1005500024FB207F30B1012804D040F223118B48C6
:1005600002F01BFB607F30B1012804D04FF4927180
:10057000864802F012FBA06868B1B0F1804F0AD043
:10058000B0F1004F07D0B0F1404F04D040F2251138
:100590007E4802F002FBE06868B1B0F1807F0AD0CB
:1005A000B0F1007F07D0B0F1407F04D04FF49371D9
:1005B000764802F0F2FA206998B3B0F5803F30D067
:1005C000B0F5003F2DD0B0F5403F2AD0B0F5802FD8
:1005D00027D0B0F5A02F24D0B0F5C02F21D0B0F592
:1005E000E02F1ED0B0F5002F1BD0B0F5102F00E08B
:1005F00041E016D0B0F5202F13D0B0F5302F10D039
:10060000B0F5402F0DD0B0F5502F0AD0B0F5602FC7
:1006100007D0B0F5702F04D040F227115B4802F0EC
:10062000BCFA6069C8B1B0F5801F16D0B0F5001FE4
:1006300013D0B0F5401F10D0B0F5800F0DD0B0F53D
:10064000A00F0AD0B0F5C00F07D0B0F5E00F04D06E
:100650004FF494714D4802F0A0FA6068401EB0F566
:10066000806F04D340F22911484802F096FA94F8BA
:10067000200010B104E0012070BD204600F088F891
:100680002068016841F00101016000F067FC054647
:10069000052604E000F062FC401B0A2811D82068FF
:1006A0004068C007F6D02068016821F002010160AF
:1006B00000F054FC05460BE000F050FC401B0A28FB
:1006C00006D9606A40F40030606284F82060D2E7A6
:1006D000206840688007EFD4207E012820680168E8
:1006E0003DD021F080010160607E01282068016812
:1006F00038D021F040010160A07E01282068016807
:1007000033D021F020010160E07E012820680168DB
:100710002ED041F010010160207F0128206801687F
:1007200029D021F008010160607F0128206801685C
:1007300024D021F004010160D4E902010843D4E986
:100740000412114308436168491E08432168C861C7
:1007500000206062012084F82000002070BD41F07C
:100760008001C0E741F04001C5E741F02001CAE740
:1007700021F01001CFE741F00801D4E741F0040176
:10078000D9E7000000640040006800406C57000892
:1007900010B586B0044614216846FFF7DCFD134906
:1007A000206888421FD112480021026842F000727E
:1007B0000260006800F0007005900D481038026873
:1007C00042F0080202600068022200F00800059072
:1007D0000320CDE90210CDE900020920049069460A
:1007E000044800F03FFA06B010BD0000006400406D
:1007F00040380240000C02402DE9F84304464FF017
:100800000009CDF8009063484FF41651A56D0068BB
:10081000B0FBF1F72E6894F85C10082000FA01F1A3
:1008200031420FD021680A6852070BD50A6822F0BE
:1008300004020A6094F85C108840A860606D40F083
:100840000100606594F85C104FF0010808FA01F0AF
:10085000304208D021684969090604D5A860606D56
:1008600040F00200606594F85C100420884030423B
:1008700008D021680968890704D5A860606D40F038
:100880000400606594F85C1010208840304218D055
:1008900021680968090714D5A86020680168490320
:1008A00004D50068000308D5A16C07E00168C905FC
:1008B00003D4016821F008010160216C09B12046D0
:1008C000884794F85C1020208840304231D021685D
:1008D0000968C9062DD5A86094F835000528206858
:1008E000016806D0490347D5006800031DD4616C38
:1008F0001CE021F0160101602068416921F08001AF
:100900004161206C08B9A06C20B12068016821F019
:100910000801016094F85C103F208840A86084F8CA
:10092000358084F83490216D1FE0E16B09B12046D9
:100930008847606D00282BD0606DC00714D005205B
:1009400084F835002068016821F0010101600098F9
:10095000401C0090B84203D820680068C007F6D158
:1009600084F8358084F83490E16C002910D001B00F
:100970002046BDE8F04308470168C905D5D40168A1
:1009800021F01001016084F8358084F83490CCE7C0
:10099000BDE8F883000000202DE9F041044600F096
:1009A000DDFA0546002C7CD0A149206888423ED063
:1009B0009F49183188423AD09D493031884236D01B
:1009C0009B494831884232D09949603188422ED0C3
:1009D0009749783188422AD095499031884226D06B
:1009E0009349A831884222D0924988421FD0914928
:1009F000183188421BD08F493031884217D08D4939
:100A00004831884213D08B49603188420FD08949E0
:100A1000783188420BD087499031884207D0854988
:100A2000A831884203D0B721834802F0B6F8606845
:100A3000C0B1B0F1007F15D0B0F1806F12D0B0F12D
:100A4000C06F0FD0B0F1006F0CD0B0F1206F09D0A3
:100A5000B0F1406F06D0B0F1606F03D0B821764896
:100A600002F09BF8A06838B1402805D0802803D058
:100A7000B921714802F091F8E068B0F5007F04D028
:100A800018B1BA216C4802F088F82069B0F5806F7F
:100A900004D018B1BB21684802F07FF8606958B1F2
:100AA00000E06FE0B0F5006F06D0B0F5805F03D0D6
:100AB000BC21614802F071F8A06948B1B0F5005F4F
:100AC00006D0B0F5804F03D0BD215B4802F065F839
:100AD000E06940B1B0F5807F05D0202803D0BE2169
:100AE000554802F05AF8206A60B1B0F5803F09D04D
:100AF000B0F5003F06D0B0F5403F03D0BF214E48CF
:100B000002F04BF8606A88B3042805D0C0214A4837
:100B100002F043F8606A48B3A06A48B1012807D0E0
:100B2000022805D0032803D0C521434802F035F838
:100B3000E06A60B1B0F5000F09D0B0F1807F06D057
:100B4000B0F1C07F03D0C6213B4802F026F8206BED
:100B500060B1B0F5001F09D0B0F5800F06D0B0F538
:100B6000C00F03D0C721344802F017F8022084F8E0
:100B70003500002684F834602068016821F0010106
:100B800001600EE00120BDE8F08100BF00F0E6F951
:100B9000401B052805D920206065032084F8350016
:100BA000F1E720680068C007F0D122681168234887
:100BB0000140D4E901031843D4E903352B4318431A
:100BC00063691843A3691843E3691843236A184308
:100BD0000843616A042903D1D4E90B13194308437C
:100BE000106020684069656A20F0070029460543C7
:100BF000012704290CD1A06A0543E06A40B12046D0
:100C0000FFF746FC20B14020606584F83570B9E7F5
:100C1000206845612046FFF727FC94F85C203F21BF
:100C200091408160666584F835700020ABE7000074
:100C30001060024010640240C85800083F8010F065
:100C400070B5044600F08AF90546601C02D00448DD
:100C50000078044400F082F9401BA042FAD370BD32
:100C6000040000202DE9F84FDFF888B20D46044655
:100C700058451BD0A048844218D0A048844215D0C3
:100C80009F48844212D09F4884420FD09E4884429D
:100C90000CD09E48844209D09D48844206D09D488D
:100CA000844203D0AC219C4801F077FF28680104FE
:100CB000090C01D0000C03D0AD21974801F06DFF65
:100CC0006868F8B101281DD011281BD0022819D05E
:100CD000122817D0B0F5881F14D0B0F5041F11D01A
:100CE000B0F5441F0ED0B0F5901F0BD0B0F5081F23
:100CF00008D0B0F5481F05D0032803D0AE218648A0
:100D000001F04BFF00264FF0010A4FF0030900BF2E
:100D10000AFA06F02F688046074047457ED12879B9
:100D200000F00300012801D002281DD1E86848B175
:100D3000012807D0022805D0032803D0C021764817
:100D400001F02BFFA168720009FA02F08143E86804
:100D500090400843A0606068297920EA0800C1F348
:100D60000011B140014361602879C043800712D06F
:100D7000A86838B1012805D0022803D0D1216648DF
:100D800001F00BFFE168720009FA02F08143A868E4
:100D900090400843E060287900F0030002282ED13B
:100DA0002869F8B109281DD001281BD0022819D0C4
:100DB000032817D0042815D0052813D0062811D0F1
:100DC00007280FD008280DD00A280BD00B2809D0EF
:100DD0000C2807D00D2805D00F2803D0DE214E485F
:100DE00001F0DBFEF00804EB8002106A7107CB0E05
:100DF0000F21994088432969994001431162206875
:100E0000720009FA02F18843297901F00301914047
:100E100001432160686810F4403F00E063E062D065
:100E20003E48016841F480410160006826F00301FA
:100E300000F4804000903A480A18D2F80808B10738
:100E40000B0F0F21994088435C4501D1002123E01D
:100E500029498C4201D101211EE028498C4201D14F
:100E6000022119E026498C4201D1032114E02549D1
:100E70008C4201D104210FE023498C4201D105218C
:100E80000AE022498C4201D1062105E020498C422A
:100E900001D1072100E0082199400143C2F8081858
:100EA000204908686A68B843D20200D53843086010
:100EB0001C49091D08686A68B843920200D5384386
:100EC00008601849091F08686A68B843920300D58A
:100ED000384308601349083908686A68B843D20380
:100EE00000D538430860761C102EFFF411AFBDE822
:100EF000F88F000000000240000402400008024099
:100F0000000C024000100240001402400018024091
:100F1000001C02400020024054580008443802409F
:100F200000300140083C014070B515460C000646F3
:100F300004D140F29D11084801F02FFE45B1012D6A
:100F400004D04FF4CF71044801F027FEB46170BDA6
:100F50002004B06170BD000054580008014880684A
:100F600070470000040000200248816802781144A4
:100F700081607047040000200B4810B5016841F4FF
:100F800000710160016841F480610160016841F411
:100F900080710160032000F08BF80F2000F006F84C
:100FA00000F024F8002010BD003C024070B50D4D4B
:100FB00004464FF47A712878B1FBF0F00A490968C9
:100FC000B1FBF0F000F034FE48B9102C07D200223B
:100FD0002146501E00F038F800206C6070BD0120E2
:100FE00070BD000004000020000000200A4808B581
:100FF000016841F480410160006800F48040009085
:101000000548001F016841F080510160006800F050
:101010008050009008BD00004438024010B5040024
:1010200003D5BC21074801F0B8FD002C09DB04F012
:101030001F01012088406109890001F1E021C1F808
:10104000000110BD3C59000870B515460C46064617
:10105000102A03D3A821144801F09FFD102C03D3BC
:10106000A921114801F099FD10480068C0F302233E
:10107000C3F107022046042A00D90422191D0729BA
:1010800001D2002300E0DB1E012404FA02F1491E14
:10109000014099409C40641E2C4021433046BDE8ED
:1010A000704001F06ABD00003C5900080CED00E002
:1010B00010B5044607280BD0062C09D0052C07D004
:1010C000042C05D0032C03D09021084801F065FDC5
:1010D000074904F0070208684FF6FF03184040EA8A
:1010E0000220044A1043086010BD00003C5900086B
:1010F0000CED00E00000FA052DE9F0470E46040073
:101100007DD02068401E0E2804D940F25A217A482A
:1011100001F043FD96B1012E10D0022E0ED0032E09
:101120000CD0042E0AD0052E08D0062E06D0072E8D
:1011300004D040F25B21704801F02FFDDFF8BC8144
:10114000D8F80000F7B200F00700B04207D288F8E4
:101150000070D8F8000000F00700B0424FD12068BE
:10116000674D810729D5400703D5286840F4E05032
:1011700028602078000703D5286840F46040286084
:10118000A068A0B1802812D0902810D0A0280ED03E
:10119000B0280CD0C0280AD0D02808D0E02806D02B
:1011A000F02804D040F27E21534801F0F6FC286874
:1011B000A16820F0F000084328602078C00743D0E1
:1011C000DFF83C916068A9F1080988B1012822D0B4
:1011D000022824D0032822D040F28521464801F07D
:1011E000DCFC6068012816D0022818D0032816D02D
:1011F000D9F800008007002833DA286800E030E0E2
:10120000616820F0030008432860FFF7A7FE8146CD
:1012100041F2883A11E0D9F800008003EBE7D9F8F1
:1012200000008001E7E700BFFFF798FEA0EB09018F
:10123000514502D90320BDE8F0872868616800F0B5
:101240000C00B0EB810FEFD1D8F80010404601F050
:101250000701B14207D90770006800F00700B042EB
:1012600001D00120E7E720784FF4805640074FF483
:10127000A0574FF4C0584FF4E05914D5E06860B15E
:10128000B0420AD0B84208D0404506D0484504D004
:1012900040F2C321184801F080FC2868E16820F47E
:1012A000E050084328602078000715D5206960B118
:1012B000B0420AD0B84208D0404506D0484504D0D4
:1012C00040F2CA210C4801F068FC2868216920F42A
:1012D000604040EAC100286000F03AF82968094AF5
:1012E000C1F30311515CC840074908600748006812
:1012F000FFF75CFE00209EE7E0570008003C02403C
:10130000083802404C570008000000200800002068
:101310000448054900680968044AC1F38221515C08
:10132000C840704700000020083802405C570008A1
:101330000448054900680968044AC1F34231515C18
:10134000C840704700000020083802405C57000881
:10135000154810B5006810F00C02144813D0144959
:10136000042A0FD0082A0ED10F4C241F22682368AC
:1013700002F03F025B0207D52068C0F38810A0FB93
:10138000010106E0084610BD2168C1F38811A1FBE8
:1013900000010023FEF768FF2168C1F30141491CE9
:1013A0004900B0FBF1F010BD083802400024F40001
:1013B00040787D012DE9F84F04007DD020680F288A
:1013C00003D9E621F74801F0E8FB2078DFF8D8934D
:1013D000C007A9F1040555D060684FF480364FF47A
:1013E000A02738B1B04205D0B84203D0EB21ED4878
:1013F00001F0D3FBEC48001D0168C1F38101012914
:1014000008D00068C0F3810002280AD1D9F8000092
:10141000400206D52868800334D560680028CCD007
:1014200030E06068B04203D1286840F480300CE0BE
:10143000B842286803D140F480202860F4E720F403
:1014400080302860286820F480202860606860B1BF
:10145000FFF784FD064604E0FFF780FD801B64284B
:101460007ED828688003F7D50CE0FFF777FD0646A5
:1014700005E000BFFFF772FD801B6428F0D82868E4
:101480008003F7D42078DFF8248380074FF0000A28
:1014900056D5E06830B1012804D040F21D11C14892
:1014A00001F07BFB20691F2804D94FF48F71BD48E0
:1014B00001F073FBBC4800E092E0001D016811F0F0
:1014C0000C0F08D00068C0F38100022810D1D9F8B1
:1014D000000040020CD42868800702D5E06801288B
:1014E0007ED12868216920F0F80040EAC10017E0A9
:1014F000E068B8B10120C8F80000FFF72FFD0646EC
:1015000005E000BFFFF72AFD801B0228A8D8286845
:101510008007F7D5286820F0F801206941EAC0006B
:1015200028600DE0C8F800A0FFF718FD064604E0AB
:10153000FFF714FD801B022892D828688007F7D493
:10154000207800072ED5984E994F60697036D0B13B
:10155000012808D04FF4AF71924801F01EFB00E063
:10156000D6E0606978B101203860FFF7F7FC0746E4
:1015700005E000BFFFF7F2FCC01B0228C6D83068A8
:101580008007F7D50EE0C7F800A0FFF7E7FC074695
:1015900005E000BFFFF7E2FCC01B0228B6D83068A8
:1015A0008007F7D42078400776D5A068002740B19F
:1015B000012806D0052804D04FF4C571794801F000
:1015C000ECFADFF8E4B10BF13C0BDBF80000C000F3
:1015D0000DD4DBF8001041F08051CBF8001000E092
:1015E0001EE1DBF80000012700F080500090714EF2
:1015F0003068C00511D4306840F480703060FFF767
:10160000ADFC009006E000BFFFF7A8FC0099401A6F
:1016100002287DD83068C005F6D5634EA0686C36C8
:1016200001280FD00528306810D020F0010030606C
:10163000306820F004003060A068B8B1FFF78EFC7D
:1016400000900FE0306840F00100F4E740F0040043
:101650003060F7E7FFF782FC0099411A41F28830C9
:10166000814255D830688007F4D50EE0FFF776FC4C
:10167000009007E0FFF772FC0099411A41F28830B0
:10168000814245D830688007F4D42FB1DBF80010D0
:1016900021F08051CBF80010A069D0B3012808D008
:1016A000022806D040F2CD113E4801F076FAA0693A
:1016B00078B33D48001D0068C0F381000228A0698E
:1016C0006FD0022805D0C8F860A0FFF747FC044699
:1016D0007CE0E06938B1B0F5800F04D04FF4EB71D5
:1016E000304801F05AFA206A801E3D2804D940F2A1
:1016F000D7112C4801F051FA606A3238B0F5BF7F3B
:1017000004D94FF4EC71274801F047FAA06A01E0D0
:1017100059E087E002280AD0042808D0062806D01D
:10172000082804D040F2D9111E4801F036FAE06AC8
:10173000801E0D2804D94FF4ED711A4801F02DFADE
:101740004746C8F860A0FFF709FC064605E000BF61
:10175000FFF704FC801B022835D828688001F7D4E5
:10176000D4E907010843A16A134A490802EB014181
:10177000626A41EA8211084394F82C1040EA016140
:10178000C9F8001001203866FFF7E8FB044604E0C2
:10179000FFF7E4FB001B022815D828688001F7D565
:1017A00040E017E0E05700080438024000004742DC
:1017B000800E4742007000400000FFFFFFF7CEFBA5
:1017C000001B022802D90320BDE8F88F2868800199
:1017D000F4D427E00128F7D0D9F80000E26900F43A
:1017E000800191421CD1226A00F03F01914217D141
:1017F00047F6C071626A0140B1EB821F10D1A26A44
:101800004FF0FF3300F4403103EB5202B1EB024FD3
:1018100006D194F82C1000F07060B0EB016F01D08D
:101820000120D1E70020CFE770B504007ED08049C9
:10183000206888420AD07F49884207D07E49884282
:1018400004D04FF4A0717D4801F0A7F960684FF40F
:10185000827630B1B04204D040F24111774801F0B5
:101860009CF9A06850B1B0F5806F07D0B0F5004F7B
:1018700004D04FF4A171714801F08FF9E068B0F520
:10188000006F05D020B140F243116C4801F085F99A
:10189000A069B0F5007F08D038B1B0F5802F04D032
:1018A0004FF4A271654801F078F9E06990B1082819
:1018B00010D010280ED018280CD020280AD02828A4
:1018C00008D0302806D0382804D040F245115B48B3
:1018D00001F063F9206A30B1802804D04FF4A3717D
:1018E000564801F05AF9606A002540B3102806D026
:1018F00040F24711514801F050F9606AF8B1E069CF
:1019000090B1082810D010280ED018280CD020280C
:101910000AD0282808D0302806D0382804D040F231
:101920005911464801F039F9256100E005E065618B
:10193000A56294F8510070B335E0012070BD2069B4
:1019400030B1022804D04FF4A5713C4801F025F9CC
:10195000606930B1012804D040F24B11374801F0E2
:101960001CF96068B04217D1E0690028E0D008286F
:10197000DED01028DCD01828DAD02028D8D02828AB
:10198000D6D03028D4D03828D2D040F24F112B48AE
:1019900001F003F9CCE701E0E561C9E784F85050B4
:1019A000204600F04DF8022084F8510020680168BC
:1019B00021F040010160A088218900F4827001F4C7
:1019C00004410843A18901F400610843217C01F02E
:1019D00002010843217D01F001010843218B01F43C
:1019E00000710843217F01F03801084394F820106A
:1019F00001F080010843218D01F400510843216862
:101A00000860A069042101EA104094F8241001F054
:101A100010010843216848602068C16921F4006111
:101A2000C1616565012084F85100002070BD00008F
:101A30000030014000380040003C0040B059000830
:101A400010B586B0044614216846FEF784FC13499D
:101A50002068884220D112480021026842F4805256
:101A60000260006800F4805005900D481438026848
:101A700042F001020260006800F001000590A02021
:101A800000900220CDE9010103200390052004907D
:101A900069460448FFF7E6F806B010BD0030014083
:101AA00044380240000002402DE9F84F04468068A7
:101AB000984615468A46002638B1B0F5004F04D046
:101AC0004FF44271594801F068F894F85000012829
:101AD0000DD0012784F85070FFF740FA814694F842
:101AE00051004FF0000B012804D002269AE002209A
:101AF000BDE8F88FBAF1000F6FD0002D6DD0032034
:101B000084F85100C4F854B0C4F830A0A586E58626
:101B1000C4F838B0A4F83CB0A4F83EB0C4F844B05F
:101B2000C4F840B0A068B0F5004F09D12068016842
:101B300021F0400101602068016841F480410160AA
:101B400020680168490603D4016841F04001016042
:101B5000E068B0F5006F606803D058B3012D29D05C
:101B600049E008B1012D1FD1206B21680088C860B1
:101B700006E020688168890709D5216B0988C16062
:101B8000206B801C2063E08E401EE0860CE0FFF797
:101B9000E5F9A0EB0901414503D3B8F1FF3F03D0BC
:101BA00006E0B8F1000F03D0E08E0028E1D125E077
:101BB000032635E0206B21680078087306E0206872
:101BC000816889070AD5216B09780173206B401C55
:101BD0002063E08E401EE0860DE01FE0FFF7BEF9B7
:101BE000A0EB0901414503D3B8F1FF3F03D0DFE784
:101BF000B8F1000FDCD0E08E0028E0D14A46414623
:101C0000204600F0A9FB08B120206065A06818B943
:101C10002068C16880680090606D08B1012601E00D
:101C200084F8517084F850B0304661E7B05900082C
:101C300010B5401EB0F1807F01D3012010BD4FF0E0
:101C4000E02460610F21601700F097FF0020A06181
:101C500007202061002010BD70B5040023D0A069CA
:101C60003B4900283B4A3C4B3C4D20681DD08842F4
:101C70000CD090420AD0984208D0A84206D040F238
:101C80007311374800F089FFA06908B3A069B0F567
:101C9000807F1DD0B0F5007F1AD0B0F5407F17D0FF
:101CA0004FF4BA7111E0012070BD884210D090420B
:101CB0000ED098420CD02B49884209D02A4988423C
:101CC00006D0A84204D04FF4BC71254800F065FF4F
:101CD000A06838B1B0F5805F04D04FF4BD712048E2
:101CE00000F05BFFE06938B1B0F5004F04D040F27E
:101CF0007B111B4800F051FF94F84100002520B9EA
:101D000084F84050204600F031F8242084F8410047
:101D10002068C16821F40051C160204600F078FEBF
:101D20002068016921F4904101612068416921F036
:101D30002A0141612068C16841F40051C1606564B5
:101D4000202084F8410084F842006563002070BDC3
:101D500000100140004400400048004000140140D1
:101D6000245A0008004C0040005000402DE9F04F7C
:101D700087B0054614216846FEF7EDFA9948DFF86A
:101D800060820221D5F800C003220723DFF858E261
:101D900000248E0607154FF04009C4455DD1DFF8D9
:101DA00044C20CF1140CDCF8008048F01008CCF8A8
:101DB0000080DCF800C00CF0100CCDF814C0D0F896
:101DC00000C04CF0010CC0F800C0006800F0010039
:101DD000059050028DE8130069467046CDE9032353
:101DE000FEF740FFDFF8088280494046C8F800103F
:101DF000C0E90164C0E90347C8F81440C8F81840B6
:101E0000C8F81C40C8F82040C8F82440FEF7C4FDBC
:101E100008B1FEF768FBC5F83C80C8F83850DFF819
:101E2000D081724908F1600840467831C0E9034723
:101E3000C8F81440C8F81840C8F81C40C8F820403A
:101E400088E84202C8F82440C1E000BFC5F83880E5
:101E5000C8F8385007B0BDE8F08FDFF89881DFF898
:101E600084B1C4450BF1100B58D1DBF80080A246B9
:101E700048F40038CBF80080DBF800C00CF4003CDC
:101E8000CDF814C0D0F800C04CF0010CC0F800C070
:101E9000006800F0010005900C208DE813006946F1
:101EA0007046CDE90323FEF7DDFEDFF84481524999
:101EB00008F1C0084046C8F80010C0E90164C0E954
:101EC0000347C8F81440C8F81840C8F81C40C8F8C0
:101ED0002040C8F82440FEF75FFD08B1FEF703FB81
:101EE0004548464CC5F83C801830C8F8385084E85E
:101EF0004102C4E903A7C4F814A0C4F818A0C4F8A8
:101F00001CA0C4F820A02046C4F824A0FEF744FD7D
:101F100008B1FEF7E8FAAC63A5639BE7DFF8E08061
:101F2000C44597D1DBF8008048F48028CBF80080C6
:101F3000DBF800C00CF4802CCDF814C0D0F800C041
:101F40004CF0080CC0F800C0006800F008000590D4
:101F50004FF440708DE8130069462A48CDE9032309
:101F6000FEF780FEDFF89480234908F160086039AD
:101F70004046C8F80010C0E90164C0E90347C8F84A
:101F80001440C8F81840C8F81C40C8F82040C8F8E9
:101F90002440FEF701FD08B1FEF7A5FAC5F83C8024
:101FA000C8F83850DFF85480134908F1C00840469B
:101FB0003039C0E90347C8F81440C8F81840C8F8D9
:101FC0001C40C8F8204088E84202C8F82440FEF7C8
:101FD000E3FC00283FF43AAFFEF785FA36E700004D
:101FE00000100140303802400000024040640240CE
:101FF000A80200200044004088600240C80300207E
:1020000000480040000C0240FEE700000D4810B5FB
:102010000B4901601021416000218160C1600161B4
:102020004161017641768176C17601774177FEF78D
:102030005DFA002803D0BDE81040FEF754BA10BD89
:102040000064004050010020214808B5016841F4B7
:1020500080010160016801F480010091016841F490
:10206000001101600068002200F400100090114689
:102070000C20FEF7E9FF0C20FEF7D0FF00221146EE
:102080000E20FEF7E1FF0E20FEF7C8FF00221146EA
:102090001020FEF7D9FF1020FEF7C0FF00221146E6
:1020A0001120FEF7D1FF1120FEF7B8FF00221146E4
:1020B0003A20FEF7C9FF3A20FEF7B0FF0022114692
:1020C0004620FEF7C1FFBDE808404620FEF7A6BF48
:1020D000303802402DE9F04F87B014216846FEF7F2
:1020E0003AF959480024016841F010010160016883
:1020F00001F010010591016841F0040101600168DF
:1021000001F004010591016841F08001016001685E
:1021100001F080010591016841F001010160016851
:1021200001F001010591016841F0020101600168BF
:1021300001F002010591016841F0080101600068A9
:10214000DFF8089100F008000590002213214846AE
:10215000FEF7EAFEDFF8F8A0002202215046FEF763
:10216000E3FEDFF8F0B0002204215846FEF7DCFE63
:102170004FF42857012239463748FEF7D5FE4FF471
:102180008068002241463548FEF7CEFE4DF2FF50F2
:102190000325CDE90005694602942F48FEF762FD4C
:1021A0004FF6EC70CDE90005694602944846FEF70B
:1021B00059FD132000900126CDE901646946484687
:1021C0000394FEF74FFD49F65110CDE9000569462D
:1021D00002945046FEF746FD02200090CDE90164CE
:1021E000694650460394FEF73DFD4FF6FB70CDE97E
:1021F0000005694602945846FEF734FD042000901D
:10220000CDE90164694658460394FEF72BFD00971B
:10221000CDE90164694610480394FEF723FDCDF82B
:102220000080CDE9016469460C480394FEF71AFD6D
:102230004FF6FC00CDE90005694602940748FEF719
:1022400011FD07B0BDE8F08F3038024000080240B1
:10225000000002400004024000100240000C024056
:10226000104810B50E4901604FF4827141600021A1
:102270008160C1604FF400720161C0E9051218224B
:10228000C0E90721416281620A21C162FFF7CCFAED
:10229000002803D0BDE81040FEF725B910BD0000AE
:1022A00000300140780100200C4810B50A49016057
:1022B0004FF4E1314160002181600C22C160C0E92E
:1022C00004128161C161FFF7C7FC002803D0BDE89B
:1022D0001040FEF708B910BD00100140D0010020E9
:1022E0000C4810B50A4901604FF4E131416000210A
:1022F00081600C22C160C0E904128161C161FFF7F5
:10230000ABFC002803D0BDE81040FEF7ECB810BDD0
:1023100000440040180200200C4810B50A49016032
:102320004FF4E1314160002181600C22C160C0E9BD
:1023300004128161C161FFF78FFC002803D0BDE862
:102340001040FEF7D0B810BD0048004060020020E9
:10235000FEE7FEE770470000F8B515460E460B464F
:10236000009204460122022100F02CF8A0B9134883
:1023700013490068B0FBF1F04FF47A7148430090C4
:102380006068B0F5827F0DD133460022802120465F
:10239000009500F017F870B1606D40F020006065A6
:1023A0000320F8BD009830B1401E0090206880687E
:1023B000C0430006F6D50020F8BD00000000002054
:1023C00000366E012DE9F8431E46914688460446C4
:1023D000089DFEF7C3FD401B351AFEF7BFFD0746FB
:1023E00025480068C0F3CB30684338E0701C37D014
:1023F000FEF7B4FDC01BA84203D215B1009860B32C
:102400002CE02068416821F0E00141606068B0F58F
:10241000827F0BD1A068B0F5004F02D0B0F5806F7D
:1024200004D12068016821F040010160A06AB0F584
:10243000005F09D12068016821F400510160206823
:10244000016841F400510160012084F8510000202E
:1024500084F850000320BDE8F8830025401E00905A
:102460002068816838EA010004D000214945BDD1C7
:102470000020F0E70121F9E7000000202DE9FF4FDF
:1024800083B09846DDE910944A1E637825781A4493
:10249000D3B2421E2A44D2B2C9B2C0B200F0CAF9C5
:1024A0002C2000F01FFA002637E01F4884420598D0
:1024B00001D12E3800E0203800FB01606168002562
:1024C0004FEA192B51F820704FEA1820019008F0BC
:1024D000FF0009F0FF0A00901BE000BF07FA05F1BA
:1024E000102802D94FF0004001E04FF400400142B3
:1024F00006D001988DF8080000988DF8090003E0D7
:102500008DF808B08DF809A0022102A800F008FAA1
:102510006D1C2078A842E1D8761C6178B142C4D8FD
:1025200007B0BDE8F08F0000445700082DE9F041E6
:102530001E46069B002415461F0A134ADBB207E01D
:1025400002F8147002EB440C641C8CF80130A4B245
:10255000AC42F5D38A19521ED3B24219521ED2B2DE
:10256000C9B2C0B200F066F92C2000F0BBF900241B
:102570006D0005E02946044800F0D2F9641CA4B2BD
:10258000B442F7D3BDE8F081100000202DE9FC47EC
:102590009946DDE90A8416460F46054616E020787E
:1025A0002844A02803D960780025384487B2607891
:1025B000384450280DD8CDE900844B46394628468A
:1025C000FFF75CFF2078761C284485B23278002A19
:1025D000E5D1BDE8FC8708B5002100905023A0227A
:1025E0000846FFF7A3FF08BD10B500F00DF9112054
:1025F00000F078F97820FEF723FBB12000F072F9A3
:10260000012000F051F92C2000F04EF92D2000F0AF
:102610004BF9B22000F066F9012000F045F92C20BA
:1026200000F042F92D2000F03FF9B32000F05AF9F4
:10263000012000F039F92C2000F036F92D2000F0AF
:1026400033F9012000F030F92C2000F02DF92D2075
:1026500000F02AF9B42000F045F9072000F024F931
:10266000C02000F03FF9A22000F01EF9022000F087
:102670001BF9842000F018F9C12000F033F9C520BF
:1026800000F012F9C22000F02DF90A2000F00CF938
:10269000002000F009F9C32000F024F98A2000F09E
:1026A00003F92A2000F000F9C42000F01BF98A2069
:1026B00000F0FAF8EE2000F0F7F8C52000F012F96B
:1026C0000E2000F0F1F8212000F00CF93A2000F083
:1026D00009F9052000F0E8F82A2000F003F90020AD
:1026E00000F0E2F8002000F0DFF8002000F0DCF855
:1026F0007F2000F0D9F82B2000F0F4F8002000F043
:10270000D3F8002000F0D0F8002000F0CDF89F2092
:1027100000F0CAF8E02000F0E5F8022000F0C4F86C
:102720001C2000F0C1F8072000F0BEF8122000F0D5
:10273000BBF8372000F0B8F8322000F0B5F82920B7
:1027400000F0B2F82D2000F0AFF8292000F0ACF82E
:10275000252000F0A9F82B2000F0A6F8392000F081
:10276000A3F8002000F0A0F8012000F09DF803205D
:1027700000F09AF8102000F097F8E12000F0B2F88D
:10278000032000F091F81D2000F08EF8072000F0E3
:102790008BF8062000F088F82E2000F085F82C2019
:1027A00000F082F8292000F07FF82D2000F07CF85E
:1027B0002E2000F079F82E2000F076F8372000F077
:1027C00073F83F2000F070F8002000F06DF8002052
:1027D00000F06AF8022000F067F8102000F064F8BA
:1027E000132000F07FF80A20FEF72AFA292000F0D3
:1027F00079F80A20FEF724FA032000F03BF8BDE840
:1028000010400020FFF7E7BE10B5094C002202215E
:102810002046FEF789FB6420FEF712FA012202210E
:102820002046FEF781FBBDE810406420FEF708BAA1
:1028300000000240F8B5451C01F11A04571C03F1D1
:102840001A062A2000F04EF8002000908DF8015062
:102850008DF803700421684600F062F82B2000F028
:1028600041F88DF801408DF803600421684600F0BE
:1028700057F8F8BD10B5002430B1012806D0022861
:1028800006D0032807D105E0C82404E0A82402E00C
:10289000082400E06824362000F024F82046BDE833
:1028A000104000F001B8000031B50C4C012210219D
:1028B0002046FEF739FB002202212046FEF734FBBA
:1028C0004FF0FF33012269460548FFF7EDF801227A
:1028D00002212046FEF728FB38BD00000008024018
:1028E0007801002031B50C4C002210212046FEF763
:1028F0001BFB002202212046FEF716FB4FF0FF33A0
:10290000012269460548FFF7CFF80122022120463F
:10291000FEF70AFB38BD00000008024078010020E5
:1029200070B50D4E0D460446012210213046FEF7CB
:10293000FBFA002202213046FEF7F6FAAAB24FF067
:10294000FF3321460548FFF7AFF83046BDE8704039
:1029500001220221FEF7E8BA0008024078010020B7
:102960007047FEF701BB000030B593B030216846D8
:10297000FDF7F1FC14210CA8FDF7EDFC1E48002525
:10298000016841F080510160006800F080501190B2
:102990001A48016841F4804101600068022400F493
:1029A0008040119001200090000401908001CDE949
:1029B0000640192008904FF4A870CDE909040420BE
:1029C0000B906846FEF7F6FC08B172B6FEE70CA95C
:1029D0000F2081E831004FF4A0500F904FF4805049
:1029E000109005210CA8FEF787FB002801D072B6D5
:1029F000FEE713B030BD00004038024000700040D8
:102A00000248016841F470010160704788ED00E000
:102A100070B5044640685449884204D940F675614F
:102A2000524800F0BAF8E06838B1B0F5005F04D061
:102A300040F676614D4800F0B0F8206950B1B0F52D
:102A4000806F07D0B0F5C06F04D040F6776147487B
:102A500000F0A3F860694FF6F371084200D120B985
:102A600040F67861414800F098F820680169E26812
:102A700021F44051114301612169A068E2690843D2
:102A80006169114322680843D16849F20C63994394
:102A90000143D16020684169A26921F4407111436A
:102AA000416133492068884202D03249884202D1CC
:102AB000FEF73EFC01E0FEF72BFCE2690023192142
:102AC00064253226B2F5004F626828D0A0FB0101D0
:102AD000930F9200FDF7C8FB0146B0FBF5F06FF0D5
:102AE0001802504301EB800006EB0010B0FBF5F03C
:102AF00000F0F002B1FBF5F002EB0012B1FBF5F0D3
:102B00006FF01803584301EB800006EB0010B0FB98
:102B1000F5F000F00F0021681044886070BDA0FB44
:102B2000010192185B41FDF79FFB0146B0FBF5F0F8
:102B30000201B1FBF5F06FF01803584301EB800080
:102B400006EBC000B0FBF5F000F0F80002EB40022D
:102B5000B1FBF5F0584301EB800006EBC000B0FB81
:102B6000F5F000F00700D6E7A037A000245A0008CF
:102B70000010014000140140FEE70907090E00287B
:102B800004DB00F1E02080F80014704700F00F0033
:102B900000F1E02080F8141D704770471CB5FEF767
:102BA000EBF9FFF7E1FEFFF795FAFFF74DFAFFF7B4
:102BB00057FBFFF779FBFFF793FBFFF7ADFBFFF741
:102BC00025FAFFF711FD012211464E48FEF7ACF938
:102BD0000020FFF700FD4C4E4C4D00244FF6E079ED
:102BE00047F6EF384FF4784B4FF6FF7ACDE90046C1
:102BF00000214F464B4646A20846FFF7C7FC434616
:102C000045A200214B20CDE90045FFF7BFFC5B4604
:102C100043A200216E20CDE90045FFF7B7FC4346F3
:102C200041A200219120CDE90045FFF7AFFC4346CA
:102C30003EA20A214B20CDE90045FFF7A7FC4FF447
:102C4000FC633CA20A216E20CDE90045FFF79EFC03
:102C500043463AA20A219120CDE90045FFF796FCB0
:102C6000CDE9004600213B4629A20846FFF78EFC2D
:102C7000CDE90046434632A214210020FFF786FC2E
:102C8000CDE90046574653462EA214212220FFF7D5
:102C90007DFCCDE9004643462BA214214120FFF7DD
:102CA00075FCCDE900463B4626A214216E20FFF7B5
:102CB0006DFCCDE90046434625A214218C20FFF788
:102CC00065FC3B4623A228210020CDE90045FFF703
:102CD0005DFC3B4624A232210020CDE90045FFF7F0
:102CE00055FC3B4623A23C210020CDE90045FFF7DF
:102CF0004DFC3B4624A246210020CDE90045FFF7CC
:102D000045FC73E7000802403C57000834570008B0
:102D10005B494E49545D0000566275733A000000ED
:102D20004E4F2D4443000000205600004962757349
:102D30003A000000302E303000000000204100003A
:102D40004D305B00506F73005D4D315B0000000043
:102D50005D000000696E697420636F6D6D756E694A
:102D6000636174696F6E000070776D20696E206911
:102D70006E697400616273207370692063732070E0
:102D8000696E20696E6974006D6F746F722073656F
:102D9000747570004FF04070E1EE100A704700004B
:102DA0000000000000000000000000000000000023
:102DB0000000000000000000000000000000000013
:102DC00000000000000000000010000000100000E3
:102DD00000100000001000000010000000100000B3
:102DE00000000000001000000000000000000000D3
:102DF000002800000028000000280000000000005B
:102E000000000000000000000000000000000000C2
:102E1000000000000000000000240000002400006A
:102E2000007C00000024000000480000007C00003E
:102E30000048000000480000000000000000000002
:102E4000003800000054000000500000003800006E
:102E5000001400000054000000540000003800007E
:102E600000100000000000000020000000540000DE
:102E7000005800000030000000280000005400004E
:102E80000014000000080000000000000000000026
:102E900000100000002800000028000000100000C2
:102EA000003400000048000000480000003400002A
:102EB00000000000000000000010000000100000F2
:102EC00000100000000000000000000000000000F2
:102ED00000000000000000000000000000000000F2
:102EE000000800000010000000200000002000008A
:102EF0000020000000200000002000000020000052
:102F00000010000000080000002000000010000079
:102F10000008000000080000000800000008000091
:102F20000008000000080000001000000020000061
:102F30000010000000380000001000000028000011
:102F40000000000000000000000000000000000081
:102F50000000000000000000000000000000000071
:102F60000010000000100000007C000000100000B5
:102F70000010000000000000000000000000000041
:102F80000000000000000000000000000000000041
:102F90000000000000000000000000000010000021
:102FA0000010000000100000000000000000000001
:102FB00000000000000000000000000000380000D9
:102FC0000000000000000000000000000000000001
:102FD00000000000000000000000000000000000F1
:102FE00000000000000000000000000000100000D1
:102FF00000000000000000000008000000080000C1
:103000000010000000100000001000000010000080
:103010000020000000200000000000000000000070
:10302000003800000044000000440000005400008C
:10303000004400000044000000440000003800008C
:103040000000000000000000001000000030000040
:1030500000500000001000000010000000100000F0
:103060000010000000100000000000000000000040
:10307000003800000044000000440000000400008C
:10308000000800000010000000200000007C00008C
:1030900000000000000000000038000000440000B4
:1030A00000040000001800000004000000040000FC
:1030B0000044000000380000000000000000000094
:1030C0000008000000180000002800000028000090
:1030D00000480000007C000000080000000800001C
:1030E0000000000000000000007C00000040000024
:1030F0000040000000780000000400000004000010
:103100000044000000380000000000000000000043
:10311000003800000044000000400000007800007B
:10312000004400000044000000440000003800009B
:103130000000000000000000007C0000000400000F
:103140000008000000100000001000000020000037
:10315000002000000020000000000000000000002F
:103160000038000000440000004400000038000067
:10317000004400000044000000440000003800004B
:1031800000000000000000000038000000440000C3
:103190000044000000440000003C00000004000067
:1031A00000440000003800000000000000000000A3
:1031B00000000000000000000010000000000000FF
:1031C00000000000000000000000000000100000EF
:1031D00000000000000000000000000000000000EF
:1031E00000000000001000000000000000000000CF
:1031F000000000000010000000100000001000009F
:103200000000000000000000000C00000030000082
:103210000040000000300000000C00000000000032
:10322000000000000000000000000000000000009E
:1032300000000000007C000000000000007C000096
:10324000000000000000000000000000000000007E
:1032500000000000000000000060000000180000F6
:1032600000040000001800000060000000000000E2
:1032700000000000000000000038000000440000D2
:103280000004000000080000001000000010000012
:10329000000000000010000000000000000000001E
:1032A0000038000000440000004C00000054000002
:1032B000005C0000004000000040000000380000FA
:1032C00000000000000000000010000000280000C6
:1032D000002800000028000000280000007C0000FA
:1032E0000044000000440000000000000000000056
:1032F0000078000000440000004400000078000056
:103300000044000000440000004400000078000079
:103310000000000000000000003800000044000031
:10332000004000000040000000400000004000009D
:103330000044000000380000000000000000000011
:10334000007000000048000000440000004400003D
:10335000004400000044000000480000007000002D
:103360000000000000000000007C000000400000A1
:1033700000400000007C0000004000000040000011
:1033800000400000007C0000000000000000000081
:10339000007C0000004000000040000000780000B9
:1033A000004000000040000000400000004000001D
:1033B0000000000000000000003800000044000091
:1033C0000040000000400000005C000000440000DD
:1033D0000044000000380000000000000000000071
:1033E000004400000044000000440000007C000095
:1033F00000440000004400000044000000440000BD
:103400000000000000000000003800000010000074
:10341000001000000010000000100000001000006C
:103420000010000000380000000000000000000054
:10343000000400000004000000040000000400007C
:1034400000040000000400000044000000380000F8
:1034500000000000000000000044000000480000E0
:103460000050000000600000005000000048000014
:1034700000480000004400000000000000000000C0
:10348000004000000040000000400000004000003C
:10349000004000000040000000400000007C0000F0
:1034A000000000000000000000440000006C00006C
:1034B000006C0000005400000044000000440000C4
:1034C0000044000000440000000000000000000074
:1034D000004400000064000000640000005400008C
:1034E00000540000004C0000004C000000440000AC
:1034F0000000000000000000003800000044000050
:1035000000440000004400000044000000440000AB
:10351000004400000038000000000000000000002F
:103520000078000000440000004400000044000057
:103530000078000000400000004000000040000053
:1035400000000000000000000038000000440000FF
:10355000004400000044000000440000004400005B
:1035600000540000003800000004000000000000CB
:103570000078000000440000004400000044000007
:1035800000780000004800000048000000440000EF
:1035900000000000000000000038000000440000AF
:1035A000004000000030000000080000000400009F
:1035B000004400000038000000000000000000008F
:1035C000007C00000010000000100000001000004F
:1035D00000100000001000000010000000100000AB
:1035E0000000000000000000004400000044000053
:1035F00000440000004400000044000000440000BB
:10360000004400000038000000000000000000003E
:1036100000440000004400000044000000280000B6
:10362000002800000028000000100000001000002A
:103630000000000000000000004400000044000002
:10364000005400000054000000540000006C000012
:10365000002800000028000000000000000000001A
:1036600000440000002800000028000000100000B6
:1036700000100000002800000028000000440000A6
:1036800000000000000000000044000000440000B2
:1036900000280000002800000010000000100000BA
:1036A00000100000001000000000000000000000FA
:1036B000007C000000040000000800000010000072
:1036C000001000000020000000400000007C00000E
:1036D00000000000000000000018000000100000C2
:1036E000001000000010000000100000001000009A
:1036F0000010000000100000001000000018000082
:103700000020000000200000001000000010000059
:103710000010000000100000000800000008000079
:103720000000000000000000003000000010000059
:103730000010000000100000001000000010000049
:103740000010000000100000001000000030000019
:1037500000100000002800000028000000440000C5
:103760000000000000000000000000000000000059
:103770000000000000000000000000000000000049
:103780000000000000000000000000000000000039
:1037900000000000000000000000000000FE00002B
:1037A00000200000001000000000000000000000E9
:1037B0000000000000000000000000000000000009
:1037C00000000000000000000000000000000000F9
:1037D0000038000000440000003C000000440000ED
:1037E000004C000000340000000000000000000059
:1037F000004000000040000000580000006400008D
:103800000044000000440000006400000058000074
:1038100000000000000000000000000000000000A8
:10382000003800000044000000400000004000009C
:10383000004400000038000000000000000000000C
:10384000000400000004000000340000004C0000F0
:103850000044000000440000004C00000034000060
:103860000000000000000000000000000000000058
:103870000038000000440000007C00000040000010
:1038800000440000003800000000000000000000BC
:10389000000C000000100000007C00000010000080
:1038A00000100000001000000010000000100000D8
:1038B0000000000000000000000000000000000008
:1038C00000340000004C00000044000000440000F0
:1038D000004C0000003400000004000000780000EC
:1038E000004000000040000000580000006400009C
:1038F00000440000004400000044000000440000B8
:1039000000000000000000000010000000000000A7
:103910000070000000100000001000000010000007
:103920000010000000100000000000000000000077
:1039300000100000000000000070000000100000F7
:103940000010000000100000001000000010000037
:103950000010000000E000000040000000400000F7
:10396000004800000050000000600000005000000F
:1039700000480000004400000000000000000000BB
:103980000070000000100000001000000010000097
:1039900000100000001000000010000000100000E7
:1039A0000000000000000000000000000000000017
:1039B0000078000000540000005400000054000093
:1039C000005400000054000000000000000000004F
:1039D000000000000000000000580000006400002B
:1039E00000440000004400000044000000440000C7
:1039F00000000000000000000000000000000000C7
:103A000000380000004400000044000000440000B2
:103A1000004400000038000000000000000000002A
:103A200000000000000000000058000000640000DA
:103A30000044000000440000006400000058000042
:103A400000400000004000000000000000000000F6
:103A500000340000004C000000440000004400005E
:103A6000004C0000003400000004000000040000CE
:103A7000000000000000000000580000006400008A
:103A80000040000000400000004000000040000036
:103A90000000000000000000000000000000000026
:103AA0000038000000440000003000000008000062
:103AB000004400000038000000000000000000008A
:103AC000002000000020000000780000002000001E
:103AD000002000000020000000200000001800006E
:103AE00000000000000000000000000000000000D6
:103AF00000440000004400000044000000440000B6
:103B0000004C000000340000000000000000000035
:103B1000000000000000000000440000004400001D
:103B2000002800000028000000280000001000000D
:103B30000000000000000000000000000000000085
:103B4000005400000054000000540000006C00000D
:103B50000028000000280000000000000000000015
:103B600000000000000000000044000000280000E9
:103B700000100000001000000028000000440000B9
:103B80000000000000000000000000000000000035
:103B9000004400000044000000280000002800004D
:103BA0000010000000100000001000000060000085
:103BB0000000000000000000007C00000008000081
:103BC000001000000020000000400000007C000009
:103BD00000000000000000000018000000100000BD
:103BE0000010000000100000002000000020000075
:103BF000001000000010000000100000001800007D
:103C00000010000000100000001000000010000074
:103C10000010000000100000001000000010000064
:103C20000010000000100000003000000010000034
:103C30000010000000100000000800000008000054
:103C40000010000000100000001000000030000014
:103C500000000000000000000000000000740000F0
:103C6000004C000000000000000000000000000008
:103C70000000000000000000000000000000000044
:103C80000000000000000000000000000000000034
:103C90000000000000000000000000000000000024
:103CA0000000000000000000000000000000000014
:103CB0000000000000000000000000000000000004
:103CC00000000000000C0000000C0000000C0000D0
:103CD000000C0000000C0000000C0000000C0000B4
:103CE000000C0000000C0000000C0000000C0000A4
:103CF00000000000000C0000000C000000000000AC
:103D0000000000000000000000000000001B000098
:103D1000001B0000001B0000001B0000001B000037
:103D20000000000000000000000000000000000093
:103D30000000000000000000000000000000000083
:103D40000000000000000000000000000000000073
:103D50000000000080190000801900008019000098
:103D600080190000C07F0000C07F000080190000A3
:103D700000330000C07F0000C07F0000003300005F
:103D8000003300000033000000330000000000009A
:103D9000000000000000000000000000001E000005
:103DA000003F000080750000806500000074000086
:103DB000003C0000001E000000070000800500001D
:103DC000806500008065000080750000003F0000F5
:103DD000001E0000000400000004000000000000BD
:103DE000000000000070000000D8000040D8000073
:103DF000C0D8000080D90000007300000006000059
:103E0000000C0000801B0000C0360000C0660000EF
:103E1000C0460000C0060000800300000000000053
:103E2000000000000000000000000000001E000074
:103E3000003F0000003300000033000000330000AA
:103E4000001E0000000C0000C03C0000C066000026
:103E5000806300008061000080630000C03E0000BD
:103E6000801C0000000000000000000000000000B6
:103E700000000000000C0000000C0000000C00001E
:103E8000000C0000000C000000000000000000001A
:103E90000000000000000000000000000000000022
:103EA0000000000000000000000000000000000012
:103EB0000000000000000000800000000001000081
:103EC00000030000000600000006000000040000DF
:103ED000000C0000000C0000000C0000000C0000B2
:103EE000000C0000000C00000004000000060000B0
:103EF0000006000000030000000100008000000038
:103F0000002000000010000000180000000C00005D
:103F1000000C000000040000000600000006000085
:103F20000006000000060000000600000006000079
:103F300000040000000C0000000C0000001800004D
:103F4000001000000020000000000000000C000035
:103F5000002D0000003F0000001E000000330000A4
:103F60000000000000000000000000000000000051
:103F70000000000000000000000000000000000041
:103F80000000000000000000000000000000000031
:103F9000000000000000000000000000000C000015
:103FA000000C0000000C0000000C0000C0FF00002E
:103FB000C0FF0000000C0000000C0000000C00001E
:103FC000000C0000000000000000000000000000E5
:103FD00000000000000000000000000000000000E1
:103FE00000000000000000000000000000000000D1
:103FF00000000000000000000000000000000000C1
:10400000000000000000000000000000000C0000A4
:10401000000C000000040000000400000008000084
:104020000000000000000000000000000000000090
:104030000000000000000000000000000000000080
:1040400000000000001E0000001E00000000000034
:104050000000000000000000000000000000000060
:104060000000000000000000000000000000000050
:104070000000000000000000000000000000000040
:104080000000000000000000000000000000000030
:10409000000000000000000000000000000C000014
:1040A000000C000000000000000000000000000004
:1040B00000000000000300000003000000030000F7
:1040C00000060000000600000006000000060000D8
:1040D000000C0000000C0000000C0000000C0000B0
:1040E0000018000000180000001800000000000088
:1040F000000000000000000000000000001E0000A2
:10410000003F00000033000080610000806100007B
:1041100080610000806D0000806D00008061000003
:10412000806100008061000000330000003F00005B
:10413000001E000000000000000000000000000061
:104140000000000000060000000E0000001E00003D
:1041500000360000002600000006000000060000F7
:104160000006000000060000000600000006000037
:10417000000600000006000000060000000000002D
:10418000000000000000000000000000001E000011
:10419000003F00008073000080610000806100002B
:1041A000800100000003000000060000000C000079
:1041B000001800000030000000600000807F000058
:1041C000807F0000000000000000000000000000F0
:1041D00000000000001C0000003E00000063000022
:1041E0000063000000030000000E0000000E00004D
:1041F00000030000800100008001000080610000D9
:1042000080730000003F0000001E0000000000005E
:104210000000000000000000000000000006000098
:10422000000E0000000E0000001E0000001E000036
:104230000016000000360000003600000066000096
:10424000807F0000807F0000000600000006000064
:104250000006000000000000000000000000000058
:1042600000000000007F0000007F000000600000F0
:104270000060000000600000006E0000007F000091
:104280008063000080010000800100008061000068
:1042900080730000003F0000001E000000000000CE
:1042A000000000000000000000000000001E0000F0
:1042B000003F0000803300008061000000600000CB
:1042C000006E0000007F000080730000806100002D
:1042D000806100008061000080330000003F00002A
:1042E000001E0000000000000000000000000000B0
:1042F00000000000807F0000807F0000800100003F
:10430000000300000003000000060000000600009B
:10431000000C0000000C0000000C00000008000071
:104320000018000000180000001800000000000045
:10433000000000000000000000000000001E00005F
:10434000003F000080630000806100008061000089
:1043500000210000001E0000003F000080610000FE
:10436000806100008061000080610000003F00006B
:10437000001E00000000000000000000000000001F
:1043800000000000001E0000003F0000007300005D
:104390008061000080610000806100008073000087
:1043A000803F0000801D000080010000806100004F
:1043B00000730000003F0000001E0000000000002D
:1043C00000000000000000000000000000000000ED
:1043D000000000000000000000000000000C0000D1
:1043E000000C0000000000000000000000000000C1
:1043F000000000000000000000000000000C0000B1
:10440000000C0000000000000000000000000000A0
:10441000000000000000000000000000000000009C
:104420000000000000000000000C0000000C000074
:10443000000000000000000000000000000000007C
:1044400000000000000C0000000C00000004000050
:104450000004000000080000000000000000000050
:104460000000000000000000800000008003000049
:10447000000E00000038000000600000003800005E
:10448000000E00008003000080000000000000001B
:10449000000000000000000000000000000000001C
:1044A000000000000000000000000000000000000C
:1044B00000000000807F0000807F000000000000FE
:1044C00000000000807F0000807F000000000000EE
:1044D00000000000000000000000000000000000DC
:1044E00000000000000000000000000000000000CC
:1044F000000000000000000000400000007000000C
:10450000001C000000070000800100000007000000
:10451000001C0000007000000040000000000000CF
:10452000000000000000000000000000000000008B
:1045300000000000001F0000803F0000C07100006C
:10454000C0600000C0000000C00100008003000047
:1045500000070000000E0000000C0000000C00002E
:1045600000000000000C0000000C00000000000033
:10457000000000000000000000000000001E00001D
:10458000003F000080310000807100008063000067
:10459000806F0000806D0000806D0000806F000063
:1045A000806700000060000000320000003E000054
:1045B000001C0000000000000000000000000000DF
:1045C00000000000000E0000000E0000001B0000B4
:1045D000001B0000001B0000001B000080310000D9
:1045E00080310000803F0000803F000080310000EB
:1045F000C0600000C0600000C0600000000000005B
:10460000000000000000000000000000007C00002E
:10461000007E0000006300000063000000630000F3
:1046200000630000007E0000007E000000630000C8
:10463000806100008061000080630000007F000056
:10464000007E0000000000000000000000000000EC
:1046500000000000001E0000003F0000803100004C
:104660008061000000600000006000000060000049
:104670000060000000600000006000008061000039
:1046800080310000003F0000001E0000000000001C
:10469000000000000000000000000000007C00009E
:1046A000007F000000630000806300008061000064
:1046B0008061000080610000806100008061000076
:1046C000806100000063000000630000007E0000C5
:1046D000007C00000000000000000000000000005E
:1046E00000000000807F0000807F0000006000006C
:1046F000006000000060000000600000007F00001B
:10470000007F00000060000000600000006000000A
:1047100000600000807F0000807F0000000000003B
:10472000000000000000000000000000807F00008A
:10473000807F00000060000000600000006000005A
:1047400000600000007F0000007F000000600000AB
:1047500000600000006000000060000000600000D9
:1047600000600000000000000000000000000000E9
:1047700000000000001E0000003F0000803100002B
:104780008061000000600000006000000060000028
:104790008063000080630000806100008061000091
:1047A00080310000803F0000001E0000000000007B
:1047B0000000000000000000000000008061000018
:1047C0008061000080610000806100008061000065
:1047D00080610000807F0000807F00008061000019
:1047E0008061000080610000806100008061000045
:1047F00080610000000000000000000000000000D8
:1048000000000000003F0000003F0000000C00001E
:10481000000C0000000C0000000C0000000C000068
:10482000000C0000000C0000000C0000000C000058
:10483000000C0000003F0000003F000000000000EE
:1048400000000000000000000000000080010000E7
:104850008001000080010000800100008001000054
:104860008001000080010000800100008001000044
:10487000806100008061000080730000003F000044
:10488000001E00000000000000000000000000000A
:1048900000000000C06000008061000000630000B4
:1048A0000066000000660000006C00000078000058
:1048B000007C00000066000000660000006300004D
:1048C0008061000080610000C06000000000000006
:1048D0000000000000000000000000000060000078
:1048E0000060000000600000006000000060000048
:1048F0000060000000600000006000000060000038
:10490000006000000060000000600000807F000088
:10491000807F000000000000000000000000000098
:1049200000000000C0710000C0710000C07B0000EA
:10493000C07A0000C06A0000C06A0000C06E0000BB
:10494000C0640000C0600000C0600000C0600000E3
:10495000C0600000C0600000C060000000000000F7
:104960000000000000000000000000008071000056
:10497000807100008079000080790000807900005B
:10498000806D0000806D0000806D0000806500007B
:10499000806700008067000080670000806300007F
:1049A0008063000000000000000000000000000024
:1049B00000000000001E0000003F00000033000067
:1049C0008061000080610000806100008061000063
:1049D0008061000080610000806100008061000053
:1049E00000330000003F0000001E00000000000037
:1049F000000000000000000000000000007E000039
:104A0000007F000080630000806100008061000082
:104A10008061000080630000007F0000007E0000D5
:104A20000060000000600000006000000060000006
:104A30000060000000000000000000000000000016
:104A400000000000001E0000003F000000330000D6
:104A500080610000806100008061000080610000D2
:104A600080610000806100008065000080670000B8
:104A700000330000803F0000401E000000000000E6
:104A8000000000000000000000000000007E0000A8
:104A9000007F0000806300008061000080610000F2
:104AA00080630000007F0000007E000000660000C0
:104AB000006300000063000080610000806100006E
:104AC000C0600000000000000000000000000000C6
:104AD00000000000000E0000001F000080310000F8
:104AE000803100000030000000380000001E00008F
:104AF000000700008003000080610000806100006A
:104B000080310000003F0000001E00000000000097
:104B1000000000000000000000000000C0FF0000D6
:104B2000C0FF0000000C0000000C0000000C0000A2
:104B3000000C0000000C0000000C0000000C000045
:104B4000000C0000000C0000000C0000000C000035
:104B5000000C000000000000000000000000000049
:104B600000000000806100008061000080610000A2
:104B700080610000806100008061000080610000B1
:104B800080610000806100008061000080610000A1
:104B900080730000003F0000001E000000000000C5
:104BA000000000000000000000000000C0600000E5
:104BB000C0600000C0600000803100008031000053
:104BC00080310000001B0000001B0000001B0000E3
:104BD000001B0000000E0000000E0000000E000090
:104BE00000040000000000000000000000000000C1
:104BF00000000000C0C00000C0C00000C0C0000035
:104C0000C0C00000C0C00000C0CC0000804C00004C
:104C1000804C0000805E0000805200008052000046
:104C200080730000806100008061000000000000CF
:104C3000000000000000000000000000C0C00000F4
:104C4000806000008061000000330000003B000035
:104C5000001E0000000C0000000C0000001E000000
:104C6000001F0000003B0000807100008061000018
:104C7000C0C00000000000000000000000000000B4
:104C800000000000C0C000008061000080610000E2
:104C90000033000000330000001E0000001E000072
:104CA000000C0000000C0000000C0000000C0000D4
:104CB000000C0000000C0000000C000000000000D0
:104CC000000000000000000000000000803F000025
:104CD000803F00008001000000030000000300008E
:104CE00000060000000C0000000C0000001800008E
:104CF000001800000030000000600000807F00000D
:104D0000807F0000000000000000000000000000A4
:104D1000000F0000000F0000000C0000000C00005D
:104D2000000C0000000C0000000C0000000C000053
:104D3000000C0000000C0000000C0000000C000043
:104D4000000C0000000C0000000C0000000C000033
:104D5000000F0000000F000000000000001800001D
:104D60000018000000180000000C0000000C0000FB
:104D7000000C0000000C000000060000000600000F
:104D80000006000000060000000300000003000011
:104D90000003000000000000000000000000000010
:104DA000001E0000001E00000006000000060000BB
:104DB00000060000000600000006000000060000DB
:104DC00000060000000600000006000000060000CB
:104DD00000060000000600000006000000060000BB
:104DE000001E0000001E000000000000000C00007B
:104DF000000C0000001E0000001200000033000044
:104E000000330000806100008061000000000000AD
:104E10000000000000000000000000000000000092
:104E20000000000000000000000000000000000082
:104E30000000000000000000000000000000000072
:104E40000000000000000000000000000000000062
:104E50000000000000000000000000000000000052
:104E60000000000000000000000000000000000042
:104E7000E0FF00000000000000000000003800001B
:104E800000180000000C00000000000000000000FE
:104E90000000000000000000000000000000000012
:104EA0000000000000000000000000000000000002
:104EB00000000000000000000000000000000000F2
:104EC00000000000000000000000000000000000E2
:104ED00000000000001F0000803F00008061000013
:104EE00080010000801F0000803F00008061000002
:104EF00080630000807F0000C038000000000000D8
:104F00000000000000000000000000000060000041
:104F1000006000000060000000600000006E000003
:104F2000007F00008073000080610000806100004D
:104F3000806100008061000080730000007F00003D
:104F4000006E0000000000000000000000000000F3
:104F50000000000000000000000000000000000051
:104F600000000000001E0000003F000080730000F1
:104F700080610000006000000060000080610000AF
:104F800080730000003F0000001E000000000000D1
:104F90000000000000000000000000008001000090
:104FA000800100008001000080010000801D0000E1
:104FB000803F00008073000080610000806100007D
:104FC000806100008061000080730000803F00006D
:104FD000801D000000000000000000000000000034
:104FE00000000000000000000000000000000000C1
:104FF00000000000001E0000003F000000730000E1
:1050000080610000807F0000807F00000060000061
:1050100080710000003F0000001E00000000000042
:10502000000000000000000000000000C0070000B9
:10503000C00F0000000C0000000C0000807F00008A
:10504000807F0000000C0000000C0000000C00003D
:10505000000C0000000C0000000C0000000C000020
:10506000000C000000000000000000000000000034
:105070000000000000000000000000000000000030
:10508000801D0000803F00008073000080610000F0
:10509000806100008061000080610000807300007A
:1050A000803F0000801D0000800100008063000040
:1050B000007F0000003E00000000000000600000D3
:1050C000006000000060000000600000006F000051
:1050D000807F00008071000080610000806100001E
:1050E000806100008061000080610000806100003C
:1050F00080610000000000000000000000000000CF
:105100000000000000060000000600000000000093
:1051100000000000003E0000003E0000000600000D
:105120000006000000060000000600000006000067
:10513000000600000006000000060000000000005D
:105140000000000000000000000600000006000053
:105150000000000000000000003E0000003E0000D3
:105160000006000000060000000600000006000027
:105170000006000000060000000600000006000017
:105180000006000000460000007E0000003C000019
:1051900000000000006000000060000000600000EF
:1051A00000600000806100000063000000660000F5
:1051B000006C0000007C000000760000006300002E
:1051C0000063000080610000C0600000000000007B
:1051D000000000000000000000000000003E000091
:1051E000003E00000006000000060000000600006F
:1051F0000006000000060000000600000006000097
:105200000006000000060000000600000006000086
:105210000006000000000000000000000000000088
:10522000000000000000000000000000000000007E
:105230000000000080DD0000C0FF0000C0CE0000C4
:10524000C0CC0000C0CC0000C0CC0000C0CC00002E
:10525000C0CC0000C0CC0000C0CC000000000000AA
:10526000000000000000000000000000000000003E
:10527000000000000000000000000000006F0000BF
:10528000807F00008071000080610000806100006C
:10529000806100008061000080610000806100008A
:1052A000806100000000000000000000000000001D
:1052B00000000000000000000000000000000000EE
:1052C00000000000001E0000003F0000807300008E
:1052D000806100008061000080610000806100004A
:1052E00080730000003F0000001E0000000000006E
:1052F00000000000000000000000000000000000AE
:105300000000000000000000006E0000007F0000B0
:1053100080730000806100008061000080610000F7
:105320008061000080730000007F0000006E0000BC
:1053300000600000006000000060000000600000ED
:10534000000000000000000000000000000000005D
:10535000801D0000803F000080730000806100001D
:1053600080610000806100008061000080730000A7
:10537000803F0000801D00008001000080010000CF
:10538000800100008001000000000000000000001B
:1053900000000000000000000000000000670000A6
:1053A000803F0000003900000030000000300000A5
:1053B000003000000030000000300000003000002D
:1053C00000300000000000000000000000000000AD
:1053D00000000000000000000000000000000000CD
:1053E00000000000001E0000803F000080610000FF
:1053F00000600000007F0000803F0000800100008E
:1054000080610000007F0000001E0000000000001E
:10541000000000000000000000000000000000008C
:10542000000800000018000000180000007F0000C5
:10543000007F0000001800000018000000180000A5
:10544000001800000018000000180000801F000075
:10545000800F0000000000000000000000000000BD
:10546000000000000000000000000000000000003C
:105470000000000080610000806100008061000089
:105480008061000080610000806100008061000098
:1054900080630000807F0000803D0000000000006D
:1054A00000000000000000000000000000000000FC
:1054B000000000000000000000000000C0600000CC
:1054C000803100008031000080310000001B0000AE
:1054D000001B0000001B0000000E0000000E00007A
:1054E00000060000000000000000000000000000B6
:1054F00000000000000000000000000000000000AC
:105500000000000080DD000080DD000080DD000084
:105510000055000000550000005500000077000015
:1055200000770000002200000022000000000000C0
:10553000000000000000000000000000000000006B
:10554000000000000000000000000000806100007A
:105550000033000000330000001E0000000C0000BB
:10556000000C0000001E00000033000000330000AB
:10557000806100000000000000000000000000004A
:10558000000000000000000000000000000000001B
:105590008061000080610000803100000033000065
:1055A00000330000001B0000001B0000001B000077
:1055B000000E0000000E0000000E0000001C0000A5
:1055C000007C0000007000000000000000000000EF
:1055D000000000000000000000000000C07F00008C
:1055E000C07F0000800100000003000000060000F2
:1055F000000C00000018000000300000C07F000018
:10560000C07F00000000000000000000000000005B
:105610008003000080070000000600000006000074
:10562000000600000006000000060000000E00005A
:10563000001C0000001C0000000E0000000600001E
:105640000006000000060000000600000006000042
:105650008007000080030000000600000006000034
:105660000006000000060000000600000006000022
:105670000006000000060000000600000006000012
:105680000006000000060000000600000006000002
:1056900000060000000600000006000000060000F2
:1056A00000380000003C0000000C0000000C00006E
:1056B000000C0000000C0000000C0000000E0000B8
:1056C0000007000000070000000E0000000C0000B2
:1056D000000C0000000C0000000C0000000C00009A
:1056E000003C000000380000000000000000000046
:1056F00000000000000000000000000000000000AA
:105700000000000080380000807F0000004700009B
:105710000000000000000000000000000000000089
:105720000000000000000000000000000000000079
:1057300000000000070A0000A02D00080B12000066
:10574000783C00080000000030570008000000000E
:105750000000000001020304060708090000000021
:10576000010203040006101600061016433A2F55D6
:10577000736572732F736D6974682F53544D333290
:10578000437562652F5265706F7369746F72792FFC
:1057900053544D3332437562655F46575F46345FFD
:1057A00056312E32382E302F447269766572732F3F
:1057B00053544D3332463478785F48414C5F4472DD
:1057C000697665722F5372632F73746D333266344A
:1057D00078785F68616C5F63616E2E630000000023
:1057E000433A2F55736572732F736D6974682F5325
:1057F000544D3332437562652F5265706F7369740F
:105800006F72792F53544D3332437562655F46573B
:105810005F46345F56312E32382E302F447269760F
:105820006572732F53544D3332463478785F484154
:105830004C5F4472697665722F5372632F73746D77
:105840003332663478785F68616C5F7263632E63AD
:1058500000000000433A2F55736572732F736D6912
:1058600074682F53544D3332437562652F526570FF
:105870006F7369746F72792F53544D33324375626D
:10588000655F46575F46345F56312E32382E302FD3
:10589000447269766572732F53544D3332463478AF
:1058A000785F48414C5F4472697665722F5372632A
:1058B0002F73746D3332663478785F68616C5F671C
:1058C00070696F2E63000000433A2F557365727341
:1058D0002F736D6974682F53544D3332437562656D
:1058E0002F5265706F7369746F72792F53544D33F3
:1058F00032437562655F46575F46345F56312E32DC
:10590000382E302F447269766572732F53544D339D
:1059100032463478785F48414C5F447269766572EC
:105920002F5372632F73746D3332663478785F68E7
:10593000616C5F646D612E6300000000433A2F5577
:10594000736572732F736D6974682F53544D3332BE
:10595000437562652F5265706F7369746F72792F2A
:1059600053544D3332437562655F46575F46345F2B
:1059700056312E32382E302F447269766572732F6D
:1059800053544D3332463478785F48414C5F44720B
:10599000697665722F5372632F73746D3332663478
:1059A00078785F68616C5F636F727465782E6300EE
:1059B000433A2F55736572732F736D6974682F5353
:1059C000544D3332437562652F5265706F7369743D
:1059D0006F72792F53544D3332437562655F46576A
:1059E0005F46345F56312E32382E302F447269763E
:1059F0006572732F53544D3332463478785F484183
:105A00004C5F4472697665722F5372632F73746DA5
:105A10003332663478785F68616C5F7370692E63C7
:105A200000000000433A2F55736572732F736D6940
:105A300074682F53544D3332437562652F5265702D
:105A40006F7369746F72792F53544D33324375629B
:105A5000655F46575F46345F56312E32382E302F01
:105A6000447269766572732F53544D3332463478DD
:105A7000785F48414C5F4472697665722F53726358
:105A80002F73746D3332663478785F68616C5F753C
:105A90006172742E63000000B85A000800000020F4
:105AA00010000000C4010008C85A000810000020BF
:105AB000380B0000E00100080024F40001000000A1
:085AC0001000000000000000CE
:040000050800018965
:00000001FF
